:020000041102E7
:1000000003B40148019001BDFD11000003B4014893
:10001000019001BD7511000003B40148019001BDBC
:100020000D2D000003B40148019001BDE94C010011
:1000300003B40148019001BD1130000003B4014830
:10004000019001BD090E000003B40148019001BDFB
:1000500053B9000003B40148019001BD29B6000066
:1000600003B40148019001BD7582000003B401484A
:10007000019001BDFD5C010003B40148019001BD88
:1000800085C1000003B40148019001BD61D50000A5
:1000900003B40148019001BD1BBA000003B401483C
:1000A000019001BD3DBA000003B40148019001BDBB
:1000B0005944000003B40148019001BDB95E00003D
:1000C00003B40148019001BD810E000003B4014852
:1000D000019001BD0D52010003B40148019001BD22
:1000E000C1EC000003B40148019001BD75A90000F6
:1000F00003B40148019001BDC93E000003B40148AA
:10010000019001BD9DA9000003B40148019001BD0B
:10011000B30E000003B40148019001BD1156FF1F4A
:1001200003B40148019001BD116E000003B4014801
:10013000019001BDF97F000003B40148019001BDA9
:10014000C1A5000003B40148019001BD19070100D9
:1001500003B40148019001BDB352010003B401484A
:10016000019001BD7912010003B40148019001BD65
:10017000757A000003B40148019001BDF14300000D
:1001800003B40148019001BDC143000003B401481C
:10019000019001BD6944000003B40148019001BD14
:1001A0008BB9000003B40148019001BDD1D4000017
:1001B00003B40148019001BDCD4C010003B40148D6
:1001C000019001BD09B8000003B40148019001BDD0
:1001D0006189000003B40148019001BD2DFC0000BD
:1001E00003B40148019001BDEDB8000003B401481B
:1001F000019001BD39B8000003B40148019001BD70
:100200006DFE000003B40148019001BDF9FD00003E
:1002100003B40148019001BDA1E6000003B4014808
:10022000019001BD9946000003B40148019001BD51
:100230001547000003B40148019001BD614DFF1F47
:1002400003B40148019001BD75F0000003B40148FA
:10025000019001BDF5D5000003B40148019001BD36
:10026000C5F0000003B40148019001BD01EC00009D
:1002700003B40148019001BD6160000003B401486E
:10028000019001BD63EC000003B40148019001BD81
:1002900005FF000003B40148019001BD3161000079
:1002A00003B40148019001BD59E4000003B40148C2
:1002B000019001BDD5E4000003B40148019001BDE7
:1002C00001BF000003B40148019001BD21F100000D
:1002D00003B40148019001BDCDF1000003B4014811
:1002E000019001BDB9C0000003B40148019001BDF7
:1002F0004DF4000003B40148019001BDC1E20000CB
:1003000003B40148019001BD154D010003B401483B
:10031000019001BD8DE3000003B40148019001BDCF
:10032000A5FD000003B40148019001BDE53A0100BC
:1003300003B40148019001BD814EFF1F03B4014881
:10034000019001BDD968FF1F03B40148019001BDB0
:10035000F56AFF1F03B40148019001BDF556FF1F68
:1003600003B40148019001BDA93C000003B4014859
:10037000019001BD452CFF1F03B40148019001BD50
:10038000B937FF1F03B40148019001BDADAE0000B5
:1003900003B40148019001BD456B010003B401485D
:1003A000019001BD1132FF1F03B40148019001BD4E
:1003B0000D6CFF1F03B40148019001BD1D4B0100EE
:1003C00003B40148019001BDF54E010003B401489A
:1003D000019001BD434D010003B40148019001BDEE
:1003E000456CFF1F03B40148019001BD096CFF1F5C
:1003F00003B40148019001BD4551010003B4014817
:10040000019001BD1147010003B40148019001BDF5
:100410003D4B010003B40148019001BD014C0100B6
:1004200003B40148019001BDF94C010003B4014837
:10043000019001BD3522000003B40148019001BDC7
:10044000691F000003B40148019001BD4D1A00006E
:1004500003B40148019001BD5D17000003B40148D9
:10046000019001BD5125000003B40148019001BD78
:10047000594F010003B40148019001BD8D120000E5
:1004800003B40148019001BDDD52010003B40148ED
:10049000019001BD1D4D010003B40148019001BD53
:1004A000017F000003B40148019001BDE117000085
:1004B00003B40148019001BD7918000003B401485C
:1004C000019001BDD949010003B40148019001BD6B
:1004D000E928000003B40148019001BD554901001D
:1004E00003B40148019001BDC926000003B40148CE
:1004F000019001BDE122000003B40148019001BD5B
:100500003555000003B40148019001BDBD1800003D
:1005100003B40148019001BD8B52010003B40148AE
:10052000019001BD954BFF1F03B40148019001BD2F
:10053000B11F000003B40148019001BDAD210000CE
:1005400003B40148019001BD9947FF1F03B401485E
:10055000019001BD6127FF1F03B40148019001BD57
:10056000D554000003B40148019001BD19550000A5
:1005700003B40148019001BD3519000003B40148DE
:10058000019001BD311A000003B40148019001BD82
:10059000A946010003B40148019001BD25260000D1
:1005A00003B40148019001BD9928000003B401483B
:1005B000019001BD5952010003B40148019001BDF1
:1005C000291C000003B40148019001BD192200005C
:1005D00003B40148019001BD851F000003B4014828
:1005E000019001BD5147010003B40148019001BDD4
:1005F000FB21FF1F03B40148019001BDD521FF1F5E
:1006000003B40148019001BD2124000003B4014856
:10061000019001BDBD4A010003B40148019001BD34
:100620006DBC000003B40148019001BDD91F00005A
:1006300003B40148019001BD1DBC000003B4014892
:10064000019001BDB11D000003B40148019001BD3E
:10065000F525000003B40148019001BDE548000004
:1006600003B40148019001BD2951010003B40148C0
:10067000019001BDD91B0000FEB508AF70CF6F46D9
:1006800070C700F06DF80249FFF7BAFC0020FEBD0C
:100690001320000038B5044600F0C4FA014668464D
:1006A00001704470210A81706A4603210248FFF7F5
:1006B000ADFC002038BD00001B20000038B504460A
:1006C00000F0D6FA0146684601704470210A817034
:1006D0006A4603210248FFF799FC002038BD00005C
:1006E0001A200000F8B50746FFF796FC6946087027
:1006F000002815D100240E4D0E4E0EE0A1208000E2
:10070000296860434018C178002904D00522394681
:100710006A30FFF787FC641CE4B230788442EDD382
:100720006A4601210448FFF771FC0020F8BD000073
:100730003409FF1F1409FF1F1420000008B500280A
:1007400002D000F067FB00E01220694608706A469C
:1007500001210248FFF75AFC002008BD05200000D7
:10076000FFB50446354F0001C019807981B01546A8
:10077000022802D00C2005B0F0BD314A881F9042FB
:100780002ED2062D2CD3501D854229D88D4227D339
:10079000FF220499F432914222D80A990A291FD3E0
:1007A00081421DD82046FFF743FC0028E3D1A12059
:1007B0008000444323480068261834468034E07B98
:1007C000002802D0E07A00280CD0207D012809D032
:1007D0000A98C1000498401C68434000814203D835
:1007E0001220C8E73A20C6E77878174F01280AD9BF
:1007F0006804B988000C884203D3FFF71FFC002966
:1008000009D03B20B7E7BD80F08E10494000097841
:10081000FFF714FCF8600220207600206083308F00
:100820000021C01DE082A5830498E0830A982084FB
:100830003046FFF709FC00209DE70000300DFF1F48
:100840007B0C00003409FF1F300EFF1F1409FF1F2F
:10085000FFB583B0DB480090DB48129E02780C9D08
:100860000E9B1399012A20D000270770D7480478DF
:10087000092C78D00A2C76D00B2C74D00C2C72D08A
:100880000D2C70D0039AD248121F824246D2049A8D
:10089000121F824242D2049A039882423ED805989F
:1008A000002805D0012839D102E00C2007B0F0BDA6
:1008B000284333D00698002805D0012803D0032808
:1008C00001D002282AD10D98002805D0012803D094
:1008D000032801D0022821D1B1421FD3BD49981F5E
:1008E00088421BD20F98062818D301461920C00150
:1008F000814213D8994211D3FF221099F4329142C8
:100900000CD811990A2909D3814207D8CA00109836
:100910000F99401C48434000824201D81220C5E78D
:10092000AD48AE49027809788A4201D30720BDE775
:10093000A948AB4E407800280CD00F98B1884004ED
:10094000000C884203D3FFF779FB002902D03B203B
:10095000ACE708E00621082C01D0072C06D1A148FD
:100960000278002A01D02120A0E70170FFF772FB76
:10097000040058D098484178491C41702046FFF740
:100980006FFB20460021FF3081308B001B19FF33A5
:100990000133C26A491CDA660829F6DB00218B00A4
:1009A0001B19FF338133C26A491CDA600829F6DB60
:1009B0002079FFF75BFB002081000919FF3101312D
:1009C000401CCF660828F7DB002081000919FF31A1
:1009D0008131401CCF600828F7DB834821790174FE
:1009E00003994181049981810599C1737F49002050
:1009F00023180A5C6033401CC0B25A710528F7D333
:100A00002146653120460191FFF736FB2746203706
:100A1000F87F02280BD22046FFF734FB6E4841785E
:100A2000491E41707AE76F48077009203EE7704819
:100A3000002D0BD02978417069788170A978C17038
:100A4000E97801712979417169798171664A0D9955
:100A500011700D9900297DD0664A634913784B7057
:100A600053788B709378CB70D3780B7113794B716B
:100A700052798A71069901700D980099C007400E4D
:100A800008430699C907090E01430291FFF700FBCD
:100A9000E062FFF703FBA0624F48407801287AD05C
:100AA000B088E08630896087F08820874E4E707C61
:100AB00038745148C0688030818DB974008EA0862A
:100AC000FFF7F2FA0C21FFF7B9FA20466030491D12
:100AD000009081762520B07301203072474802993A
:100AE0008180801DFFF7E6FA002D0DD043492A785A
:100AF000881D0A736978C171A9780172E978417219
:100B0000297981726979C1723C48214612300422E8
:100B10002831FFF7D5FA39482146163003222C3107
:100B2000FFF7CEFA3549B87C48760846397D81769C
:100B3000797DC176014620462230027D0A77427DCA
:100B40004A773A7E8A777A7ECA771A31027E8A712C
:100B5000407E00E01DE0C87108460830052201997A
:100B6000FFF7AEFA0098397C807E4901C006C00EBE
:100B700008432249213188711448007800281DD08B
:100B80001F48012189030078FFF7A0FA00208DE6B5
:100B900001E01C4A61E70F98E0861199618710997E
:100BA0002187B080208FF080608F3081E08E0B49EC
:100BB00040000978FFF742FAF06077E72079FFF705
:100BC0008BFAE3E7052200001909FF1F1C09FF1F2C
:100BD000FD3F00007B0C0000300DFF1F1409FF1FBC
:100BE000300EFF1F2309FF1FD40BFF1F6009FF1FDB
:100BF0007809FF1F6B09FF1FB87EFF1F6C11FF1FD5
:100C00001B09FF1F6509FF1F70B50C460546FFF75E
:100C100069FA21462846FFF76BFA0446FFF76EFA99
:100C2000204670BD10B5114AA121890012684143C8
:100C30008C189D2189000959012901D00C2010BD73
:100C4000FFF7F6F90028FAD1E01DF9300279062104
:100C5000012A06D041710D212046FFF7F5F9002049
:100C600010BDFF20213001550221F5E73409FF1F97
:100C700070B50D46134AA1218900126841438C18B2
:100C80009D2189000959012901D00C2070BD002D3A
:100C900016D0FFF7CDF90028F8D110210B1A2A5CE5
:100CA0001B19E033401CC0B29A711028F6D3012101
:100CB000F820015505212046FFF7C6F9002070BD38
:100CC000122070BD3409FF1FFEB5089D099C174610
:100CD000002874D0002972D0002C02D0012C02D040
:100CE00003E02A2201E0FF220732921D0192354AD9
:100CF0000E461770344A106034480370344805704B
:100D000034480470002446E0A12080002546454375
:100D10002D48A121006889002818FFF7F5F92A4815
:100D20002D49006862002818FF308130C6620198A2
:100D3000361800208854511848702649097800292F
:100D40003BD0FF211131009121461C204143224814
:100D5000002220300D182A764254E0B20099FFF7A5
:100D6000D9F9686000202872E0B201220099FFF7EB
:100D7000D1F9E86000202874E0B202220099FFF760
:100D8000C9F968616968002919D0E968002916D095
:100D9000002814D0641CBC42B6DB00200F4D104A62
:100DA000014683009C186580401CD154C0B261701C
:100DB0001028F6D30020FEBD01E03421C3E7122045
:100DC000F9E700001409FF1F3409FF1F1509FF1F71
:100DD0001609FF1F1709FF1F6CC8FF1FFFFF000048
:100DE0004CCAFF1F10B5FB2908D8084B9A4205D8FA
:100DF0001B2903D3FF2349339A4201D2302010BD6F
:100E0000034B19825A82FFF78BF910BD4808000086
:100E10008410FF1FF8B53249097801292AD0022928
:100E200028D0032926D0042924D0052922D0062938
:100E300020D02C49097802291CD004291AD0012974
:100E400018D0032916D0062914D0072912D001780A
:100E5000254C8C462170467866708378A370C278E2
:100E6000E270017921714079204D6071AF79012FD5
:100E700002D008E00C20F8BD6746EF712E726B724D
:100E8000AA72E97228730622E91D1948FFF7CAF809
:100E90000622E91D1748FFF7C5F817480178012910
:100EA0000BD12178417061788170A178C170E178AF
:100EB00001712179417161798171104801780129AD
:100EC0000BD12178417061788170A178C170E1788F
:100ED000017121794171617981710020F8BD0000B3
:100EE0001C09FF1F2309FF1F6B09FF1FA60BFF1F14
:100EF0007211FF1F8A13FF1FBC0BFF1FD40BFF1FB4
:100F0000F8B5844657480F460178012914D00026C9
:100F1000554D06702878092838D00A2836D00B2875
:100F200034D00C2832D00D2830D0504C607A0028B4
:100F300004D001284BD101E00C20F8BD2078002816
:100F400005D0012803D0022801D003283FD16289AF
:100F50004748111F81423AD2A1890B1F834236D2E2
:100F6000914234D8002F01D0012F30D160460028A3
:100F70004FD001282BD1207A012807D0FFF7B2F8F3
:100F80002078012804D0032802D014E02120F8BDE5
:100F900038480178FF290ED14178FF290BD181789B
:100FA000FF2908D1C178FF2905D10179FF2902D194
:100FB0004079FF2809D0287825210126002808D06B
:100FC00007280ED008280CD014E0FFF797F812205D
:100FD000F8BDE671E773A17405202870FFF7A6F845
:100FE00013E02548C068808D400603D52348027869
:100FF000002A02D0FFF782F8C8E7A17406702048E3
:10100000012109030078FFF761F82672FFF776F8EF
:1010100025E0FFF767F82878052804D007280AD0CC
:10102000082808D00FE02E701648FFF785F81E201C
:10103000FFF788F807E011480121067010480903FE
:101040000078FFF785F826725820FFF787F80A48DE
:101050000670FFF753F80C4801680129FCD0002006
:10106000F8BD00001909FF1F1C09FF1FBC0BFF1F63
:10107000FD3F00006B09FF1FB87EFF1F2309FF1F04
:101080001B09FF1F001000409809FF1F38B51C46C0
:10109000049B00932346FFF767F8002812D10B4901
:1010A000002C0C700FD0022C0DD0094A13784B7015
:1010B00053788B709378CB70D3780B7113794B7115
:1010C00052798A7138BD034AF0E70000BC0BFF1F5C
:1010D0006B09FF1F6509FF1FFFB581B00446029829
:1010E0001F461646002814D0002E12D0002F10D014
:1010F0002046FEF79DFF00280CD1A120800044432C
:101100002C4800682418E51DF935287B002803D0F9
:101110000EE0122005B0F0BD2749002023180A1860
:10112000FF330133401C5278C0B25A730828F5D3FC
:10113000687BC00738D0002002992218095CC032B1
:10114000401CC0B211700828F6D320463178C03058
:10115000017271784172002010210B1A3A5C1B1940
:10116000E033401CC0B29A711028F6D32046B83044
:10117000FFF700F82046AC30FFF702F80C210F48CB
:10118000FFF704F800207B2108552146E031C8759F
:101190000876A621095D012908D02871032120467F
:1011A000FEF752FF0020B5E71120B3E701202871B8
:1011B0000A21F4E73409FF1F480EFF1F3811FF1FF3
:1011C000FFB50D46A12189004843234981B0096834
:1011D0001E464418002D09D0FF20D930015B03982A
:1011E000814203D3002E04D0012E02D0122005B07C
:1011F000F0BDE07800280AD00520C0012718174864
:10120000F9780078801C814203D30720EFE70220A1
:10121000EDE7FEF767FFF878A91E401CF870039809
:101220000870002E10D00120487020467C30091F25
:10123000FEF7B2FFFEF762FF09480078082805D0E4
:10124000072803D00020D2E70220EDE70021204646
:10125000FEF7A8FFF6E700003409FF1F1509FF1F7E
:101260001C09FF1F70B50446FF30FF300230406F8D
:101270000D46012812D1282D10D1A420005BE18851
:10128000401A1D4980B2884208D321466A3105229E
:101290000E46481FFEF78CFF002818D01749002083
:1012A000820052185278002A16D0401CC0B2102872
:1012B000F6D31348012189020078FEF707FF207951
:1012C000010110480918897902290DD00FE0314633
:1012D0002046FEF7D1FE70BD80002379421853806E
:1012E0000D5401205070E4E74178491E41702046BA
:1012F000FEF764FF70BD0000FF7F00004CCAFF1FB7
:101300001B09FF1F300DFF1FF0B505468DB0A03043
:101310000B902846FF300E300390092080012F18D3
:10132000E81DFF30FA300890E0380790C030EE1D1D
:10133000F9362C4680340990F0E0E07A0B2870D022
:1013400009DC0300FEF740FF0B37551C6EEAEABFCD
:10135000F0EFEED6EA0016286FD008DC0C286DD02E
:1013600011286CD014286BD01528E5D166E1182817
:1013700067D01A287CD01B287BD0FE28DCD119E24C
:10138000A07A012803D02846FEF724FF19E0FA4886
:101390008078002804D02846FEF722FF162106E0B8
:1013A000608A401E0004000C60827CD00CE228465B
:1013B000FEF71CFFF6E1A07A012804D02846FEF7CC
:1013C0001BFFA07200E2EC48807800280ED0207E3F
:1013D00040002076608B40006083A08B4000A0839B
:1013E000208C000120840120207510E02889E18AEA
:1013F00013E0A07A012803D02846FEF703FFE0E7B8
:10140000DD488078002806D00B9901208870284696
:10141000FEF7E6FE82E02889A18C8842C6D1282109
:10142000C5E784E0A07A01280CD02846FEF7F0FE3C
:10143000A07200207072B072C6E111E1C3E055E104
:10144000E9E027E1CC48C078002801D000202071D5
:10145000707A01280ED0B07A012813D0F07F0128CD
:10146000D5D0608A401E0004000C60826CD0ABE1D5
:1014700067E189E10020E06730600B990120887105
:10148000062148E02846FEF7ABFE0B990020887144
:1014900001207B214855207170790628287906D0D3
:1014A00000221A2100E03BE1FEF7B8FE36E0002200
:1014B0000621F7E72221FEF7B7FE31E100222221C3
:1014C000FEF7ACFE2CE1A07A012806D02846FEF7F4
:1014D000B1FEA0720020B07176E1B0790128C0D1D0
:1014E0002846FEF77DFE00203072F0717072B071F8
:1014F000B07213E0A07A012806D02846FEF7A0FEBD
:10150000A0720020F0715FE1F0790128A9D10B9958
:10151000002088710B212846FEF798FEE07B00280A
:1015200003D00AE740E014E03EE10DB0F0BDA07A40
:10153000012803D02846FEF78FFE42E78E48C07888
:1015400000288ED00321E6E7307901282879B5D12B
:10155000B0E7A07A012811D0884900202B180A187A
:10156000FF3301335278401C5A730828F6DB2846B3
:10157000FEF778FEA0720020307325E1307B012851
:1015800006D0608A401E0004000C608206D01BE179
:1015900029790020039AFEF76BFE38E7297922208B
:1015A000039AFEF765FEBBE0A07A012803D0284627
:1015B000FEF764FE05E77048C078002800D1EFE62A
:1015C0000120307323E7A07A012805D00120F075AF
:1015D0002846FEF759FEF4E6707D012806D0608AA1
:1015E000401E0004000C60820CD0EDE0B07D0128AC
:1015F000D3D1B08B0090738B327E29790020FEF717
:1016000049FE04E7B08B0090738B327E297922204B
:10161000FEF740FE84E0A07A012807D02846FEF7B6
:101620003FFEA072099900204874CDE05248C0786E
:101630000028C4D0099901204874E8E6A07A01285E
:1016400003D02846FEF732FEBBE64B48C0780028A0
:10165000B5D00999002008742879FEF72DFED6E64A
:10166000A07A012807D02846FEF72CFEA072089920
:1016700000200872A8E04048C07800289FD0089950
:10168000012008723E484079012886D1089900203F
:101690000872BCE6A07A012803D02846FEF718FE9F
:1016A0008FE63548807800281DD00798007B0028F9
:1016B00003D10798407B002808D0079901200874BF
:1016C0000899002008720899C871A0E60998417E1F
:1016D000079801730998817E079841730021284675
:1016E000FEF7FCFDECE72889718E96E6A07A0128CA
:1016F0000ED00898007A012814D00B988078012821
:1017000012D0207D01280FD0387E012811D05BE057
:101710001948C07800288CD007990120887276E695
:10172000222144E6232100E02A212846FEF7DCFDA1
:1017300047E6797E2846FEF7D7FDA072002078762E
:1017400042E0A07A012806D02846FEF7D3FDA07219
:101750000120387638E00848C078002899D1608A9E
:10176000401E0004000C60822ED106480422002195
:101770002818FEF7C5FDD3E7E010FF1F480EFF1F36
:10178000B87EFF1F56020000A07A012803D0284629
:10179000FEF7BCFD15E60F48C078002802D00020F7
:1017A000F87534E60120C0E62846FEF7B5FD0128AD
:1017B0008BD009E007990120C875FF2149314853B2
:1017C00004488078012801D00020AEE6079801780F
:1017D000EDE50000E010FF1FF8B547A0FEF7A2FD01
:1017E0004B4803684B4802784B4801784BA0FEF702
:1017F00099FD544C54A0A16DFEF794FD5BA0216AA5
:10180000FEF790FD62A0216CFEF78CFD69A0A16B34
:10181000FEF788FD70A0616AFEF784FD77A0616D18
:10182000FEF780FD7EA02168FEF77CFD85A0616843
:10183000FEF778FD8CA0616CFEF774FD93A0E16C5F
:10184000FEF770FD9AA0A16FFEF76CFDA14CA2A05F
:101850002178FEF767FD0025A44EA54F0FE0A120DB
:101860008000316868434018C078002806D02801FD
:10187000C019026929469FA0FEF754FD6D1C20780F
:101880008542ECDB9EA0FEF74DFD9EA0FEF74AFDD3
:101890000025A14E08E01C2068438019027E2946DD
:1018A0009EA0FEF73FFD6D1C20788542F3DB94A0DF
:1018B000FEF738FDFEF73CFD9A4EB069002815D0C2
:1018C00099A0FEF72FFD00250DE0B069EF00C25D85
:1018D00029469BA0FEF726FDB06906213818801C1A
:1018E000FEF72CFD6D1C20788542EEDBFEF72CFD0B
:1018F000FEF730FDF8BD00002D2D2D2D6C6C206401
:1019000062672073686F772D2D2D2D0A000000006F
:101910009809FF1F2309FF1F1C09FF1F6C6C5374DC
:1019200061746528312C3229206C6C5761697469A7
:101930006E674972712020203A202564202564209A
:1019400025640A00FC0FFF1F6C6C5F747269676787
:1019500065725F65727220202020202020202020C8
:10196000202020203A202564200A00006C6C5F7241
:1019700063765F7363616E5F726571202020202043
:1019800020202020202020203A202564200A00004A
:101990006C6C5F7263765F7363616E5F72737020ED
:1019A0002020202020202020202020203A202564D4
:1019B000200A00006C6C5F7263765F6164765F631F
:1019C0006E74202020202020202020202020202075
:1019D0003A202564200A00006C6C5F73656E645FBA
:1019E0007363616E5F7273705F636E74202020207A
:1019F000202020203A202564200A00006C6C5F65BE
:101A000076745F7368635F657272202020202020E7
:101A100020202020202020203A202564200A0000B9
:101A20006C6C5F73656E645F756E64697265637418
:101A30005F6164765F636E74202020203A20256405
:101A4000200A00006C6C5F73656E645F6E6F6E637E
:101A50006F6E6E5F6164765F636E7420202020205D
:101A60003A202564200A00006C6C5F636F6E6E5F25
:101A7000737563635F636E74202020202020202014
:101A8000202020203A202564200A00006C6C5F6C26
:101A9000696E6B5F65737461625F6661696C5F63D9
:101AA0006E742020202020203A202564200A000087
:101AB0006C6C5F72656A6563745F6475706C5F639C
:101AC000695F636E74202020202020203A20256446
:101AD000200A00001409FF1F636F6E6E5F72656D50
:101AE00061696E5B25645D203A0000003409FF1FC8
:101AF000300DFF1F202564202578202C00000000D9
:101B00000A0000006C6C4275665F52657320627556
:101B1000664E756D3A2000008CC8FF1F202564209A
:101B200025642C00B87EFF1F2D2D2D2D6C6C20649C
:101B30006576206C6973742D2D2D2D0A0000000030
:101B40005B25645D20562564202C3A001449134817
:101B500088631348134940304161134901611349B7
:101B60000F4A01621249803A116312490160134918
:101B7000114A0A60124A8A601249104A41621249A7
:101B8000403A5161114981601149816111494160B7
:101B9000124A114991601249C1617047354AFF1FCD
:101BA0008001FF1F8D100211010F0211D9100211C7
:101BB000CD22FF1F091302118158FF1F8002FF1F52
:101BC000A961FF1F4D4DFF1FFD63FF1F9168FF1FA0
:101BD00051080211BD4BFF1F651202118000FF1F4B
:101BE000E51B021170B5FEF77DFA904C00202568C8
:101BF0002060FEF7B5FB06462560FEF77FFA30460B
:101C000070BD8B49C968FF31813188657047F8B56F
:101C1000FEF7ACFB864D874A68721178022903D91A
:101C2000002801D101201070834900200446E9609A
:101C30008300401CCC50FF28FADDE8687F498823E8
:101C400019507F49C1627F490978002902D07C4937
:101C50001131C1620A210165117881637A49C1613C
:101C6000FEF78AFBE968794848611920800188619C
:101C7000084637228030C260082336220B64CA63CC
:101C80001E224A6436224260322202603B220364F2
:101C9000C263282242644122C26439228264322211
:101CA0004365026528228265022202664222C265DD
:101CB0001E22836642662822C26620224267422292
:101CC00002675A22436102613C2282611922920119
:101CD0000A605F4A0A63FF222D328A60CA60FF22CF
:101CE000F5320A615B4A8A647D22D2005A4EC2678D
:101CF000CE644A62594A8A623222CA6506224A651D
:101D00008A65CA1DF932022513604D664B25ED0028
:101D10008D660925CD66524D0D678C674B67AB10FC
:101D2000CB67504FFF313E604A4E86627D26F600FB
:101D30008667642646620526C66202260663C826B2
:101D40004663846338205060474810644B2080010C
:101D50009061B000D061581010627D200001506287
:101D6000D466956513665364D565146753671E2062
:101D700090663E4890673E485B008131D0670B60BB
:101D80008B604860FF20F530C86008614B20C000C0
:101D900010630E6538483749274A81603749803AD1
:101DA00011613549364A80318A62364ACA62364AFA
:101DB0008261364AC262364A02632F4A3548403A47
:101DC00050633548D0633548C861354890632A4927
:101DD0003448403188613549334888602648344961
:101DE000803841603349244A41633349C03AD16065
:101DF0003349324B204CCB63324B403C2363324B54
:101E00009362324AC263324AC260324A4A63324AF9
:101E1000E260324A8A63324A0A6332498163FEF7DA
:101E2000B1FA0120FEF7B4FAF8BD00009809FF1FCF
:101E3000B87EFF1F4A0AFF1F0004FF1F60D7FF1F65
:101E40006E0400001C7DFF1F3A07000080C3C9011B
:101E50009A02000050C30000280A00006A1800001F
:101E6000204E0000F009FF1F00400011DC050000BB
:101E700040420F00E551FF1F0001FF1FA525FF1F76
:101E80007D6EFF1F5171FF1FB122FF1F4524FF1FF1
:101E9000CD22FF1F1133FF1FD130FF1FF179FF1F2C
:101EA000DD77FF1F5522FF1FE50D02110002FF1F06
:101EB000394CFF1F694FFF1FF927FF1F090C021143
:101EC0000000FF1FDD6AFF1FA14DFF1F3555FF1FDB
:101ED000D94DFF1FE127FF1F8D4CFF1FC1110211BC
:101EE0008D27FF1FC163FF1F0A7802708A78427036
:101EF0004A88120A82700979C170042070470A78F2
:101F000002700988090A4170022070470A7802703D
:101F10000988090A41700220704709780170012080
:101F2000704770B50C46097801702188C51C090AF4
:101F30004170A17881706088611D000A28706D1C55
:101F400022792846FEF76EF8207921464019228929
:101F50000A31FEF767F8207921894018001D80B208
:101F600070BD10B500220EE093005B189C780470E1
:101F70005C88521C240A44701C7984709B88D2B2FD
:101F80001B0AC370001D0B789342EDD81806800D14
:101F900010BD0A7802700A88120A42708A7882702C
:101FA0004988090AC17004207047F8B50D460646F5
:101FB0004978012031700024761C16E069780129E7
:101FC00017D01221614349198A7832704A88871CD8
:101FD000120A7270B61C10223046091DFEF722F854
:101FE0001037B8B21036641CE4B22978A142E5D8A3
:101FF000F8BDA10049198A7832704A88871C120AF4
:102000007270B61C02223046091DFEF70BF8BF1C89
:10201000B8B2B61CE7E710B50C4609780170218804
:10202000090A41706288211D801CFDF7FBFF608852
:10203000801C80B210BD10B50C4609780170218853
:10204000090A4170A17881706188090AC170A2886B
:10205000A11D001DFDF7E6FFA088001D80B210BD88
:1020600010B50C46097801702188090A4170A178E1
:1020700081706188090AC170A288A11D001DFDF749
:10208000D1FFA088001D80B210BD0A7802700A88B6
:10209000120A42708A7882704988090AC170042045
:1020A000704710B50C460A88891CFDF7BBFF2088D5
:1020B00010BD10B50B788A7802705343DCB222460B
:1020C000401C091DFDF7AEFF601C10BD10B50C468D
:1020D000097801702188090A4170A17881706188AE
:1020E000090AC1702279611D001DFDF79BFF20794F
:1020F000001D10BD10B50B788A7802705343DCB216
:102100002246401C091DFDF78DFF601C10BD10B557
:102110000C460A88891CFDF785FF208810BD10B584
:102120000C460A88891CFDF77DFF208810BD10B57C
:102130000C46097801702188090A41706288211DC6
:10214000801CFDF76FFF6088801C80B210BD7FB5DA
:1021500015460446022901D0102903D1022B04D0D0
:10216000102B02D0002004B070BD994202D10A4663
:10217000294607E01029694607D000F00DF8102223
:1021800069462846FEF714F8EDE7104600F004F81B
:10219000102269462046F5E770B50C4605000CD0C4
:1021A000002C0AD0102206492046FDF73BFF287874
:1021B000207368786073012070BD002070BD00003E
:1021C0009ABE021110B50B460122024903F088F8AD
:1021D00010BD0000E91E021110B50A88173AE02A66
:1021E00005D80B460222034903F07AF810BD0220FD
:1021F00010BD0000FF1E021170B5064608880C468F
:10220000172812D30B4603220949304603F068F819
:10221000050008D1074920880988884200D2014674
:10222000304600F093FA284670BD022070BD0000D1
:102230000D1F0211307FFF1F10B50B4618220249F7
:1022400003F04EF810BD00001B1F021110B5002353
:102250001922194603F044F810BD000010B50A79A0
:10226000022A01D0022010BD0B460622014903F0CC
:1022700037F810BD231F021110B50A78002A05D0C7
:102280000B460722024903F02BF810BD022010BDB7
:10229000631F021110B50B460422024903F020F817
:1022A00010BD0000931F021110B54A78012A01D019
:1022B000022A08D10A78002A05D00B4605220349D4
:1022C00003F00EF810BD022010BD0000AB1F02117C
:1022D000024940008968085A70470000247FFF1FA8
:1022E00010B500231E22194602F0FAFF10BD0000AF
:1022F00010B50B461D22024902F0F2FF10BD00008E
:102300001720021110B50649002089681723054AD5
:1023100002E044000B53401C1478A042F9DB10BDCE
:10232000247FFF1F0480FF1F042901D00420704771
:1023300001781170837841781B02C9185180C078E8
:102340001071002070470098022B01D004207047C4
:1023500011785278120289180180002070470229F2
:1023600001D00420704701784078000208181080DE
:10237000002070470098012B01D00420704711788D
:10238000017000207047002901D004207047002010
:10239000704770B5049C1E461546062B1BD3697802
:1023A0002878090240182080E978A87809024018A6
:1023B000608002222271291D601DFDF733FEB61FC9
:1023C000B2B22281F02A06D82046A91D0A30FDF7B4
:1023D00029FE002070BD042070BD0098042B01D0A0
:1023E00004207047537811781B02C9180180917836
:1023F000D2781202891841800020704710B50298E7
:102400001146022B0FD34C780A782402121902804D
:102410009B1E9AB24280F42A05D8001D891CFDF744
:1024200001FE002010BD042010BDF8B584890D46C2
:102430000646002C26D0B2681778380620D50C2C1A
:1024400020D90C3CA4B210190090012170882346B9
:1024500002F09EFA002811D0022028707806C00FE2
:102460006870B806800EA870641E2004000CA88056
:1024700001D0B068401CA8600020F8BD0120ECE746
:102480000020EAE70120F8BD10B502981146042BA0
:1024900014D34C780A78240212190280CC788A78F6
:1024A0002402121942801B1F9AB28280F22A05D898
:1024B000801D091DFDF7B6FD002010BD042010BDD4
:1024C0000098042B01D004207047537811781B0228
:1024D000C91801809178D2781202891841800020B1
:1024E000704770B50546144603290CD3491ECEB279
:1024F00029786180F52E06D8002904D03046FDF7F2
:102500009DFD002901D0042070BD20703246691C59
:10251000201DFDF787FD002070BD10B50298114603
:10252000062B03D0142B03D0042010BD022200E0A0
:10253000102202714B780A781B02D2180280CB78E5
:102540008A781B02D21842800279401D091DFDF7CE
:1025500069FD002010BD70B50546144603290CD353
:10256000491ECEB229786180F52E06D8002904D004
:102570003046FDF763FD002901D0042070BD2070B6
:102580003246691C201DFDF74DFD002070BD000086
:1025900030B5039CD80718D1D805010E022914D3F1
:1025A0000B488088814210D8F6200155002008E0B1
:1025B000557813782D025B194500401C6353C0B257
:1025C000921C8842F4D3002030BD042030BD0000AE
:1025D000247FFF1F0098022B01D004207047117840
:1025E00052781202891801800020704770B5144695
:1025F00002460498022B18D3667825783602AD1966
:1026000005800546E0352A766976002A0BD0E82158
:102610009B1E9AB242808A4207D8A11C001DFDF77A
:1026200001FD002070BDF421F2E7042070BD000020
:1026300010B50B461622024902F052FE10BD0000F2
:102640003720021110B50B461722024902F048FE4E
:1026500010BD00006120021110B50B460C2202498A
:1026600002F03EFE10BD00008B20021110B50B469B
:102670000D22024902F034FE10BD0000A320021119
:1026800010B50A79102A03D0022A01D0022010BD09
:102690000B461022014902F023FE10BDCD2002118D
:1026A00010B50A78002A05D00B461122024902F023
:1026B00017FE10BD022010BDB320021110B50A791B
:1026C000102A03D0022A01D0022010BD0B46082296
:1026D000014902F005FE10BDCD20021110B50A78A7
:1026E000002A05D00B460922024902F0F9FD10BD6F
:1026F000022010BDF520021110B50B460F22024931
:1027000002F0EEFD10BD00000F21021110B50B46C6
:102710000B22024902F0E4FD10BD00001F2102114E
:10272000F72800D9F720084A01461080401EC31739
:102730009B0F18188003000C5080491EC80F4018CA
:10274000C003000C90807047247FFF1F034A13884A
:10275000994202D89268400011527047247FFF1FAF
:1027600070B50B46E0331C7E1222012C0AD10A4DB3
:1027700042002D684C88AA5A0F3A944201DD02208B
:1027800070BD92225B7E012B01D140231A430B4680
:10279000024902F0A5FD70BD2C7FFF1F2F21021101
:1027A00010B500231322194602F09AFD10BD000057
:1027B00010B50249087003F069F910BD307DFF1FA4
:1027C000FFB593B005460020109011901E4610AA48
:1027D000284600F01DFA044643A0FDF7DFFD062160
:1027E00010A8FDF7ABFD0A2C56D2204603F02DF9B8
:1027F0000546082E19D00020009033462A4621466F
:10280000159803F009F8142200210BA8FDF778FDB4
:1028100020460621484307462430C0B20BAA1021A7
:10282000FDF7C2FD002802D014E00120E4E71022E9
:10283000FF210BA8FDF7BEFD00280BD12537F8B20C
:102840000FAA0421FDF7B0FDE907C90F0BAA1598DF
:1028500000F09CFF7034E0B201AA2821FDF7A4FD2E
:10286000002811D101A803F002F9002401AFA00053
:10287000C0190188002903D08278159801F00EFA5A
:10288000641CE4B20A2CF2D3A80707D518480178D3
:10289000159801F0F1F901E0082E02D0042E17D0AE
:1028A0001FE013481599401C405C022819D10022F2
:1028B0002946159802F026FF0D48C069002810D05F
:1028C0004368002B0DD0002211461598984708E068
:1028D00007481599401C405C022802D1084603F0C5
:1028E0000DF9002017B0F0BD7265733A0A000000C0
:1028F000307DFF1F70B50024054600290BD1084923
:102900001046FDF79BFB0846294600F023FE040015
:1029100003D00121284600F05FFF204670BD000073
:1029200040420F0070B50C46080428D515480078C1
:10293000FDF746FD05001ED00178B02908D0B12969
:102940000ED0D02914D100F01FF8002810D112E0C9
:1029500001791E290CD16888002100F0B5F907E043
:102960000179002904D10289C188688800F0A0FAA1
:102970002846FDF72BFD0120C003604070BD0020FC
:1029800070BD0000307DFF1FF0B504468078954F84
:10299000801F85B07D1E00260300FDF715FC0AFD93
:1029A0001111891B06CD115E9A11E869002808D023
:1029B0000668002E05D0637B227B6189E01CB0474E
:1029C0000DE16189A86900F0C5FD0028F8D0608993
:1029D0000121D8E0607800282DD1A079C0072AD045
:1029E000A088804980001F310858002823D10E227A
:1029F00000216846FDF784FC6169002903D00622A6
:102A00006846103107E0A08806F018FA0028D7D0F1
:102A1000C11D06226846FDF705FB69468889A17934
:102A20004907C90F0843694688812146684602F074
:102A3000ABFD002809D0E8690028C1D04368002B0D
:102A4000BED06278A08801216FE0A0882246694646
:102A500003F026F9002005B0F0BD6078062817D1F4
:102A6000A08806F0EBF9060012D0A87B012804D05C
:102A7000022808D003280BD114E0B179A0880022E5
:102A800002F040FE04E0A1883078052200F0B4FE98
:102A9000E86900281CD04368002B19D06278A08810
:102AA000022142E0002211464F4800F043F9EAE7D4
:102AB000E0780022211D00F0ABF80A2808D2062198
:102AC000484325302246C0B20C320421FDF784FC75
:102AD00085E0687A0028A08801D0A97A53E0395CA3
:102AE000002924D006F0AAF90646A07AC0070DD026
:102AF000002E74D0B079002808D0A189890505D4AA
:102B00006A46F11D00F084F8002812D02246B179FF
:102B1000A088083202F0F6FDE86900285FD043681B
:102B2000002B5CD00022A0881146984757E0052171
:102B300029E0A088032126E0A58801962846029670
:102B400006F07CF904004AD0785D022847D0A079CD
:102B500001AAE11D00F05CF806460A280AD202F03C
:102B600074FF01210246009108233146284602F0F5
:102B700053FE34E0785D002803D0012806D02EE013
:102B80000AE00521284600F027FE28E0A17900226E
:102B9000284602F0B7FD22E000F0BCFC00281ED160
:102BA000287C012805D0114D0024285D012809D07A
:102BB0000CE002F09DFE2E740A2200210B48FDF766
:102BC0009FFB07E0204602F09FFE2E55641CE4B2F6
:102BD0000A2CEAD35020FDF705FC02F057FF012034
:102BE00039E70000317DFF1F090400008C9AFF1FA8
:102BF00010B5064CE0612178FF2905D0262000F0B1
:102C0000B5FD207800F0E8FF10BD0000307DFF1F0B
:102C1000F0B50A2485B016460F46002807D00128D3
:102C200005D00A25022810D0032847D11FE0084606
:102C300002F0CAFE04460A2840D2002E3ED00622E8
:102C400039463046FDF7EEF938E01E4F002400917A
:102C50000E206043C0190622801D0099FDF7A8FAD6
:102C6000002823D1641CE4B20A2CF1D31CE0002418
:102C70002046062148432330C0B26A461021FDF7A2
:102C800093FB00280CD11022FF216846FDF792FB30
:102C9000002805D13946684600F01AFD002805D005
:102CA000641CE4B20A2CE3D32C4607E00A2C05D2BC
:102CB000002E03D03146204602F0ACFE204605B07F
:102CC000F0BD0000009AFF1F70B50E46174915258C
:102CD000884212D1002432460221204602F0DCFD57
:102CE000002800D00025641CE4B20A2CF3D3002E87
:102CF0001AD00F4806F014F916E006F09FF8040009
:102D000011D0A0790022E11DFFF782FF0A2804D22A
:102D10003246022102F0C0FD0025002E04D02046DC
:102D200002F0E2FE00E01425284670BDFFFF00001F
:102D3000E95A0211FEB5154601229202821A0024B8
:102D40000127584E1300FDF73FFA110A151A2128E2
:102D50002F373E434B767E858DA29956A2000129DE
:102D600070D1297802296DD84E480122401CFDF708
:102D7000C7FA94E0022965D1288870828FE0012982
:102D800060D1287801285DD8B07088E001297CD115
:102D90002878042879D8F07081E0012975D1287845
:102DA000012872D830717AE010296ED1102229469C
:102DB0003D48FDF737F972E0012966D128780128EE
:102DC00063D870716BE001295FD12878F07266E0FA
:102DD00004295AD135492868884256D8B0615EE046
:102DE000002952D100F096FB002801D0377456E03C
:102DF00002F07EFD19E0072947D10622691C6846CA
:102E0000FDF7F6FA287800226946FFF701FF05462C
:102E10000A280ED200F07EFB002803D022489C3006
:102E200047553CE0284602F06FFD5020FDF7DAFAE6
:102E300021E0022433E0012927D12878012824D871
:102E400070722CE021E001291FD1287809281CD8B4
:102E5000B07224E0012918D12878C11F092914D89B
:102E600030731CE0012910D1F07B2978F173002820
:102E700015D1012913D102F009FE10E0012904D176
:102E80002878032801D8B07309E0182407E0272820
:102E9000CFD20229CDD1298800F068FC0446204613
:102EA000FEBD0000307DFF1FF099FF1F3F420F0065
:102EB000F8B50F4613491525164688420DD1002452
:102EC00032463946204602F03BFE002800D000255D
:102ED000641CE4B20A2CF3D312E005F0AFFF002823
:102EE0000DD08379C11D00221846FFF791FE0A28F4
:102EF00006D23246394602F023FE002500E01425B2
:102F00002846F8BDFFFF000010B5044602F0AEFFF2
:102F1000002817D00079FDF771FA0B48002106222E
:102F20004A4312185288A24206D100220623D243F5
:102F300059430818428003E0491CC9B20429EED362
:102F4000002010BD122010BD949DFF1F3EB5084CFF
:102F500065786C4625706070A170E2700622194693
:102F600001A8FDF75FF8684600F03AFA3EBD0000A0
:102F7000407EFF1F70B50949094C48700021094A7D
:102F8000FF2506234B439B18491C5C80C9B21D7169
:102F90000429F6D300F096FB70BD0000407EFF1FB1
:102FA000FFFF0000949DFF1F70B50C4608040ED56E
:102FB0000B484078FDF704FA050004D002F016FF34
:102FC0002846FDF703FA0120C003604070BD60048D
:102FD00003D501208003484070BD002070BD000073
:102FE000407EFF1F10B51346012200249202821A70
:102FF00009D0012A0DD01148022A13D0042A16D074
:103000000224204610BD102913D1102219460C4865
:1030100005E010290DD10A48102219461030FDF79D
:1030200001F8EEE7042904D119688160E9E7012974
:1030300001D01824E5E719780170E2E7407EFF1F10
:10304000AC9DFF1F1CB5084C002800D060600649ED
:1030500006480831019103460090103B2278082170
:10306000607800F045F91CBD407EFF1FBC9DFF1F2E
:1030700038B5054B5C786B461C7058709970DA70E7
:10308000684600F0E7F838BD407EFF1F014610B5E6
:1030900002481322407800F0AFFB10BD407EFF1FB6
:1030A0003EB50024069D019400950294FDF7E4FAD4
:1030B0003EBD0000F8B504462F480F4600780228B0
:1030C00005D0012803D0082803D1002F01D01220F9
:1030D000F8BD002C08D0294D2088EA68810051589D
:1030E000002903D01120F8BD0220F8BD05F0A6FE8E
:1030F00006003BD02C20FDF787F92188EA6889007B
:103100005050002834D02C220021FDF7F9F82088F7
:10311000EA68810051581C2248802088E9688000B4
:103120000858211D001DFCF77DFF2188EA688900F1
:103130005158022008702288E96890000B58707975
:103140001B1D002816D000200D49097801F0C4FB92
:103150000546002F03D03946304607F06BFB002DA3
:1031600002D0208802F0EAFE2846F8BD1420F8BDFF
:103170001320F8BD0120E7E7457FFF1FA87FFF1F51
:10318000D57FFF1FFFB5204D81B028781E4617461A
:10319000022823D0012821D0002F22D0019805F049
:1031A0004DFE04001FD0606A002801D0FDF732F9FF
:1031B0001C213846FDF734F96062011E15D02878CD
:1031C000000714D5002E12D0887E00900B461233D3
:1031D0000A8A019807F012FE014609E0122005B0A4
:1031E000F0BD0220FBE71420F9E71320F7E70021E8
:1031F0002079042210432071029A002A02D0022270
:10320000104320710846EAE7457FFF1F10B50548C7
:103210000078000701D5044800E0002003F00EFB11
:1032200010BD0000457FFF1F3C7FFF1F10B5FEF75C
:10323000E8FC06480A210078084204D0044803F05C
:10324000F7FA002010BD012010BD0000457FFF1FD0
:10325000347FFF1F38B5234D04462868002801D06D
:10326000112038BD20480A210078084201D11220DF
:1032700038BD0420FDF7C8F8286000282FD00422AC
:103280002146FCF7CFFE00F045F9002805D00C20C0
:1032900000F028F905460D2007E06078022812D0DA
:1032A000102000F01FF90546112000F01BF902461E
:1032B000E078002800D0012000900C480078002819
:1032C00007D0012306E0122000F00CF90546132078
:1032D000EBE70023A0782946FDF7A8F838BD1320B6
:1032E00038BD0000A07FFF1F457FFF1F467FFF1FE7
:1032F000FFB51E4681B017460D4602240B00FCF7B1
:1033000063FF0D210B0B0B0B210B210B0B21210854
:1033100021000EA0FDF742F82946019800F0FEF8C2
:1033200004000FD130460B9A0A9900F0D5F93846BF
:10333000FFF77CFFFFF76AFF01F0F0F900F02EF9CC
:1033400001F08EFA204605B0F0BD00004741505F05
:10335000446576696365496E69743A204741505FF8
:1033600050524F46494C455F43454E5452414C20C4
:103370007C204741505F50524F46494C455F504575
:10338000524950484552414C200A000070B5104C3B
:103390002168002904D00978814203D0032070BD40
:1033A000122070BD0B4D02212878FCF7D1FE0A488F
:1033B0000026468004212878FCF7CAFE07480680CC
:1033C0002168032048700020FDF736F870BD00002A
:1033D000A47FFF1FD57FFF1FB87FFF1F487FFF1F00
:1033E000F0B505463B4889B00078000702D41220AA
:1033F00009B0F0BD02F014FE002801D01020F7E75C
:1034000000F088F834490978884201D31520EFE7A5
:10341000324C2068002801D01120E9E70A20FCF78F
:10342000F3FF2060002851D00A222946FCF7FAFD5C
:1034300020684078002805D00E2000F053F808904E
:103440000F2004E00C2000F04DF808900D2000F053
:1034500049F8054622480078002835D001261C206E
:1034600000F040F804901B2000F03CF80390192075
:1034700000F038F802901A2000F034F807461620C1
:1034800000F030F80190152000F02CF80090216831
:10349000C878091D02F035F8034602A807C804974A
:1034A00005AF07C72268019900980391141D029087
:1034B00001960094927829460898FCF7C3FF04000F
:1034C00005D002F05FFD02E00026C8E71324204685
:1034D0008EE70000457FFF1F0480FF1FAC7FFF1FAA
:1034E000467FFF1F272803D202494000085A704731
:1034F00001487047507FFF1FFFFF000010B5044CCC
:103500006070FCF7A5FF0521607801F015F810BD8B
:10351000D47FFF1F10B505F0EDFC10BD70B50C4653
:1035200005461C2200210948FCF7EAFE0848057000
:103530004470FCF793FF0549002803D00020087071
:10354000122070BD01220A7070BD0000ACCAFF1FBE
:10355000447FFF1F7FB504460D46084605F06EFC0C
:10356000002805D00C48844204D9022004B070BD64
:103570001220FBE7102200216846FCF7C1FE6846D6
:103580000470210A4170210C8170210EC1702946FE
:1035900001F0D4F8EAE700003F420F0070B50F4C8D
:1035A0000025A068002802D0FCF734FFA560E06881
:1035B000002802D0FCF72EFFE560094805210078BD
:1035C000084206D00548103003F03EF901F0B2FF82
:1035D00070BD002003F038F9002070BDB87FFF1FD8
:1035E000457FFF1FFEB5344D0C46080419D5687899
:1035F000FCF7E6FE0121C9034C40064600280ED028
:1036000003F00CF8002807D12878FF2804D03146B1
:10361000FCF72AFF002802D03046FCF7D7FE2046F0
:10362000FEBDE007012700280AD0A868002804D0C2
:103630004168002901D00020884720467840FEBD1F
:10364000A00709D56868002804D04168002901D086
:103650000120884702202AE060072AD5174E3088CB
:1036600000281FD0401E0004000C30801ED102F044
:10367000CFFC002809D0124807706868002804D0E1
:103680004168002901D00120884702F09BFC69466F
:1036900000F0C2FF684602F0ABFF1D20FFF722FFDB
:1036A000308003E004216878FCF752FD042060407C
:1036B000FEBD0020FEBD0000D47FFF1F487FFF1F1E
:1036C000477FFF1F0149087070470000D47FFF1F2C
:1036D00010B501F09FF810BD70B50E4C0B46261DBD
:1036E00007C60546102200211846FCF763FE012894
:1036F00003D11021A06806F023FE102200212846E5
:10370000FCF758FE012803D11021606806F018FE6E
:1037100070BD0000ACCAFF1F38B5054610480C4606
:103720000078400701D4122038BD284605F086FBFA
:10373000002812D00B48A90000684058002801D08A
:10374000817D00E02146684607F0B2FB064B6A46E1
:103750000221284607F00EFB38BD142038BD0000BA
:10376000457FFF1FB47FFF1FC1B30211272807D277
:10377000044A914204D0044A40001152002070478C
:1037800002207047FFFF0000507FFF1F70B50E46FC
:10379000104915460978022916D0012914D0002DA8
:1037A00014D005F04BFB040012D0002E03D020797A
:1037B00002210843207110222946A018FCF732FC90
:1037C00028692062002070BD122070BD022070BDEB
:1037D000142070BD457FFF1F38B50C46054605F027
:1037E0002DFB002806D0684604706946284607F07D
:1037F000AFFA38BD142038BDF8B50D4617461D493F
:1038000006461B4A12248868954208D100282DD00C
:103810000268002A2AD029463046904723E0144AFD
:10382000521C954213D1002807D00268002A04D008
:10383000294630469047040005D03946304601F00D
:1038400053FE040012D10B48067047700EE0284664
:1038500005F0F4FA002809D00078B04205D13946C5
:103860002846FCF707FE044600E003242046F8BD86
:10387000FEFF0000A87FFF1F014610B50020C9070A
:1038800004D0034A0421034800F0ACF910BD000045
:1038900054BE0211FC7DFF1F70B50F4D0F4CA87078
:1038A00029461831204600F01DF8002128460B4615
:1038B0001030CA0084521218491C09065360090EC0
:1038C000F7D0012004F002FCA87800F0EBFB0448DC
:1038D00005F040FB70BD0000DC7DFF1FFFFF000016
:1038E000E178021170B50A4C0025A04209D10020F0
:1038F00082008C525218401CC0B295700228F7D337
:1039000070BD03F0BCFF0028FAD00480857070BD44
:10391000FFFF0000F8B50E460746069900240798F9
:10392000002902D00B242046F8BD022B01D00D2423
:10393000F9E711785278120289188DB2294681432D
:1039400001D08024EFE73846F16800F03DF9A84245
:10395000E9D02A463846F16800F0CCF90400E2D1FB
:1039600071892A46384600F06BF9DCE770B50C46E1
:10397000080412D50A488078FCF722FD050008D01B
:103980002878B02802D1284604F096F82846FCF79B
:103990001DFD0120C003604070BD002070BD00000F
:1039A000DC7DFF1FFFB587B0087A0025109E1C46FE
:1039B0000F46C0060DD5099803F05AFF030006D044
:1039C0000A22394607989847050035D101E00E25AF
:1039D00032E0387802281DD17868292201784078B1
:1039E00012020002081880B2811A90427ED009DCCF
:1039F0007249401A23D0012821D0022851D003282F
:103A000008D125E0012972D0022971D003296DD097
:103A100004296ED0099803F053FF0028D7D0056819
:103A2000002DD4D01299119801910090334622466E
:103A300039460798A847054628460BB0F0BD1198AF
:103A4000002873D1F868017831800278416897E0E6
:103A5000119800286AD101203080F8680021007890
:103A600020707889401C80B200F0CAF900280FD07D
:103A7000318802788918891C3180817A6170418986
:103A8000090AA17002784168E01CFCF7CBFAD3E781
:103A900030880422001D30800021601CFCF730FCBF
:103AA000CAE71198002872D1F86804A9008800902C
:103AB00004203080009820700098000A6070009800
:103AC00000F09EF9070028D0F86805906846028A41
:103AD00003AB3B49384600F0EBF900280FD13B78A7
:103AE000022138487A68FEF732FB03E027E031E034
:103AF0001DE049E0002802D13148694688810598D7
:103B0000007802280CD1059802224168201DFCF79C
:103B100089FA3088801C308002E0694600988881EC
:103B200068468089A070000AE07085E72FE0119850
:103B300000282CD1F968079800F046F804E01198A5
:103B4000002824D1F8680088022131802070000A02
:103B5000607071E7F868FCF793FC1199C0B281427C
:103B600010D8814201D1002206E0129A89188142C0
:103B700002D31199401AC2B23280F968119809181B
:103B8000204682E7072557E71198002801D00B252A
:103B900052E70721F868318001782170417861701F
:103BA0008178A1704188090AE170017921718179D8
:103BB0006171C088000AA0713EE700000028000083
:103BC000FFFF000012BF021110B503F058FE0028DD
:103BD00000D0807810BD00000149087070470000D7
:103BE000DC7DFF1F7CB51446050019D068460195A1
:103BF000018000F05DFA03001DD1002C1BD06D89FF
:103C0000002D0DD00C20FCF7FFFB00280AD000236C
:103C100003608580094A84609168002904D006E029
:103C2000022308E0132306E0906004E011460A68CE
:103C3000002AFBD1086018467CBD0000DC7DFF1F18
:103C4000F8B50C4C0746207815460E46FF280FD0D5
:103C50000A20FCF71BFC01000AD0B12008700020EC
:103C6000487008714F80CE800D812078FCF7FCFBF6
:103C7000F8BD0000DC7DFF1F70B50C460546064907
:103C8000FFF7A2FF800704D52146284600F064FA1A
:103C900070BD012070BD0000F47DFF1F1CB56B4698
:103CA0001A71120A5A7100220092022301AA00F02E
:103CB00001F81CBDFFB583B008461F4601A90C9E44
:103CC00000F09EF8050012D06846808803F0F8FDE9
:103CD00000280AD04468002C07D000963B462946AD
:103CE000059A0398A04707B0F0BD0E20FBE701201E
:103CF000F9E7000070B514460E46054603F0BFFD17
:103D0000002806D13146054803F0B9FD002803D04C
:103D100005808470002070BD112070BDFFFF000081
:103D200010B50178B0290BD14178002908D101796B
:103D3000122906D01B2903D14088012100F078FB0D
:103D400010BDFF210231095C0129F5D010BD10B56D
:103D500086B06C462180628002212171032161714D
:103D60002821A1710022694603F018FD06B010BD9C
:103D7000F0B58BB001236A4693819B1ED381022349
:103D800013740023537428230D469374064603AF1F
:103D900002A903F0DFF804000CD139463046FEF7E3
:103DA0006FFC040006D1054B11223946009502989C
:103DB00004F0C0FA20460BB0F0BD0000E32402116D
:103DC000FEB50E461546074601A903F0C3F80400E8
:103DD0000FD131463846FEF7FFF9040009D10649F4
:103DE00030880880054B032231460095019804F085
:103DF000A1FA2046FEBD0000307FFF1F5F230211A5
:103E0000F0B58C4610494B6819E09F687C89A04248
:103E100014D39E883119814210D900220CE011017F
:103E20007D186989814205D16046002800D0048050
:103E30002846F0BD521C92B29642F0D81B68002B67
:103E4000E3D10020F0BD0000E87FFF1FFFB5174859
:103E500081B00A9F446824E000251EE0A068290183
:103E6000461870890199884215D30299884212D860
:103E70000498002807D031787068049B039AFEF7F5
:103E800066F9002807D0002F02D0A068408938804A
:103E9000304605B0F0BD6D1CADB2A088A842DDD89B
:103EA0002468002CD8D10020F3E70000E87FFF1F32
:103EB000FEB5174600256A469580044640891D4A8E
:103EC0001E46904208D001AA0092401C237880B27E
:103ED0006268FFF7BBFF0546237802211648626837
:103EE000FEF735F9002807D12378022113486268CC
:103EF000FEF72DF9002801D060890EE02378022119
:103F00000F486268FEF723F900280DD0002D03D07A
:103F100068468088B84203D0384604F0EBF904E0E4
:103F20006889401E80B200E06089002E00D0308099
:103F30002846FEBDFFFF000010BF021112BF021194
:103F400016BF0211FFB581B00F461E4614466946E2
:103F5000019803F015F8050018D1002C06D00122B5
:103F60001021019804F044FF05000FD13946019853
:103F7000FEF7BEF9050009D1009CFF2E06D02146B0
:103F80001E22A31C034804F0C1F9E670284605B0C0
:103F9000F0BD0000F981021110B505490870042137
:103FA00000F0CAFA00F038F8FEF7ACF910BD0000D6
:103FB000F47FFF1FF8B50024134D2646FF2715E0B8
:103FC000FF200D30696860434018002C19D00F495C
:103FD000018086704772FF21077209310E54FC225E
:103FE00000210C30FCF78CF9641CE4B22878844280
:103FF000E6D3074803F006FC064804F0ABFF0020B8
:10400000F8BD0249491EE3E7E07FFF1FFFFF000004
:10401000F96D0211416D0211F8B50F4D0D4B0020E5
:104020006E1C1C78FF2209E09F688100C9190028D6
:104030000ED00E80CA70401C8A70C0B2A042F3D36A
:10404000064803F0E5FB064804F084FF0020F8BDB5
:104050000D80EFE7E87FFF1FFEFF000025820211C1
:104060007981021170B50C46080411D50948007811
:10407000FCF7A6F9050007D00178A02901D103F0CB
:10408000DBFA2846FCF7A2F90120C003604070BDAE
:10409000002070BDF47FFF1F014948707047000089
:1040A000E07FFF1F0149487070470000E87FFF1F55
:1040B00070B50546008800281DD068680221037885
:1040C00042682248FEF743F8002808D168680221B8
:1040D000037842681E48FEF73AF800280BD01D4CC2
:1040E0006088002805D0012229881204101A814214
:1040F00003D9012070BD022070BD0C20FCF784F9AB
:10410000060001D000200BE0132070BD01016B6898
:1041100062880A315A526188491C401C618080B211
:1041200029888142F2D80020306008222946301DBB
:10413000FBF778FF6068002802D1666004E008465B
:1041400001680029FBD10660002070BD10BF02117C
:1041500012BF0211E87FFF1F70B5BEB00D460646C4
:10416000002402230E4A0F4901200094FFF76EFE3F
:10417000002812D040896A46108004205080012017
:1041800010715471FF209071D0712B460022694646
:104190003046FFF7D7FE3EB070BD0120FBE70000C0
:1041A0002EBF0211FFFF00000649496806E08A6839
:1041B0005289824201D18888704709680029F6D166
:1041C00000207047E87FFF1F10B51422114201D074
:1041D000012202E04A0604D50022102104F008FE64
:1041E00010BDC80701D0002010BD022010BD10B5C1
:1041F00014468A0604D50122102104F0F9FD10BDF1
:10420000882211420ED008220A40102104F0F0FD4D
:1042100000280BD0E034617E0029F0D0217E0129F6
:10422000EDD103E0880701D4032010BD002010BDAC
:10423000F8B50D460646694602F08CFE172808D0F0
:104240002C46E034207E002802D1607E012801D077
:104250000220F8BD29463046FEF782FAF8BD00007C
:10426000014610B50020C90704D0034A07210348BE
:10427000FFF7B8FC10BD000040BE0211687DFF1FB3
:1042800070B50D46164600241D490300FBF79CFF40
:1042900008051234341934222934152D23D8162256
:1042A00000211848FCF72CF82A4631461548FBF740
:1042B000B9FE22E0022D16D111491088103908806C
:1042C0001BE0082D0FD10E48082231460838FBF7B5
:1042D000F7FE12E0012D06D1CA690949307828316C
:1042E00007E0012D01D0182407E0CA6B044930789B
:1042F000483104F0ECF800E00224204670BD0000D4
:10430000687DFF1F969AFF1FF0B5069F099E002843
:1043100033D0102831D800292FD0002A2DD0002BDF
:104320002BD0002F29D0079C002C26D0089C002CD5
:1043300023D0002E21D00A9C002C1ED0104C851DAD
:1043400020706570A26061600E490F4A0B6005998C
:1043500011600E490E4A0F60079911600D4A0899C5
:1043600011600D49401C08700C490E600C49087022
:104370000C490A9808600020F0BD1820F0BD00002C
:104380000480FF1F4C80FF1F2C7FFF1FB47FFF1F87
:104390003880FF1F3C80FF1FE07FFF1FE47FFF1F6F
:1043A000E87FFF1FF07FFF1F0B7803700B8802224E
:1043B0001B0A43700B88801C012B02D0022B07D0F4
:1043C00011E08A7802704988090A417004220AE0E3
:1043D0008A7802704A88120A42700A798270898843
:1043E000090AC1700622104670470A7802700988CF
:1043F000090A41700220704708B5044B0093134628
:104400000A46012104F082FC08BD0000A943021104
:1044100008B5044B009313460A46132104F076FCBA
:1044200008BD0000EB43021110B5FCF735F810BDD4
:1044300013B504480078012803D101AA6946FCF7A6
:1044400031F81CBD0080FF1F70B51049104A08707C
:1044500000210B468C00491CC9B213530429F9D31F
:104460000B4C00211034FF260A460A256A43151911
:104470006B80491CA354C9B26E720329F4D3FCF7B4
:1044800017F804F0F9FB04F00FFD70BD0180FF1F69
:10449000C8CAFF1F082A01D0012070474B780A784C
:1044A0001B02D2180280CB788A781B02D218428075
:1044B0004B790A791B02D21882808A79C97909025C
:1044C0005118C1800020704770B50C46080411D502
:1044D00009480078FBF774FF050007D001789029A0
:1044E00001D104F02BFB2846FBF770FF0120C0032D
:1044F000604070BD002070BD0180FF1F70B50C4989
:104500000978884213D20B4C060160680025855358
:104510003018858160683018858060683018806840
:10452000002804D0FBF7CAFF60683018856070BDB2
:104530000480FF1F3480FF1F072907D0052905D0FD
:10454000042903D0062901D002207047044A8B00B9
:104550009A181346403B1986203A90740020704701
:10456000C8CAFF1F70B517490978884228D25C2154
:10457000154C4843A1680546401800264030067493
:10458000A068281840304674A06828184030067685
:10459000A0682818406D002804D0FBF78FFFA068A2
:1045A000281846650026A068F100281840184068C1
:1045B000002801D0FBF782FF761CF6B20A2EF2D358
:1045C00070BD00000480FF1F3480FF1F70B50A8893
:1045D0000C460546072A07D0052A05D0042A03D031
:1045E000062A01D0022070BD012104F0E5FC00285C
:1045F00004D02146284604F01FF870BD142070BD79
:1046000010B5001D80B2FBF75FFF002803D0032127
:10461000C943FBF75FFF10BD38B50C46050014D049
:10462000002C12D00321684605F08AFE694688787E
:1046300040218006800E084369468870224628463D
:1046400006F0F6FC050002D006E0022038BD032289
:104650006946E01CFBF7E6FC284638BDF7B58EB08E
:104660000E9815460E4600282DD0002D2BD0301D5B
:10467000C0B20190FBF7C8FE040039D001F0AEFCD7
:1046800007463246201D0E99FBF7B2FEF8B208909D
:10469000E0703804000E0B90A0703802000E0A90F3
:1046A00060703F0E277001F093FC0146102202A8B3
:1046B000FBF79EFE06AB214602A8019A06F00EFC0F
:1046C000060003D010E0022011B0F0BD0898287059
:1046D0000B9868700A98A870EF70082206A9281D28
:1046E000FBF786FE01F080FC2046FBF793FE00E01E
:1046F00013263046E8E7000010B5064C2070FBF7A3
:10470000EFFE06212078FFF717FF034804F022FC94
:1047100010BD00002880FF1F55A5021110B50548E7
:104720000078000701D5044800E0002006F0ECF80E
:10473000002010BD457FFF1F1080FF1FF8B50E46FB
:10474000214C0146A068B50040590027002807D039
:104750002422125C022A05D0032A03D0042A01D0A5
:104760001220F8BDC288B24201D00220F8BD10224A
:104770000C30FBF757FCA06810214059353005F08C
:10478000DFFDA068415930460B460A4625333532D5
:104790000C3106F06FFCA068022140590278002A13
:1047A000427807D0032A0BD14170304605F08EFDC8
:1047B000074605E0042A02D0032A03D000E0417036
:1047C0003846F8BD0521EFE74480FF1F70B50C4661
:1047D000080419D50D480078FBF7F2FD05000FD04D
:1047E00005F0DEFF002808D109480078FF2804D032
:1047F0002946FBF739FE002802D02846FBF7E6FDE4
:104800000120C003604070BD002070BD2880FF1FE4
:10481000D47FFF1F7CB50C4605001DD0002C1BD09B
:104820000322E11C6846FBF7FDFB694688784021BE
:104830008006800E08436946887001AA284606F063
:10484000F7FB002807D10322214601A8FBF7B0FCA3
:10485000012803D001207CBD02207CBD00207CBD4E
:1048600010B505480078400701D5044800E0002055
:1048700006F050F8002010BD457FFF1F1C80FF1F71
:10488000F0B587B00C9E1C460D00074614D0684654
:104890000276110A417610220021FBF731FD3246E3
:1048A00029466846FBF7BEFB002C08D008222146AB
:1048B00004A8FBF7B7FB07E0022007B0F0BD082211
:1048C000002104A8FBF71CFD6B4606AA04A9384684
:1048D000FBF70CFEF1E70000FFB581B000202B4C88
:1048E0000090A068950040591E461746002802D047
:1048F000112005B0F0BD002E0BD02120FEF7F2FDF7
:10490000317E884205D82220FEF7ECFD317E8842B8
:1049100001D20220EDE77820FBF776FDA1680028A0
:10492000485130D078220021FBF7EAFCA068002132
:1049300040594170A268019852591070A2680298BB
:1049400052599070A268FF205259D070A068425905
:10495000D780425996604259116240592030017106
:104960000198002803D0384605F0C8FC0090A168E3
:104970000120495948700098002802D0384605F0B7
:104980006FFC0098B5E71320B3E700004480FF1FD9
:10499000FFB58DB00F98169C0E46002815D0002C40
:1049A00013D00D9804F04AFA050011D061782078F0
:1049B00009024018A178E2780904120689184718FC
:1049C000286AB84206D3401C04D0022011B0F0BDC2
:1049D0001420FBE7002E04D02879800701D40120A1
:1049E000F4E70822002106A8FBF78AFC1098001DB6
:1049F000C0B20190FBF708FD060017D0301D109AD9
:104A00000F99FBF7F5FC042221463046FBF7F0FC3A
:104A10001022A91802A8FBF7EBFC06AB314602A84E
:104A2000019A06F05BFA050002D013E01320CDE7EF
:104A3000082206A908A8FBF7DBFC0822211D08A80C
:104A4000FBF7B6FB012801D0012503E039460D989C
:104A500002F0D0F83046FBF7DDFC2846B6E7000050
:104A6000F0B585B0534D6946A8721E2008706A469D
:104A700001215148FEF7B6FA504C02202146FEF7BC
:104A800075FE21460320FEF771FE14211520FEF766
:104A90006DFE14211620FEF769FEFF21F531192065
:104AA000FEF764FE464A15210020FFF7E9FB454862
:104AB00000900220694608710020087208730126E0
:104AC0000E7481206A460421C000FEF733F90121EB
:104AD00001AA8802FEF72EF9374802AA0121801E9A
:104AE000FEF728F9344803AA0121401EFEF722F9F7
:104AF000314804AA0121801CFEF71CF9324900202C
:104B00000854401CC0B2C728FAD3FFF753FAA87A5A
:104B1000FFF7C2FA0024E4432046FFF7A1FB20463A
:104B2000FEF7AAFE2948FBF7E7FC294CE068C0071E
:104B30000CD028A0FBF732FC1F4800221146401D74
:104B4000FEF7F8F8E06840084000E0600121A87A2C
:104B5000FBF7BCFA2DA0FBF721FC164F00242037F1
:104B60002D482018017A381981702CA0FBF716FC0B
:104B7000641C062CF4DB2BA0FBF710FCB878FF2894
:104B800005D0B91C0020FBF7BDFC05B0F0BD0C48FA
:104B90001530FBF775FC014623A0FBF7FFFB084926
:104BA00026A01531FBF7FAFB1EA0FBF7F7FB2E71D1
:104BB000EBE700005C7EFF1F040400008813000088
:104BC00070BE021140E2010050C3FF1FDC9DFF1FB9
:104BD000C0F00040455241534520474150424F4E9E
:104BE0004420466C6167206973205365742C20450E
:104BF0007261736520616C6C20676170626F6E64B6
:104C0000207265636F72640A000000005B504545C6
:104C10005220414444525D0000400011253032785A
:104C2000000000000A0000005B50454552204E4144
:104C30004D455D204C3D256420000000257300009B
:104C4000FEB5F64D0C4608040FD5A87AFBF7B8FB65
:104C5000050007D00178B02901D104F0EBFE284609
:104C6000FBF7B4FB0120C00307E3E007012700289E
:104C700009D0EB48FEF7E6F9E9480830FDF7B8FF40
:104C800020467840FEBDA007002600282FDAE5A0C8
:104C9000FBF784FB2879002813D0E9A0FBF77EFB03
:104CA0002E73EE72EF4A0021EF48FBF729FB00223A
:104CB00001210320FEF7DCF90146ECA0FBF76EFBB7
:104CC00013E0F7A0FBF76AFBD44900262231062245
:104CD0006846FBF7A7F9FAA0FBF760FB00212F70ED
:104CE0006B4632460846FEF731F90220C5E26007FE
:104CF00006D5FCA0FBF752FB05F008F80420BCE247
:104D0000200710D5A978012903D004F0ADFF0820B1
:104D1000B3E2FCA0FBF742FB7D22D2000821A87A77
:104D2000FBF7F6FBF3E7600404D505F08FF80120EC
:104D30008003A2E2B94862060178C08908D5022939
:104D400004D0FEF7A3F9F6A0FBF728FB402094E27D
:104D500022060AD5022901D1FEF798F9EA892978B5
:104D6000F6A0FBF71BFB802087E2FB49E20618D583
:104D7000FAA30CCB01930092884210D0FBF7CEFB34
:104D8000002806D06846FBF7ADFCF6A0FBF706FB53
:104D900005E0FF22F5321021A87AFBF7B9FB1020BD
:104DA0006BE2A2062BD5884227D0FBF7B7FB002881
:104DB0001DD0288AFF212D310A30FBF73FF92982C7
:104DC000A88A0E4689000746FBF738F96882034631
:104DD00032461146E6A00097FBF7E0FAA88A009059
:104DE0002A8A6B8A1146E889FEF75AF905E0FF2204
:104DF000F5322021A87AFBF78BFB20203DE2E2056B
:104E00001BD5FF260136884214D0FBF787FB00280C
:104E10000AD02A8BE98AE889FBF786FB2A8BE98A84
:104E2000D9A0FBF7BBFA05E0FF22F5323146A87A9C
:104E3000FBF76EFB20467040FEBDA2051FD58842E1
:104E40001AD0FBF76BFB00280FD06E790027009774
:104E5000334632463946E889FBF76CFB33461A463F
:104E60003946CEA0FBF79AFA06E0FF220121F5327F
:104E70004902A87AFBF74CFB01204002FDE1220524
:104E80003BD588422FD0FBF749FB00282ED0FA20D3
:104E9000FBF7BAFA0546E0300676477620202880F0
:104EA0000321C34869805D4F0170B97E41708670EF
:104EB00001466A88281DFBF7B5F82946F889FFF7EF
:104EC000B7F906462846FBF7A5FA002E06D00121C1
:104ED0001422C902B87AFBF71BFB04E07A8B314637
:104EE000B4A0FBF75BFA0120C002C6E1FF224B48E9
:104EF000F5320121C902807AEDE7E2047DD58842CE
:104F000018D0FBF70BFB002878D0287A022812D0A3
:104F1000032810D004280ED00A2841D00B283FD0F7
:104F200008283DD009283BD00C2839D00D2837D08F
:104F30000E286DD08FE100200290384881790191D0
:104F4000FA200091FBF760FA0546E03006764776D6
:104F50002020288004206880954805210170467033
:104F600001998170C67001466A88281DFBF75AF8BE
:104F70002A482946C089FFF75BF906462846FBF711
:104F800049FA002E05D02548142201210903807A10
:104F90005AE131468DA0019B029AFBF7FFF95AE1D5
:104FA0000A2836D00B2834D0082833D0092831D02D
:104FB000042101910A282ED008282CD00C282AD0B0
:104FC0000021FA200091FBF71FFA0546E030067633
:104FD000477620202880032068807548FC210170D6
:104FE000019941700099817001466A88281DFBF77C
:104FF00019F80A4E2946F08901E035E12EE1FFF764
:1050000017F907462846FBF705FA002F04D1F3E00D
:10501000F9E0EBE0ECE0EDE012E100005C7EFF1F68
:1050200060BE0211424C452061732063656E74724C
:10503000616C20496E697420446F6E65200D0A0012
:1050400066696E64206279206E616D652C736F20D5
:10505000646973636F766572206E6F772E2E2E2EC5
:105060000000000094110000BCB1FF1F73696D7057
:105070006C65424C4543656E7472616C5F44697344
:10508000636F7665724465766963652052657475F1
:10509000726E2056616C7565203A25640A00000026
:1050A00066696E64206279206D61632C736F206382
:1050B0006F6E6E656374206E6F772E2E2E2E00003D
:1050C00053746172742045737461626C6973684CC7
:1050D000696E6B20446972656374212121200D0A79
:1050E0000000000043454E5452414C5F4449534335
:1050F0004F5645525F444556444F4E455F455654C2
:10510000200A0000534D502053746174655B256480
:105110005D202050656E64696E67205344500A001C
:1051200045737461626C697368204C696E6B2054BE
:10513000696D65204F75742E0D0A00005465726DFF
:10514000696E61746564204C696E6B202E732564F2
:10515000206425640D0A0000FEFF0000FFFFFFFF32
:105160001F0000004348414E204D41500D0A0000F1
:105170005550445B2025326420253264202532645A
:10518000202532645D0D0A00444C455B20253264C5
:1051900020253264205D0D0A000000005048595B54
:1051A0002025326420253264202532645D0D0A00FA
:1051B00050C3FF1F534C4120444C455B202532789F
:1051C00020253264205D0D0A00000000534C412070
:1051D0005048595B20253032782025326420253212
:1051E00064202532645D0D0A000000000221E0E623
:1051F0000321DEE60121E4E6394622A0019B009A64
:10520000FBF7CCF827E0FA20FBF7FEF80546E03084
:10521000067647762020288021486F80FD21017086
:1052200001466A88281DFAF7FDFE1E4E2946F089C0
:10523000FEF7FEFF07462846FBF7ECF8002F06D0E6
:10524000012114220903B07AFBF762F903E0394621
:1052500015A0FBF7A3F8012000030EE0FF22F532B2
:1052600001210903A87AEFE7A00408D514A0FBF7F1
:1052700095F8FBF765F9012040036040FEBD002072
:10528000FEBD0000534C4120434C4B5B2025303287
:105290007820253264202532645D0D0A000000006C
:1052A00050C3FF1F5C7EFF1F534C412050455220CE
:1052B000434845434B5B20253032785D0D0A0000A2
:1052C0005379732072657365742062792064697301
:1052D000636F766572792074696D656F75740A0005
:1052E000FFB583B016460F461B2A01D0522E04D1BB
:1052F0000398FBF72BF900281BD01D4903988968F8
:105300004000085AFFF77CF904002DD00125601CED
:105310002670002F03D00699B847401C85B230068E
:1053200013D51021039803F047FE002804D0192656
:1053300016E0132007B0F0BD6219E9B22046FFF76E
:105340008DF906000CD10C35ADB204216846018000
:105350000194058169460398FFF738F9060004D0E7
:105360002046FBF7ABF800E013263046E2E70000EA
:10537000247FFF1FF0B500208BB00990074606463A
:1053800005460890079025A0FBF708F828A0FBF732
:1053900005F8002404A92046FBF7DEF86846838A56
:1053A000C28A018B408A03936B4607C36846038A0F
:1053B000428B21462AA0FAF7F1FF6846418B0798F5
:1053C000641C081880B207906846018A0998E4B204
:1053D000081880B209906846418A0898081880B277
:1053E00008906846008B401985B26846C08A8019CB
:1053F00086B26846808AC01987B2252CCAD323A0FA
:10540000FAF7CCFF6846E0C02CA0089B099A0799E0
:10541000FAF7C4FFFBF7A6F80BB0F0BD5B5045529E
:10542000205354415453204E6F746966795D0D00CA
:105430002D2D2D2D2D20636820636F6E6E4E2072F2
:10544000784E756D207278437263207278546F4E77
:1054500020747841636B207478527479200D0000B9
:105460005B5045525D202530326420253035642064
:1054700025303564202530356420253035642025DD
:1054800030356420253035640A000000544F544103
:105490004C20636820636F6E6E4E2072784E756D7F
:1054A000207278437263207278546F4E2074784172
:1054B000636B207478527479200D00000A5B5045AC
:1054C000525D202D2D202530356420253035642077
:1054D000253035642025303564202530356420257D
:1054E0003035640A0000000010B50C4603F0BEFC25
:1054F000002804D040882146FAF7BCFF10BD1220D6
:1055000010BD0022002913D0002811D0012806D098
:105510004A799206920E4A71032805D007E048792D
:10552000C0221043487102E0402002434A71012228
:105530001046704770B512480025007805210842D2
:105540001BD02020FAF760FF0E4C0028A06013D07B
:1055500020220021FAF7D4FE2020FAF755FFE06060
:10556000002804D020220021FAF7CAFE05E0A06836
:10557000FAF750FF0020A0601325284670BD0000F8
:10558000457FFF1FB87FFF1FF3B588880D46810058
:105590005A485A4C40585A4F203C8BB0002823D1CF
:1055A0000B9800287ED0002D7CD000F00DFA60749E
:1055B0000A281CD300260E207043C0190622FF21A2
:1055C000FAF7F8FE002804D1761CF6B20A2EF2D3C0
:1055D0000A2666740A2E07D1607B0A210646FAF76E
:1055E0002DFD6174761C6673607C0A2861D2A888E0
:1055F000424E8000305800285ED082680027002A82
:105600000BD0607C062148432130C0B21C21FAF740
:10561000E3FEA888800030588760A8888000305852
:105620000269002A0BD0607C062148432230C0B2B8
:105630001C21FAF7D1FEA888800030580761A8889D
:10564000800030584269002A0BD0607C0621484314
:105650002330C0B21021FAF7BFFEA888800030586E
:105660004761A88880003058C268002A18D0607C42
:10567000062148432430C0B21021FAF7ADFEA888B5
:10568000062180003058C268607C103248432530C3
:10569000C0B20421FAF7A0FEA88880003058C76085
:1056A000E07B00E005E0002801D000F0DFFA00F028
:1056B00021FB01200DB0F0BD607C06214843203065
:1056C000C0B20E210B9AFAF787FE2822FF21684606
:1056D000FAF716FE607C6A467030C0B22821FAF7ED
:1056E0007BFE607C0E2148430A46C0190B99FAF7ED
:1056F00099FCA888800035500020DBE7507DFF1F13
:10570000009AFF1FF0B589B017460E4604462022C6
:1057100000216846FAF7F4FD68460480394C0225FA
:10572000E178017122794271217B01770698410865
:10573000E07A4900C307DB0F19430691810700296E
:10574000069901DA294300E0A943069101072E4B8F
:10575000069901D5194300E099430691C1062B4BE8
:10576000069901D5194300E0994306918106284B1B
:10577000069901D5194300E0994306914007042199
:105780000028069801DA084300E088430690002AC2
:1057900005D001A810221F490230FAF743FC6179B5
:1057A000002904D0002E02D00698284306906846AF
:1057B000807D002900D00121084369468875A178C1
:1057C000002900D00421084369468875A179002981
:1057D00000D00821084369468875E179002900D086
:1057E0001021084369468875217A002900D02021BC
:1057F00008436946887539466846FDF75BFC09B081
:10580000F0BD0000307DFF1F00010000000200001D
:1058100000040000F099FF1FF0B5064687B006208F
:1058200041430C9D1446082B1BD02131CFB21C22C2
:1058300000216846FAF764FD6A461C213846FAF7EB
:10584000B3FD00280BD16846807EC01F092806D80A
:10585000E107C90F2B466A463046FDF793FC07B0B7
:10586000F0BD2231E2E7000070B50025094E2C465C
:105870000E20604380190622FF21FAF79BFD0028C5
:1058800001D16D1CEDB2641CE4B20A2CF0D32846A1
:1058900070BD0000009AFF1F7FB50C4606214843EB
:1058A000064615462036F0B26A460E21FAF77CFD10
:1058B000002806D10622FF216846FAF77BFD002862
:1058C00002D0002004B070BD68468189002DC8B2A6
:1058D00002D02043C0B200E0A043814206D0694616
:1058E0008881F0B26A460E21FAF776FD0120E9E7D9
:1058F00010B50024204600F007F8641CE4B20A2C1E
:1059000001D20028F6D010BD70B505460446062029
:105910004443264696B02036F0B211AA0E21FAF77B
:1059200043FD002806D10622FF2111A8FAF742FD07
:10593000002802D0002016B070BD0E22FF2111A851
:10594000FAF7DEFC1C22FF216846FAF7D9FC282270
:10595000FF2107A8FAF7D4FCF0B211AA0E21FAF73A
:105960003BFD064620462130C0B26A461C21FAF7AC
:1059700033FD064320462230C0B26A461C21FAF7A6
:105980002BFD064320462330C0B26A461021FAF7A9
:1059900023FD064320462430C0B26A461021FAF7A0
:1059A0001BFD06432534E0B26A460421FAF714FDD4
:1059B000014631430C467035E8B207AA2821FAF7B0
:1059C0000BFD2043B7E7000070B50A4D06460024E2
:1059D0000E206043401906223146FAF7E9FB002801
:1059E00001D0204670BD641CE4B20A2CF0D30A201A
:1059F00070BD0000009AFF1F00229300CB5A834223
:105A000002D1900040187047521CD2B20A2AF4D337
:105A1000002070477FB50C460A280CD2002C0AD013
:105A2000062148432030C0B26A460E21FAF7BCFC7A
:105A3000050003D007E0022004B070BD06226946CD
:105A40002046FAF7EFFA2846F6E71FB50621484345
:105A50002030C0B26A460E21FAF7A6FC002802D018
:105A6000002004B010BD68468089C0B2F9E700216B
:105A70008A00835A491CDB43835212189378C9B2B7
:105A8000DB4393700A29F3D37047000070B5144EBE
:105A900000240E206043821920460621484320300E
:105AA0001546C0B20E21FAF77FFC00280BD028461D
:105AB0000622FF21FAF724FCA81D0622FF21FAF78F
:105AC0001FFC0020A881641CE4B20A2CE1D3054825
:105AD000C07B002801D000F0C9F800F00BF970BDC0
