:020000041102E7
:1000000003B40148019001BDFD11000003B4014893
:10001000019001BD7511000003B40148019001BDBC
:100020001130000003B40148019001BD090E000029
:1000300003B40148019001BD53B9000003B4014865
:10004000019001BD29B6000003B40148019001BD33
:100050007582000003B40148019001BDFD5C010000
:1000600003B40148019001BD85C1000003B40148FB
:10007000019001BD61D5000003B40148019001BDAC
:100080001BBA000003B40148019001BD3DBA000055
:1000900003B40148019001BD5944000003B4014874
:1000A000019001BDB95E000003B40148019001BD9B
:1000B000810E000003B40148019001BD0D52010002
:1000C00003B40148019001BDC1EC000003B4014834
:1000D000019001BD75A9000003B40148019001BD64
:1000E000C93E000003B40148019001BD9DA9000074
:1000F00003B40148019001BDB30E000003B40148F0
:10010000019001BD6158FF1F03B40148019001BD7A
:100110006189000003B40148019001BD1907010085
:1001200003B40148019001BDA9D8000003B40148FF
:10013000019001BDB352010003B40148019001BD1B
:100140008B52010003B40148019001BDC1A500001C
:1001500003B40148019001BD9D6A000003B4014849
:10016000019001BD116E000003B40148019001BD72
:10017000E94C010003B40148019001BDF97F000082
:1001800003B40148019001BD7912010003B4014894
:10019000019001BD757A000003B40148019001BDD2
:1001A000F143000003B40148019001BDC1430000C8
:1001B00003B40148019001BD6944000003B4014843
:1001C000019001BD8BB9000003B40148019001BD4D
:1001D000D1D4000003B40148019001BD01890000A1
:1001E00003B40148019001BDC53F000003B40148BC
:1001F000019001BDC95C010003B40148019001BD3B
:10020000CD4C010003B40148019001BD09B80000C4
:1002100003B40148019001BD2DFC000003B4014866
:10022000019001BDEDB8000003B40148019001BD8B
:1002300039B8000003B40148019001BD6DFE000013
:1002400003B40148019001BDF9FD000003B4014869
:10025000019001BDA1E6000003B40148019001BD79
:100260009946000003B40148019001BD1547000004
:1002700003B40148019001BD4D4DFF1F03B4014877
:10028000019001BD75F0000003B40148019001BD6B
:10029000F5D5000003B40148019001BDC5F0000090
:1002A00003B40148019001BD01EC000003B4014812
:1002B000019001BD6160000003B40148019001BDDF
:1002C00063EC000003B40148019001BD05FF00008C
:1002D00003B40148019001BD3161000003B401483D
:1002E000019001BD59E4000003B40148019001BD33
:1002F000D5E4000003B40148019001BD01BF000036
:1003000003B40148019001BD21F1000003B401488C
:10031000019001BDCDF1000003B40148019001BD81
:10032000B9C0000003B40148019001BD4DF40000C4
:1003300003B40148019001BDC1E2000003B40148CB
:10034000019001BD154D010003B40148019001BDAC
:100350008DE3000003B40148019001BDA5FD00003C
:1003600003B40148019001BD25E7000003B4014832
:10037000019001BD3148000003B40148019001BD66
:10038000F1FA000003B40148019001BD79F40000C6
:1003900003B40148019001BD77F1000003B40148A6
:1003A000019001BD5511010003B40148019001BD48
:1003B0002D84FF1F03B40148019001BDE9F6000040
:1003C00003B40148019001BD75F8000003B4014871
:1003D000019001BD19FA000003B40148019001BD6C
:1003E000415AFF1F03B40148019001BD8959FF1F05
:1003F00003B40148019001BDA93C000003B40148C9
:10040000019001BD8D36FF1F03B40148019001BD6D
:10041000353EFF1F03B40148019001BDADAE0000A1
:1004200003B40148019001BD456B010003B40148CC
:10043000019001BD1D4B010003B40148019001BDB5
:10044000F54E010003B40148019001BD434D010088
:1004500003B40148019001BD4551010003B40148B6
:10046000019001BD5952010003B40148019001BD42
:100470003D4B010003B40148019001BD014C010056
:1004800003B40148019001BDF94C010003B40148D7
:10049000019001BD3522000003B40148019001BD67
:1004A000691F000003B40148019001BD4D1A00000E
:1004B00003B40148019001BD5D17000003B4014879
:1004C000019001BD5125000003B40148019001BD18
:1004D000594F010003B40148019001BD8D12000085
:1004E00003B40148019001BD4D1F000003B4014851
:1004F000019001BD5522000003B40148019001BDE7
:10050000DD52010003B40148019001BD1D4D010001
:1005100003B40148019001BD017F000003B401480C
:10052000019001BDE117000003B40148019001BD35
:100530007918000003B40148019001BDD9490100B8
:1005400003B40148019001BDE928000003B401484B
:10055000019001BD5549010003B40148019001BD5E
:10056000C94A010003B40148019001BDB11F000058
:1005700003B40148019001BDC926000003B401483D
:10058000019001BDE122000003B40148019001BDCA
:10059000ED4A010003B40148019001BDA54F0100DF
:1005A00003B40148019001BD8552010003B4014824
:1005B000019001BD8D2DFF1F03B40148019001BDC5
:1005C000810E000003B40148019001BD2531FF1FD9
:1005D00003B40148019001BD350E000003B4014889
:1005E000019001BDA140FF1F03B40148019001BD6E
:1005F0005141FF1F03B40148019001BD35190000AE
:1006000003B40148019001BDBD18000003B40148C6
:10061000019001BD311A000003B40148019001BDF1
:100620009928000003B40148019001BD291C000075
:1006300003B40148019001BD1922000003B4014830
:10064000019001BD851F000003B40148019001BD68
:100650005147010003B40148019001BDA9460100C2
:1006600003B40148019001BD1147010003B40148E2
:10067000019001BD5526FF1F03B40148019001BD43
:10068000A326FF1F03B40148019001BDF53FFF1FE2
:1006900003B40148019001BD7143FF1F03B4014839
:1006A000019001BDD727FF1F03B40148019001BD90
:1006B000B127FF1F03B40148019001BD951BFF1F27
:1006C00003B40148019001BDC51AFF1F03B40148DE
:1006D000019001BDA91AFF1F03B40148019001BD9B
:1006E000B11BFF1F03B40148019001BD6DBC0000A8
:1006F00003B40148019001BD017DFF1F03B401480F
:10070000019001BD156B010003B40148019001BDCA
:10071000E548000003B40148019001BD29510100E2
:1007200003B40148019001BDD91B000003B4014886
:10073000019001BD1543FF1F03B40148019001BDA5
:10074000793FFF1F03B40148019001BD113FFF1F16
:1007500003B40148019001BDD1A5000003B40148D4
:10076000019001BD453FFF1FFEB508AF70CF6F463A
:1007700070C700F041F80249FFF742FC0020FEBDBF
:100780001320000038B5044600F098FA0146684688
:1007900001704470210A81706A4603210248FFF704
:1007A00035FC002038BD00001B20000038B5044691
:1007B00000F0AAFA0146684601704470210A81706F
:1007C0006A4603210248FFF721FC002038BD0000E3
:1007D0001A20000008B5002802D000F09DFC00E0BF
:1007E0001220694608706A4601210248FFF70EFC94
:1007F000002008BD05200000FFB50446354F00016C
:10080000C019807981B01546022802D00C2005B0AD
:10081000F0BD314A881F90422ED2062D2CD3501D98
:10082000854229D88D4227D3FF220499F432914280
:1008300022D80A990A291FD381421DD82046FFF7E2
:10084000EBFB0028E3D1A12080004443234800684B
:10085000261834468034E07B002802D0E07A002855
:100860000CD0207D012809D00A98C1000498401CB2
:1008700068434000814203D81220C8E73A20C6E707
:100880007878174F01280AD96804B988000C884283
:1008900003D3FFF7C7FB002909D03B20B7E7BD8092
:1008A000F08E104940000978FFF7BCFBF860022089
:1008B000207600206083308F0021C01DE082A58358
:1008C0000498E0830A9820843046FFF7B1FB0020AB
:1008D0009DE70000300DFF1F7B0C00003409FF1F57
:1008E000300EFF1F1409FF1FFFB583B0DB480090D7
:1008F000DB48129E02780C9D0E9B1399012A20D092
:1009000000270770D7480478092C78D00A2C76D0B5
:100910000B2C74D00C2C72D00D2C70D0039AD248B2
:10092000121F824246D2049A121F824242D2049A75
:10093000039882423ED80598002805D0012839D175
:1009400002E00C2007B0F0BD284333D00698002801
:1009500005D0012803D0032801D002282AD10D9800
:10096000002805D0012803D0032801D0022821D176
:10097000B1421FD3BD49981F88421BD20F98062849
:1009800018D301461920C001814213D8994211D3CE
:10099000FF221099F43291420CD811990A2909D3F7
:1009A000814207D8CA0010980F99401C4843400064
:1009B000824201D81220C5E7AD48AE4902780978D5
:1009C0008A4201D30720BDE7A948AB4E40780028F2
:1009D0000CD00F98B1884004000C884203D3FFF775
:1009E00021FB002902D03B20ACE708E00621082CBF
:1009F00001D0072C06D1A1480278002A01D021207D
:100A0000A0E70170FFF71AFB040058D0984841781E
:100A1000491C41702046FFF717FB20460021FF309C
:100A200081308B001B19FF330133C26A491CDA661F
:100A30000829F6DB00218B001B19FF338133C26AC2
:100A4000491CDA600829F6DB2079FFF703FB002058
:100A500081000919FF310131401CCF660828F7DBFE
:100A6000002081000919FF318131401CCF60082826
:100A7000F7DB8348217901740399418104998181CD
:100A80000599C1737F49002023180A5C6033401C1C
:100A9000C0B25A710528F7D321466531204601912D
:100AA000FFF7DEFA27462037F87F02280BD22046D0
:100AB000FFF7DCFA6E484178491E41707AE76F48CB
:100AC000077009203EE77048002D0BD0297841704F
:100AD00069788170A978C170E978017129794171CB
:100AE00069798171664A0D9911700D9900297DD03F
:100AF000664A634913784B7053788B709378CB7048
:100B0000D3780B7113794B7152798A710699017000
:100B10000D980099C007400E08430699C907090EB1
:100B200001430291FFF7A8FAE062FFF7ABFAA06277
:100B30004F48407801287AD0B088E08630896087B5
:100B4000F08820874E4E707C38745148C0688030E1
:100B5000818DB974008EA086FFF79AFA0C21FFF7F9
:100B600061FA20466030491D009081762520B073DF
:100B700001203072474802998180801DFFF78EFA6C
:100B8000002D0DD043492A78881D0A736978C171F8
:100B9000A9780172E9784172297981726979C17203
:100BA0003C482146123004222831FFF77DFA3948AB
:100BB0002146163003222C31FFF776FA3549B87CEE
:100BC00048760846397D8176797DC1760146204692
:100BD0002230027D0A77427D4A773A7E8A777A7E92
:100BE000CA771A31027E8A71407E00E01DE0C8712A
:100BF0000846083005220199FFF756FA0098397C1B
:100C0000807E4901C006C00E084322492131887107
:100C10001448007800281DD01F480121890300785E
:100C2000FFF748FA00208DE601E01C4A61E70F98C3
:100C3000E0861199618710992187B080208FF0801C
:100C4000608F3081E08E0B4940000978FFF7EAF9A8
:100C5000F06077E72079FFF733FAE3E70522000039
:100C60001909FF1F1C09FF1FFD3F00007B0C00003E
:100C7000300DFF1F1409FF1F300EFF1F2309FF1F38
:100C8000D40BFF1F6009FF1F7809FF1F6B09FF1FAF
:100C9000EC9DFF1F6C11FF1F1B09FF1F6509FF1F44
:100CA00070B50C460546FFF711FA21462846FFF7B6
:100CB00013FA0446FFF716FA204670BD10B5114A24
:100CC000A1218900126841438C189D21890009598E
:100CD000012901D00C2010BDFFF79EF90028FAD1A0
:100CE000E01DF93002790621012A06D041710D215B
:100CF0002046FFF79DF9002010BDFF20213001554F
:100D00000221F5E73409FF1F70B50D46134AA121F2
:100D10008900126841438C189D21890009590129D5
:100D200001D00C2070BD002D16D0FFF775F90028FA
:100D3000F8D110210B1A2A5C1B19E033401CC0B2F9
:100D40009A711028F6D30121F8200155052120467B
:100D5000FFF76EF9002070BD122070BD3409FF1F2F
:100D6000FEB5089D099C1746002874D0002972D052
:100D7000002C02D0012C02D003E02A2201E0FF2245
:100D80000732921D0192354A0E461770344A1060A0
:100D9000344803703448057034480470002446E039
:100DA000A1208000254645432D48A12100688900E7
:100DB0002818FFF79DF92A482D4900686200281875
:100DC000FF308130C66201983618002088545118CF
:100DD00048702649097800293BD0FF211131009144
:100DE00021461C2041432248002220300D182A763B
:100DF0004254E0B20099FFF781F968600020287240
:100E0000E0B201220099FFF779F9E8600020287428
:100E1000E0B202220099FFF771F968616968002960
:100E200019D0E968002916D0002814D0641CBC42EF
:100E3000B6DB00200F4D104A014683009C186580E8
:100E4000401CD154C0B261701028F6D30020FEBD02
:100E500001E03421C3E71220F9E700001409FF1F65
:100E60003409FF1F1509FF1F1609FF1F1709FF1F70
:100E7000ECCDFF1FFFFF0000CCCFFF1FF8B5714D79
:100E80000028AA7916D0012A01D0032A12D16E496E
:100E90000B78FF2B0ED14B78FF2B0BD18B78FF2BD0
:100EA00008D1CB78FF2B05D10B79FF2B02D14979E3
:100EB000FF2930D065490B78012B1DD00026644CEA
:100EC0000E702178092931D00A292FD00B292DD075
:100ED0000C292BD00D2929D0052927D0062925D06A
:100EE000A97B00290AD0012908D0032906D00229AC
:100EF00004D004290FD101E00C20F8BD002A05D050
:100F0000012A03D0022A01D0032A04D1514F00281C
:100F100075D0012801D01220F8BDA888012805D07D
:100F2000FFF7D4F82078002802D01AE02120F8BD7D
:100F3000A87B0300FFF7E8F8050408100C0824005C
:100F4000012020701F200AE002202070202006E0EF
:100F500004202070222002E0032020702120FFF7CF
:100F6000D9F82078282101280DD002280BD0042898
:100F700009D0032807D007280ED008280CD01BE082
:100F800026701E20EBE7344806602975FFF7C8F885
:100F9000002820D0AE800FE03048C068808D8006E9
:100FA0000AD52F480278002A06D1AA7B032A06D048
:100FB000022A04D0002A02D0FFF794F8B6E70222F2
:100FC00002702975140321463878FFF7AFF82146DF
:100FD0003878FFF76FF80120A880224800780028B1
:100FE00009D02148012102887D20C0004243C90365
:100FF0003878FFF7A1F8FFF775F820E0FFE7FFF773
:1010000065F8AE802078072808D0082806D026701A
:101010001648FFF797F81E20FFF77CF81048017874
:10102000002905D00670012149033878FFF77EF8C2
:10103000FFF758F80121C9033878FFF777F8002047
:10104000F8BD0000A60BFF1F6B09FF1F1A09FF1F49
:101050001C09FF1F1B09FF1F4809FF1FEC9DFF1FF5
:101060002309FF1F2109FF1F2C09FF1F001000404B
:10107000FFB585B016460D460446119FFFF726F8CA
:1010800015482946007804902046202C00D22020C4
:10109000202900D220210EAA2CCA009201AAA8C29F
:1010A0003246089BFFF754F805460C480A4944802D
:1010B00004980870012E01D0042E08D1084880231E
:1010C0000078C101074882889A4311438180FFF765
:1010D00009F8284609B0F0BD1C09FF1FA60BFF1F29
:1010E0007809FF1F6C11FF1F10B5FB2908D8084BAA
:1010F0009A4205D81B2903D3FF2349339A4201D2D0
:10110000302010BD034B19825A82FFF727F810BD1B
:10111000480800008410FF1FF8B5324909780129FA
:101120002AD0022928D0032926D0042924D0052931
:1011300022D0062920D02C49097802291CD0042964
:101140001AD0012918D0032916D0062914D007294E
:1011500012D00178254C8C462170467866708378D1
:10116000A370C278E270017921714079204D6071DD
:10117000AF79012F02D008E00C20F8BD6746EF716F
:101180002E726B72AA72E97228730622E91D194841
:10119000FEF7EAFF0622E91D1748FEF7E5FF1748AC
:1011A000017801290BD12178417061788170A17893
:1011B000C170E178017121794171617981711048C3
:1011C000017801290BD12178417061788170A17873
:1011D000C170E178017121794171617981710020DB
:1011E000F8BD00001C09FF1F2309FF1F6B09FF1F2B
:1011F000A60BFF1F7211FF1F8A13FF1FBC0BFF1FDF
:10120000D40BFF1FF8B5844657480F4601780129D3
:1012100014D00026554D06702878092838D00A28A1
:1012200036D00B2834D00C2832D00D2830D0504C7A
:10123000607A002804D001284BD101E00C20F8BDD1
:101240002078002805D0012803D0022801D00328E7
:101250003FD162894748111F81423AD2A1890B1FB1
:10126000834236D2914234D8002F01D0012F30D1A1
:10127000604600284FD001282BD1207A012807D0C2
:10128000FEF724FF2078012804D0032802D014E0C0
:101290002120F8BD38480178FF290ED14178FF2977
:1012A0000BD18178FF2908D1C178FF2905D10179B7
:1012B000FF2902D14079FF2809D02878252101266D
:1012C000002808D007280ED008280CD014E0FEF71C
:1012D00009FF1220F8BDE671E773A174052028709C
:1012E000FEF748FF13E02548C068808D400603D50F
:1012F00023480278002A02D0FEF7F4FEC8E7A17462
:1013000006702048012109030078FEF7D3FE2672FB
:10131000FEF7E8FE25E0FEF7D9FE2878052804D080
:1013200007280AD0082808D00FE02E701648FEF7CC
:1013300009FF1E20FEF7EEFE07E0114801210670AE
:10134000104809030078FEF7F1FE26725820FEF7D8
:1013500017FF0A480670FEF7C5FE0C480168012910
:10136000FCD00020F8BD00001909FF1F1C09FF1F59
:10137000BC0BFF1FFD3F00006B09FF1FEC9DFF1F13
:101380002309FF1F1B09FF1F001000409809FF1FC2
:1013900038B51C46049B00932346FEF7F7FE002851
:1013A00012D10B49002C0C700FD0022C0DD0094A21
:1013B00013784B7053788B709378CB70D3780B7114
:1013C00013794B7152798A7138BD034AF0E70000F6
:1013D000BC0BFF1F6B09FF1F6509FF1FFFB581B025
:1013E000044602981F461646002814D0002E12D03C
:1013F000002F10D02046FEF70FFE00280CD1A120B0
:10140000800044432C4800682418E51DF935287BEA
:10141000002803D00EE0122005B0F0BD27490020BF
:1014200023180A18FF330133401C5278C0B25A7394
:101430000828F5D3687BC00738D00020029922180D
:10144000095CC032401CC0B211700828F6D3204697
:101450003178C030017271784172002010210B1A6E
:101460003A5C1B19E033401CC0B29A711028F6D3C5
:101470002046B830FEF790FE2046AC30FEF792FED4
:101480000C210F48FEF794FE00207B2108552146D1
:10149000E031C8750876A621095D012908D02871B8
:1014A00003212046FEF7C4FD0020B5E71120B3E775
:1014B000012028710A21F4E73409FF1F480EFF1F9D
:1014C0003811FF1FFFB50D46A1218900484323496C
:1014D00081B009681E464418002D09D0FF20D9307C
:1014E000015B0398814203D3002E04D0012E02D069
:1014F000122005B0F0BDE07800280AD00520C00118
:1015000027181748F9780078801C814203D30720F8
:10151000EFE70220EDE7FEF7D9FDF878A91E401CA1
:10152000F87003980870002E10D0012048702046F3
:101530007C30091FFEF742FEFEF7D4FD0948007813
:10154000082805D0072803D00020D2E70220EDE7C5
:1015500000212046FEF738FEF6E700003409FF1FA1
:101560001509FF1F1C09FF1FF8B50F4E307A002820
:1015700018D10E4CE0690E4FC005C50F02D1E069CD
:101580003843E06104210B4800F016F809480421B3
:10159000103000F011F8002D02D1E069B843E0618D
:1015A00001203072F8BD0000EC9DFF1F00F00040EC
:1015B000000100000CD0FF1FF3B50746104881B0B2
:1015C000C169104A1140FF310931C161002613E0A1
:1015D00000252C461120FEF7FDFD0948406A8007D2
:1015E000800F610088402843641CE4B20546102C3B
:1015F000F0D301C7761CF6B202988642E8D3FEBD4E
:1016000040F0004000FEFEFFF0B500248BB00D4618
:101610000646102902D901200BB0F0BDFFF7A4FF48
:101620001F4900200A5C401C1419C0B21028F9D3CD
:10163000002C03D0102D03D90B20EDE70E20EBE793
:101640001848174C0023006802A91034E25CC75CFC
:101650007A40CA545B1CDBB2102BF7D306AA1048A1
:10166000FEF7BEFD102D00D910252A4606A93046EA
:10167000FEF77AFDFEF7BAFD216840182060FEF7FC
:10168000B5FD616840186060FEF7B0FDA1684018C4
:10169000A060FEF7ABFDE1684018E0600020BBE70A
:1016A0000CD0FF1F609EFF1F70B50446FF30FF3057
:1016B0000230406F0D46012812D1282D10D1A420F0
:1016C000005BE188401A1D4980B2884208D3214658
:1016D0006A3105220E46481FFEF78EFD002818D0FD
:1016E00017490020820052185278002A16D0401C58
:1016F000C0B21028F6D31348012189020078FEF702
:10170000D9FC2079010110480918897902290DD0E6
:101710000FE031462046FEF7A3FC70BD8000237920
:10172000421853800D5401205070E4E74178491E5F
:1017300041702046FEF766FD70BD0000FF7F00008F
:10174000CCCFFF1F1B09FF1F300DFF1FF0B5054653
:101750008DB0A0300B902846FF300E30039009204A
:1017600080012F18E81DFF30FA300890E03807900C
:10177000C030EE1DF9362C4680340990F0E0E07A56
:101780000B2870D009DC0300FEF7BEFC0B37551C9C
:101790006EEAEABFF0EFEED6EA0016286FD008DC5A
:1017A0000C286DD011286CD014286BD01528E5D1E9
:1017B00066E1182867D01A287CD01B287BD0FE2829
:1017C000DCD119E2A07A012803D02846FEF720FDDB
:1017D00019E0FA488078002804D02846FEF71EFD5C
:1017E000162106E0608A401E0004000C60827CD056
:1017F0000CE22846FEF718FDF6E1A07A012804D095
:101800002846FEF717FDA07200E2EC488078002819
:101810000ED0207E40002076608B40006083A08B3D
:101820004000A083208C000120840120207510E05E
:101830002889E18A13E0A07A012803D02846FEF720
:10184000FFFCE0E7DD488078002806D00B990120F6
:1018500088702846FEF7E2FC82E02889A18C884245
:10186000C6D12821C5E784E0A07A01280CD02846FB
:10187000FEF7ECFCA07200207072B072C6E111E1BC
:10188000C3E055E1E9E027E1CC48C078002801D069
:1018900000202071707A01280ED0B07A012813D070
:1018A000F07F0128D5D0608A401E0004000C6082C1
:1018B0006CD0ABE167E189E10020E06730600B9913
:1018C00001208871062148E02846FEF7A7FC0B9905
:1018D0000020887101207B214855207170790628ED
:1018E000287906D000221A2100E03BE1FEF7B4FC83
:1018F00036E000220621F7E72221FEF7B3FC31E1B2
:1019000000222221FEF7A8FC2CE1A07A012806D0B3
:101910002846FEF7ADFCA0720020B07176E1B079E8
:101920000128C0D12846FEF779FC00203072F07102
:101930007072B071B07213E0A07A012806D0284608
:10194000FEF79CFCA0720020F0715FE1F0790128A5
:10195000A9D10B99002088710B212846FEF794FC31
:10196000E07B002803D00AE740E014E03EE10DB040
:10197000F0BDA07A012803D02846FEF78BFC42E791
:101980008E48C07800288ED00321E6E73079012800
:101990002879B5D1B0E7A07A012811D08849002074
:1019A0002B180A18FF3301335278401C5A73082849
:1019B000F6DB2846FEF774FCA0720020307325E1A8
:1019C000307B012806D0608A401E0004000C608233
:1019D00006D01BE129790020039AFEF767FC38E75F
:1019E00029792220039AFEF761FCBBE0A07A012846
:1019F00003D02846FEF760FC05E77048C078002851
:101A000000D1EFE60120307323E7A07A012805D04A
:101A10000120F0752846FEF755FCF4E6707D01289C
:101A200006D0608A401E0004000C60820CD0EDE0FD
:101A3000B07D0128D3D1B08B0090738B327E297991
:101A40000020FEF745FC04E7B08B0090738B327EDC
:101A500029792220FEF73CFC84E0A07A012807D0F7
:101A60002846FEF73BFCA072099900204874CDE09F
:101A70005248C0780028C4D0099901204874E8E68B
:101A8000A07A012803D02846FEF72EFCBBE64B487F
:101A9000C0780028B5D00999002008742879FEF78D
:101AA00029FCD6E6A07A012807D02846FEF728FCB4
:101AB000A072089900200872A8E04048C078002869
:101AC0009FD00899012008723E484079012886D1AC
:101AD000089900200872BCE6A07A012803D02846A5
:101AE000FEF714FC8FE63548807800281DD0079853
:101AF000007B002803D10798407B002808D0079975
:101B0000012008740899002008720899C871A0E69D
:101B10000998417E079801730998817E079841735F
:101B200000212846FEF7F8FBECE72889718E96E63F
:101B3000A07A01280ED00898007A012814D00B98BA
:101B40008078012812D0207D01280FD0387E01280E
:101B500011D05BE01948C07800288CD0079901208B
:101B6000887276E6222144E6232100E02A212846D5
:101B7000FEF7D8FB47E6797E2846FEF7D3FBA07236
:101B80000020787642E0A07A012806D02846FEF7A9
:101B9000CFFBA0720120387638E00848C0780028D2
:101BA00099D1608A401E0004000C60822ED1064844
:101BB000042200212818FEF7C1FBD3E7E010FF1F25
:101BC000480EFF1FEC9DFF1F56020000A07A01285F
:101BD00003D02846FEF7B8FB15E60F48C07800286A
:101BE00002D00020F87534E60120C0E62846FEF752
:101BF000B1FB01288BD009E007990120C875FF21AE
:101C00004931485304488078012801D00020AEE6CD
:101C100007980178EDE50000E010FF1FF0B50546DC
:101C200087B0E03004902846A030039040380590FB
:101C3000092080012E462818FF36E13602903046F2
:101C40002030EF1DF9372C46803401909FE1E07A77
:101C5000801E0300FEF758FA1A0E3822396BF63848
:101C6000C13892D1A9383838383838F5F4F3F23819
:101C700038F1F038A07A012803D02846FEF7C8FAD8
:101C800012E0C5488078002801D0162130E1608A32
:101C9000401E0004000C60826FD076E1A07A01281B
:101CA00004D02846FEF75CFBA0726EE1BA48C0780B
:101CB0000028ECD02846FEF7B1FA2A4629462879B2
:101CC000C832C031FEF752FB61E1A07A012813D07F
:101CD0000498C07D012821D00498007E00287BD084
:101CE0002A4629462846D732B031E730FEF778FA3F
:101CF00004990120C8754AE1A748C078002805D09A
:101D00000399012088710020E0673860B8790128C4
:101D1000BDD106212846FEF7B7FA38E12846FEF77E
:101D20002BFB0128B9D10020B8710120BCE7A07AB3
:101D3000012803D02846FEF79BFAB5E79648C078FD
:101D40000028A4D0E88C68842846FEF767FA059935
:101D50000120C876207138790128287909D001221C
:101D60000021FEF779FA002038713872F871B871E5
:101D70000DE10021FEF776FAF5E7B8E0A07A012838
:101D800005D02846FEF786FA012807D0FDE0F8794D
:101D90000128BDD12846FEF741FAF8E00020F8718D
:101DA000039988710120A072F1E0A07A012804D083
:101DB00079792846FEF7E6FA76E77748C178002970
:101DC00006D0039A00219171059A0121D1762171E3
:101DD00080780028DED15AE78EE0A07A012803D06F
:101DE0002846FEF769FA5FE76B48C0780028F2D012
:101DF00001203873E88C6884CCE7A07A012805D0EC
:101E00000120F8752846FEF75DFA4DE7787D012838
:101E100006D0608A401E0004000C608213D0B4E03B
:101E2000B87D0128B6D1B88B00907B8B3A7E29799A
:101E30000020FEF74DFAADE78FE072E03BE02DE0C9
:101E40001BE009E09CE0B88B00907B8B3A7E2979FF
:101E50002220FEF73DFA4AE0A07A012806D0284663
:101E6000FEF73CFAA072002070748EE04A48C078F9
:101E70000028B0D0012070748CE7A07A012803D02C
:101E80002846FEF731FA0FE74348C0780028A2D071
:101E9000002030742879FEF72DFA7BE7A07A01281C
:101EA00003D02846FEF72CFA36E03B48C0780028DD
:101EB00091D0012018E0A07A012807D0707FB17F6F
:101EC00008401BD041071DD5042020E03248C078CF
:101ED00000288CD001990020C871019A012111724B
:101EE0002E490979012987D10199087252E72221E7
:101EF0002846FEF799F9012007B0F0BD707E707595
:101F0000B07E05E0800701D5022000E00120707559
:101F1000B0752846FEF73CFAA072019900200872BD
:101F200033E0A07A012807D02846FEF701FAA07214
:101F300002990120087628E01748C07800289BD134
:101F4000608A401E0004000C60821ED114480422E6
:101F500000212818FEF7F2F9C9E7A07A012803D07A
:101F60002846FEF7F1F99FE60B48C07800280ED00E
:101F70000299002008760299C875FEF70FFA09E762
:101F80002846FEF7E7F9012887D00020B4E7E07B78
:101F9000002800D05BE6AFE7E010FF1FEC9DFF1FBD
:101FA0005602000070B51F48012201781E4D00291D
:101FB00015D01E48A1218078890048431C491D4C3A
:101FC0000968227046182078FEF7EEF9A87B0028F1
:101FD0001AD003281BD002281CD0002070BDA97B7A
:101FE000002904D0032904D0022904D005E002709E
:101FF00003E0042100E003210170FEF791F80E498F
:1020000000200870012070BDFEF7D4F904E0FEF74F
:10201000D7F901E0FEF7DAF9FF36FF360236317BF9
:10202000217070BD1C09FF1FA60BFF1F300DFF1F85
:102030003409FF1F490AFF1F2309FF1F14491348D2
:1020400088631348134940304161134901611349C2
:102050000F4A01621249803A116312490160134923
:10206000114A0A60124A8A601249104A41621249B2
:10207000403A5161114981601149816111494160C2
:10208000124A114991601249C16170475548FF1FBA
:102090008001FF1F9113021105120211DD130211BD
:1020A000F928FF1F4D1702116D5BFF1F8002FF1FF4
:1020B0009564FF1F514CFF1F1178FF1F8D7AFF1F82
:1020C000E9080211B549FF1FA91602118000FF1F80
:1020D0006121021110B5FEF77FF9FEF783F910BDFB
:1020E00003480249C160034981617047D970FF1FED
:1020F0008002FF1F4D66FF1F0E480D4901600E490B
:1021000081600C490D4A40314A610E4B0C4A5A61BC
:102110000D4AC2620D4A82630D4A8A600D4A4263CB
:10212000084A0D48403A10620C4888617047000028
:10213000711002114000FF1F7D0E0211D57AFF1FA2
:102140001178FF1F4002FF1F1D4CFF1F314AFF1F68
:10215000A91602111D1C0211AD4FFF1F6D2EFF1F8E
:1021600070B5FDF7B3FF904C002025682060FEF7A6
:102170003FF906462560FDF7B5FF304670BD8B4937
:10218000C968FF31813188657047F8B5FEF736F9C7
:10219000864D874A68721178022903D9002801D137
:1021A00001201070834900200446E9608300401C30
:1021B000CC50FF28FADDE8687F49882319507F4911
:1021C000C1627F490978002902D07C491131C1627E
:1021D0000A210165117881637A49C161FEF714F91A
:1021E000E9687948486119208001886108463722EA
:1021F0008030C260082336220B64CA631E224A6400
:1022000036224260322202603B220364C2632822EB
:1022100042644122C26439228264322243650265EB
:1022200028228265022202664222C2651E2283663D
:1022300042662822C26620224267422202675A2250
:10224000436102613C228261192292010A605F4A65
:102250000A63FF222D328A60CA60FF22F5320A61CA
:102260005B4A8A647D22D2005A4EC267CE644A62BB
:10227000594A8A623222CA6506224A658A65CA1D9F
:10228000F932022513604D664B25ED008D66092558
:10229000CD66524D0D678C674B67AB10CB67504FC7
:1022A000FF313E604A4E86627D26F60086676426D0
:1022B00046620526C66202260663C8264663846314
:1022C00038205060474810644B2080019061B00076
:1022D000D061581010627D2000015062D46695656F
:1022E00013665364D565146753671E2090663E4895
:1022F00090673E485B008131D0670B608B6048601F
:10230000FF20F530C86008614B20C00010630E65E7
:1023100038483749274A81603749803A1161354941
:10232000364A80318A62364ACA62364A8261364A01
:10233000C262364A02632F4A3548403A50633548F4
:10234000D0633548C861354890632A4934484031E4
:10235000886135493348886026483449803841606F
:102360003349244A41633349C03AD1603349324B3F
:10237000204CCB63324B403C2363324B9362324A56
:10238000C263324AC260324A4A63324AE260324A27
:102390008A63324A0A6332498163FEF73BF80120BF
:1023A000FEF73EF8F8BD00009809FF1FEC9DFF1FE7
:1023B0004A0AFF1F0004FF1F00D9FF1F6E04000020
:1023C000389BFF1F3A07000080C3C9019A02000032
:1023D00050C30000280A00006A180000204E0000C8
:1023E000F009FF1F00400011DC05000040420F0013
:1023F0003554FF1F0001FF1FD12BFF1F5981FF1F05
:102400002D84FF1FDD28FF1F712AFF1FF928FF1FE2
:10241000F13CFF1FE13AFF1FF598FF1FE196FF1FF8
:102420003128FF1FE91002110002FF1FA94AFF1FF8
:10243000B951FF1F252EFF1FA10C02110000FF1F25
:10244000D97BFF1F8D4DFF1F8557FF1FC54DFF1FF8
:102450000D2EFF1FFD4AFF1FC5140211B92DFF1FCE
:10246000B173FF1F0A7802708A7842704A88120A94
:1024700082700979C170042070470A780270098857
:10248000090A4170022070470A7802700988090A17
:10249000417002207047097801700120704770B5C3
:1024A0000C46097801702188C51C090A4170A17881
:1024B00081706088611D000A28706D1C2279284691
:1024C000FDF752FE20792146401922890A31FDF795
:1024D0004BFE207921894018001D80B270BD10B5D7
:1024E00000220EE093005B189C7804705C88521CFC
:1024F000240A44701C7984709B88D2B21B0AC37072
:10250000001D0B789342EDD81806800D10BD0A7897
:1025100002700A88120A42708A7882704988090A11
:10252000C17004207047F8B50D4606464978012071
:1025300031700024761C16E06978012917D0122129
:10254000614349198A7832704A88871C120A72706E
:10255000B61C10223046091DFDF706FE1037B8B232
:102560001036641CE4B22978A142E5D8F8BDA10078
:1025700049198A7832704A88871C120A7270B61C10
:1025800002223046091DFDF7EFFDBF1CB8B2B61C94
:10259000E7E710B50C46097801702188090A4170F7
:1025A0006288211D801CFDF7DFFD6088801C80B2E1
:1025B00010BD10B50C46097801702188090A4170D8
:1025C000A17881706188090AC170A288A11D001DCF
:1025D000FDF7CAFDA088001D80B210BD10B50C46E5
:1025E000097801702188090A4170A1788170618899
:1025F000090AC170A288A11D001DFDF7B5FDA088C4
:10260000001D80B210BD0A7802700A88120A42705A
:102610008A7882704988090AC1700420704710B511
:102620000C460A88891CFDF79FFD208810BD10B557
:102630000B788A7802705343DCB22246401C091D95
:10264000FDF792FD601C10BD10B50C4609780170B5
:102650002188090A4170A17881706188090AC170D6
:102660002279611D001DFDF77FFD2079001D10BD41
:1026700010B50B788A7802705343DCB22246401CB6
:10268000091DFDF771FD601C10BD10B50C460A88D0
:10269000891CFDF769FD208810BD10B50C460A881D
:1026A000891CFDF761FD208810BD10B50C46097826
:1026B00001702188090A41706288211D801CFDF784
:1026C00053FD6088801C80B210BD7FB5154604465E
:1026D000022901D0102903D1022B04D0102B02D0E3
:1026E000002004B070BD994202D10A46294607E095
:1026F0001029694607D000F00DF8102269462846D7
:10270000FDF77AFDEDE7104600F004F81022694667
:102710002046F5E770B50C4605000CD0002C0AD019
:10272000102206492046FDF71FFD2878207368789F
:102730006073012070BD002070BD0000EBF302113A
:1027400010B50B460122024903F0A2FB10BD0000A8
:102750006524021110B50A88173AE02A05D80B46FD
:102760000222034903F094FB10BD022010BD0000BB
:102770007B24021170B5064608880C46172812D330
:102780000B4603220949304603F082FB050008D1BD
:10279000074920880988884200D20146304600F067
:1027A000A3FA284670BD022070BD000089240211E2
:1027B000749EFF1F10B50B461822024903F068FBF8
:1027C00010BD00009724021110B5002319221946EC
:1027D00003F05EFB10BD000010B50A79022A01D09B
:1027E000022010BD0B460622014903F051FB10BD2B
:1027F0009F24021110B50A78002A05D00B46072243
:10280000024903F045FB10BD022010BDDF24021178
:1028100010B50B460422024903F03AFB10BD00003C
:102820000F25021110B54A78012A01D0022A08D1D9
:102830000A78002A05D00B460522034903F028FB3D
:1028400010BD022010BD00002725021102494000E2
:102850008968085A70470000689EFF1F10B5002362
:102860001E22194603F014FB10BD000010B50B46E4
:102870001D22024903F00CFB10BD0000932502113C
:1028800010B50B461B22024903F002FB10BD0000ED
:102890009325021110B50649002089681723054ABF
:1028A00002E044000B53401C1478A042F9DB10BD39
:1028B000689EFF1F489FFF1F042901D00420704716
:1028C00001781170837841781B02C9185180C07853
:1028D0001071002070470098022B01D0042070472F
:1028E000117852781202891801800020704702295D
:1028F00001D0042070470178407800020818108049
:10290000002070470098012B01D0042070471178F7
:10291000017000207047002901D00420704700207A
:10292000704770B5049C1E461546062B1BD369786C
:102930002878090240182080E978A8780902401810
:10294000608002222271291D601DFDF70DFCB61F5B
:10295000B2B22281F02A06D82046A91D0A30FDF71E
:1029600003FC002070BD042070BD0098042B01D032
:1029700004207047537811781B02C91801809178A0
:10298000D2781202891841800020704710B5029851
:102990001146022B0FD34C780A78240212190280B8
:1029A0009B1E9AB24280F42A05D8001D891CFDF7AF
:1029B000DBFB002010BD042010BDF8B584890D4656
:1029C0000646002C26D0B2681778380620D50C2C85
:1029D00020D90C3CA4B21019009001217088234624
:1029E00003F0DEF9002811D0022028707806C00F0D
:1029F0006870B806800EA870641E2004000CA880C1
:102A000001D0B068401CA8600020F8BD0120ECE7B0
:102A10000020EAE70120F8BD10B502981146042B0A
:102A200014D34C780A78240212190280CC788A7860
:102A30002402121942801B1F9AB28280F22A05D802
:102A4000801D091DFDF790FB002010BD042010BD66
:102A50000098042B01D004207047537811781B0292
:102A6000C91801809178D27812028918418000201B
:102A7000704770B50546144603290CD3491ECEB2E3
:102A800029786180F52E06D8002904D03046FDF75C
:102A9000C9FA002901D0042070BD20703246691C9B
:102AA000201DFDF761FB002070BD10B50298114696
:102AB000062B03D0142B03D0042010BD022200E00B
:102AC000102202714B780A781B02D2180280CB7850
:102AD0008A781B02D21842800279401D091DFDF739
:102AE00043FB002010BD70B50546144603290CD3E6
:102AF000491ECEB229786180F52E06D8002904D06F
:102B00003046FDF78FFA002901D0042070BD2070F7
:102B10003246691C201DFDF727FB002070BD000018
:102B200030B5039CD80718D1D805010E022914D35B
:102B30000B488088814210D8F6200155002008E01B
:102B4000557813782D025B194500401C6353C0B2C1
:102B5000921C8842F4D3002030BD042030BD000018
:102B6000689EFF1F0098022B01D004207047117847
:102B700052781202891801800020704770B51446FF
:102B800002460498022B18D3667825783602AD19D0
:102B900005800546E0352A766976002A0BD0E821C3
:102BA0009B1E9AB242808A4207D8A11C001DFDF7E5
:102BB000DBFA002070BDF421F2E7042070BD00298B
:102BC00001D00420704700207047000010B50B466C
:102BD0001622024903F05CF910BD0000B325021172
:102BE00010B50B461722024903F052F910BD000040
:102BF000DD25021110B50B460C22024903F048F9FD
:102C000010BD00000726021110B50B460D22024927
:102C100003F03EF910BD00001F26021110B50A791D
:102C2000102A03D0022A01D0022010BD0B46102228
:102C3000014903F02DF910BD4926021110B50A789B
:102C4000002A05D00B461122024903F021F910BDDC
:102C5000022010BD2F26021110B50A79102A03D0C8
:102C6000022A01D0022010BD0B460822014903F0C0
:102C70000FF910BD4926021110B50A78002A05D0B7
:102C80000B460922024903F003F910BD022010BDD2
:102C90007126021110B50B460F22024903F0F8F815
:102CA00010BD00008B26021110B50B460B22024905
:102CB00003F0EEF810BD00009B260211F72800D9A2
:102CC000F720084A01461080401EC3179B0F1818B2
:102CD0008003000C5080491EC80F4018C003000C30
:102CE00090807047689EFF1F034A1388994202D85C
:102CF0009268400011527047689EFF1F70B50B46E6
:102D0000E0331C7E1222012C0AD10A4D42002D68AC
:102D10004C88AA5A0F3A944201DD022070BD9222DB
:102D20005B7E012B01D140231A430B46024903F07D
:102D3000AFF870BD709EFF1FAB26021110B50023C7
:102D40001322194603F0A4F810BD000070B50C461C
:102D50000146012080020A1A00251C481300FDF7D5
:102D6000D3F90F32090B0D1012181A1C2A1F212338
:102D700025272A00808A23E0407800E080782070B0
:102D800021E0C078FBE7102211492046FDF7ECF95D
:102D900019E00079F3E7807AF1E78069206012E0BA
:102DA000007AECE7407AEAE7C07AE8E7807BE6E77A
:102DB00003F0BEFCE3E7272904D2084600F09AFF9F
:102DC000208000E00225284670BD0000A89BFF1F60
:102DD00064C4FF1F10B50249087003F0BDFD10BDAB
:102DE000A89BFF1FFFB593B00546002010901190DF
:102DF0001E4610AA284600F01DFA044643A003F020
:102E0000D1F8062110A809F0AFFF0A2C56D22046AF
:102E100003F081FD0546082E19D0002000903346AE
:102E20002A462146159803F05BFC142200210BA8CA
:102E3000FDF784FA20460621484307462430C0B2F5
:102E40000BAA10210AF05AF8002802D014E0012041
:102E5000E4E71022FF210BA8FDF7E8FA00280BD1C8
:102E60002537F8B20FAA04210AF048F8E907C90F7C
:102E70000BAA159801F0ECF87034E0B201AA2821F1
:102E80000AF03CF8002811D101A803F056FD0024F7
:102E900001AFA000C0190188002903D082781598DD
:102EA00001F0F4FB641CE4B20A2CF2D3A80707D5A6
:102EB00018480178159801F0D7FB01E0082E02D0E0
:102EC000042E17D01FE0134815991130405C0228DA
:102ED00019D100222946159803F078FB0D48C069E6
:102EE000002810D04368002B0DD000221146159801
:102EF000984708E0074815991130405C022802D134
:102F0000084603F061FD002017B0F0BD7265733A0A
:102F10000A000000A89BFF1F70B500240546002989
:102F20000BD108491046FDF77DF80846294600F008
:102F300079FF040003D00121284601F0AFF82046B4
:102F400070BD000040420F0070B50C46080428D543
:102F500015480078FDF770FA05001ED00278B02AF7
:102F600008D0B12A0ED0D02A14D100F01FF80028C2
:102F700010D112E001791E290CD16888002100F0DF
:102F8000B3F907E00179002904D10289C188688872
:102F900000F09EFA2846FDF755FA0120C003604074
:102FA00070BD002070BD0000A89BFF1FF0B5044657
:102FB0008078954F801F3D4685B0113D0026030067
:102FC000FDF7A2F80AFD1111891B06CD115E9A11B9
:102FD000E869002808D00668002E05D0637B227BB4
:102FE0006189E01CB0470DE16189A86900F01AFF12
:102FF0000028F8D060890121D8E0607800282DD120
:10300000A079C0072AD0A0887F49800013310858D2
:10301000002823D10E2200216846FDF78FF961694F
:10302000002903D006226846103107E0A08807F087
:1030300041FB0028D7D0C11D06226846FDF794F851
:1030400069468889A1794907C90F0843694688817B
:103050002146684603F0FCF9002809D0E8690028F9
:10306000C1D04368002BBED06278A08801216FE0F8
:10307000A0882246694603F077FD002005B0F0BD28
:103080006078062817D1A08807F014FB060012D03C
:10309000687B012804D0022808D003280BD114E053
:1030A000B179A088002203F091FA04E0A188307879
:1030B000052201F003F8E86900281CD04368002BC2
:1030C00019D06278A088022142E0002211464F48C0
:1030D00000F040F9EAE7E0780022211D00F0AAF8AC
:1030E0000A2808D20621484325302246C0B20C32B5
:1030F000042109F01FFF85E0287A0028A08801D06C
:10310000697A53E0395C002924D007F0D3FA0646E7
:10311000A07AC0070DD0002E74D0B079002808D056
:10312000A189890505D46A46F11D00F083F80028BD
:1031300012D02246B179A088083203F047FAE86934
:1031400000285FD04368002B5CD00022A088114685
:10315000984757E0052129E0A088032126E0A588AB
:1031600001962846029607F0A5FA04004AD0785D39
:10317000022847D0A07901AAE11D00F05BF80646BD
:103180000A280AD203F0C7FB024601200090082358
:103190003146284603F0A4FA34E0785D002803D0D5
:1031A000012806D02EE00AE00521284600F076FF2F
:1031B00028E0A1790022284603F008FA22E000F076
:1031C00011FE00281ED1E87B012805D0104D0024F7
:1031D000285D012809D00CE003F0EEFAEE730A2214
:1031E00000210B48FDF7AAF807E0204603F0F0FAAB
:1031F0002E55641CE4B20A2CEAD3502009F07CFE60
:1032000003F0AAFB012039E7B99BFF1F0904000066
:1032100000C5FF1F10B5064CE0612178FF2905D0DD
:10322000262000F005FF207801F0CEF910BD000047
:10323000A89BFF1FF0B50A2485B015460F4600284D
:1032400006D0012804D0022810D0032846D11FE060
:10325000084603F01FFB04460A283FD2002D3DD04C
:10326000062239462846FCF77FFF37E01D4E002432
:103270000E206043801906223946801DFCF7BCFFF2
:10328000002823D1641CE4B20A2CF1D30A241DE0E7
:1032900000242046062148432330C0B26A4610214C
:1032A00009F02CFE00280CD11022FF216846FDF702
:1032B000BDF8002805D13946684600F06BFE0028AD
:1032C00004D0641CE4B20A2CE3D3DFE70A2C05D255
:1032D000002D03D02946204603F002FB204605B00E
:1032E000F0BD000074C4FF1F70B50E4617491525C8
:1032F000884212D1002432460221204603F030FADF
:10330000002800D00025641CE4B20A2CF3D3002E60
:103310001AD00F4807F040FA16E007F0CBF9040086
:1033200011D0A0790022E11DFFF784FF0A2804D202
:103330003246022103F014FA0025002E04D0204664
:1033400003F038FB00E01425284670BDFFFF0000A5
:10335000B5690211FEB5154601229202821A0024B7
:103360000127584E1300FCF7CFFE110A151A212829
:103370002F373E434B767E858DA29956A2000129B8
:1033800070D1297802296DD84E4802221130FCF7FD
:10339000D5FF94E0022965D12888B0828FE0012909
:1033A00060D1287801285DD8707088E001297CD12F
:1033B0002878042879D8B07081E0012975D128785F
:1033C000012872D8F0707AE010296ED110222946B7
:1033D0003D48FCF7C9FE72E0012966D12878012832
:1033E00063D830716BE001295FD12878B07266E054
:1033F00004295AD135492868884256D8B0615EE020
:10340000002952D100F0EEFC002801D0F77356E0FD
:1034100003F0D2F919E0072947D10622691C684652
:10342000FDF716F8287800226946FFF703FF0546E6
:103430000A280ED200F0D6FC002803D022489C3087
:1034400047553CE0284603F0C3F9502009F054FDED
:1034500021E0022433E0012927D12878012824D84B
:1034600030722CE021E001291FD1287809281CD8CE
:10347000707224E0012918D12878C11F092914D8B5
:10348000F0721CE0012910D1B17B2878B0730029BB
:1034900015D1012813D103F05FFA10E0012904D1FE
:1034A0002878032801D8707309E0182407E027283A
:1034B000CFD20229CDD1298800F0BAFD044620469A
:1034C000FEBD0000A89BFF1F64C4FF1F3F420F000A
:1034D000F8B50F4613491525164688420DD100242C
:1034E00032463946204603F08FFA002800D00025E6
:1034F000641CE4B20A2CF3D312E007F0DBF80028D6
:103500000DD08379C11D00221846FFF793FE0A28CB
:1035100006D23246394603F077FA002500E014253A
:103520002846F8BDFFFF000010B50248807800F083
:103530007DFA10BD809BFF1F3EB5084C6D46A478F8
:103540002C706870A970EA700622194601A8FCF771
:103550000BFE684600F04CFB3EBD0000809BFF1F49
:1035600070B52D4E0C462B4B024631460025C01A35
:1035700020319A4244D00CDC2848101A0300FCF792
:10358000C3FD0D1D1F232A2D161616163A16163DBD
:10359000160006282BD006DC032833D0042822D0BE
:1035A000052804D121E0072823D0F7282CD0272A8A
:1035B0002CD2104600F09EFB208028E030781BE0E3
:1035C0001022711C204603E01349102211312046BD
:1035D000FCF7CAFD1BE0706A206018E00E49062265
:1035E00028312046F4E7F08DE6E7308EE4E7708E70
:1035F000E2E7B08EE0E7087E207008E0487EFBE757
:10360000887EF9E7C87EF7E7087FF5E702252846B8
:1036100070BD00000D03000020C4FF1F0003000068
:1036200010B50C4CA07009F02DFA442200210A4874
:10363000FCF784FE01F0B8F9A07801F03FFA0748E2
:10364000FFF7E8FDFF22F5320421A078FCF706FF22
:1036500010BD0000809BFF1F20C4FF1F8CF20211D1
:1036600070B50C46080417D51C488078FCF7E4FEBA
:1036700005000ED00178A22908D0B02904D0D029A5
:1036800004D101F01BFF01E008F01CFC2846FCF708
:10369000D9FE0120C0031CE0E00703D009F086F941
:1036A000012016E0A00702D50220484070BD200787
:1036B00004D50B4800F0E0F808200AE060070AD5BE
:1036C000FF20F53009F048FB09F0A0FA09F0BAFA3A
:1036D0000420604070BD002070BD0000809BFF1F73
:1036E000FEFF0000F8B5554E1546534B02463746CF
:1036F0000024C01A20379A424AD00EDC5048101AD3
:103700000300FCF701FD12272C323B202020202053
:103710005420205B622020694020F4286BD008DC14
:1037200001283AD002283DD0F2285AD0F3280AD1F5
:103730005CE0F52864D0414B4033F62865D0F7288B
:1037400068D0F8286BD0272A01D202296ED0022433
:103750002046F8BD012964D128783070F8E7102997
:103760005FD110222946701C05E0102959D1334839
:10377000102229461130FCF7F7FCE9E7042950D163
:1037800028687062E4E702294BD12888F085DFE7DA
:10379000022946D128883086DAE7022941D12888D3
:1037A0007086D5E702293CD12888B086D0E7012968
:1037B00037D12878042834D83876C9E7012930D1A0
:1037C000287807282DD87876C2E7012929D12878CA
:1037D000032826D8B876BBE7012922D12878F876C5
:1037E000B6E701291DD128783877B1E7012918D12A
:1037F00028787877ACE7012913D12878B877A7E73C
:1038000001290ED12878F877A2E7012909D1287873
:1038100018709DE7012904D12878587098E702298B
:1038200001D0182494E72888588091E72988104609
:1038300000F0FEFB04468BE71203000020C4FF1FCC
:103840000003000010B5002801D0034A506008466C
:1038500001F002FE002010BD809BFF1F38B5054B14
:103860006C469B7823706070A170E270684600F02F
:10387000F9F838BD809BFF1F014610B5024813229E
:10388000807800F01BFC10BD809BFF1FF8B504463C
:103890002F480F460078022805D0012803D00828B9
:1038A00003D1002F01D01220F8BD002C08D0294DE3
:1038B0002088EA6881005158002903D01120F8BD02
:1038C0000220F8BD06F0F6FE06003BD02C20FCF7E7
:1038D000CBFD2188EA6889005050002834D02C2282
:1038E0000021FCF72BFD2088EA68810051581C223A
:1038F00048802088E96880000858211D001DFCF7D9
:1039000033FC2188EA688900515802200870228817
:10391000E96890000B5870791B1D002816D0002014
:103920000D49097802F0E0F90546002F03D0394629
:10393000304609F09FFF002D02D0208803F0C2F925
:103940002846F8BD1420F8BD1320F8BD0120E7E794
:10395000899EFF1FEC9EFF1F199FFF1FFFB5204D83
:1039600081B028781E461746022823D0012821D08E
:10397000002F22D0019806F09DFE04001FD0606A3F
:10398000002801D0FCF776FD1C213846FCF778FDB5
:103990006062011E15D02878000714D5002E12D0C1
:1039A000887E00900B4612330A8A01980AF046FA84
:1039B000014609E0122005B0F0BD0220FBE714200B
:1039C000F9E71320F7E70021207904221043207142
:1039D000029A002A02D00222104320710846EAE728
:1039E000899EFF1F10B505480078000701D50448DF
:1039F00000E0002003F0E6FD10BD0000899EFF1FDF
:103A0000809EFF1F10B5FEF7BAFB06480A2100781A
:103A1000084204D0044803F0CFFD002010BD01206F
:103A200010BD0000899EFF1F789EFF1F10B50B4937
:103A30000968002904D00978814203D0032010BD11
:103A4000122010BD064801210078FCF76FFB3020E2
:103A500003F0E6FD002003F0DFFE10BDE49EFF1F33
:103A6000199FFF1F38B5234D04462868002801D050
:103A7000112038BD20480A210078084201D11220C7
:103A800038BD0420FCF7F0FC286000282FD0042269
:103A90002146FCF769FB00F0A5F9002805D00C20B1
:103AA00000F028F905460D2007E06078022812D0C2
:103AB000102000F01FF90546112000F01BF9024606
:103AC000E078002800D0012000900C480078002801
:103AD00007D0012306E0122000F00CF90546132060
:103AE000EBE70023A0782946FCF7D0FC38BD132073
:103AF00038BD0000E49EFF1F899EFF1F8A9EFF1FA6
:103B0000FFB51E4681B017460D4602240B00FCF798
:103B1000FBFA0D210B0B0B0B210B210B0B212108A9
:103B200021000EA002F03EFA2946019800F05EF94D
:103B300004000FD130460B9A0A9900F02FFA38464C
:103B4000FFF760FFFFF74EFF01F0F0FF00F08EF986
:103B500002F08EF8204605B0F0BD00004741505FEE
:103B6000446576696365496E69743A204741505FE0
:103B700050524F46494C455F43454E5452414C20AC
:103B80007C204741505F50524F46494C455F50455D
:103B9000524950484552414C200A000070B5104C23
:103BA0002168002904D00978814203D0032070BD28
:103BB000122070BD0B4D02212878FCF7B7FA0A4895
:103BC0000026468004212878FCF7B0FA07480680D2
:103BD0002168032048700020FCF75EFC70BD0000E7
:103BE000E89EFF1F199FFF1FFC9EFF1F8C9EFF1F5B
:103BF000F0B505463B4889B00078000702D4122092
:103C000009B0F0BD03F0D0F8002801D01020F7E78C
:103C100000F0E8F834490978884201D31520EFE72D
:103C2000324C2068002801D01120E9E70A20FCF777
:103C30001BFC2060002851D00A222946FCF794FA88
:103C400020684078002805D00E2000F053F8089036
:103C50000F2004E00C2000F04DF808900D2000F03B
:103C600049F8054622480078002835D001261C2056
:103C700000F040F804901B2000F03CF8039019205D
:103C800000F038F802901A2000F034F807461620A9
:103C900000F030F80190152000F02CF80090216819
:103CA000C878091D02F090FB034602A807C80497D4
:103CB00005AF07C72268019900980391141D02906F
:103CC00001960094927829460898FCF7EBFB0400D3
:103CD00005D003F01BF802E00026C8E713242046B5
:103CE0008EE70000899EFF1F489FFF1FF09EFF1F69
:103CF0008A9EFF1F272803D202494000085A7047B6
:103D000001487047949EFF1FFFFF000010B5044C50
:103D10006070FCF7CDFB0521607801F017F910BD4C
:103D2000189FFF1F70B5284E054630680C460028C6
:103D300001D0112070BD254801780520014216D020
:103D400023488068002805D00078002802D0C807E2
:103D500006D101E0102070BD00F044F8002808D022
:103D60002078032805D0022803D0002801D0122093
:103D700070BD0C20FCF778FB3060002820D0057067
:103D8000002141700A222146801CFCF7EDF903F066
:103D90006FFD040002D002F089FF12E00D480078A8
:103DA00003280ED11D20FFF7A5FF0B49002808802E
:103DB00007D00B48094A04210078FCF74FFB00E0CC
:103DC0001324204670BD0000E89EFF1F899EFF1F40
:103DD000FC9EFF1F8A9EFF1F8C9EFF1F60EA000053
:103DE000199FFF1F10B506F0C1FC10BD70B50C4641
:103DF00005461C2200210948FCF7A0FA0848057076
:103E00004470FCF75BFB0549002803D000200870D4
:103E1000122070BD01220A7070BD00005CD0FF1F2F
:103E2000889EFF1F7FB504460D46084606F042FCFB
:103E3000002805D00C48844204D9022004B070BD8B
:103E40001220FBE7102200216846FCF777FA68464B
:103E50000470210A4170210C8170210EC170294625
:103E600001F074FEEAE700003F420F0070B50F4C0E
:103E70000025A068002802D0FCF7FCFAA560E068E5
:103E8000002802D0FCF7F6FAE56009480521007821
:103E9000084206D00548103003F09AFB02F0AEFA53
:103EA00070BD002003F094FB002070BDFC9EFF1F3E
:103EB000899EFF1FFEB5344D0C46080419D568785D
:103EC000FCF7BAFA0121C9034C40064600280ED07F
:103ED00003F068FA002807D12878FF2804D031467B
:103EE000FCF7F2FA002802D03046FCF7ABFA204685
:103EF000FEBDE007012700280AD0A868002804D0EA
:103F00004168002901D00020884720467840FEBD46
:103F1000A00709D56868002804D04168002901D0AD
:103F20000120884702202AE060072AD5174E3088F2
:103F300000281FD0401E0004000C30801ED102F06B
:103F40002BFF002809D0124807706868002804D0A9
:103F50004168002901D00120884702F0F7FE694638
:103F600001F062FD684603F007FA1D20FFF7C2FE6C
:103F7000308003E004216878FCF7D8F80420604022
:103F8000FEBD0020FEBD0000189FFF1F8C9EFF1F7E
:103F90008B9EFF1F10B501F045FE10BD70B50E4C95
:103FA0000B46261D07C60546102200211846FCF7C1
:103FB0003DFA012803D11021A06809F0E1F910228F
:103FC00000212846FCF732FA012803D1102160684D
:103FD00009F0D6F970BD00005CD0FF1F38B505466A
:103FE00010480C460078400701D4122038BD2846FE
:103FF00006F060FB002812D00B48A900006840586A
:10400000002801D0817D00E02146684609F070FF5C
:10401000064B6A460221284609F0CCFE38BD142022
:1040200038BD0000899EFF1FF89EFF1F01E40211AA
:10403000272807D2044A914204D0044A4000115272
:104040000020704702207047FFFF0000949EFF1F72
:1040500070B50E46104915460978022916D0012977
:1040600014D0002D14D006F025FB040012D0002E31
:1040700003D0207902210843207110222946A0187C
:10408000FCF772F828692062002070BD122070BD14
:10409000022070BD142070BD899EFF1F38B50C46EC
:1040A000054606F007FB002806D0684604706946FE
:1040B000284609F06DFE38BD142038BDF8B50D4610
:1040C00017461D4906461B4A12248868954208D1A6
:1040D00000282DD00268002A2AD029463046904771
:1040E00023E0144A521C954213D1002807D00268DD
:1040F000002A04D0294630469047040005D03946AE
:10410000304601F067FF040012D10B48067047707B
:104110000EE0284606F0CEFA002809D00078B0421A
:1041200005D139462846FCF7D5F9044600E00324BA
:104130002046F8BDFEFF0000EC9EFF1FF8B50E46BE
:10414000014619481546007805221F46104028D020
:10415000304326D01548012E1BD0C468002C20D037
:104160001F2D18D8002D01D0002F14D001701F2250
:104170000021601CFCF7E2F82A463946601CFBF778
:10418000F3FF28462570002E07D0611CFCF7A8F924
:10419000F8BD8468E2E70220F8BD611CFCF7A6F9CF
:1041A000F8BD1220F8BD0000899EFF1FFC9EFF1F76
:1041B000014610B50020C90704D0034A0421034872
:1041C00000F008FA10BD000028F30211689CFF1FE0
:1041D00010B5002309E01C012418E468944202D1C0
:1041E0001901081810BD5B1C9BB28B42F3D3002051
:1041F00010BD000070B50E4D0F4CA8700D49204643
:1042000000F020F800210D480B46CA008452121815
:10421000491CC9B253600229F7D3012004F002FE01
:10422000A87800F051FC064806F0D0FA70BD0000F6
:10423000589CFF1F10C9FF1FFFFF000020C5FF1F74
:104240006986021170B50A4C0025A04209D10020F0
:1042500082008C525218401CC0B295700328F7D3CC
:1042600070BD04F0D0F90028FAD00480857070BDCC
:10427000FFFF0000F8B50E46074606990024079890
:10428000002902D00B242046F8BD022B01D00D24BA
:10429000F9E711785278120289188DB229468143C4
:1042A00001D08024EFE73846F16800F085F9A84294
:1042B000E9D02A463846F16800F016FA0400E2D147
:1042C00071892A46384600F0B3F9DCE7FFB51F468E
:1042D0000446C1B022881E4B00254A989A4233D02A
:1042E000A278002A30D00A4601463846FFF770FF10
:1042F000060029D0174A208812684100515C00232B
:10430000C91EC9B203AA02320193029100927A89AE
:1043100004AB314600F03CF8002815D1708969469D
:104320008881A078C00705D0208803A9439A00F0AF
:1043300093FB0546A078800706D5208803A94B9BF0
:10434000439A00F0F9FA0543284645B0F0BD000055
:10435000FFFF0000709EFF1F70B50C46080412D5C9
:104360000A488078FCF768F8050008D02878B0285B
:1043700002D1284604F066FA2846FCF763F80120CB
:10438000C003604070BD002070BD0000589CFF1F3E
:10439000FFB583B0087A00250C9E1C460F46C00668
:1043A0000DD5059804F028F9030006D00A223946F5
:1043B00003989847050035D101E00E2532E03878A2
:1043C00002281DD178682922017840781202000263
:1043D000081881B2881A91427ED009DC7348081A05
:1043E00023D0012821D002284FD0032808D125E06E
:1043F000012872D0022871D003286DD004286ED015
:10440000059804F021F900286AD00568002DD4D061
:104410000E990D9801910090334622463946039833
:10442000A8470546284607B0F0BD0D98002872D170
:10443000F868017831800278416896E00D9800288C
:1044400069D101203080F8680021007820707889D7
:10445000401C80B200F0CEF900280DD031880278DF
:104460008918891C3180817A61704189090AA1709B
:1044700002784168E01C79E030880422001D308019
:104480000021601CFBF75AFFCCE70D98002875D17E
:10449000F86802A9008800900420308000982070FD
:1044A0000098000A6070009800F0A4F9070029D075
:1044B000F86800906846028901AB3D49384600F033
:1044C000F1F9002810D13B7802213A487A68FEF7CA
:1044D000FCF8002808D104E026E030E01CE04AE0C7
:1044E00062E03348694688800098007802280CD141
:1044F000009802224168201DFBF736FE3088801CA0
:10450000308002E069460098888068468088A07004
:10451000000AE07086E731E00D9800282ED1F96896
:10452000039800F049F804E00D98002826D1F868B7
:104530000088022131802070000A607072E7F868FC
:10454000FBF7DAFF0D99C0B2814212D8814201D146
:10455000002206E00E9A8918814202D30D99401A72
:10456000C2B23280F9680D9809182046FBF7FCFDAD
:1045700058E7072556E70D98002801D00B2551E78D
:104580000721F86831800178217041786170817865
:10459000A1704188090AE170017921718179617105
:1045A000C088000AA0713DE700252FE70028000021
:1045B000FFFF000062F4021110B504F024F8002897
:1045C00000D0807810BD00000149087070470000DD
:1045D000589CFF1F7CB51546040019D0684601940D
:1045E000018000F077FA03001DD1002D1BD06489F3
:1045F000002C0DD00C20FBF737FF00280AD0002339
:1046000003608480094A85609168002904D006E02F
:10461000022308E0132306E0906004E011460A68D4
:10462000002AFBD1086018467CBD0000589CFF1F83
:10463000F8B50C4C0746207815460E46FF280FD0DB
:104640000A20FBF75FFF01000AD0B12008700020AC
:10465000487008714F80CE800D812078FBF734FFC1
:10466000F8BD0000589CFF1F70B50C460546064972
:10467000FFF7A2FF800704D52146284600F07EFA06
:1046800070BD012070BD000010C9FF1F1CB56B4636
:104690001A71120A5A7100220092022301AA00F034
:1046A00001F81CBDFFB583B008461F4601A90C9E4A
:1046B00000F0A0F8050014D06846808803F0C4FF1D
:1046C00000280AD04468002C09D000963B462946B1
:1046D000059A0398A04707B0F0BD0024F3E70E2029
:1046E000F9E70120F7E7000070B514460E460546CD
:1046F00003F089FF002806D13146054803F083FF07
:10470000002803D005808470002070BD112070BD8A
:10471000FFFF000010B50178B0290BD141780029C6
:1047200008D10179122906D01B2903D14088012123
:1047300000F088FB10BDFF210231095C0129F5D092
:1047400010BD10B586B06C462180628002212171B7
:10475000032161712821A1710022694603F0E2FE64
:1047600006B010BDF0B58BB001236A4693819B1E45
:10477000D381022313740023537428230D469374AA
:10478000064603AF02A903F0A9FA04000CD139468A
:104790003046FEF743FA040006D1054B1122394694
:1047A0000095029804F072FC20460BB0F0BD0000AA
:1047B000732A0211FEB50E461546074601A903F0FD
:1047C0008DFA04000FD131463846FDF7C3FF0400CF
:1047D00009D1064930880880054B032231460095EF
:1047E000019804F053FC2046FEBD0000749EFF1F9C
:1047F000EF280211F0B58C4610494B6819E09F680C
:104800007C89A04214D39E883119814210D900229C
:104810000CE011017D186989814205D160460028AC
:1048200000D004802846F0BD521C92B29642F0D8C7
:104830001B68002BE3D10020F0BD00002C9FFF1F60
:10484000FFB5174881B00A9F446824E000251EE0A8
:10485000A0682901461870890199884215D30299E8
:10486000884212D80498002807D031787068049BD9
:10487000039AFDF72AFF002807D0002F02D0A06876
:1048800040893880304605B0F0BD6D1CADB2A088BF
:10489000A842DDD82468002CD8D10020F3E700001E
:1048A0002C9FFF1FFEB5174600256A4695800446DB
:1048B00040891D4A1E46904208D001AA0092401C21
:1048C000237880B26268FFF7BBFF05462378022198
:1048D00016486268FDF7F9FE002807D12378022107
:1048E00013486268FDF7F1FE002801D060890EE0F0
:1048F000237802210F486268FDF7E7FE00280DD0FB
:10490000002D03D068468088B84203D0384604F0B2
:104910009DFB04E06889401E80B200E06089002EA3
:1049200000D030802846FEBDFFFF000060F4021179
:1049300062F4021166F40211FFB581B00F461E4603
:1049400014466946019803F0DFF9050018D1002CE0
:1049500006D001221021019805F086FE05000FD136
:1049600039460198FDF782FF050009D1009CFF2E12
:1049700006D021461E22A31C034804F073FBE670F8
:10498000284605B0F0BD0000518F021110B5054951
:104990000870042100F0DAFA00F038F8FDF77AFF29
:1049A00010BD0000389FFF1FF8B50024134D2646A8
:1049B000FF2715E0FF200D30696860434018002C88
:1049C00019D00F49018086704772FF2107720931A3
:1049D0000E54FC2200210C30FBF7B0FC641CE4B246
:1049E00028788442E6D3074803F0D0FD064805F056
:1049F000EDFE0020F8BD0249491EE3E7249FFF1F9A
:104A0000FFFF0000817B0211C97A0211F8B50F4D3A
:104A10000D4B00206E1C1C78FF2209E09F6881006E
:104A2000C91900280ED00E80CA70401C8A70C0B20E
:104A3000A042F3D3064803F0AFFD064805F0C6FEDA
:104A40000020F8BD0D80EFE72C9FFF1FFEFF000048
:104A50007D8F0211D18E0211F8B50D46144606461F
:104A6000694603F051F917280CD0002C06D001221A
:104A70001021304605F0F8FD002803D129463046C4
:104A8000FDF7FEFEF8BD000070B50C46080411D518
:104A900009480078FBF7D0FC050007D00178A02971
:104AA00001D103F08DFC2846FBF7CCFC0120C003AC
:104AB000604070BD002070BD389FFF1F01494870E5
:104AC00070470000249FFF1F014948707047000095
:104AD0002C9FFF1F70B50546008800281DD0686810
:104AE0000221037842682248FDF7EFFD002808D133
:104AF00068680221037842681E48FDF7E6FD002839
:104B00000BD01D4C6088002805D001222988120492
:104B1000101A814203D9012070BD022070BD0C2003
:104B2000FBF7A2FC060001D000200BE0132070BDB3
:104B300001016B6862880A315A526188491C401C25
:104B4000618080B229888142F2D80020306008223A
:104B50002946301DFBF708FB6068002802D166601B
:104B600004E0084601680029FBD10660002070BD02
:104B700060F4021162F402112C9FFF1F70B5BEB0E9
:104B80000D460646002402230E4A0F4901200094D8
:104B9000FFF756FE002812D040896A461080042094
:104BA0005080012010715471FF209071D0712B46FC
:104BB000002269463046FFF7BFFE3EB070BD0120BF
:104BC000FBE700007EF40211FFFF00000649496880
:104BD00006E08A685289824201D188887047096854
:104BE0000029F6D1002070472C9FFF1F10B514221A
:104BF000114201D0012202E04A0604D50022102110
:104C000005F032FD10BDC80701D0002010BD022004
:104C100010BD10B514468A0604D50122102105F0F6
:104C200023FD10BD882211420ED008220A40102117
:104C300005F01AFD00280BD0E034617E0029F0D089
:104C4000217E0129EDD103E0880701D4032010BDA6
:104C5000002010BD10B504F039FA10BD014610B5A2
:104C60000020C90704D0034A07210348FFF7B2FC1C
:104C700010BD000014F30211E49BFF1F70B50D4638
:104C8000164600241D490300FBF73EFA08051234BE
:104C9000341934222934152D23D81622002118481E
:104CA000FBF74CFB2A4631461548FBF75DFA22E03C
:104CB000022D16D111491088103908801BE0082DEB
:104CC0000FD10E48082231460838FBF7EDF912E003
:104CD000012D06D1CA6909493078283107E0012D34
:104CE00001D0182407E0CA6B04493078483104F039
:104CF000C0FA00E00224204670BD0000E49BFF1FC4
:104D00000AC5FF1FF0B5069F099E002833D0102862
:104D100031D800292FD0002A2DD0002B2BD0002FE6
:104D200029D0079C002C26D0089C002C23D0002ED4
:104D300021D00A9C002C1ED0104C851D207065705F
:104D4000A26061600E490F4A0B60059911600E491F
:104D50000E4A0F60079911600D4A089911600D49BC
:104D6000401C08700C490E600C4908700C490A98E8
:104D700008600020F0BD1820F0BD0000489FFF1F14
:104D8000909FFF1F709EFF1FF89EFF1F7C9FFF1FBD
:104D9000809FFF1F249FFF1F289FFF1F2C9FFF1F27
:104DA000349FFF1F0B7803700B8802221B0A43708D
:104DB0000B88801C012B02D0022B07D011E08A78CF
:104DC00002704988090A417004220AE08A78027058
:104DD0004A88120A42700A7982708988090AC17069
:104DE0000622104670470A7802700988090A417045
:104DF0000220704708B5044B009313460A46012170
:104E000005F082FB08BD0000A54D02111CB503236F
:104E1000019200930A46024B122105F0A5FB1CBD2E
:104E2000E19D021108B5044B009313460A46132175
:104E300005F06AFB08BD0000E74D021110B5FBF755
:104E400067FB10BD13B504480078012803D101AAFF
:104E50006946FBF763FB1CBD449FFF1F70B51049FB
:104E6000104A087000210B468C00491CC9B213532C
:104E70000429F9D30B4C00211034FF260A460A25D9
:104E80006A4315196B80491CA354C9B26E72032979
:104E9000F4D3FBF749FB05F0EDFA05F041FC70BDDA
:104EA000459FFF1F78D0FF1F082A01D001207047BF
:104EB0004B780A781B02D2180280CB788A781B02C2
:104EC000D21842804B790A791B02D21882808A79E3
:104ED000C97909025118C1800020704770B50C468D
:104EE000080411D509480078FBF7A6FA050007D099
:104EF0000178902901D105F01FFA2846FBF7A2FAA4
:104F00000120C003604070BD002070BD459FFF1FA1
:104F100070B50C490978884213D20B4C06016068C1
:104F20000025855330188581606830188580606859
:104F300030188068002804D0FBF7FCFA606830184D
:104F4000856070BD489FFF1F789FFF1F072907D00E
:104F5000052905D0042903D0062901D00220704775
:104F6000044A8B009A181346403B1986203A9074E5
:104F70000020704778D0FF1F70B517490978884224
:104F800028D25C21154C4843A168054640180026EC
:104F900040300674A068281840304674A06828186D
:104FA00040300676A0682818406D002804D0FBF732
:104FB000C1FAA068281846650026A068F1002818E4
:104FC00040184068002801D0FBF7B4FA761CF6B20E
:104FD0000A2EF2D370BD0000489FFF1F789FFF1F6D
:104FE00070B50A880C460546072A07D0052A05D061
:104FF000042A03D0062A01D0022070BD012105F049
:1050000017FC002804D02146284604F0FFFE70BD9E
:10501000142070BD10B5001D80B2FBF791FA002876
:1050200003D00321C943FBF791FA10BD10B506491F
:105030000648FFF707F9064805F0C8FB054A0821AE
:105040000548FFF7C7FA10BD0ACBFF1FFFFF00009E
:10505000F5B402116CF30211B49CFF1F70B500246B
:105060001546022904D0032907D00224204670BD2A
:10507000FDF7ECFBC21E054904E0FDF7E7FB034921
:10508000C21EF7312846FBF76FF8EFE71CC9FF1F78
:10509000FFB5174602460020184D83B0032902D001
:1050A000022007B0F0BD164E0024A100715A9142B3
:1050B00006D1A00081191046FFF77EFA254603E0CD
:1050C000641CE4B2022CF0D3C00715D00C483A4659
:1050D000F7380699FBF748F80A48FF2107700820BF
:1050E00001910090074B0649A8008019083300225F
:1050F000F739FFF7EBF8D4E71020D2E7FFFF000005
:105100000ACBFF1FAC9CFF1F002803D00249486058
:105110000020704711207047AC9CFF1F10B504465B
:105120000246064906A000F03DFF0A4949780129D8
:1051300002D1204600F05CFC10BD0000E7F2021135
:10514000257320636F6E6E5F68616E646C652025E9
:10515000640A0000809BFF1FF0B50646024687B038
:105160002249234800F01EFF0520FEF7C3FD074635
:1051700006A92048FEF7F4F91E4804A9401CFEF7D2
:10518000EFF91C4805A9801CFEF7EAF9C52003A920
:105190008000FEF7E5F96946088B8880088AC88098
:1051A000888A088188894881304605F0EFFF0446E7
:1051B000114801A982783046FFF728FE1820FBF736
:1051C00053F90D4DA4002435285100280BD000239D
:1051D0003A460A49009607F005FD29590020486122
:1051E000285907F07BFD07B0F0BD0000C3F20211A3
:1051F000105A021111030000809BFF1F1D51021164
:1052000038B541780546002903D019A000F0CAFE40
:1052100038BD20480468688900902B89EA88A988ED
:105220001DA000F0BFFE1FE0002C04D1284605F0B1
:1052300081FF002803D0A078032807D013E01F487F
:1052400000680028E4D007F06FFD38BD2088A988E9
:105250000005000D884206D18AB2E0780823211D9E
:10526000FDF7C0FD38BD2469002CDDD138BD00003C
:10527000506172616D557064617465496E666F202E
:105280006572726F72207374617475732025640A7D
:1052900000000000DC9DFF1F68616E646C652025C6
:1052A000642C496E74762025642C6C6174656E6381
:1052B000792025642C544F2025640A00A49BFF1FED
:1052C000F0B50446821C8BB05349052006F0C4F8A3
:1052D00006003FD0214620790C310A91491C0991E2
:1052E000491C0891491C4C4D4F1C1C3D0791092835
:1052F00037D011282ED1207A00282DD0002526E085
:1053000060890A996843425C0999405C69460002D9
:1053100010180880608908996843425C0799405CCE
:105320006946000210184880A07A001FC2B20A71B4
:1053300060896843C11901A80130FAF715FF3146A9
:105340006A460831062006F01FF86D1CEDB2207A7F
:10535000A842D5D80BB0F0BD60781A28FAD1B06851
:1053600043E0207A002836D0002530E060890A9991
:105370006843425C0999405C694600021018088045
:10538000608908996843405C69468870608907991C
:105390006843415CC05D0002081869468880A07AB5
:1053A000401FC2B28A716089214668431131411899
:1053B00001A80330FAF7D8FE31466A460C310720BF
:1053C00005F0E2FF694688886D1C7080EDB2207A96
:1053D000A842CBD8BEE760781A28BBD1B21C911D79
:1053E000062006F039F8002806D042880188608837
:1053F000AB78FFF7A6F9ADE7618808A000F0D2FD11
:105400006868002804D08168002901D030468847A8
:10541000608807F0C5FB9DE79C9BFF1F416C6C20DB
:10542000436861726163746572697374696320446F
:105430006973636F76657220537563636573732058
:10544000704D73672D3E636F6E6E48616E646C6560
:105450002025640A000000007CB50E4D29780170FB
:105460000D48047F0DA0214600F09CFD0A4822460D
:10547000001D01461339034600910190243B197821
:10548000A8785B1CFEF73CFB0246084908A000F028
:1054900089FD7CBD809BFF1F40C4FF1F6D61785359
:1054A00063616E4E756D2025640A000094F202114E
:1054B00025732C7265742025640A0000F0B504463B
:1054C000807891B0B64E0300FAF71EFE0E08FA245B
:1054D00029292CFDF80E0E0E0EF7F60E6178002924
:1054E00003D0B0A000F05EFD56E1B7A000F05AFD79
:1054F000BAA000F057FDE01C00F014FD00F052FDD2
:10550000B0A000F04FFD6189BAA000F04BFD217BF7
:10551000BDA0E7E7E278617805F006FD3CE161783F
:105520000022F9E7617800297ED1214605F00AFCC6
:1055300004906846058A28060390000F47D16289C7
:10554000B749012088546289E0780423211DFDF7C2
:1055500049FC0146B3A000F025FD0027684607710D
:10556000312001A90001FDF7FBFF68460079002802
:105570002DD000206946088102A91F20FDF7F0FF09
:105580006946088A0005070F3946B0A000F00AFDF9
:105590001820FAF769FFB900814F203778500028AA
:1055A00015D02A07120F00926A4612897D23DB006C
:1055B0005A430D460023AC4907F014FB79590020EB
:1055C0004861795901200860785907F087FB0398F2
:1055D000000F03285CD16289914901208854082179
:1055E000B078FAF7A3FD05F065FDA0484588002DC9
:1055F0004ED00C22002101A8FAF7A0FE6946088AC5
:1056000000270007000F00908880CD800F7264494A
:1056100001AA14310320039705F0B6FE002837D005
:105620001822002105A800E032E0FAF787FE68465C
:105630000A97008A5A490007000F069005AA1831F8
:10564000042005F0A1FE002822D05549042018317D
:1056500005F056FE07001BD0FF220123F5328449D6
:10566000384607F0BFFA68070FD5142200210BA8AF
:10567000FAF764FE6946088A0BAA0007000F8885BE
:10568000474905201C3105F07FFE384607F014FB22
:1056900070680569002D7FD0201D00906846008A43
:1056A00001050B0F0106090F03290AD0002201078B
:1056B000090F6078A8476FE03EE067E038E002E05D
:1056C00046E00322F3E7617800291FD1214605F067
:1056D00039FB0090684605882F06380F032802D151
:1056E000A08807F05DFA380F10D12805000F85005B
:1056F0002B4820304059002801D007F015FB2848DE
:1057000024304059002801D007F00EFB706845692D
:10571000002D41D068460088A37901050A0F0106D3
:10572000090F032900D000210007000FA84733E02C
:105730002046FFF765FD2FE0204607F0A9F97168C4
:10574000002929D00968002926D02046884723E06F
:105750007068002804D04168002901D0B0688847EB
:10576000B468002C0FD0A069B060E068002801D0B8
:10577000FAF780FE6069002801D0FAF77BFE204628
:10578000FAF778FEECE705F067FC05E039A000F0D9
:1057900009FC2046FDF70AFC012011B0F0BD000015
:1057A000809BFF1F44657669636520496E6974209C
:1057B000446F6E65204552525F436F6465203078B8
:1057C000253032580A000000446576696365204937
:1057D0006E697420446F6E65200A0000424C4520BB
:1057E0004D756C74692D526F6C65204164647265EF
:1057F00073733A004843495F4C4520504B54204C4A
:10580000454E2025640A00004843495F4C45204E20
:10581000554D20544F54414C2025640A000000008F
:10582000B99BFF1F474150426F6E644D67725F4CDA
:10583000696E6B45737420534C41564520626F6E00
:10584000647265742025640A000000006D756C7434
:105850006974696D65725F696E69742070657249FB
:1058600064782025640A0000F159021160C4FF1F0A
:105870004159021147415020736C61766520726571
:105880007175657374656420736563757269747985
:10589000206576656E74200A0000000038B5054664
:1058A00005F042FC04460221684605F027FC002C66
:1058B00018D06846417822780078631CFDF73CFEDA
:1058C0000F4C01000FD00FA000F06CFB01212078DD
:1058D000FAF742FE002805D1FF22F5320121207897
:1058E000FAF72AFC38BD01206870A87008212078DA
:1058F000AA68FAF721FC0BA000F054FB38BD0000A9
:10590000829BFF1F73746172742065737461626C93
:10591000697368206661696C7572652072657420B0
:1059200025640A0073746172742065737461626C1B
:105930006973682073756363657373200A000000E0
:10594000F1B582B002AA2849042005F085FD264958
:10595000054602AA091F032005F07EFD0446002D1E
:105960002AD0002C28D02079002825D160881E4F0D
:10597000C107183F0126002910D01720FDF79EF916
:105980006B4617201880BA7819461889FEF712FF5F
:10599000002811D126716088B0430CE081070CD536
:1059A0006846124AFB210089FAF7DCFD002803D182
:1059B0006088022188436080FEBD4007FCD50A490B
:1059C00002AA091D052005F047FD0500F4D028793D
:1059D0000028F1D16846B9780089FEF7C3FE002897
:1059E000EAD126712E71FEBD989BFF1F480800006A
:1059F00010B504460246054905A000F0D3FA09494E
:105A0000E0B24978FFF7A8FB10BD0000A7F2021131
:105A1000257320636F6E6E5F68616E646C65202510
:105A2000640A0000809BFF1F38B50C46050014D0A7
:105A3000002C12D00321684607F0A2FC6946887842
:105A400040218006800E0843694688702246284619
:105A500008F00EFB050002D006E0022038BD03224C
:105A60006946E01CFAF780FB284638BDF7B58EB0D2
:105A70000E9815460E4600282DD0002D2BD0301D37
:105A8000C0B20190FAF7F0FC040039D001F06AF9D5
:105A900007463246201D0E99FAF7DAFCF8B2089054
:105AA000E0703804000E0B90A0703802000E0A90CF
:105AB00060703F0E277001F04FF90146102202A8D6
:105AC000FAF7C6FC06AB214602A8019A08F026FAAE
:105AD000060003D010E0022011B0F0BD0898287035
