:020000041102E7
:1000000003B40148019001BD7511000003B401481B
:10001000019001BD75A9000003B40148019001BD24
:10002000C93E000003B40148019001BD9DA9000034
:1000300003B40148019001BD1130000003B4014830
:10004000019001BD53B9000003B40148019001BD06
:10005000B30E000003B40148019001BD9170FF1F71
:1000600003B40148019001BD6189000003B4014857
:10007000019001BD1907010003B40148019001BDC1
:10008000A9D8000003B40148019001BDB35201009A
:1000900003B40148019001BD0D52010003B40148B1
:1000A000019001BD8B52010003B40148019001BDD4
:1000B000C1A5000003B40148019001BD9D6A000084
:1000C00003B40148019001BD116E000003B4014862
:1000D000019001BDE94C010003B40148019001BD4C
:1000E0008BB9000003B40148019001BDD1D40000D8
:1000F00003B40148019001BDCD4C010003B4014897
:10010000019001BD85C1000003B40148019001BD0B
:1001100009B8000003B40148019001BD2DFC0000A6
:1001200003B40148019001BD25E7000003B4014874
:10013000019001BDEDB8000003B40148019001BD7C
:100140003148000003B40148019001BDC53F0000E3
:1001500003B40148019001BDF5D5000003B4014886
:10016000019001BDF1FA000003B40148019001BD06
:10017000B567FF1F03B40148019001BD9946000017
:1001800003B40148019001BD1547000003B40148C4
:10019000019001BDC5F0000003B40148019001BD0C
:1001A00079F4000003B40148019001BD63EC000044
:1001B00003B40148019001BD05FF000003B40148EC
:1001C000019001BD3161000003B40148019001BDFF
:1001D00059E4000003B40148019001BDD5E40000DA
:1001E00003B40148019001BD01BF000003B4014800
:1001F000019001BD21F1000003B40148019001BD4F
:1002000039B8000003B40148019001BD77F1000046
:1002100003B40148019001BDC1E2000003B40148EC
:10022000019001BD154D010003B40148019001BDCD
:100230008DE3000003B40148019001BD5511010098
:1002400003B40148019001BDA5FD000003B40148BD
:10025000019001BDA93C000003B40148019001BD1B
:100260002D32FF1F03B40148019001BD514BFF1F08
:1002700003B40148019001BDADAE000003B40148D4
:10028000019001BD456B010003B40148019001BD1F
:10029000B30E000003B40148019001BD855FFF1F4C
:1002A00003B40148019001BDDD5FFF1F03B40148A5
:1002B000019001BD8933FF1F03B40148019001BDC6
:1002C000D943FF1F03B40148019001BDB933FF1F9B
:1002D00003B40148019001BD810E000003B4014840
:1002E000019001BD1D64FF1F03B40148019001BDD1
:1002F000213AFF1F03B40148019001BDFD39FF1FE2
:1003000003B40148019001BD8963FF1F03B4014894
:10031000019001BDB963FF1F03B40148019001BD05
:100320003D64FF1F03B40148019001BD4980FF1FD8
:1003300003B40148019001BDD70E000003B4014889
:10034000019001BDA976FF1F03B40148019001BDD2
:100350001D4B010003B40148019001BDF54E0100A1
:1003600003B40148019001BD434D010003B40148AD
:10037000019001BD2526000003B40148019001BD94
:10038000C94A010003B40148019001BD014C0100BC
:1003900003B40148019001BDF94C010003B40148C8
:1003A000019001BD691F000003B40148019001BD27
:1003B0005D17000003B40148019001BD3D4B0100F1
:1003C00003B40148019001BD5952010003B4014832
:1003D000019001BD5125000003B40148019001BD09
:1003E000594F010003B40148019001BD8D12000076
:1003F00003B40148019001BD4D1F000003B4014842
:10040000019001BD5522000003B40148019001BDD7
:10041000DD52010003B40148019001BD1D4D0100F2
:1004200003B40148019001BD017F000003B40148FD
:10043000019001BDE117000003B40148019001BD26
:100440007918000003B40148019001BDD9490100A9
:1004500003B40148019001BDE928000003B401483C
:10046000019001BD5549010003B40148019001BD4F
:100470004551010003B40148019001BDC9260000A7
:1004800003B40148019001BDC90E000003B4014846
:10049000019001BD454BFF1F03B40148019001BD10
:1004A0006119FF1F03B40148019001BD7B19FF1FB3
:1004B00003B40148019001BDB53EFF1F03B40148DC
:1004C000019001BD0984FF1F03B40148019001BDE3
:1004D000153FFF1F03B40148019001BD9533FF1F75
:1004E00003B40148019001BD9D34FF1F03B40148CE
:1004F000019001BD5955FF1F03B40148019001BD92
:100500003155FF1F03B40148019001BD9134FF1F15
:1005100003B40148019001BDC136FF1F03B4014877
:10052000019001BD6563FF1F03B40148019001BD47
:100530005D7EFF1F03B40148019001BD3184FF1FA0
:1005400003B40148019001BD952AFF1F03B401487F
:10055000019001BD291C000003B40148019001BDB8
:10056000851F000003B40148019001BD090E000081
:1005700003B40148019001BDA946010003B401483C
:10058000019001BD1147010003B40148019001BD74
:100590002725FF1F03B40148019001BD0125FF1F5E
:1005A00003B40148019001BD055AFF1F03B401487F
:1005B000019001BD0D5DFF1F03B40148019001BD15
:1005C000755AFF1F03B40148019001BDB14E0000F0
:1005D00003B40148019001BD3D18000003B4014877
:1005E000019001BDB537FF1F03B40148019001BD63
:1005F000F555FF1F03B40148019001BDA954FF1F29
:1006000003B40148019001BDF954FF1F03B4014830
:10061000019001BD156B010003B40148019001BDBB
:10062000A153FF1F03B40148019001BD6157FF1F93
:1006300003B40148019001BDE548000003B401483E
:10064000019001BD2951010003B40148019001BD91
:10065000D91B000003B40148019001BD51470100BE
:1006600038B5044600F044F801466846017044700D
:10067000210A81706A4603210248FFF7C1FC00206D
:1006800038BD00001B20000038B5044600F056F8C5
:100690000146684601704470210A81706A46032150
:1006A0000248FFF7ADFC002038BD00001A20000012
:1006B00008B5002802D000F049FA00E0122069468F
:1006C00008706A4601210248FFF79AFC002008BD25
:1006D0000520000070B50C460546FFF797FC214643
:1006E0002846FFF799FC0446FFF79CFC204670BDA6
:1006F00010B5114AA1218900126841438C189D212F
:1007000089000959012901D00C2010BDFFF790FC88
:100710000028FAD1E01DF93002790621012A06D01D
:1007200041710D212046FFF789FC002010BDFF20FC
:10073000213001550221F5E73409FF1F70B50D4640
:10074000134AA1218900126841438C189D21890018
:100750000959012901D00C2070BD002D16D0FFF7DA
:1007600067FC0028F8D110210B1A2A5C1B19E03312
:10077000401CC0B29A711028F6D30121F82001550F
:1007800005212046FFF75AFC002070BD122070BDE5
:100790003409FF1FFEB5089D099C1746002874D038
:1007A000002972D0002C02D0012C02D003E02A22B2
:1007B00001E0FF220732921D0192354A0E46177062
:1007C000344A10603448037034480570344804706B
:1007D000002446E0A1208000254645432D48A12164
:1007E000006889002818FFF72FFC2A482D49006867
:1007F00062002818FF308130C66201983618002048
:100800008854511848702649097800293BD0FF21A7
:100810001131009121461C20414322480022203002
:100820000D182A764254E0B20099FFF713FC686075
:1008300000202872E0B201220099FFF70BFCE8606B
:1008400000202874E0B202220099FFF703FC6861DF
:100850006968002919D0E968002916D0002814D049
:10086000641CBC42B6DB00200F4D104A01468300D9
:100870009C186580401CD154C0B261701028F6D31A
:100880000020FEBD01E03421C3E71220F9E700009B
:100890001409FF1F3409FF1F1509FF1F1609FF1F49
:1008A0001709FF1F50B8FF1FFFFF000030BAFF1FDE
:1008B000F8B5714D0028AA7916D0012A01D0032A73
:1008C00012D16E490B78FF2B0ED14B78FF2B0BD139
:1008D0008B78FF2B08D1CB78FF2B05D10B79FF2B21
:1008E00002D14979FF2930D065490B78012B1DD001
:1008F0000026644C0E702178092931D00A292FD0A6
:100900000B292DD00C292BD00D2929D0052927D032
:10091000062925D0A97B00290AD0012908D003295E
:1009200006D0022904D004290FD101E00C20F8BD23
:10093000002A05D0012A03D0022A01D0032A04D1BB
:10094000514F002875D0012801D01220F8BDA88889
:10095000012805D0FFF75AFB2078002802D01AE0C2
:100960002120F8BDA87B0300FFF77AFB05040810DF
:100970000C082400012020701F200AE002202070B3
:10098000202006E004202070222002E003202070B6
:100990002120FFF76BFB2078282101280DD00228A9
:1009A0000BD0042809D0032807D007280ED0082828
:1009B0000CD01BE026701E20EBE73448066029753A
:1009C000FFF75AFB002820D0AE800FE03048C06807
:1009D000808D80060AD52F480278002A06D1AA7B8E
:1009E000032A06D0022A04D0002A02D0FFF71AFBFD
:1009F000B6E7022202702975140321463878FFF702
:100A000041FB21463878FFF743FB0120A8802248AC
:100A10000078002809D02148012102887D20C000EB
:100A20004243C9033878FFF739FBFFF7FBFA20E0B0
:100A3000FFE7FFF7EBFAAE802078072808D00828F8
:100A400006D026701648FFF72FFB1E20FFF70EFB7F
:100A500010480178002905D0067001214903387833
:100A6000FFF710FBFFF7DEFA0121C9033878FFF723
:100A700009FB0020F8BD0000A60BFF1F6B09FF1F3C
:100A80001A09FF1F1C09FF1F1B09FF1F4809FF1F31
:100A9000588EFF1F2309FF1F2109FF1F2C09FF1F6D
:100AA00000100040FFB585B016460D460446119F64
:100AB000FFF7ACFA15482946007804902046202C10
:100AC00000D22020202900D220210EAA2CCA009278
:100AD00001AAA8C23246089BFFF7ECFA05460C486B
:100AE0000A49448004980870012E01D0042E08D1D0
:100AF000084880230078C101074882889A4311433F
:100B00008180FFF78FFA284609B0F0BD1C09FF1F4E
:100B1000A60BFF1F7809FF1F6C11FF1F10B5FB29E3
:100B200008D8084B9A4205D81B2903D3FF23493321
:100B30009A4201D2302010BD034B19825A82FFF72E
:100B4000BFFA10BD480800008410FF1FF8B53249F5
:100B5000097801292AD0022928D0032926D004297E
:100B600024D0052922D0062920D02C490978022931
:100B70001CD004291AD0012918D0032916D006291F
:100B800014D0072912D00178254C8C462170467864
:100B900066708378A370C278E27001792171407920
:100BA000204D6071AF79012F02D008E00C20F8BD14
:100BB0006746EF712E726B72AA72E9722873062271
:100BC000E91D1948FFF782FA0622E91D1748FFF7C9
:100BD0007DFA1748017801290BD12178417061789D
:100BE0008170A178C170E1780171217941716179D9
:100BF00081711048017801290BD121784170617809
:100C00008170A178C170E1780171217941716179B8
:100C100081710020F8BD00001C09FF1F2309FF1F80
:100C20006B09FF1FA60BFF1F7211FF1F8A13FF1F07
:100C3000BC0BFF1FD40BFF1FFFB50D46A121890080
:100C40004843234981B009681E464418002D09D045
:100C5000FF20D930015B0398814203D3002E04D0DA
:100C6000012E02D0122005B0F0BDE07800280AD095
:100C70000520C00127181748F9780078801C8142A8
:100C800003D30720EFE70220EDE7FFF7BFF9F8787D
:100C9000A91E401CF87003980870002E10D0012087
:100CA000487020467C30091FFFF716FAFFF7BAF9A3
:100CB00009480078082805D0072803D00020D2E78B
:100CC0000220EDE700212046FFF70CFAF6E70000CE
:100CD0003409FF1F1509FF1F1C09FF1F70B50446CB
:100CE000FF30FF300230406F0D46012812D1282D11
:100CF00010D1A420005BE188401A1D4980B28842CF
:100D000008D321466A3105220E46481FFFF7F0F945
:100D1000002818D017490020820052185278002A63
:100D200016D0401CC0B21028F6D313480121890206
:100D30000078FFF7ADF92079010110480918897989
:100D400002290DD00FE031462046FFF7D7F970BDDC
:100D500080002379421853800D5401205070E4E73D
:100D60004178491E41702046FFF7CEF970BD000062
:100D7000FF7F000030BAFF1F1B09FF1F300DFF1F50
:100D8000F0B5054687B0E03004902846A0300390C7
:100D900040380590092080012E462818FF36E1369C
:100DA000029030462030EF1DF9372C4680340190F8
:100DB0009FE1E07A801E0300FFF752F91A0E3822F5
:100DC000396BF638C13892D1A9383838383838F507
:100DD000F4F3F23838F1F038A07A012803D028462D
:100DE000FFF798F912E0C5488078002801D0162155
:100DF00030E1608A401E0004000C60826FD076E112
:100E0000A07A012804D02846FFF78AF9A0726EE183
:100E1000BA48C0780028ECD02846FFF787F92A4660
:100E200029462879C832C031FFF786F961E1A07AF6
:100E3000012813D00498C07D012821D00498007E99
:100E400000287BD02A4629462846D732B031E730E1
:100E5000FFF778F904990120C8754AE1A748C078DE
:100E6000002805D00399012088710020E0673860D0
:100E7000B8790128BDD106212846FFF769F938E184
:100E80002846FFF76BF90128B9D10020B87101207D
:100E9000BCE7A07A012803D02846FFF765F9B5E73B
:100EA0009648C0780028A4D0E88C68842846FFF7CC
:100EB0003DF905990120C8762071387901282879F3
:100EC00009D001220021FFF755F90020387138724E
:100ED000F871B8710DE10021FFF752F9F5E7B8E0BC
:100EE000A07A012805D02846FFF750F9012807D03D
:100EF000FDE0F8790128BDD12846FFF717F9F8E0A1
:100F00000020F871039988710120A072F1E0A07AA5
:100F1000012804D079792846FFF73EF976E777482B
:100F2000C178002906D0039A00219171059A012108
:100F3000D176217180780028DED15AE78EE0A07A40
:100F4000012803D02846FFF72DF95FE76B48C078EA
:100F50000028F2D001203873E88C6884CCE7A07AAE
:100F6000012805D00120F8752846FFF721F94DE743
:100F7000787D012806D0608A401E0004000C608243
:100F800013D0B4E0B87D0128B6D1B88B00907B8B2C
:100F90003A7E29790020FFF711F9ADE78FE072E082
:100FA0003BE02DE01BE009E09CE0B88B00907B8BE0
:100FB0003A7E29792220FFF701F94AE0A07A012838
:100FC00006D02846FFF700F9A072002070748EE06A
:100FD0004A48C0780028B0D0012070748CE7A07A0D
:100FE000012803D02846FFF7F5F80FE74348C078FB
:100FF0000028A2D0002030742879FFF7F1F87BE7B1
:10100000A07A012803D02846FFF7F0F836E03B48E5
:10101000C078002891D0012018E0A07A012807D0DC
:10102000707FB17F08401BD041071DD5042020E010
:101030003248C07800288CD001990020C871019AEC
:10104000012111722E490979012987D1019908726C
:1010500052E722212846FFF7CFF8012007B0F0BD64
:10106000707E7075B07E05E0800701D5022000E03B
:1010700001207075B0752846FFF7C4F8A072019979
:101080000020087233E0A07A012807D02846FFF735
:10109000BFF8A07202990120087628E01748C078AE
:1010A00000289BD1608A401E0004000C60821ED183
:1010B0001448042200212818FFF7B0F8C9E7A07AE5
:1010C000012803D02846FFF7AFF89FE60B48C07809
:1010D00000280ED00299002008760299C875FFF703
:1010E000A9F809E72846FFF7ABF8012887D00020C8
:1010F000B4E7E07B002800D05BE6AFE7E010FF1F1D
:10110000588EFF1F560200000E480D4901600E491F
:1011100081600C490D4A40314A610E4B0C4A5A61BC
:101120000D4AC2620D4A82630D4A8A600D4A4263CB
:10113000084A0D48403A10620C4888617047000028
:10114000A50A02114000FF1FB10802114D76FF1FD2
:10115000F172FF1F4002FF1F8167FF1FF565FF1F30
:10116000DD0C0211810D0211D568FF1F752BFF1FC9
:1011700070B5FEF74BFF904C002025682060FFF70C
:1011800065F806462560FEF74DFF304670BD8B4979
:10119000C968FF31813188657047F8B5FFF75CF8A1
:1011A000864D874A68721178022903D9002801D137
:1011B00001201070834900200446E9608300401C30
:1011C000CC50FF28FADDE8687F49882319507F4911
:1011D000C1627F490978002902D07C491131C1627E
:1011E0000A210165117881637A49C161FFF73AF8F4
:1011F000E9687948486119208001886108463722EA
:101200008030C260082336220B64CA631E224A64FF
:1012100036224260322202603B220364C2632822EB
:1012200042644122C26439228264322243650265EB
:1012300028228265022202664222C2651E2283663D
:1012400042662822C26620224267422202675A2250
:10125000436102613C228261192292010A605F4A65
:101260000A63FF222D328A60CA60FF22F5320A61CA
:101270005B4A8A647D22D2005A4EC267CE644A62BB
:10128000594A8A623222CA6506224A658A65CA1D9F
:10129000F932022513604D664B25ED008D66092558
:1012A000CD66524D0D678C674B67AB10CB67504FC7
:1012B000FF313E604A4E86627D26F60086676426D0
:1012C00046620526C66202260663C8264663846314
:1012D00038205060474810644B2080019061B00076
:1012E000D061581010627D2000015062D46695656F
:1012F00013665364D565146753671E2090663E4895
:1013000090673E485B008131D0670B608B6048601E
:10131000FF20F530C86008614B20C00010630E65E7
:1013200038483749274A81603749803A1161354941
:10133000364A80318A62364ACA62364A8261364A01
:10134000C262364A02632F4A3548403A50633548F4
:10135000D0633548C861354890632A4934484031E4
:10136000886135493348886026483449803841606F
:101370003349244A41633349C03AD1603349324B3F
:10138000204CCB63324B403C2363324B9362324A56
:10139000C263324AC260324A4A63324AE260324A27
:1013A0008A63324A0A6332498163FEF761FF012092
:1013B000FEF764FFF8BD00009809FF1F588EFF1F5D
:1013C0004A0AFF1F0004FF1F40BFFF1F6E040000FA
:1013D0003C8AFF1F3A07000080C3C9019A0200003F
:1013E00050C30000280A00006A180000204E0000C8
:1013F000F009FF1F00400011DC05000040420F0013
:10140000D96CFF1F0001FF1FD928FF1FA57AFF1FFE
:10141000797DFF1FE525FF1F7927FF1F0126FF1F8D
:101420009D46FF1F9942FF1F9586FF1F8184FF1F66
:101430008125FF1F1D0B02110002FF1F6D66FF1F9C
:101440005D6AFF1F2D2BFF1FD50602110000FF1F35
:101450006D78FF1FF567FF1FB56FFF1F2D68FF1F1A
:10146000152BFF1FC166FF1F390C0211C12AFF1F78
:10147000B572FF1F0A7802708A7842704A88120A91
:1014800082700979C170042070470A780270098857
:10149000090A41700220704710B500220EE0930047
:1014A0005B189C7804705C88521C240A44701C7978
:1014B00084709B88D2B21B0AC370001D0B789342C4
:1014C000EDD81806800D10BDF8B50D4606464978D2
:1014D000012031700024761C16E06978012917D0AC
:1014E0001221614349198A7832704A88871C120A8E
:1014F0007270B61C10223046091DFEF7E7FD10374A
:10150000B8B21036641CE4B22978A142E5D8F8BD1F
:10151000A10049198A7832704A88871C120A7270B1
:10152000B61C02223046091DFEF7D0FDBF1CB8B222
:10153000B61CE7E710B50C46097801702188090A46
:1015400041706288211D801CFEF7C0FD6088801CF0
:1015500080B210BD10B50C46097801702188090AC7
:101560004170A17881706188090AC170A288A11DAB
:10157000001DFEF7ABFDA088001D80B210BD10B5A8
:101580000C460A88891CFEF7A1FD208810BD10B505
:101590000B788A7802705343DCB22246401C091D46
:1015A000FEF794FD601C10BD10B50B788A780270B0
:1015B0005343DCB22246401C091DFEF787FD601C28
:1015C00010BD10B50C460A88891CFEF77FFD2088E7
:1015D00010BD10B50C460A88891CFEF777FD2088DF
:1015E00010BD7FB515460446022901D0102903D14C
:1015F000022B04D0102B02D0002004B070BD994201
:1016000002D10A46294607E01029694607D000F0B2
:101610000DF8102269462846FEF76AFDEDE71046F0
:1016200000F004F8102269462046F5E770B50C4634
:1016300005000CD0002C0AD0102206492046FEF7E7
:1016400045FD2878207368786073012070BD002004
:1016500070BD00009C9B021110B50B46012202498F
:1016600003F0F6FE10BD00007514021170B50646B9
:1016700008880C46172812D30B4603220949304626
:1016800003F0E6FE050008D1074920880988884252
:1016900000D20146304600F0B9F9284670BD02205C
:1016A00070BD00008B140211D08EFF1F10B50023F7
:1016B0001922194603F0CCFE10BD000010B50A78BF
:1016C000002A05D00B460722024903F0C1FE10BDD7
:1016D000022010BD9914021110B54A78012A01D0D8
:1016E000022A08D10A78002A05D00B4605220349B0
:1016F00003F0AEFE10BD022010BD0000C91402119F
:10170000024940008968085A70470000C48EFF1FD4
:1017100010B50B461D22024903F09AFE10BD0000D1
:101720003515021110B50B461B22024903F090FE3D
:1017300010BD00003515021110B50649002089685A
:101740001723054A02E044000B53401C1478A042C2
:10175000F9DB10BDC48EFF1F8C8FFF1F0098022B7A
:1017600001D0042070471178527812028918018044
:10177000002070470098012B01D004207047117899
:1017800001700020704770B5049C1E461546062B5C
:101790001BD369782878090240182080E978A87856
:1017A00009024018608002222271291D601DFEF787
:1017B0008DFCB61FB2B22281F02A06D82046A91DA0
:1017C0000A30FEF783FC002070BD042070BD009835
:1017D000042B01D004207047537811781B02C918DC
:1017E00001809178D27812028918418000207047D8
:1017F000F8B584890D460646002C26D0B2681778C5
:10180000380620D50C2C20D90C3CA4B2101900901D
:1018100001217088234602F085F8002811D00220AB
:1018200028707806C00F6870B806800EA870641E15
:101830002004000CA88001D0B068401CA8600020E3
:10184000F8BD0120ECE70020EAE70120F8BD10B563
:1018500002981146042B14D34C780A7824021219EA
:101860000280CC788A782402121942801B1F9AB217
:101870008280F22A05D8801D091DFEF727FC002072
:1018800010BD042010BD0098042B01D00420704727
:10189000537811781B02C91801809178D27812020E
:1018A000891841800020704710B502981146062B18
:1018B00003D0142B03D0042010BD022200E010221C
:1018C00002714B780A781B02D2180280CB788A7892
:1018D0001B02D21842800279401D091DFEF7F6FB5B
:1018E000002010BD30B5039CD80718D1D805010ED3
:1018F000022914D30B488088814210D8F620015564
:10190000002008E0557813782D025B194500401C33
:101910006353C0B2921C8842F4D3002030BD04202F
:1019200030BD0000C48EFF1F0098022B01D00420A0
:101930007047117852781202891801800020704790
:1019400070B5144602460498022B18D366782578A1
:101950003602AD1905800546E0352A766976002AFB
:101960000BD0E8219B1E9AB242808A4207D8A11C64
:10197000001DFEF7ABFB002070BDF421F2E7042050
:1019800070BD000010B50B461722024903F060FD40
:1019900010BD00005515021110B50B460D2202496D
:1019A00003F056FD10BD00007F15021110B50A7836
:1019B000002A05D00B461122024903F049FD10BD53
:1019C000022010BD8F15021110B50A78002A05D02B
:1019D0000B460922024903F03BFD10BD022010BD59
:1019E000A915021110B50B460F22024903F030FD74
:1019F00010BD0000C315021110B50B460B220249A1
:101A000003F026FD10BD0000D3150211034A138810
:101A1000994202D89268400011527047C48EFF1F4D
:101A200010B500231322194603F012FD10BD00006B
:101A300010B5C7210B48FEF727FC0A4901200870A2
:101A400002F0F4FD00280BD007F0D2FF07F0C0FF32
:101A50006120FEF71FFC002802D16120FEF720FC68
:101A6000002010BD00AEFF1FF8B50D46074602F07E
:101A7000D1FD002812D0FEF719FCA84204D023A003
:101A8000FEF71AFC0520F8BD3846FEF71BFC23487C
:101A9000012149030078FEF7FBFA0CE0204C207D81
:101AA00026461636002808D001281CD002281AD055
:101AB0000020207560750020F8BD607D4019302839
:101AC000F9D2FEF7A3FA607D2A4680193946FEF75F
:101AD000FFFB607D4019607501202075FEF7A2FABA
:101AE00000F02EF8E7E7607D40193028E3D2FEF7DA
:101AF0008DFA607D2A4680193946FEF7E9FB607D44
:101B000040196075FEF78EFAD5E700004572722025
:101B1000626C6B2073697A65000000005E8DFF1FA8
:101B200020AEFF1F10B50548417D002902D000F00E
:101B300007F801E000210175002010BD20AEFF1F55
:101B4000F8B51E4D2C462034207D002834D0607D11
:101B5000002831D00026022802D008280DD01EE02F
:101B6000A07D61281BD1E07D742818D10021084692
:101B700002F08EF8267566751CE0012210490020DF
:101B80002B1820339B7D0F5CBB4208D1401C0828DA
:101B9000F6DB002A03D00021084602F04DFF08487A
:101BA0002946401E627D36310078FEF797FB667548
:101BB000022020750020F8BD0720F8BD00AEFF1FF1
:101BC000F18DFF1F70B5184C002620782546603532
:101BD00000281ED0A078A9794018302801D30B2006
:101BE00070BDFEF713FAA178201D08182146AA79C6
:101BF0006731FEF76DFBA078A9794018A070AE712F
:101C0000FEF710FA6078002808D0012808D00228D2
:101C100006D0A670E670AE71072070BD012060701E
:101C200000F004F8002070BD00AEFF1FF0B53A4C84
:101C3000BFB0607800286CD0A078002869D000265A
:101C4000022802D0082810D020E0207961281DD178
:101C5000607974281AD10021084602F019F84FE083
:101C600007F0C6FE07F0B4FE51E001212B4A002028
:101C700023181B79155CAB4208D1401C0828F7DB00
:101C8000002903D00021084602F0D6FEFEF72CFB07
:101C9000002803D06078012805D006E0FFF7C8FED1
:101CA00050203FB0F0BD02206070271DF82168462B
:101CB000FEF7CAF9FEF7AAF9A078E178401AF428ED
:101CC00000DDF420C5B2C9192A4601A8FEF700FBC1
:101CD00068464580FEF7A6F9114869460278114822
:101CE0000088FEF707FB002803D004280FD011203E
:101CF000D7E7E0784019C0B2E070A1788842D5D12A
:101D00006670E670A67002F091FC0028A8D1002051
:101D1000C7E70720C5E7000000AEFF1FF18DFF1FDA
:101D20005E8DFF1F628DFF1F10B5C7210548FEF7AE
:101D3000ABFA02F07BFC002801D007F059FE00202E
:101D400010BD000000AEFF1FFEB5124A104DD7684F
:101D500016689068019002F0EBFB0F4C029020781F
:101D6000FEF7CEFA207800903B463046019A029961
:101D7000FEF7CCFA2946302297312078FEF7CCFACC
:101D800006A0FEF799FA0020FEF7CCFA0020FEBD6F
:101D900000AEFF1F8C9B0211F08DFF1F5054204D91
:101DA0006F640A00FFB51746294A91B0050011D0AB
:101DB00001E0491E6D1C2878202809D0092807D089
:101DC000002907D000266C1C324668466B181EE0BE
:101DD0000029EED1104615B0F0BD21783D290ED076
:101DE0002C290CD00D2907D00A2908D021462039EA
:101DF000C97F002907D009E061780A2901D0227043
:101E000004E0227005E0B1004450761C641CA3423B
:101E1000E3D8002001E0401CC0B2B042FBD3002454
:101E200008E00C20604339582846FEF781FA002864
:101E300005D0641C14988442F3D30020CBE70C2017
:101E40004443E0198268694630469047F5E7000050
:101E5000FFFF0000F0B500252B4606E0C55C202DF5
:101E600001D0092D03D15B1C9BB28B42F6D3002419
:101E700001262D2D1BD1661E17E0C55C2F46303F75
:101E8000092F03D854436419303C0EE02F46613FBC
:101E9000052F03D854436419573C06E02F46413FB1
:101EA000052F06D854436419373C5B1C9BB28B4208
:101EB000E3D330466043F0BDFFB59BB000251695D7
:101EC00016AA179500F090F80646062116A8FEF708
:101ED00035FA0A2E77D23446062044432046203075
:101EE0006A460E2106F050F9002802D16846808922
:101EF000C5B21D9819901E99082912D0002018907B
:101F0000082910D0274621371C2200216846FEF7F9
:101F100085F96A461C21384606F036F9002805D0B6
:101F200010E00120EBE727462237EDE76846807E88
:101F3000C01F092806D8E907C90F6A46189B1998D7
:101F400000F01CFB1422002111A8FEF767F92046BF
:101F5000243011AA102106F017F9002812D11022FE
:101F6000FF2111A8FEF7F0F900280BD120462530FB
:101F700015AA042106F008F9E907C90F11AA1D984E
:101F800000F01CFD304607AA2821703006F0FCF84E
:101F9000002811D107A803F041FB002407AEA000E0
:101FA00080190188002903D082781D9800F0B4FFC1
:101FB000641CE4B20A2CF2D3A80704D509480178BE
:101FC0001D9800F097FF1E98042808D105491D9818
:101FD000491C085C022802D11D9803F02DFB00204B
:101FE0001FB0F0BDE48BFF1FF0B50A2485B0154685
:101FF0000F46002806D0012804D0022810D003285C
:1020000045D11FE0084603F0D7FA04460A283ED21D
:10201000002D3CD0062239462846FEF757F836E018
:102020001C4E00240E206043801906223946801D74
:10203000FEF75EF8002822D1641CE4B20A2CF1D32A
:102040000A241CE000242046062148436A46102149
:10205000233006F099F800280CD11022FF216846A1
:10206000FEF772F9002805D13946684600F048FCB1
:10207000002804D0641CE4B20A2CE4D3E0E70A2C64
:1020800005D2002D03D02946204603F0ADFA2046A4
:1020900005B0F0BDFCA9FF1F70B50C46014603203A
:1020A00000020A1A002534481300FDF7D9FF1D105D
:1020B00012151C1F2326282C303234383A3C3E405F
:1020C000424446484A4E50525A5456585A00C079D3
:1020D00011E01022294902E028491022103120463F
:1020E000FDF7F4FF45E0C06A206042E02249062285
:1020F0003C31F4E7007820703BE0808936E01E49EF
:1021000042784231EBE71D4982781F39E7E7007AD0
:10211000F1E7407AEFE7184906223031DFE7807AAD
:10212000E9E7C07AE7E7C08920E0808A1EE0C0784E
:102130001CE0C08A1AE0008B18E0408B16E0808B10
:1021400014E00D4906223631C9E7C08B0EE0008C41
:102150000CE0408C0AE08079CDE7008A06E0408AF6
:1021600004E0272904D2084600F098FA208000E015
:102170000225284670BD0000F48CFF1FAFADFF1F85
:1021800070B50E4C00256071A571691EE18100F0EB
:10219000B1FB0420E071102200210948FEF73EF84F
:1021A0000748102200211030FEF738F8E56225724A
:1021B00065720120A072E57270BD0000F48CFF1FF3
:1021C000AFADFF1FFEB53B4D0C4608040CD568793A
:1021D000FEF7C0F8050004D003F076FF2846FEF7AE
:1021E000BFF80120C00360E0600403D50120800334
:1021F0004840FEBD2F48E1070126807900292AD0FA
:102200002978002920D0052821D0287A694608702D
:10221000687A4870274900A8062230310230FDF75D
:1022200055FFA87A69460872E87A4872687900F022
:102230004DFA002808D00720A871696A002903D048
:102240000968002900D0884720467040FEBD032061
:1022500069460870E5E7A1070DD5052809D1E88989
:10226000FEF784F8AA8A002A03D002216879FDF7D4
:1022700015FF022019E0600704D5002003F07AFF63
:10228000042012E0200712D52879012802D0022864
:102290000AD107E00096AB8B6A8B298BE88A00F0A5
:1022A0000BF801E000F05AF908206040FEBD002064
:1022B000FEBD0000F48CFF1FF8B5134C069DA679F7
:1022C000052E01D01420F8BD104F861FBE4219D232
:1022D000062917D3BE1DB14214D2FF27F537BA42E3
:1022E00010D20A2B0ED3B3420CD2E0822183628338
:1022F000A383284603F03EFF04216079FDF7C2FE68
:102300000020F8BD1820F8BDF48CFF1F7A0C0000E7
:10231000F7B50C4680490098164642187F4F0025B5
:102320007879B9791300FDF79BFE190E141BE9208B
:1023300040455970777E888FE996A2A9B4BFC8E955
:10234000E9E9E9D3E900102C76D11022314674482E
:102350006FE0102C70D1724810223146103068E0C6
:10236000042C69D13068F862CEE0012C64D13B784E
:1023700032783A70002B0AD0002A07D1022903D004
:10238000062901D0042901D100F05EF9BCE0002A41
:102390000AD0012905D0032903D0052901D0042939
:1023A00002D10121FDF774FEAEE0022C44D1308849
:1023B000B881A9E01F2C3FD858481F220021423085
:1023C000FDF72CFF5548224631464230FDF77EFE90
:1023D000524B7C7042332246012112E01F2C7CD8E4
:1023E0004F481F2200211F38FDF718FF4C48224696
:1023F00031461F38FDF76AFE494BBC701F3B224631
:102400000021787900F040FB83E0012C65D1307821
:10241000042862D8387277E0012C5ED13078032826
:102420005BD8787270E0062C57D13C4806223146C2
:102430003030FDF74BFE67E04FE0012C4DD1307896
:1024400007284AD8B8725FE0012C46D130780328BB
:1024500043D8F87258E0022C3FD13288BA82002A61
:1024600052D0052950D10221FDF718FE4CE0012C75
:1024700033D13078012830D8F87045E03088022C0C
:102480002BD1062829D31921C901884225D8F882E1
:102490003AE03088022C20D106281ED31921C90128
:1024A00088421AD838832FE03088022C15D1FF21BA
:1024B000F531884211D2788326E03088022C0CD185
:1024C0000A280AD31921C901884206D8B8831BE01B
:1024D0003178012C01D1012901D0182514E00821FF
:1024E000FDF74AFF002801D016250DE0002003F07B
:1024F00041FE04217879FDF7C5FD05E00098272805
:1025000001D2022C02D002252846FEBD318800F0FF
:1025100045FA0546F8E70000FFFCFFFFF48CFF1FBB
:10252000AFADFF1F1CB50B4CA179002901D01120C4
:102530001CBD002800D06062064907482C310346C4
:1025400001910090103B0022E179607900F05AF887
:1025500000201CBDF48CFF1FBFADFF1F10B5064847
:102560008179052901D0122010BDC189132240793B
:1025700000F04AFA10BD0000F48CFF1FFFB5204D9B
:1025800081B028781E461746022823D0012821D082
:10259000002F22D0019805F00FFD04001FD0606AC3
:1025A000002801D0FDF7EEFE1C213846FDF7F0FEB5
:1025B0006062011E15D02878000714D5002E12D0B5
:1025C000887E00900B4612330A8A019806F0ECFBD5
:1025D000014609E0122005B0F0BD0220FBE71420FF
:1025E000F9E71320F7E70021207904221043207136
:1025F000029A002A02D00222104320710846EAE71C
:10260000D58EFF1FF8B51D460224069F079E0B00BE
:10261000FDF726FD0D170A08080A170817080817FE
:10262000170A1700002C0CD100F0B4F8040008D1F0
:1026300032463946284600F067F900F0C7F801F045
:1026400061F92046F8BD000070B5104C21680029E2
:1026500004D00978814203D0032070BD122070BDE0
:102660000B4D02212878FDF70DFD0A480026468013
:1026700004212878FDF706FD07480680216803201D
:1026800048700020FDF78AFE70BD0000348FFF1FE8
:10269000658FFF1F488FFF1FD88EFF1F272803D28B
:1026A00002494000085A704701487047E08EFF1FFA
:1026B000FFFF000010B5044C6070FDF775FE0521AA
:1026C000607800F0E3FF10BD648FFF1F70B5284EE7
:1026D000054630680C46002801D0112070BD254801
:1026E00001780520014216D023488068002805D0D3
:1026F0000078002802D0C80706D101E0102070BD84
:1027000000F044F8002808D02078032805D00228DB
:1027100003D0002801D0122070BD0C20FDF74AFE26
:102720003060002820D00570002141700A22214627
:10273000801CFDF7CBFC03F0FFFD040002D002F08B
:10274000CFFF12E00D48007803280ED11D20FFF7BF
:10275000A5FF0B490028088007D00B48094A04212F
:102760000078FDF72DFE00E01324204670BD000028
:10277000348FFF1FD58EFF1F488FFF1FD68EFF1F80
:10278000D88EFF1F60EA0000658FFF1F10B505F0AF
:102790006FFC10BD70B50C4605461C22002109488F
:1027A000FDF73CFD084805704470FDF70FFE054934
:1027B000002803D000200870122070BD01220A708A
:1027C00070BD000090BAFF1FD48EFF1F70B50F4C74
:1027D0000025A068002802D0FDF7D4FDA560E068C0
:1027E000002802D0FDF7CEFDE560094805210078FC
:1027F000084206D00548103003F050FB02F0B2FE4C
:1028000070BD002003F04AFB002070BD488FFF1F01
:10281000D58EFF1FFEB5344D0C46080419D56878D7
:10282000FDF798FD0121C9034C40064600280ED053
:1028300003F054FA002807D12878FF2804D0314645
:10284000FDF7CAFD002802D03046FDF789FD20467D
:10285000FEBDE007012700280AD0A868002804D0A0
:102860004168002901D00020884720467840FEBDFD
:10287000A00709D56868002804D04168002901D064
:102880000120884702202AE060072AD5174E3088A9
:1028900000281FD0401E0004000C30801ED102F022
:1028A00095FF002809D0124807706868002804D0F6
:1028B0004168002901D00120884702F061FF694684
:1028C00000F054FF684603F0F3F91D20FFF7E6FE21
:1028D000308003E004216878FDF7D4FB04206040D9
:1028E000FEBD0020FEBD0000648FFF1FD88EFF1FBD
:1028F000D78EFF1F0149087070470000648FFF1FCB
:1029000010B500F0D9FF10BD70B50E4C0B46261D5A
:1029100007C60546102200211846FDF715FD0128BF
:1029200003D11021A06805F0F1FD102200212846F6
:10293000FDF70AFD012803D11021606805F0E6FDCE
:1029400070BD000090BAFF1F38B5054610480C4610
:102950000078400701D4122038BD284605F02CFB32
:10296000002812D00B48A90000684058002801D068
:10297000817D00E02146684606F070FA064B6A4603
:102980000221284606F0CCF938BD142038BD0000DD
:10299000D58EFF1F448FFF1F6D930211272807D28A
:1029A000044A914204D0044A40001152002070476A
:1029B00002207047FFFF0000E08EFF1F70B50E463B
:1029C000104915460978022916D0012914D0002D86
:1029D00014D005F0F1FA040012D0002E03D02079B3
:1029E00002210843207110222946A018FDF76EFB32
:1029F00028692062002070BD122070BD022070BDC9
:102A0000142070BDD58EFF1FF8B50D4617461D4921
:102A100006461B4A12248868954208D100282DD00A
:102A20000268002A2AD029463046904723E0144AFB
:102A3000521C954213D1002807D00268002A04D006
:102A4000294630469047040005D03946304602F00A
:102A500063FD040012D10B48067047700EE0284653
:102A600005F0AAFA002809D00078B04205D139460D
:102A70002846FDF7B7FC044600E003242046F8BDD5
:102A8000FEFF0000388FFF1FF8B50E4601461948BB
:102A90001546007805221F46104028D0304326D026
:102AA0001548012E1BD0C468002C20D01F2D18D82B
:102AB000002D01D0002F14D001701F220021601CB6
:102AC000FDF7ACFB2A463946601CFDF7FFFA2846A5
:102AD0002570002E07D0611CFDF78AFCF8BD8468C4
:102AE000E2E70220F8BD611CFDF788FCF8BD12206A
:102AF000F8BD0000D58EFF1F488FFF1F014610B59F
:102B00000020C90704D0034A0421034800F0A8F9B3
:102B100010BD0000809B0211B08CFF1F70B50F4DDF
:102B20000F4CA87029461831204600F01DF80021EE
:102B300028460B461030CA0084521218491C090658
:102B40005360090EF7D0012004F0D2FAA87800F003
:102B500071FB044805F0A2FA70BD0000908CFF1FC5
:102B6000FFFF00003969021170B50A4C0025A04230
:102B700009D1002082008C525218401CC0B29570BE
:102B80000228F7D370BD03F0A6FE0028FAD0048017
:102B9000857070BDFFFF0000F8B50E460746069928
:102BA00000240798002902D00B242046F8BD022BF0
:102BB00001D00D24F9E711785278120289188DB2EC
:102BC0002946814301D08024EFE73846F16800F0C0
:102BD0003FF9A842E9D02A463846F16800F0CAF920
:102BE0000400E2D171892A46384600F067F9DCE733
:102BF00070B50C46080412D50A488078FDF7AAFB88
:102C0000050008D02878B02802D1284603F080FFBC
:102C10002846FDF7A5FB0120C003604070BD0020E1
:102C200070BD0000908CFF1FFFB583B0087A0025AF
:102C30000C9E1C460F46C0060DD5059803F044FEB9
:102C4000030006D00A22394603989847050035D17B
:102C500001E00E2532E0387802281DD1786829225B
:102C60000178407812020002081881B2881A914255
:102C70007ED009DC7348081A23D0012821D002280D
:102C80004FD0032808D125E0012872D0022871D046
:102C900003286DD004286ED0059803F03DFE00286F
:102CA0006AD00568002DD4D00E990D98019100903E
:102CB0003346224639460398A8470546284607B0BA
:102CC000F0BD0D98002872D1F86801783180027843
:102CD000416896E00D98002869D101203080F8689D
:102CE0000021007820707889401C80B200F070F9D3
:102CF00000280DD0318802788918891C3180817AAA
:102D000061704189090AA17002784168E01C79E08C
:102D100030880422001D30800021601CFDF77EFAFF
:102D2000CCE70D98002875D1F86802A900880090BA
:102D300004203080009820700098000A607000988D
:102D400000F046F9070029D0F8680090684602892B
:102D500001AB3D49384600F093F9002810D13B788B
:102D600002213A487A68FEF73CFC002808D104E0CA
:102D700026E030E01CE04AE062E0334869468880A3
:102D80000098007802280CD1009802224168201D8A
:102D9000FDF79CF93088801C308002E0694600987D
:102DA000888068468088A070000AE07086E731E07D
:102DB0000D9800282ED1F968039800F049F804E036
:102DC0000D98002826D1F8680088022131802070F3
:102DD000000A607072E7F868FDF716FB0D99C0B243
:102DE000814212D8814201D1002206E00E9A891850
:102DF000814202D30D99401AC2B23280F9680D980F
:102E000009182046FDF762F958E7072556E70D989F
:102E1000002801D00B2551E70721F868318001789F
:102E20002170417861708178A1704188090AE17050
:102E30000179217181796171C088000AA0713DE733
:102E400000252FE700280000FFFF0000129C021160
:102E500010B503F040FD002800D0807810BD0000C0
:102E60007CB51546040019D068460194018000F035
:102E7000E7F903001DD1002D1BD06489002C0DD073
:102E80000C20FDF797FA00280AD000230360848005
:102E9000094A85609168002904D006E0022308E011
:102EA000132306E0906004E011460A68002AFBD173
:102EB000086018467CBD0000908CFF1FF8B50C4CD4
:102EC0000746207815460E46FF280FD00A20FDF74A
:102ED000A1FA01000AD0B1200870002048700871E2
:102EE0004F80CE800D812078FDF776FAF8BD000086
:102EF000908CFF1F70B50C4605460649FFF7A8FFEA
:102F0000800704D52146284600F0EEF970BD012067
:102F100070BD0000A88CFF1F1CB56B461A71120A09
:102F20005A7100220092022301AA00F001F81CBD90
:102F3000FFB583B008461F4601A90C9E00F048F873
:102F4000050014D06846808803F0E6FC00280AD00B
:102F50004468002C09D000963B462946059A039800
:102F6000A04707B0F0BD0024F3E70E20F9E70120E9
:102F7000F7E7000070B514460E46054603F0ABFCBB
:102F8000002806D13146054803F0A5FC002803D0EF
:102F900005808470002070BD112070BDFFFF00000F
:102FA00010B50178B0290BD14178002908D10179F9
:102FB000122906D01B2903D14088012100F0E2FA32
:102FC00010BDFF210231095C0129F5D010BD0000C0
:102FD000F0B58C4610494B6819E09F687C89A04287
:102FE00014D39E883119814210D900220CE01101BE
:102FF0007D186989814205D16046002800D004808F
:103000002846F0BD521C92B29642F0D81B68002BA5
:10301000E3D10020F0BD0000708FFF1FFFB51748FF
:1030200081B00A9F446824E000251EE0A0682901C1
:10303000461870890199884215D30299884212D89E
:103040000498002807D031787068049B039AFEF733
:10305000C8FA002807D0002F02D0A0684089388025
:10306000304605B0F0BD6D1CADB2A088A842DDD8D9
:103070002468002CD8D10020F3E70000708FFF1FD8
:10308000FEB5174600256A469580044640891D4ACC
:103090001E46904208D001AA0092401C237880B2BC
:1030A0006268FFF7BBFF0546237802211648626875
:1030B000FEF797FA002807D12378022113486268A7
:1030C000FEF78FFA002801D060890EE023780221F4
:1030D0000F486268FEF785FA00280DD0002D03D056
:1030E00068468088B84203D0384604F015F904E0F9
:1030F0006889401E80B200E06089002E00D03080D8
:103100002846FEBDFFFF0000109C0211129C021118
:10311000169C0211FFB581B00F461E461446694643
:10312000019803F01FFA050018D1002C06D00122E7
:103130001021019804F01AFF05000FD139460198BB
:10314000FEF7E6FA050009D1009CFF2E06D02146C5
:103150001E22A31C034804F0EBF8E670284605B0D5
:10316000F0BD00001D72021110B505490870042160
:1031700000F08CFA00F006F8FEF7DEFA10BD000051
:103180007C8FFF1FF8B50F4D0D4B00206E1C1C7877
:10319000FF2209E09F688100C91900280ED00E8027
:1031A000CA70401C8A70C0B2A042F3D3064803F034
:1031B0007DFB064804F072FF0020F8BD0D80EFE7AC
:1031C000708FFF1FFEFF0000497202119D710211F6
:1031D000F8B50D4614460646694603F0C3F91728AC
:1031E0000CD0002C06D001221021304604F0BEFE87
:1031F000002803D129463046FEF794FAF8BD0000B6
:1032000070B50C46080411D509480078FDF7A2F8FE
:10321000050007D00178A02901D103F0EBFA284678
:10322000FDF79EF80120C003604070BD002070BD16
:103230007C8FFF1F0149487070470000708FFF1F8F
:1032400070B50546008800281DD068680221037803
:1032500042682248FEF7C5F9002808D168680221B3
:10326000037842681E48FEF7BCF900280BD01D4CBD
:103270006088002805D0012229881204101A814292
:1032800003D9012070BD022070BD0C20FDF792F81B
:10329000060001D000200BE0132070BD01016B6817
:1032A00062880A315A526188491C401C618080B290
:1032B00029888142F2D80020306008222946301D3A
:1032C000FCF704FF6068002802D1666004E008464D
:1032D00001680029FBD10660002070BD109C02111E
:1032E000129C0211708FFF1F70B5BEB00D460646CE
:1032F000002402230E4A0F4901200094FFF78EFE9E
:10330000002812D040896A46108004205080012095
:1033100010715471FF209071D0712B4600226946C4
:103320003046FFF7F7FE3EB070BD0120FBE700001E
:103330002E9C0211FFFF00000649496806E08A68DA
:103340005289824201D18888704709680029F6D1E4
:1033500000207047708FFF1F10B51422114201D05A
:10336000012202E04A0604D50022102104F0FEFDED
:1033700010BDC80701D0002010BD022010BD10B53F
:1033800014468A0604D50122102104F0EFFD10BD79
:10339000882211420ED008220A40102104F0E6FDD6
:1033A00000280BD0E034617E0029F0D0217E012975
:1033B000EDD103E0880701D4032010BD002010BD2B
:1033C000014610B50020C90704D0034A072103486D
:1033D000FFF746FD10BD00006C9B02111C8CFF1F07
:1033E00070B50D46164600241D490300FCF738FE53
:1033F00008051234341934222934152D23D8162205
:1034000000211848FCF70AFF2A4631461548FCF708
:103410005DFE22E0022D16D1114910881039088076
:103420001BE0082D0FD10E48082231460838FCF762
:103430004FFF12E0012D06D1CA69094930782831C1
:1034400007E0012D01D0182407E0CA6B0449307849
:10345000483104F034F800E00224204670BD00003A
:103460001C8CFF1F92AAFF1FF0B5069F099E002823
:1034700033D0102831D800292FD0002A2DD0002B8E
:103480002BD0002F29D0079C002C26D0089C002C84
:1034900023D0002E21D00A9C002C1ED0104C851D5C
:1034A00020706570A26061600E490F4A0B6005993B
:1034B00011600E490E4A0F60079911600D4A089974
:1034C00011600D49401C08700C490E600C490870D1
:1034D0000C490A9808600020F0BD1820F0BD0000DB
:1034E0008C8FFF1FD08FFF1FCC8EFF1F448FFF1FBD
:1034F000BC8FFF1FC08FFF1FB08FFF1FB48FFF1F38
:10350000708FFF1F788FFF1F0B7803700B880222CC
:103510001B0A43700B88801C012B02D0022B07D0A2
:1035200011E08A7802704988090A417004220AE091
:103530008A7802704A88120A42700A7982708988F1
:10354000090AC170062210467047000008B5044BF6
:10355000009313460A46012104F016FC08BD000042
:10356000093502111CB50323019200930A46024B50
:10357000122104F039FC1CBD6176021110B5FCF774
:103580004FFF10BD13B504480078012803D101AAEC
:103590006946FCF74BFF1CBD888FFF1F70B51049B3
:1035A000104A087000210B468C00491CC9B2135305
:1035B0000429F9D30B4C00211034FF260A460A25B2
:1035C0006A4315196B80491CA354C9B26E72032952
:1035D000F4D3FCF731FF04F08DFB04F023FD70BD44
:1035E000898FFF1FACBAFF1F082A01D00120704746
:1035F0004B780A781B02D2180280CB788A781B029B
:10360000D21842804B790A791B02D21882808A79BB
:10361000C97909025118C1800020704770B50C4665
:10362000080411D509480078FCF794FE050007D07E
:103630000178902901D104F0BFFA2846FCF790FEEA
:103640000120C003604070BD002070BD898FFF1F46
:1036500070B50C490978884213D20B4C060160689A
:103660000025855330188581606830188580606832
:1036700030188068002804D0FCF7E4FE6068301839
:10368000856070BD8C8FFF1FB88FFF1F072907D083
:10369000052905D0042903D0062901D0022070474E
:1036A000044A8B009A181346403B1986203A9074BE
:1036B00000207047ACBAFF1F70B5174909788842DF
:1036C00028D25C21154C4843A168054640180026C5
:1036D00040300674A068281840304674A068281846
:1036E00040300676A0682818406D002804D0FCF70A
:1036F000A9FEA068281846650026A068F1002818D1
:1037000040184068002801D0FCF79CFE761CF6B2F9
:103710000A2EF2D370BD00008C8FFF1FB88FFF1FE1
:1037200070B50A880C460546072A07D0052A05D039
:10373000042A03D0062A01D0022070BD012104F022
:10374000DFFC002804D02146284603F09FFF70BD0F
:10375000142070BD10B5001D80B2FCF779FE002862
:1037600003D00321C943FCF779FE10BD38B50C46E0
:10377000050014D0002C12D00321684604F0C6FEC8
:103780006946887840218006800E08436946887023
:103790002246284605F022FC050002D006E0022061
:1037A00038BD03226946E01CFCF790FC284638BD72
:1037B000F7B58EB00E9815460E4600282DD0002D78
:1037C0002BD0301DC0B20190FCF7F4FD040039D0BD
:1037D00001F0E2FF07463246201D0E99FCF744FE39
:1037E000F8B20890E0703804000E0B90A070380218
:1037F000000E0A9060703F0E277001F0C7FF01466F
:10380000102202A8FCF730FE06AB214602A8019A5E
:1038100005F03AFB060003D010E0022011B0F0BD25
:10382000089828700B9868700A98A870EF700822A2
:1038300006A9281DFCF718FE01F0B4FF2046FCF78E
:10384000A1FD00E013263046E8E7000010B5064C65
:103850002070FCF70FFE06212078FFF717FF0348C2
:1038600004F01CFC10BD0000A48FFF1F6585021131
:1038700070B50C46080419D50D480078FCF76AFDB0
:1038800005000FD004F094FF002808D10948007803
:10389000FF2804D02946FCF79FFD002802D02846C7
:1038A000FCF75EFD0120C003604070BD002070BDCC
:1038B000A48FFF1F648FFF1F7CB50C4605001DD031
:1038C000002C1BD00322E11C6846FCF7FFFB694675
:1038D000887840218006800E08436946887001AAD6
:1038E000284605F07BFB002807D10322214601A8CA
:1038F000FCF7FEFB012803D001207CBD02207CBD2B
:1039000000207CBD10B505480078400701D504486B
:1039100000E0002004F0D4FF002010BDD58EFF1F72
:10392000988FFF1FFFB58DB00F98169C0E4600288C
:1039300015D0002C13D00D9804F03EFB050011D0DB
:103940006178207809024018A178E278090412060B
:1039500089184718286AB84206D3401C04D00220B0
:1039600011B0F0BD1420FBE7002E04D028798007A9
:1039700001D40120F4E70822002106A8FCF74EFC40
:103980001098001DC0B20190FCF714FD060017D07E
:10399000301D109A0F99FCF767FD0422214630462E
:1039A000FCF762FD1022A91802A8FCF75DFD06AB2A
:1039B000314602A8019A05F067FA050002D013E02B
:1039C0001320CDE7082206A908A8FCF74DFD082220
:1039D000211D08A8FCF78CFB012801D0012503E07C
:1039E00039460D9802F002FD3046FCF7CBFC284624
:1039F000B6E7000010B503F0FBFCFCF781FC01F01A
:103A0000A7FC0120FCF78EFC01A0FCF755FC10BDC3
:103A10004154204D6F640A00F0B585B0002406467D
:103A200057480D4600940194029403940494802115
:103A30000078FCF727FB012E7ED1286801783F290A
:103A40000DD0504902AA0B191B7C1355641CE4B21B
:103A5000062CF6D3FCF714FD11287ED10FE0494D5A
:103A600049A0297CFCF728FC01242819017C48A0E6
:103A7000FCF722FC641CE4B2062CF6D37DE00024A3
:103A800001E0052C28D2600029682318C85C024692
:103A9000303A092A05D9113A052A02D9203A052ACD
:103AA0005BD85E1C8A5D1746303F092F05D9113F50
:103AB000052F02D9613A052A4FD89B1CCA5C3A2AC5
:103AC0004BD16A461074885D50741022022104A8FC
:103AD000FEF7C0F96E4622E060002A682318D05C29
:103AE00001463039092905D91139052902D920396A
:103AF000052932D85B1CD15C0F46303F092F05D910
:103B0000113F052F02D96139052926D86946087465
:103B1000D05C48741022022104A8FEF79BF93055AE
:103B2000641CE4B2062CACD3164C0020315C221885
:103B3000401C1174C0B200E00FE00628F6D3042048
:103B400001F05AFA002818D0002002A90A5C2318B4
:103B5000401CC0B21A740628F8D30FA0FCF7ACFBC7
:103B600008488021426B7D20C00042430448007811
:103B7000FCF794FA002005B0F0BD09A0EEE70000C4
:103B80005E8DFF1FB4A9FF1F0A25303278000000A8
:103B90003A253032780000000A4552520A000000EF
:103BA0000A4F4B0A00000000FEB50024304F0D46BE
:103BB00006460094019480213878FCF763FA304679
:103BC0002C4E012834D1286801783F29318C07D048
:103BD0000291FCF755FCC1B2052929D86B460CE0CF
:103BE00025A0FCF769FB40E02868005D0246303AFA
:103BF000092A1DD81855641CE4B28C42F4D3002065
:103C0000191948701846FCF73BFC81B20A22684635
:103C1000FEF720F980B20146184A2039914207D2B6
:103C20003084082001F0E8F900280ED00298308492
:103C300013A0FCF741FB7D20726BC0004243802142
:103C40003878FCF72BFA0020FEBD318C0620FEF7F9
:103C5000A5FE318C0720FEF7A1FE318C0820FEF76F
:103C60009DFE318C0920FEF799FE07A0E1E70000D8
:103C70005E8DFF1FB4A9FF1F0A256400E118000034
:103C80000A4552520A0000000A4F4B0A0000000089
:103C900010B5FCF7FBFB002811D00B4C80212078DD
:103CA000FCF7F0F909A0FCF707FB0A488021426BFA
:103CB0007D20C00042432078FCF7F0F902E003A029
:103CC000FCF7FAFA002010BD5E8DFF1F0A4F4B0A69
:103CD00000000000B4A9FF1FF0B585B00024254FF7
:103CE0000D46064600940194029480213878FCF732
:103CF000C9F93046204E01282BD1286800783F288A
:103D000003D0706B694603900DE01CA0716BFCF74B
:103D1000D3FA2CE00246303A092A1AD80855082C62
:103D200017D2641CE4B22868005D0028F2D109199A
:103D300048706846FCF7A4FB81B20A226846FEF789
:103D400089F870630F2001F057F900280FD003980D
:103D500070630BA0FCF7B0FA7D20726BC000424389
:103D600080213878FCF79AF9002005B0F0BD06A054
:103D7000F0E700005E8DFF1FB4A9FF1F0A25640055
:103D80000A4552520A0000000A4F4B0A0000000088
:103D9000F8B5204E0C46074680213078FCF772F9C2
:103DA0001D4DA878002803D01CA0FCF785FA01E07F
:103DB000012F01D01EA020E0206801783F290CD0FF
:103DC000FCF75EFB21680D280CD30C221A48FCF787
:103DD00063FB19490020087307E0174917A0FCF797
:103DE0006BFA09E01448FCF75DFB288D1249FCF7DB
:103DF0005FFB0020FCF762FB11A0FCF75DFA7D2061
:103E00006A6BC000424380213078FCF747F90020FC
:103E1000F8BD00005E8DFF1FB4A9FF1F0A4E4120B0
:103E2000696E204D6173746572206D6F646500006A
:103E30000A4552520A000000538AFF1F0A257300E8
:103E40000A4F4B0A00000000F8B5404F0C460646EA
:103E500080213878FCF716F93D4D012E60D120689D
:103E600001783F2936D03BA12E6BFCF761FA002880
:103E700035D03AA12068FCF75BFA002832D039A18E
:103E80002068FCF755FA00282FD038A12068FCF7ED
:103E90004FFA00282CD037A12068FCF749FA0028F7
:103EA00029D036A12068FCF743FA002826D035A196
:103EB0002068FCF73DFA002823D034A12068FCF7E5
:103EC00037FA002820D033A12068FCF731FA002807
:103ED0001CD025E031A0296BFCF7EEF928E04B203F
:103EE000800114E04B20C00111E0E12080010EE0D0
:103EF0004B2000020BE04B20400208E0E1200002D2
:103F000005E0E120400202E0254800E02548286362
:103F1000B0420DD00E2001F06FF8002802D02E63C1
:103F200021A006E022A0FCF7C7F9FFF763FD02E03D
:103F30001FA0FCF7C1F97D206A6BC00042438021BD
:103F40003878FCF7ABF80020F8BD00005E8DFF1F4D
:103F5000B4A9FF1F3438303000000000393630304B
:103F6000000000003134343030000000313932308C
:103F70003000000033383430300000003537363040
:103F80003000000031313532303000003530303013
:103F90003030000031303030303030000A256400DD
:103FA00020A1070040420F000A4552520A000000BB
:103FB0000A4F4B0A00000000F3B587B000274E4DB2
:103FC0000C460097019780212878FCF75BF807984A
:103FD0004A4E012802D002280AD069E02068007801
:103FE0003F2865D1B28C718C45A0FCF765F981E062
:103FF000708C0590B08C6946049008E00246303A17
:10400000092A55D8C855042F52D27F1CFFB2206808
:10401000C05D0028F2D1C91948706846FCF730FA33
:1040200081B20A226846FDF715FF80B2374A811F28
:1040300091423DD269468881002108466F467854F6
:10404000491CC9B20529FAD3002208E00B46303BCF
:10405000092B2DD8B954042A2AD2521CD2B2616835
:10406000895C0029F2D1B91848703846FCF708FA83
:1040700081B20A226846FDF7EDFE80B2234A811F15
:10408000914215D269468989884202D268460181E7
:1040900001E06A461081718468460089B084092075
:1040A00000F0AAFF002811D0059870840498B0840D
:1040B00017A0FCF701F97D20726BC00042438021FC
:1040C0002878FBF7EBFF002009B0F0BD0B49B27F69
:1040D0002231F01CFCF7F8F90120FCF7EFF903AAF4
:1040E00002210D48FEF714F90B4802AA0221401CD8
:1040F000FEF70EF909A0DCE75E8DFF1FB4A9FF1FD4
:104100000A2564202D202564000000007A0C0000A0
:104110000A4552520A000000110300000A4F4B0AE0
:104120000000000010B5094C80212078FBF7AAFFA1
:1041300007A0FCF7C1F808488021426B7D20C00031
:1041400042432078FBF7AAFF002010BD5E8DFF1FC1
:104150000A4F4B0A00000000B4A9FF1FF8B51B4D21
:104160000F46064680212878FBF78CFF184C012E5D
:104170001CD1386800783F2805D0267831280BD02C
:1041800030280BD012E02078002801D011A000E0E8
:1041900015A0FCF791F816E0012000E00020207047
:1041A000002000F029FF00280DD0267012A0FCF797
:1041B00083F87D20626BC000424380212878FBF7A2
:1041C0006DFF0020F8BD0EA0F1E700005E8DFF1F1F
:1041D000B4A9FF1F0A4E6F742D636F6E6E65637412
:1041E00061626C65000000000A436F6E6E65637467
:1041F00061626C65000000000A4552520A0000002E
:104200000A4F4B0A00000000FEB500242A4F0D465D
:1042100006460094019480213878FBF733FF30463E
:10422000264E012831D1286800783F2803D0F08C31
:10423000694602900DE0F18C21A0FCF73DF838E0D2
:104240000246303A092A20D80855042C1DD2641C95
:10425000E4B22868005D0028F2D109194870684668
:10426000FCF70EF981B20A226846FDF7F3FD80B231
:104270000146144A0A39914207D2F0840A2000F01C
:10428000BBFE00280ED00298F0840FA0FCF714F8B3
:104290007D20726BC000424380213878FBF7FEFE20
:1042A0000020FEBD054AC520263202218000FEF70F
:1042B0002FF807A0EAE700005E8DFF1FB4A9FF1FDB
:1042C0000A256400770C00000A4552520A000000DB
:1042D0000A4F4B0A0000000070B5244E04468021AE
:1042E0003078FBF7CFFE224D002C34D1214C2078C2
:1042F000287060786870A078A870E11CE81CFCF752
:10430000D1F8002021182A18401C097CC0B2117471
:104310000628F7D31749164816311630FCF7C2F8AD
:10432000A07FA877E07FE877208C2884608C688461
:10433000A08CA884E08CE884206B2863208D2885DD
:10434000608D6885A08DA885606B686300F012FFA2
:1043500009A0FBF7B1FF7D206A6BC00042438021BA
:104360003078FBF79BFE002070BD00005E8DFF1FC4
:10437000B4A9FF1F608AFF1F0A4F4B0A000000000C
:10438000F8B52C4D0C46074680212878FBF77AFEBD
:10439000294E012F4CD1206801783F291DD027A13B
:1043A000FBF7C6FF002834D025A12068FBF7C0FF2B
:1043B000002827D023A12068FBF7BAFF002823D0CC
:1043C00021A12068FBF7B4FF00281FD01FA120689F
:1043D000FBF7AEFF00281BD02AE0FCF77BF80300B8
:1043E000FBF73EFE050406080A0C260018A006E0AE
:1043F00019A004E01AA002E01AA000E01AA0FBF73E
:104400005BFF08E0012004E0022002E0032000E05E
:104410000420FCF765F815A0FBF74EFF7D20726BBA
:10442000C000424380212878FBF738FE0020F8BD09
:1044300010A0F1E75E8DFF1FB4A9FF1F32353600D3
:10444000313238003634000033320000313600009B
:104450000A323536000000000A3132380000000010
:104460000A3634000A3332000A3136000A4F4B0A4A
:10447000000000000A4552520A000000F8B51E4C28
:104480000F46064680212078FBF7FCFD1B4D012ED0
:1044900021D138681A4900783F2808D000225428D2
:1044A00015D00DDC30280FD031280DD10FE0087861
:1044B000002801D013A000E014A0FBF7FDFE04E0EB
:1044C000662801D0742802D00A7012A004E0E87FA8
:1044D00000280DD00A7011A0FBF7EEFE7D206A6B5C
:1044E000C000424380212078FBF7D8FD0020F8BDB2
:1044F00001200870E9E700005E8DFF1FB4A9FF1FCF
:10450000508AFF1F0A747275650000000A66616CAC
:10451000736500000A4F4B0A000000000A45525222
:104520000A0000000148406B70470000B4A9FF1F5B
:104530000148006B70470000B4A9FF1F70B5194D0A
:1045400004462878207068786070A878A070E91C0C
:10455000E01CFBF7A7FF002029182218401C097C4B
:10456000C0B211740628F7D30E4920461631163012
:10457000FBF798FFA87FA077E87FE077288C20845E
:10458000688C6084A88CA084E88CE084286B20630D
:10459000288D2085688D6085A88DA085686B6063F7
:1045A00070BD0000B4A9FF1F70B5194D04462878EE
:1045B000207068786070A878A070E91CE01CFBF798
:1045C00071FF002029182218401C097CC0B2117408
:1045D0000628F7D30E49204616311630FBF762FF46
:1045E000A87FA077E87FE077288C2084688C60849F
:1045F000A88CA084E88CE084286B2063288D20851B
:10460000688D6085A88DA085686B606370BD0000B3
:10461000608AFF1F0148007870470000508AFF1F22
:104620000148407870470000B4A9FF1F0148C07FCF
:1046300070470000B4A9FF1F014840787047000090
:10464000508AFF1F10B5FBF751FF002803D104214A
:104650000148FBF751FF10BD00400311F8B5274D8D
:104660000F46064680212878FBF70CFD244C012ECE
:1046700025D1386800783F280AD06678542814D0AD
:104680000FDC302813D031280FD0462817D10EE088
:104690006078002801D01BA000E01BA0FBF70CFEF7
:1046A00029E0662803D0742809D1012000E0002009
:1046B0006070012000F0A0FC00280DD0667014A0EE
:1046C000FBF7FAFD7D20626BC00042438021287811
:1046D000FBF7E4FC0020F8BD607800280BD00C202C
:1046E00003F0C8FB012003F0D7FB012003F0D4FB4B
:1046F000002003F0D1FB08A0E2E700005E8DFF1F61
:10470000B4A9FF1F0A4F6E000A4F66660000000042
:104710000A4552520A0000000A4F4B0A00000000EE
:10472000FEB50024074630480E4600940194254605
:1047300080210078FBF7A6FC38462C4F01283CD19D
:10474000306801783F2905D02822BA5E02923029CC
:1047500005D00AE0398D26A0FBF7AEFD42E0407897
:10476000582801D0782800D1022569460EE002467B
:10477000303A092A05D9113A052A02D9203A052AE0
:104780001BD80855042C18D2641CE4B23068621996
:10479000805C0028EBD1091948706846FBF770FE71
:1047A00081B210226846FDF755FB38850B2000F0DA
:1047B00023FC00280FD0029838850FA0FBF77CFD62
:1047C0007D207A6BC0004243074880210078FBF7C8
:1047D00065FC0020FEBD388D0949FBF769FE00200D
:1047E000FBF76CFE07A0E9E75E8DFF1FB4A9FF1F72
:1047F0000A307825780000000A4552520A0000006D
:10480000538AFF1F0A4F4B0A00000000F8B5274DDE
:104810000E46074680212878FBF734FC244CA0780C
:10482000002803D023A0FBF747FD2AE0012F28D161
:10483000306800783F2808D0E67F0027302814D061
:10484000312814D032281CD113E0E07F002804D096
:10485000012804D0022814D103E01BA002E01BA011
:1048600000E01BA0FBF728FD12E0E77703E0012042
:1048700000E00220E077072000F0BEFB002802D015
:10488000E67714A005E0E07F002801D01348077008
:1048900013A0FBF711FD7D20626BC0004243802115
:1048A0002878FBF7FBFB0020F8BD00005E8DFF1FA2
:1048B000B4A9FF1F0A4E4120696E204D61737465D3
:1048C00072206D6F646500000A3000000A3100003C
:1048D0000A3200000A4552520A000000508AFF1FA7
:1048E0000A4F4B0A00000000F0B585B00027264EA5
:1048F0000C46054600970197029703978021307870
:10490000FBF7C0FB2846214D012824D12068007800
:104910003F280FD0E91C6846FBF7C4FD2068FBF771
:10492000AFFD21680D280AD30C22E81CFBF7B4FD6B
:10493000EF7307E0E91C16A0FBF7BEFC22E0E81CC1
:10494000FBF7B0FD032000F057FB002811D06946AB
:10495000E81CFBF7A7FD0FA0FBF7AEFC7D206A6B00
:10496000C000424380213078FBF798FB002005B05F
:10497000F0BD0649AA7F2231E81CFBF7A5FD012006
:10498000FBF79CFD05A0E7E75E8DFF1FB4A9FF1FA5
:104990000A2573000A4552520A0000000A4F4B0ACA
:1049A00000000000F8B51B4C0D460746802120781A
:1049B000FBF768FB184E012F01D018A012E0286801
:1049C00001783F291AD017A1FBF7B2FC00281CD0B0
:1049D00015A12868FBF7ACFC002818D0F020FBF7E5
:1049E00091FD12A0FBF768FC7D20726BC000424372
:1049F00080212078FBF752FB0020F8BDFBF788FDF3
:104A000001460CA0FBF758FCEBE7A020E7E780206D
:104A1000E5E700005E8DFF1FB4A9FF1F0A45525253
:104A20000A00000031363000313238000A4F4B0A9C
:104A3000000000000A25640070B50C4C054680217A
:104A40002078FBF71FFB002D04D109A0FBF734FCF5
:104A5000FBF764FD08488021426B7D20C000424383
:104A60002078FBF71BFB002070BD00005E8DFF1F50
:104A70000D0A4F4B0D0A0000B4A9FF1FF8B52E4DCB
:104A80000F46064680212878FBF7FCFA2B4C012EB6
:104A900037D1386800783F2808D03038A77F030026
:104AA000FBF7DEFA05181A1E22262F00A07F03004E
:104AB000FBF7D6FA050406080A0C270020A006E03A
:104AC00021A004E022A002E023A000E024A0FBF744
:104AD000F3FB24E000200CE00120A0771F260AE071
:104AE0000220A0770A2606E00320A077012602E034
:104AF0000420A0773F26062000F07EFA002802D08E
:104B0000A77719A00CE03046FBF70EFD0B49A27FFA
:104B10002231E01CFBF7D8FC0120FBF7CFFC14A0EE
:104B2000FBF7CAFB7D20626BC000424380212878DE
:104B3000FBF7B4FA0020F8BD5E8DFF1FB4A9FF1F7C
:104B40000A3564426D0000000A3064426D000000C6
:104B50000A2D3564426D00000A2D323064426D002A
:104B60000A313064426D00000A4552520A000000CA
:104B70000A4F4B0A00000000F8B51F4D0F460646CD
:104B800080212878FBF77EFA1C4C012E20D1386852
:104B900000783F2809D0A6784D280FD053280FD091
:104BA0006D280BD0732813D10AE0A078002801D01B
:104BB00013A000E014A0FBF77FFB1BE0012000E046
:104BC0000020A070022000F017FA00280DD0A67077
:104BD0000FA0FBF771FB7D20626BC0004243802178
:104BE0002878FBF75BFA0020F8BD0BA0FBF764FB0D
:104BF000FBF794FC08A0ECE75E8DFF1FB4A9FF1F34
:104C00000A4D6173746572000A536C617665000029
:104C10000A4552520A0000000A4F4B0A00000000E9
:104C200070B51C4E044680213078FBF72BFA1A4DE4
:104C3000002C25D1E91C19A0FBF73EFBA878002821
:104C400001D01AA000E01EA0FBF736FB21A0296BC3
:104C5000FBF732FB297C23A0FBF72EFB012428194C
:104C6000017C25A0FBF728FB641CE4B2062CF6D3DC
:104C7000094923A01631FBF71FFB25A0FBF71CFBFE
:104C80007D206A6BC000424380213078FBF706FA32
:104C9000002070BD5E8DFF1FB4A9FF1F0A4E616D1D
:104CA000652020202020A3BA257300000A526F6CD3
:104CB000652020202020A3BA4D6173746572000026
:104CC0000A526F6C652020202020A3BA536C6176B5
:104CD000650000000A4261756472617465203A20C3
:104CE000256400000A424C45206164647220A3BA26
:104CF00025303278000000003A253032780000007C
:104D00000A50494E202020202020A3BA25730000FD
:104D10000A4F4B0A00000000F8B51C4C0F4606462F
:104D200080212078FBF7AEF9194D012E01D019A092
:104D30001CE03868194900783F2808D00022542820
:104D400020D00DDC30280FD031280DD11AE0487862
:104D5000002801D012A000E013A0FBF7ADFA04E098
:104D6000662801D074280DD04A7011A0FBF7A4FA70
:104D70007D206A6BC000424380212078FBF78EF9CA
:104D80000020F8BD01204870EFE700005E8DFF1F96
:104D9000B4A9FF1F0A4552520A000000508AFF1FA3
:104DA0000A747275650000000A66616C7365000024
:104DB0000A4F4B0A00000000F0B589B00024684695
:104DC0000477009401940294039404948482FF2055
:104DD000274607AA01218130069403F0D5F900285F
:104DE0007ED16846007F01257C4E002802D0012834
:104DF00002D026E0347000E0357068460477FF206A
:104E000007AA0121823003F0BFF90028E8D16846E3
:104E1000007F002802D0012802D012E0747000E068
:104E2000757068460477FF2007AA0121833003F0DC
:104E3000ABF90028D4D16846007F002807D00128AC
:104E400007D067A0FBF738FA042009B0F0BDB470B2
:104E500000E0B570FF206A460D21843003F094F91C
:104E60000028BDD16946F01CFBF71CFB6D46EC55D4
:104E70007F1CFFB20D2FFAD3FF202A460621853072
:104E800003F082F900282BD1295C3218401CC0B2F3
:104E900011740628F8D300202C54401CC0B20628F8
:104EA000FAD3FF206A460821863003F06DF9002806
:104EB00016D14A4869461630FBF7F4FA00202C5404
:104EC000401CC0B20828FAD368460477FF2007AA1E
:104ED0000121873003F058F9002876D1684600E0B8
:104EE00073E0007FB07768460477FF2007AA0121AE
:104EF000883003F049F9002867D16846007FF077D1
:104F000068468482FF2005AA0221893003F03CF91B
:104F100000285AD16846808A308468468482FF20FF
:104F200006AA04218A3003F02FF900284DD16846E3
:104F3000008B70846846408BB08468468482FF2072
:104F400005AA02218B3003F01FF900283DD16846E5
:104F5000808AF08468468482FF2005AA02218C3072
:104F600003F012F9002830D16846808A30856846FF
:104F70008482FF2005AA02218D3003F005F9002864
:104F800023D16846808A708568468482FF2005AAFE
:104F900002218E3003F0F8F8002816D16846808A86
:104FA000B085FF2004AA04218F30049403F0ECF8AC
:104FB00000280AD104983063FF2004AA042190300D
:104FC000049403F0E1F8002804D008A0FBF774F97A
:104FD00003203AE704987063002036E7B4A9FF1F66
:104FE0000A525F465F445F4572720A000A525F468A
:104FF0005F4572720A000000F0B589B0002569466D
:105000000D770246009501950295039504958D82D2
:1050100001202C46074653496E4606951300FBF7C0
:105020001FF8100913212B3B50686D72777F84891C
:105030008E959A6008780028304601D0077700E006
:105040000577FF20813008E048780028304601D0FD
:10505000077700E00577FF20823007AA012103F0DF
:10506000A5F83EE088780028304601D0077700E0B8
:105070000577FF208330F0E73046C91CFBF712FAB2
:10508000FF2084306A460D2103F090F83555641CEA
:10509000E4B20D2CFAD324E00819007C3055641CCE
:1050A000E4B2062CF8D3FF32813290B232460621A8
:1050B00003F07CF800217554491CC9B20629FAD3C3
:1050C0000FE0284930461631FBF7ECF9FF20863017
:1050D0006A46082103F06AF83555641CE4B2082CCE
:1050E000FAD3002803D020A0FBF7E6F8052009B08A
:1050F000F0BD887F3077FF208730AEE7C87F3077FC
:10510000FF208830A9E7088CB082FF2089301AE0A0
:10511000488C3083888C7083FF208A3006AA1FE079
:10512000C88CB082FF208B300DE0088DB082FF204C
:105130008C3008E0488DB082FF208D3003E0888DF0
:10514000B082FF208E3005AA022188E7086B049008
:10515000FF208F3003E0486B0490FF20903004AABA
:1051600004217CE7B4A9FF1F0A575F465F457272AE
:105170000A00000010B500242046FFF73DFF641C24
:10518000E4B20F2CF8D910BDFEB5002407462F4815
:105190000E4600940194254680210078FAF772FFAC
:1051A00038462B4F01283CD1306801783F2905D083
:1051B0002A22BA5E0292302905D00AE0798D25A014
:1051C000FBF77AF83FE04078582801D0782800D1E2
:1051D000022569460EE00246303A092A05D9113AFD
:1051E000052A02D9203A052A1BD80855042C18D2C2
:1051F000641CE4B230686219805C0028EBD10919A4
:1052000048706846FBF73CF981B210226846FCF70B
:1052100021FE78850C20FFF7EFFE00280FD00298C2
:1052200078850EA0FBF748F87D207A6BC0004243DA
:10523000064880210078FAF731FF0020FEBDB98DC5
:10524000788DFBF777F907A0ECE700005E8DFF1F74
:10525000B4A9FF1F0A307825780000000A45525291
:105260000A0000000A4F4B0A00000000FEB50024AF
:1052700007462F480E460094019425468021007869
:10528000FAF700FF38462B4F01283CD130680178EF
:105290003F2905D02C22BA5E0292302905D00AE0BF
:1052A000B98D25A0FBF708F83FE04078582801D0D9
:1052B000782800D1022569460EE00246303A092AD4
:1052C00005D9113A052A02D9203A052A1BD80855D2
:1052D000042C18D2641CE4B230686219805C002887
:1052E000EBD1091948706846FBF7CAF881B2102261
:1052F0006846FCF7AFFDB8850D20FFF77DFE00285E
:105300000FD00298B8850EA0FAF7D6FF7D207A6BF1
:10531000C0004243064880210078FAF7BFFE002013
:10532000FEBDB98D788DFBF705F907A0ECE700000D
:105330005E8DFF1FB4A9FF1F0A307825780000009A
:105340000A4552520A0000000A4F4B0A00000000B2
:10535000F8B51049104CCF68206B8E680D68002896
:1053600002D1E120400220630B48402240380078FF
:105370000021FAF753FF094900208870246B02F0DE
:1053800037F800903B46324621462846FAF7BEFFE2
:10539000F8BD0000549B0211B4A9FF1F508AFF1FE3
:1053A0000A480949427D0A70491C027D0A70491C5D
:1053B000C27C0A70491C827C0A70491C427C0A70BB
:1053C000491C007C087070476509FF1FB4A9FF1FC6
:1053D0007CB50020174D0090019080212878FAF7C5
:1053E00051FE30206B461870332159702E229A706E
:1053F000D87031241C715A719871D9710EA0FAF7C6
:105400005BFF00246E46315D0DA0FAF755FF641C6A
:10541000E4B2082CF7D30BA0FAF74EFF0B4880211B
:10542000426B7D20C00042432878FAF737FE002007
:105430007CBD00005E8DFF1F0A7665723A20000079
:10544000256300000A4F4B0A00000000B4A9FF1FAB
:10545000FFB583B016460F461B2A01D0522E04D149
:105460000398FBF76DF800281BD01D490398896845
:105470004000085AFEF76EF904002DD00125601C8B
:105480002670002F03D00699B847401C85B230061D
:1054900013D51021039802F033FE002804D01926FA
:1054A00016E0132007B0F0BD6219E9B22046FEF7FE
:1054B0007FF906000CD10C35ADB20421684601809D
:1054C0000194058169460398FEF72AF9060004D085
:1054D0002046FAF7B7FF00E013263046E2E7000067
:1054E000C48EFF1F024610B50848F42A00D9F422E2
:1054F000428092B2001DFAF7EBFE0548034902789C
:1055000004480088FAF7F6FE10BD0000C8AEFF1F81
:105510005E8DFF1F628DFF1F10B50C4602F064FD0B
:10552000002804D040882146FAF75CFF10BD122005
:1055300010BD0022002913D0002811D0012806D068
:105540004A799206920E4A71032805D007E04879FD
:10555000C0221043487102E0402002434A710122F8
:105560001046704770B512480025007805210842A2
:105570001BD02020FAF71EFF0E4C0028A06013D08D
:1055800020220021FAF74AFE2020FAF713FFE060FC
:10559000002804D020220021FAF740FE05E0A06890
:1055A000FAF7F0FE0020A0601325284670BD000029
:1055B000D58EFF1F488FFF1F70B50A4D0646002489
:1055C0000E206043401906223146FAF791FD00286B
:1055D00001D0204670BD641CE4B20A2CF0D30A202E
:1055E00070BD0000FCA9FF1F7FB50D460A280BD235
:1055F000002D09D0062148436A460E21203002F0D2
:10560000C3FD040003D007E0022004B070BD0622F1
:1056100069462846FAF75AFD2046F6E700218A0037
:10562000835A491CDB43835212189378C9B2DB4377
:1056300093700A29F3D3704710B50E4B597900299E
:1056400000D001219A78002A00D004220A439979D7
:10565000002900D008211143DA79002A00D0102255
:105660000A43197A002900D020211143FDF76CF973
:1056700010BD0000E48BFF1F002909D0012807D1CD
:10568000497989098901C02902D0402901D0022025
:10569000704703207047FFB500200E4608701AE0DF
:1056A0001C5C401CC5B2002C17D02819904214D89D
:1056B0005F5D6D1CEDB2384600F0C1FE002806D0DB
:1056C000641EE0B2307000998F4202D1581904B0C4
:1056D000F0BD4019C0B29042E2D30020F7E70000CD
:1056E00010B5044C2068002803D0FAF74BFE0020C8
:1056F000206010BD348FFF1F70B5104D8400E86826
:105700000059002819D0006A002801D0FAF73AFEA3
:10571000E8680059406A002801D0FAF733FEE868CB
:105720000059806A002801D0FAF72CFEE868005979
:10573000FAF728FEE9680020085170BD388FFF1F76
:1057400010B5044C6068002803D0FAF71BFE002057
:10575000606010BD388FFF1F011E044805D1044949
:105760008978002901D00248801D7047A0BAFF1F28
:10577000D48EFF1F0148807870470000D48EFF1F31
:10578000014840687047000090BAFF1F01488068D8
:105790007047000090BAFF1F0148C068006870475A
:1057A00090BAFF1F10B50748C0680168491C016026
:1057B00005480078FF2803D001218903FAF768FC27
:1057C00010BD000090BAFF1FD48EFF1F0248406832
:1057D000002800D001207047308FFF1FFFB581B037
:1057E0000F460D9E0A9D039802F0E6FB040042D08E
:1057F000019800283FD12079102108432071049995
:10580000490702D50221084301E0FD21084020712B
:105810000B99284608430C9908433043207902D05D
:105820000421084301E0FB2108402071002E06D02E
:105830003069102220623146A018FAF747FC002D8B
:1058400001D0002F05D00B98002814D0012F08D0CC
:1058500011E0606A002801D0FAF794FD1C21284667
:1058600006E0606A002801D0FAF78CFD1C210B9835
:10587000FAF78EFD60620398274C8700E068C059F4
:10588000002846D0002D11D0006A002807D11C2026
:10589000FAF790FDE1680028C959086206D0E0686F
:1058A0001C22C0592946006AFAF710FC0C980028FF
:1058B00013D0E068C059406A002807D11620FAF7D3
:1058C00079FDE1680028C959486206D0E0681622CF
:1058D000C0590C99406AFAF7F9FB002E13D0E06822
:1058E000C059806A002807D11420FAF763FDE168E7
:1058F0000028C959886206D0E0681422C059314690
:10590000806AFAF7E3FB0B9B049A0399019802F073
:1059100087FC05B0F0BD0000388FFF1FF3B581B0E4
:10592000019802F049FB050029D00E20FAF772FD1C
:10593000040024D02620FCF7B1FE060000D12E780A
:10594000D0202070002767700B20A0700622E91D70
:10595000E01CFAF7BBFB019860810298C1070120A7
:10596000002901D0207300E027730299890701D52F
:10597000607300E06773F0B22146FAF72DFDFEBDBB
:1059800010B581881F4B0124CA1A994237D011DC07
:105990001D4BCA1A994219D007DC1C4A8A1810D02C
:1059A000022A1ED0032A29D11BE0472A27D0482AE1
:1059B00024D124E01300FAF753FB062122222222ED
:1059C00022218068007800F0FBFC08E08068827883
:1059D00041781202891889B2007800F051FD04461E
:1059E0000DE0094A921E914201D1012200E00022FD
:1059F00080680178104600F02BFD00E0002420466E
:105A000010BD0000532000000A200000FADFFFFF55
:105A100070B51A4D1A4A0146002628781268194CAA
:105A200001290CD0002A09D017490978490705D562
:105A30000221FAF727FB6680FFF752FE70BD6188EE
:105A4000002903D0114B1B78002B05D0002AF5D07C
:105A50001078FCF7F9FD70BD3C2902D33C39618018
:105A600070BD0221FAF70EFB62887D20C000424320
:105A700002212878FAF712FB668070BD658FFF1F40
:105A8000348FFF1F488FFF1FD58EFF1FD78EFF1F3C
:105A900008B5418900910389C2888188C07800F0E7
:105AA000DBFB08BDF0B504468088A121890048438E
:105AB000304987B009684018FF30FF300230A179C3
:105AC0004167002C54D02C4D6868002823D00678FC
:105AD0002A480068002804D04168002901D000202D
