:020000041FFFDC
:10000000000000005556FF1F706BFF1F746BFF1F31
:100010007C6BFF1F000000000000000000000000DB
:1000200000000000000000000000000000000000D0
:1000300000000000000000000000000000000000C0
:1000400000000000000000000000000000000000B0
:1000500000000000000000000000000000000000A0
:100060000000000000000000000000000000000090
:100070000000000000000000000000000000000080
:100080000000000000000000000000000000000070
:100090000000000000000000000000000000000060
:1000A0000000000000000000000000000000000050
:1000B0000000000000000000000000000000000040
:1000C0000000000000000000000000000000000030
:1000D0000000000000000000000000000000000020
:1000E0000000000000000000000000000000000010
:1000F0000000000000000000000000000000000000
:1001000000000000000000000000000000000000EF
:1001100000000000000000000000000000000000DF
:1001200000000000000000000000000000000000CF
:1001300000000000000000000000000000000000BF
:1001400000000000000000000000000000000000AF
:10015000000000000000000000000000000000009F
:10016000000000000000000000000000000000008F
:10017000000000000000000000000000000000007F
:10018000000000000000000000000000000000006F
:100190006142FF1F0543FF1F0961FF1F00000000B0
:1001A000000000000000000000000000000000004F
:1001B000000000000000000000000000000000003F
:1001C000000000000000000000000000000000002F
:1001D000000000000000000000000000000000001F
:1001E000000000000000000000000000000000000F
:1001F00000000000000000000000000000000000FF
:1002000000000000000000000000000000000000EE
:1002100000000000000000000000000000000000DE
:1002200000000000000000000000000000000000CE
:1002300000000000000000000000000000000000BE
:1002400000000000000000000000000000000000AE
:10025000000000000000000000000000000000009E
:10026000000000000000000000000000000000008E
:10027000000000000000000000000000000000007E
:10028000000000000000000000000000000000006E
:10029000000000000000000000000000000000005E
:1002A000000000000000000000000000000000004E
:1002B000000000000000000000000000000000003E
:1002C000000000000000000000000000000000002E
:1002D000000000000000000000000000000000001E
:1002E000000000000000000000000000000000000E
:1002F00000000000000000000000000000000000FE
:1003000000000000000000000000000000000000ED
:1003100000000000000000000000000000000000DD
:1003200000000000000000000000000000000000CD
:1003300000000000000000000000000000000000BD
:1003400000000000000000000000000000000000AD
:10035000000000000000000000000000000000009D
:10036000000000000000000000000000000000008D
:100370005518FF1F000000000000000000000000F2
:10038000000000000000000000000000000000006D
:10039000000000000000000000000000000000005D
:1003A0000000000000000000000000007938FF1F7E
:1003B000000000000000000000000000000000003D
:1003C000000000000000000000000000000000002D
:1003D000000000000000000000000000000000001D
:1003E000000000000000000000000000000000000D
:1003F00000000000000000000000000000000000FD
:0C04000001FF01FF01FF01FF910000005F
:020000041FFFDC
:101838001880FF1F8D18FF1F0348854600F02CF8FD
:10184800004800472154FF1F1880FF1F0A484838E6
:10185800694601600430F0C044464D4656465F462E
:10186800F0C030BCF0BCF0C0F0BCF0C04438034954
:10187800034A9546084700000008FF1FAD2EFF1FCA
:101888003018FF1F0248804702480047FEE7000063
:101898005D2CFF1F4118FF1F064C0125064E05E071
:1018A800E36807CC2B430C3C98471034B442F7D379
:1018B800FFF7C6FF406BFF1F706BFF1F30B58C181A
:1018C8000278401C13071B0F01D10378401C120932
:1018D80006D10278401C03E005780D70401C491CB5
:1018E8005B1EF9D101E00B70491C521EFBD1A142CD
:1018F800E6D3002030BD000003B40148019001BDCB
:1019080075A9000003B40148019001BDC93E00005B
:1019180003B40148019001BD9DA9000003B401482A
:10192800019001BD116E000003B40148019001BD92
:101938008BB9000003B40148019001BDD1D4000067
:1019480003B40148019001BDF9A6000003B40148A1
:10195800019001BDA1AF000003B40148019001BD91
:10196800A93C000003B40148019001BDADAE0000E0
:1019780003B40148019001BD456B010003B401485F
:10198800019001BDDD3F000003B40148019001BD95
:101998008944000003B40148019001BD21440000BE
:1019A80003B40148019001BD750F000003B401485C
:1019B800019001BDC95C010003B40148019001BD5B
:1019C8001907010003B40148019001BDBD0B0100D6
:1019D80003B40148019001BDDD0C010003B40148C6
:1019E800019001BDDD0A010003B40148019001BD69
:1019F8000134010003B40148019001BD093401001C
:101A080003B40148019001BD0534010003B4014845
:101A1800019001BDF535010003B40148019001BDF5
:101A2800F935010003B40148019001BDE91701002F
:101A380003B40148019001BD6137010003B40148B6
:101A4800019001BD01D7000003B40148019001BD18
:101A58006DF6000003B40148019001BD7912010040
:101A680003B40148019001BD4DF9000003B40148D9
:101A7800019001BDC1F7000003B40148019001BD08
:101A8800413F000003B40148019001BD095A00001C
:101A980003B40148019001BD0966000003B4014880
:101AA800019001BD8D82000003B40148019001BD81
:101AB8006D0E010003B40148019001BDE90E01005B
:101AC80003B40148019001BD0D52010003B401485F
:101AD800019001BD8B52010003B40148019001BD82
:101AE80019B3000003B40148019001BDE1AC000046
:101AF80003B40148019001BD79B3000003B4014863
:101B0800019001BDE53A010003B40148019001BD0F
:101B1800156B010003B40148019001BDED4A0100B5
:101B280003B40148019001BDA54F010003B4014869
:101B3800019001BD8552010003B40148019001BD27
:101B48000189000003B40148019001BD016C010046
:101B580003B40148019001BDBD5C010003B4014814
:101B6800019001BD8512010003B40148019001BD37
:101B7800D1AE000003B40148019001BDC53F00008B
:101B880003B40148019001BDCD4C010003B40148E4
:101B9800019001BDB30E000003B40148019001BDDE
:101BA800810E000003B40148019001BD21A9000085
:101BB80003B40148019001BDB54C010003B40148CC
:101BC800019001BDC56D010003B40148019001BD3C
:101BD8000972010003B40148019001BDE9D4000075
:101BE80003B40148019001BD79D5000003B4014850
:101BF800019001BDADFF000003B40148019001BD93
:101C08005DB0000003B40148019001BDE1B00000DF
:101C180003B40148019001BD6142000003B40148CA
:101C2800019001BD810E000003B40148019001BD7F
:101C38008576010003B40148019001BDC11501007A
:101C480003B40148019001BDCD0C010003B4014863
:101C5800019001BD71B0000003B40148019001BDBD
:101C6800D9B0000003B40148019001BD59760100C4
:101C780003B40148019001BD53B9000003B4014801
:101C8800019001BD8D11010003B40148019001BD0F
:101C9800B9B0000003B40148019001BD1DB00000B7
:101CA80003B40148019001BDED6B010003B4014884
:101CB800019001BDAD0F010003B40148019001BDC1
:101CC8003D4B010003B40148019001BDCD36010030
:101CD80003B40148019001BDC9A9000003B401483B
:101CE800019001BD090E000003B40148019001BD37
:101CF800154D010003B40148019001BDD94F010001
:101D080003B40148019001BD2D11010003B401483D
:101D1800019001BDF90D010003B40148019001BD16
:101D2800A111010003B40148019001BDA5120100F1
:101D380003B40148019001BDDD13010003B401485B
:101D4800019001BDB912010003B40148019001BD21
:101D5800C913010003B40148019001BD0514010035
:101D680003B40148019001BD9112010003B4014878
:101D7800019001BDF113010003B40148019001BDB8
:101D8800E910010003B40148019001BDB110010040
:101D980003B40148019001BDE94C010003B40148B6
:101DA800019001BD8914010003B40148019001BDEF
:101DB8006189000003B40148019001BDD1A500006C
:101DC80003B40148019001BDD544010003B40148A2
:101DD800019001BD2D6C010003B40148019001BDC3
:101DE8007997000003B40148019001BD6911010011
:101DF80003B40148019001BDE512010070B50C461D
:101E08000546FFF779FD21462846FFF77BFD044686
:101E1800FFF77EFD204670BD10B5FB2908D8084B9A
:101E28009A4205D81B2903D3FF2349339A4201D28A
:101E3800302010BD034B19825A82FFF76FFD10BD89
:101E4800480800008410FF1FFFB50D46A121890036
:101E58004843234981B009681E464418002D09D01B
:101E6800FF20D930015B0398814203D3002E04D0B0
:101E7800012E02D0122005B0F0BDE07800280AD06B
:101E88000520C00127181748F9780078801C81427E
:101E980003D30720EFE70220EDE7FFF72DFDF878E1
:101EA800A91E401CF87003980870002E10D001205D
:101EB800487020467C30091FFFF736FDFFF728FDE4
:101EC80009480078082805D0072803D00020D2E761
:101ED8000220EDE700212046FFF72CFDF6E7000081
:101EE8003409FF1F1509FF1F1C09FF1F70B5344A6D
:101EF8008AB0012800D1334A430133486D461C1883
:101F0800207E00280AD084208058C3B2002002E036
:101F180016782E54401C9842FADB03E0107D01230A
:101F280010782870E269002A04D0297506952B7765
:101F380005A890470AB070BDFEB504464201224884
:101F48001F4D1318805C191D002829D0187E002801
:101F580026D0987E002823D00878022820D18888A7
:101F68004A888E68801A82B2102A01D9102201E0AC
:101F7800002A02D0012C16D01CE001200870002095
:101F880048808880D969002905D0104B6D460DCB53
:101F98000DC568468847002C03D0192002F07AF94D
:101FA800FEBD0820FAE7074D04E04888431C4B8033
:101FB800305C28701046521E92B20028F5D1FEBD42
:101FC80000400040009000408876FF1F486AFF1FCD
:101FD8000446FFF791FC0A49C86940229043C8614A
:101FE8002046FFF7ADFC02F0ADF805480021C030EF
:101FF8004160042101600120FFF7A8FCFEE7000012
:1020080000F0004010B5FFF777FC0D4804680C4A53
:102018004117803211600B490160002003F008F875
:10202800FFF776FC204610BD10B50446FFF764FCA8
:1020380003480460012002F0FBFFFFF769FC10BDB4
:1020480000E100E01000100070B5FFF755FC904C5F
:10205800002025682060FFF77FFC06462560FFF713
:1020680057FC304670BD8B49C968FF31813188659E
:102078007047F8B501F034F8864D874A68721178D0
:10208800022903D9002801D10120107083490020BA
:102098000446E9608300401CCC50FF28FADDE8685C
:1020A8007F49882319507F49C1627F4909780029EF
:1020B80002D07C491131C1620A210165117881631E
:1020C8007A49C16101F05AFBE968794848611920E9
:1020D80080018861084637228030C2600823362292
:1020E8000B64CA631E224A643622426032220260AE
:1020F8003B220364C263282242644122C26439221B
:1021080082643222436502652822826502220266C1
:102118004222C2651E22836642662822C2662022A7
:102128004267422202675A22436102613C2282616D
:10213800192292010A605F4A0A63FF222D328A60DF
:10214800CA60FF22F5320A615B4A8A647D22D200A6
:102158005A4EC267CE644A62594A8A623222CA65B6
:1021680006224A658A65CA1DF932022513604D6642
:102178004B25ED008D660925CD66524D0D678C67A0
:102188004B67AB10CB67504FFF313E604A4E8662BB
:102198007D26F6008667642646620526C662022604
:1021A8000663C82646638463382050604748106435
:1021B8004B2080019061B000D061581010627D20E2
:1021C80000015062D466956513665364D56514673B
:1021D80053671E2090663E4890673E485B008131F9
:1021E800D0670B608B604860FF20F530C8600861DD
:1021F8004B20C00010630E6538483749274A816074
:102208003749803A11613549364A80318A62364AFF
:10221800CA62364A8261364AC262364A02632F4A25
:102228003548403A50633548D0633548C861354829
:1022380090632A4934484031886135493348886079
:1022480026483449803841603349244A4163334938
:10225800C03AD1603349324B204CCB63324B403CBF
:102268002363324B9362324AC263324AC260324AB3
:102278004A63324AE260324A8A63324A0A6332491E
:102288008163FFF76FFB0120FFF772FBF8BD0000C9
:102298009809FF1FD06BFF1F4A0AFF1F0004FF1F8A
:1022A8001880FF1F6E040000786BFF1F3A070000BC
:1022B80080C3C9019A02000050C30000280A000028
:1022C8006A180000204E0000F009FF1F00400011AE
:1022D800DC05000040420F009D4BFF1F0001FF1F5F
:1022E8004926FF1F355DFF1F0960FF1F5523FF1F8C
:1022F800E924FF1F7123FF1FB536FF1F7534FF1F29
:10230800B968FF1FA566FF1F1546FF1F211EFF1F87
:102318000002FF1FD146FF1F2149FF1F7128FF1F21
:10232800051EFF1F0000FF1F7956FF1FE547FF1F0F
:10233800794EFF1F1D48FF1F5928FF1F2547FF1F04
:10234800511EFF1F0528FF1F3551FF1F70B50124BF
:10235800A407A36810252B43A360FFF70FFBA06811
:10236800A843A06070BD0000FFB5064601208007A5
:10237800816881B01D46102211438160554F0020AD
:1023880038603046D730FFF7FFFA9D20800034468A
:102398008059FF36CA3401360028306822462CD0CE
:1023A8000121FFF7F7FA4B4F2078F863641C2046A9
:1023B800FFF7F6FA00BA000AE17800020843B863AA
:1023C800241D2046FFF7ECFA00BA000AE178000263
:1023D80008437863241D2046FFF7E2FA00BA000A92
:1023E800E178000208433863039802990002084321
:1023F800F860039F00243F1D0EE00021D1E7281953
:10240800401CFFF7CDFA0102285D0143324820182D
:102418000160241DA4B23F1F042FF0DA032F04D05B
:10242800022F08D0012F0CD011E02819FFF7B8FAB5
:102438000102090A06E0291948780A7801021143BD
:1024480000E0295D244820180160241DA4B2002161
:10245800214F02E0E0190160241DFF2CFADD1D4820
:102468001E4A42600F220261012202604269002A6C
:10247800FCD04269930701D4520708D40120800791
:10248800826810218A438260002005B0F0BD016097
:102498000020039A11E0C11909682954401C80B230
:1024A8000B0A2B54401C0B0C80B22B54401C80B2DE
:1024B800090E2954401C80B2121F002AEBDC306838
:1024C800401C306001208007826810218A438260A6
:1024D8000120DAE70000044000010440080F000072
:1024E800FFB5054601208007816881B01E4610228D
:1024F80011438160504F002038602846D730FFF7DD
:1025080043FA9D2080002C464059CA348035002863
:10251800E86F22462BD00021FFF73CFA464F20787F
:10252800F863641C2046FFF73BFA00BA000AE1781A
:1025380000020843B863241D2046FFF731FA00BAA9
:10254800000AE178000208437863241D2046FFF75B
:1025580027FA00BA000AE1780002084338630398B2
:10256800029900020843F8600024039F0EE001214D
:10257800D2E73019401CFFF713FA0102305D01431E
:102588002E4820180160241DA4B23F1F042FF0DA42
:10259800032F04D0022F08D0012F0FD014E03019D8
:1025A800FFF7FEF90102090A09E0311948780978AC
:1025B8000002084321496118086003E0315D1F48A3
:1025C80020180160241DA4B200211C4B02E0E01871
:1025D8000160241DFF2CFADD0F2217481202426009
:1025E8000F220261012202604269002AFCD00160C8
:1025F800039A0020121D11E0C11809683154401CCB
:1026080080B20C0A3454401C0C0C80B23454401C68
:1026180080B2090E3154401C80B2121F002AEBDC34
:10262800E86F401CE86701208007826810218A4310
:10263800826005B0F0BD00000000044000010440C5
:10264800F8B5FFF7B3F9644908600420FFF7B4F957
:10265800FFF7B8F90546C00715D0604900200860A3
:102668005F480078012811D0032813D0042815D01A
:10267800022817D0052819D0FFF7AAF9594F0446A0
:1026880001281AD01EE0FFF7A9F9F8BD2846FFF780
:10269800ABF90EE02846FFF7ADF90AE02846FFF748
:1026A800AFF906E02846FFF7B1F902E02846FFF740
:1026B800B3F940B20128E8D05FE03878052809D09E
:1026C800062807D04848494E0078022806D0052831
:1026D80004D009E0284602F0D5FC4EE0002C06D0D4
:1026E800022808D0052806D0022C0ED005E028467E
:1026F80002F0ECFC41E0022C02D0012C13D016E0D1
:10270800B17B002907D0022905D03978052906D0E0
:1027180001281AD00BE0284602F0E4FC18E028460D
:1027280002F0BCFC14E0012807D0062809D028468E
:10273800FFF778F9022C0BD01FE0284602F0EAFCDC
:102748001BE0284602F0DAFC17E0284602F0B2FC4B
:102758003878012811D168050FD4707BC10701D0E2
:10276800252004E0800701D5262000E02720317DC0
:10277800814202D93220FFF75BF91B4C20780428EC
:1027880004D003281AD007281DD020E0FFF756F9F7
:1027980000281CD0FFF758F95820FFF75BF920787C
:1027A800002801D0022020701148407800280ED05F
:1027B800207800280BD10320207008E00D48807C89
:1027C800FFF74EF903E00C48807BFFF74FF9032031
:1027D800FFF7F2F8F8BD00009C09FF1F9809FF1FDA
:1027E8009009FF1F1C09FF1F2309FF1FA60BFF1FCE
:1027F800D06BFF1FBC0BFF1FD40BFF1FF8B50C4697
:1028080010490C421AD1610518D500250E48AF00B1
:102818003E187178012909D1C15D7088FFF72CF93C
:102828000A48708008490020C85570706D1CEDB2C8
:10283800102DEBD3012080026040F8BD2146FFF740
:1028480021F9F8BDDE090000A87BFF1FFFFF00008B
:1028580010B5012002F034FFFFF71AF904460020F2
:1028680002F02EFF204610BD70B50446FFF716F99A
:10287800E21DFF32FA32D06F0021000C0004D0674D
:10288800104680388B001B19FF330133C56A491C79
:10289800DD660829F6DB00218B001B19FF33813325
:1028A800C56A491CDD600829F6DB0120D06470BDCB
:1028B800C106C90E01208840014908607047000020
:1028C80000E100E0F0B585B0FFF770F83C4DA86076
:1028D800FFF778F80446C00711D03A49002008608D
:1028E800FFF70AF8FFF774F8374900280BD00F46AE
:1028F8000C3F2E4601280BD0022831D051E0FFF7BB
:102908006DF805B0F0BD087800284AD1042145E0EB
:102918000878012845D12A4A111DC81E03F0C4FBB6
:10292800F878002813D060050FD502AB01AA03A9D7
:102938002648FFF7B9F8224B00961B1DDA1E0299AC
:10294800019803F0C9FB03F067F8082126E0600747
:10295800FBD402AB01AA03A91C48FFF7ABF8EAE7CE
:10296800087802281DD1164A111DC81E03F09CFBC9
:10297800F87800281AD060050FD502AB01AA03A980
:102988001248FFF791F80E4B00961B1DDA1E0299AC
:10299800019803F0A1FB03F03FF81021E878FFF756
:1029A8008FF8FFF71BF8FEF7B3FFAAE76007F4D428
:1029B80002AB01AA03A90548FFF77CF8E3E700008A
:1029C800806BFF1F9809FF1F7076FF1F4474FF1F5D
:1029D800F0B54D4F85B0F8704D494C480861062256
:1029E80003A94C4801F01EF869463846097B0C30AB
:1029F800C1706946497B81706946897B4170694627
:102A0800C97B01706946097C41716946497C01713D
:102A18000020414A01461154401CC0B2FF28FAD395
:102A28003E480224047001254570062282701B224C
:102A3800C270FF2606710422427105228271C57197
:102A4800047203224272CC238372C1720273AA23D6
:102A5800437381739321C173037467214174F72110
:102A68008174DB21C17434210175C42141758275DB
:102A78008E21C1755C2101760B21417683769721E1
:102A8800C1763021017756214177E621817724A04C
:102A9800006800901C481F23204A69460C3003F048
:102AA80053F830461D4E224A2C3630706420706030
:102AB8004120B060FF20F53030821A48F081284666
:102AC800354634730C3D287025206870EC70164824
:102AD80068605320A8701548A8600221F878FEF7AE
:102AE800F5FFE878AA786B46696807C3327B3178C6
:102AF80010A0AB6800F05AFD0A221021F878FEF702
:102B0800E5FF05B0F0BD0000806BFF1FCD28FF1F5B
:102B18008003FF1F004000114475FF1F4476FF1F0C
:102B280000250000204E000055555500D6BE898E60
:102B3800C40900005B5048595D20696E69742064BF
:102B48006F6E6520256420726663686E2564205365
:102B5800575B2538785D204352435B256420253830
:102B6800785D2057545B2532785D0A00F8B5374EFA
:102B7800374D0C46CA07344F2978F07813D0FF290F
:102B880005D014220121FEF7A1FF012058E0002002
:102B98002870022028735320B87002F009FF012121
:102BA800F0786A68EFE7A20716D5FF2905D0052255
:102BB8000221FEF78BFF022042E00120287002204C
:102BC8002873FEF7F3FE68615320B87002F0CAFE5E
:102BD8000221F078AA68ECE7A00603D502F02EFFE0
:102BE80020202DE0600716D5287B022804D01A285B
:102BF80006D050280BD00CE01A202873332002E0AE
:102C0800502028737320B87002F0D2FE01E0FF2034
:102C18002870042014E0200703D502F0E9FF0820FB
:102C28000EE0E0060ED5B078C043C1B2B1701320F3
:102C3800FEF752FF0A221021F078FEF747FF102016
:102C48006040F8BD0020F8BD6476FF1F806BFF1F51
:102C58007076FF1F024901480860704740787D017F
:102C6800CC6BFF1F002805DBC106C90E0120884078
:102C7800014908607047000000E100E08307FF2277
:102C8800DB0E9A408907090E9940002808DB830863
:102C980009489B001B181868904308431860704740
:102CA8000007000F0838830804489B001B18D869E0
:102CB80090430843D861704700E400E000ED00E06D
:102CC8008307FF22DB0E9A408907090E99400028E6
:102CD80008DB830809489B001B18186890430843C1
:102CE800186070470007000F0838830804489B00E5
:102CF8001B18D86990430843D861704700E400E086
:102D080000ED00E08307FF22DB0E9A408907090ED9
:102D18009940002808DB830809489B001B1818689D
:102D280090430843186070470007000F083883086D
:102D380004489B001B18D86990430843D861704722
:102D480000E400E000ED00E002E008C8121F08C13E
:102D5800002AFAD170477047002001E001C1121F14
:102D6800002AFBD1704700000248C069002800D043
:102D7800004770474003FF1FFFB507460120800743
:102D8800816883B01C46154602914669394909682D
:102D9800384A4900490801910021C943803211602D
:102DA800354A1268520052080092334A8032116044
:102DB80032498160212141611F20FFF779FDE20737
:102DC80080212F48002A02D042680A434260A207A5
:102DD80004D54268FF2301331A434260002D0CD00A
:102DE8002A07520F04D00122144342680A43426062
:102DF80041682A07D20B1143416021494039CA6B07
:102E08005201520FBA4206D0CA6B07231B069A43D7
:102E18003B061A43CA63CA6B5307049A5B0F934273
:102E280005D0CA6B049BD208D2001A43CA63416812
:102E3800FF2281329143E2011143416041680F2230
:102E4800520391436A03114341600C4802990143BC
:102E58008007816001210E434661410005488030AA
:102E6800016005490098086002490198086007B0A8
:102E7800F0BD000000E100E000E200E00100080011
:102E880040F000401CB569460120FEF72BFE0120EA
:102E980000900348019000F02BFC01201CBD0000AD
:102EA800BB0B000008B5334F0446F86800250678C8
:102EB800E1202B46122205214002FEF719FE2EA022
:102EC800FEF71CFE206B0090214624310EC930A06D
:102ED800FEF714FE20690090211D0EC937A0FEF7E9
:102EE8000DFE206A0090214614310EC93EA0FEF75F
:102EF80005FEE06B009047A0A36B2268616BFEF7AC
:102F0800FDFD4FA0216CFEF7F9FD5148416851A025
:102F1800FEF7F4FD53480178B14202D2B8688A003E
:102F2800855851480E460768FEF7EEFD00903B466F
:102F38002A4631464DA0FEF7E1FD59A0FEF7DEFD19
:102F4800614E2568354000242919B1420BD8200765
:102F580002D15EA0FEF7D2FD29595EA0FEF7CEFD94
:102F6800241DFF2CF0DD5D480068002800D0804754
:102F7800FEE700000000FF1F0A5B486172642066DC
:102F880061756C742068616E646C65725D0A00001E
:102F980052302D523320202020202020203D203068
:102FA80078253038782030782530387820307825E2
:102FB800303878203078253038780A0052342D524D
:102FC8003720202020202020203D20307825303830
:102FD80078203078253038782030782530387820B7
:102FE8003078253038780A0052382D523131202077
:102FF80020202020203D2030782530387820307857
:1030080025303878203078253038782030782530C9
:1030180038780A005231322C53502C4C522C5043E1
:10302800203D2030782530387820307825303878A1
:1030380020307825303878203078253038780A00E4
:1030480050535220203D20307825303878202000F9
:1030580000ED00E049435352203D203078253038B8
:10306800780A0000B408FF1F6008FF1F5B4F534138
:103078004C5D6964782025642046756E632030783D
:1030880025303878207379737469636B202530385C
:10309800782072746320253038780A2000000000F8
:1030A8002D2D2D2D2D2D2D2D2D2D2D64756D702053
:1030B800737461636B2D2D2D2D2D2D2D2D2D2D2D03
:1030C8002D2D2D0A00000000FCFFFF1F0A5B253094
:1030D80038585D002530387820000000C86BFF1F85
:1030E8001CB569460320FEF7FDFC684601F090FA1E
:1030F8000098002802D10198002800D001201CBDAA
:1031080010B500F06BFAFFF7BDFE002802D00248A8
:10311800804710BDFEE70000E1A200000A4610B596
:103128000146002001F006FA10BD00000E480D49C6
:1031380081600021C1601B22520302614D22D2032B
:1031480042610A4A82610A4AC26101624162C162FD
:103158000163416304488030016241628162012158
:1031680081637047000C000600F0004040400601F3
:10317800ABFF010010B5FEF7CDFC0120FEF7D0FC37
:10318800FEF7D4FC002010BDF8B54E484068C04397
:10319800000603D53C20FEF7CFFCF8BDFEF7B4FCD3
:1031A800484D0090803D2868012189040843286023
:1031B800E869454908402830E8610320FEF7BCFC6F
:1031C800686AC703FF0B0320FEF7B6FC686AC403EE
:1031D800E40B0320FEF7B0FC686AC603F60BA742AF
:1031E80001D3204600E03846B04200D33046A7421B
:1031F80001D3394600E02146B14200D23146334A74
:10320800BA18C32A26D2314BDB439C4222D9304A12
:1032180094421FD29E421DD996421BD2081A1328E7
:1032280018D2284842680C218A4342604168FF222C
:103238001202914341601420FEF77EFC2148803839
:10324800416AC269C903C90B08239A43C26121486C
:103258008162F8BD274634460320FEF76DFC194805
:103268008038406AC603F60BFEF74EFC0099884288
:1032780001D3401A01E0401A401E17498842AED3D4
:103288001048416809040D0E4168FF22120291435B
:103298006A1C1206120C1143416041680C229143CA
:1032A800091D41600020FEF74DFC642D02D305483E
:1032B80000214160062D00D306250748A840FEF7E7
:1032C80087FE8CE7C0F0004000FEFEFF91FCFFFF88
:1032D80032040000D06BFF1FE40C0000F8B53D4835
:1032E80040683C4C0006803C8021002806DB606872
:1032F800084360600320FEF71FFCF8BD364D002030
:10330800286320680122920410432060334F6068CC
:103318008021084360600320FEF70EFC286B401CE8
:103328002863606801210904084360600026E06999
:103338002B4938404018E0610320FEF7FDFB606A26
:10334800E169C003C00B08229143E161A96A062222
:103358005143814201D3091A00E0411A3C2909D29C
:10336800E269012109048A43E26162688A43626072
:10337800E862F8BD761CF6B2052ED8D3E1690120C3
:1033880000048143E161616881436160286B2E46D6
:10339800052807D3BFF34F8F13491248C860BFF3FE
:1033A8004F8FFEE760688021884360600320FEF746
:1033B800C3FBE06938402830E0610320FEF7BCFB1E
:1033C800606AC003C00BB062E16908208143E16113
:1033D8009DE70000C0F00040D06BFF1F00FEFEFF1D
:1033E800280001000400FA0500ED00E0FEB50446DF
:1033F8001948C16B194D4907C90E6958164AC90BB6
:10340800403200911168490304D4116801239B04D8
:1034180019431160C16B18221143C163C06B104F6F
:103428004001400F0190B84706462046B84706437A
:103438000C49F007C00F88470346A0000A492858DE
:1034480008600098411E0091FBD23246214601983F
:10345800FFF792FC0020FEBD00F00040E07B010079
:10346800018C0000A98A00007408FF1FF8B5064601
:103478000120FEF761FB214D214F2878214C0028BF
:1034880016D0FEF765FB206001F0B8F8002802D0DE
:1034980002F046FC78611C498B6A1C4803601C4892
:1034A800C76A1C4A1268974205D2C06A101A03E01C
:1034B800F8684069E7E70020174A10609819C86261
:1034C800486A2922D203104348622878002812D07B
:1034D80012480178022908D00178012908D000781B
:1034E8000328206808D0C01E04E020680F3801E0D7
:1034F800206808382060F8BD401FFBE71C09FF1F43
:10350800D06BFF1FE408FF1F00F00040340AFF1FC4
:1035180000100040180AFF1F1C0AFF1F4A0AFF1F5D
:1035280010B51E48A1218078890048431C49A12371
:1035380009689B004418912189000A5917490020FD
:1035480089785943164B1B68C918C98E002A1ED0A2
:103558001448C068FF300130012A0CD0114BDB68D9
:10356800FF338133062A08D86479012C05D00D4C25
:103578005234125D04E0006B09E00A4A54321279B1
:103588001B6D006B5A430B0A5B1C5A431018064A02
:10359800C9085143814200D8084610BD300DFF1FAD
:1035A8003409FF1FD06BFF1F530700000FB410B57D
:1035B80003AA0448029901F0FBFD10BC08BC04B042
:1035C800184700002531FF1F38B5034B00240FCBE7
:1035D800009400F07DFF38BDE06AFF1F034900201A
:1035E80048610349086048607047000040F00040A7
:1035F80040F100401CB52748A12180788900484344
:103608002549096844182548406A80B200909120ED
:103618008000015900290FD02148C068FF300130CF
:1036280001290ED01E4AD268FF32813206290AD8F3
:103638001B4B5233C95C09E0608CE18E4843401053
:103648000DE0006B0AE0164954310979126D006BE0
:103658005143E28E120A521C514308184000009947
:1036680040180090FFF75CFF0190019900980D4BFE
:10367800421AE069C10859438A4201D8009805E016
:10368800094940084843019940180090FEF766FA36
:103698001CBD0000300DFF1F3409FF1F0010034040
:1036A800D06BFF1F530700007102000070B50D4C6E
:1036B8000546E068808D400505D50B48406AC00383
:1036C800C00B02F001FB002001F0DEFF002808D04B
:1036D80006480168E068FF30813041652846FEF7FA
:1036E80043FA70BDD06BFF1F40F000400080FF1F01
:1036F80070B58AB000241E4D0494059428780128DA
:1037080006D004A90120FEF7EDF9002802D0002018
:103718000AB070BD0498009005980190154881681A
:103728000291C0681349039006AA10316846FEF753
:1037380021FA104E10222036314606A8FEF720FA4C
:10374800002811D0012028700B4A31466846FEF740
:1037580011FA04940020694605948200401C8C509C
:103768000428FADB0120D3E7FF202870CFE7000008
:10377800396CFF1F00290011087CFF1F10B5224873
:10378800037822491022C968022B08D00378012B3C
:1037980005D00378032B02D00378042B00D10A62EA
:1037A80004780E23022C09D00478012C08D0047860
:1037B800032C07D00478042C06D007E01B2404E06F
:1037C800122402E04B6001E00C244C6004780F499D
:1037D800C9688031022C0BD00478012C0CD00478F5
:1037E800032C0ED00078042801D1CB610A6210BDE9
:1037F8001F20C861212002E01420C8611820086237
:1038080010BD1320CA61FAE74A0AFF1FD06BFF1FD9
:1038180010B50448C16B034A40321068D06000F00C
:10382800F7FB10BD008000400648006AC00708D0BA
:1038380004481030C06804480168002901D00520F8
:103848000847704740100040946BFF1F0648406BC4
:10385800C00708D004482430C0680448016800291B
:1038680001D006200847704740100040946BFF1FA6
:1038780010B50F4880680007000F062808D008DC3C
:1038880002280CD0042803D101210020FEF72EFBCA
:1038980010BD072807D00C28FAD10221F5E700202F
:1038A800FEF74AFB10BD02484030C06B10BD000057
:1038B8000040004010B50F4880680007000F062838
:1038C80008D008DC02280CD0042803D101210120EB
:1038D800FEF70CFB10BD072807D00C28FAD10221EF
:1038E800F5E70120FEF728FB10BD02484030C06B09
:1038F80010BD00000090004038B5FDF7FDFF012223
:103908009207936A08240094002B01D10120906249
:103918000A480221016000994D1E0095FBD203213F
:1039280001600094641E0094FCD200210160002B09
:1039380000D19162FDF7ECFF38BD000000C00040E7
:10394800012189070122202804D28B6882409343F1
:103958008B607047402805D24B69203882409343DA
:103968004B6170476028FCD20B6A40388240934311
:103978000B627047012292070121202804D2936824
:1039880081400B4393607047402805D25369203823
:1039980081400B43536170476028FCD2136A40385A
:1039A80081400B4313627047012110B5890701223A
:1039B800202813D20346153B012B07D80A6820207C
:1039C80082430A600A6802430A6010BD0B6882409D
:1039D80093430B6008681043086010BD402814D258
:1039E8000346353B032B07D8CA6810208243CA60B8
:1039F800CA680243CA6010BDCB682038824093432E
:103A0800CB60C8681043C86010BD6028FCD24B6A00
:103A18004224201A824093434B62486A104348620A
:103A280010BD0000F7B584B017460446FEF7EAFA61
:103A3800029060031121400B090640188D01019086
:103A4800AE6A2002000A21490090884209D91F2045
:103A5800C004044005D01E4844620168AA131143FB
:103A68000160002E09D1FDF747FF1A4902200860BE
:103A780068620120A862FDF74BFF002004E001996D
:103A88000A5C05990A54401CB842F8D30027002E56
:103A980008D1FDF731FF0F48076003206862AF6265
:103AA800FDF736FF09490098884208D9002C06D04E
:103AB800074847620268012109048A4302600298A4
:103AC800FEF7B2FA002007B0F0BD0000FFFF0700C4
:103AD80000C8004000C0004030B5C21F0A2A01D308
:103AE800062030BD162801D9052030BD0124074D18
:103AF8009440002905D0002100F0D0F82868204320
:103B080001E02868A0432860002030BD003800404C
:103B1800162809D8054A01238340D068002901D016
:103B2800184300E09843D060704700000038004018
:103B3800F3B50646FF2819D0B007C40EB708651DAF
:103B4800304600F00BFA0A48B900091888692B1B9F
:103B580001225B1C9A40521EA2409043019AA24047
:103B68001043886101213046FFF7D2FFFCBD0000F9
:103B78000038004010B5114C2078002801D00720EB
:103B880010BDFF2131310D48FEF700F801202070EB
:103B98000B490020086348630A4908624862022109
:103BA8001020FFF78DF81020FFF75CF8064A074948
:103BB8000D2000F027FB002010BD0000C876FF1F75
:103BC8000080004080F00040293EFF1F913DFF1F0C
:103BD80010B5162801D9052010BD0C4B9C6B01228D
:103BE8008240104620439863586B90435863DC6BBF
:103BF800012907D020469043D863186B02431A6303
:103C0800002010BD10462043F6E700000080004069
:103C1800054B0122801E82405869002901D01043BB
:103C280000E090435861704700380040F0B50E46F8
:103C38000446162801D90520F0BD164801250719A4
:103C48007978A540012904D18069284201D0002E45
:103C580008D000212046FFF75BFF022C04D0032C7C
:103C680002D005E00620F0BD01212046FFF7D0FF75
:103C780000212046FFF730FF0748012E04D0416895
:103C8800A94341600020F0BD426801212A434260F7
:103C98007970F7E7C876FF1F0080004070B51628D6
:103CA80016D84200104B82189E5CD218547893782C
:103CB8000E4D012213280CD2B0004519A868E41A49
:103CC800641CA240521E9A40904399400843A86041
:103CD80070BD6869E41A641CA240521E9A40904361
:103CE80099400843686170BD6B6AFF1F00F000408F
:103CF800162801D90120704707494A6801238340E3
:103D08001A4201D0096802E0034940310969C140FB
:103D1800C807C00F704700000080004070B5162823
:103D280027D8184C4600164A35190123002912D005
:103D380014280BD0152809D0162807D0A0578000C2
:103D4800801881686A789340194311E0506969784E
:103D58008B40184312E014280CD015280AD01628D6
:103D680008D0A0578000801881686A7893409943EA
:103D7800816070BD506969788B409843506170BD0F
:103D880000F00040B06AFF1FF8B50024124D01266C
:103D98002F197878012808D13146A869A14008422E
:103DA80016D0E0B20121FFF7B9FF787802280FD1C9
:103DB800E0B2FFF79DFF7040E2B20146104600F006
:103DC8007BF8E0B2FFF794FF0C216143491948776B
:103DD800641C172CDCDBF8BDC876FF1F10B50F4C30
:103DE8000D4A0123245C142809D2106A002902D044
:103DF800A340184301E0A3409843106210BD506AE5
:103E0800002903D0203CA340184302E0203CA340F3
:103E18009843506210BD000080F00040546AFF1FB4
:103E280070B502211020FEF74BFF1020FEF71AFF95
:103E3800204D00242E19707800281AD0022C01D0A9
:103E4800032C03D1E0B20121FFF7E2FE70780128CC
:103E58000FD10121A869A14008420AD0E0B2FFF7BA
:103E680047FF0146E0B200F065F8E0B20021FFF735
:103E780055FF0C2060434019007F002816D0E0B29F
:103E880000F090F8E6B2162E10D83046FFF730FF53
:103E9800002801D0012100E000210C2272435219B0
:103EA800527F824202D0304600F0E6F8641C172C9C
:103EB800C0DB70BDC876FF1FF8B516282ED84200A3
:103EC8008318184AD55C9A189278521ED4B2164AAA
:103ED80012185278022A21D1144EB76B01221346C8
:103EE80083401F43B763124B13280ED2002906D014
:103EF800A900C9188B68A24093438B600BE0A90006
:103F0800C9188B68A2401343F7E70029596906D0FE
:103F1800A240914359610121FFF760FFF8BDA2401B
:103F28001143F7E76B6AFF1FC876FF1F0080004048
:103F380000F0004000B516280CD80123064A83403B
:103F48000029116801D0194300E09943116001214B
:103F5800FFF76CFE00BD00000080004030B504464D
:103F68000E48162C01D9052030BD0C2100256143CF
:103F780045540A4829461C38001945702046FFF761
:103F880055FE07494A6B0120A040824302434A6319
:103F98000A6B82430A63284630BD0000E476FF1F9F
:103FA8000080004070B5044618480026162C01D938
:103FB800052070BD21460C2251430D186A68002A5D
:103FC80002D1AA68002A1CD0104B02221C3B1B19E4
:103FD8005A700122425400212046FFF727FE6868E4
:103FE800002808D0A86800280DD02046FFF780FEDA
:103FF800002808D0002631462046FFF7E9FD0020BA
:1040080070BD122070BD0126F5E70000E476FF1FA1
:10401800F3B5184E002481B0074601252846A04074
:10402800384223D00299084000D001200090E0B225
:10403800009900F021F80C206043801941688068DD
:1040480000290ED0002807D00098002802D00021AF
:10405800E0B203E00121FBE7E0B20121FFF7B8FD80
:1040680004E0002802D0E0B20021F7E7641C172C16
:10407800D4DBFEBDE476FF1F084A16280DD80C23B2
:1040880043439B185A68002A01D0012904D09A6832
:10409800002A02D0002900D110477047E476FF1F9C
:1040A80030B58DB0302217496846FDF775FD0024FC
:1040B8006D46600041194978285CFFF7EFFD641CE4
:1040C800E4B2172CF5D310484169C2009143052288
:1040D8001204891841614169012252061143416164
:1040E8004169032252059143012252058918416111
:1040F800032000F015F800F02FF800F007F80DB0D5
:1041080030BD0000186AFF1F00F0004003484169F5
:1041180001229206914341610F20704700F0004050
:10412800074943090A78D208D200002B02D00A7046
:10413800062070474007400F02430A70002070476E
:10414800996BFF1F0348C1691F2252049143C16143
:104158000020704700F000400648C1691F22520441
:104168009143054A12785207120B1143C16100208E
:104178007047000000F00040996BFF1F10B57821D0
:104188000848FDF703FD08480078012803D00228F5
:1041980004D0042804D1FDF705FD01E0FDF7E2FB9A
:1041A800002010BDF877FF1F986BFF1F70B50546FC
:1041B800124812240078012815D0042813D0FDF7DE
:1041C8009BFB0F4800210C224A43825C002A11D035
:1041D800AA420CD10C235943012208184270FDF75A
:1041E800E1FC002406E0FDF7DDFC002070BD491C61
:1041F8000A29E8DBFDF78CFB204670BD986BFF1F92
:10420800F877FF1F70B5124C00230C255D43655DE0
:10421800854201D1072070BD002D04D05B1C0A2BFC
:10422800F3DB032070BD0C256B431B19094C257863
:104238006E07ED086D1C760FED002E432670002BDF
:10424800EFD000245C7018709A602046596070BDE9
:10425800F877FF1F996BFF1F70B5FFF77DFF0B48BD
:104268000078C408641E0DD4094D20460C2148432B
:10427800295C002908D040194068002800D08047F0
:10428800641EF2D5002070BD122070BD996BFF1F0F
:10429800F877FF1F70B505461648002400780128F6
:1042A80011D004280FD0FDF727FB0021124A0B4636
:1042B80008460C267043165C002E0FD0AE4205D17E
:1042C8008018437007E0FDF76DFC0DE0801840781A
:1042D800002800D0641C491C0A29E9DB002C05D001
:1042E800FDF760FCFDF714FB002070BDFDF73AFBFD
:1042F800F8E70000986BFF1FF877FF1F70B51C48A0
:104308000121890742688A60826801231A434A6149
:1043180018490A6BC260496B016100210420FEF74D
:10432800F1FC01211420FEF7EDFC01211520FEF718
:10433800E9FC01211720FEF7E5FC01F00DFA0C4E0F
:1043480000240D4D761C0BE020460C214843295CC7
:1043580000290BD040198068002800D08047641CD1
:104368003078C008A042EFDC002070BD122070BD7C
:10437800986BFF1F80F00040F877FF1F10B50649C3
:104388000448086005490860FEF7D0FE044900208B
:10439800486010BD841E0000140AFF1F380AFF1F62
:1043A800C0F0004010B516490F20087015490120CB
:1043B80008701549002008701448C16B4909490163
:1043C8000931C163C16B60221143C163FFF7D6FF96
:1043D80000F020F800210420FEF750FC01211420F1
:1043E800FEF74CFC01211520FEF748FC012117209F
:1043F800FEF744FC0121C9020548FDF7D9FB10BDB1
:10440800480AFF1F490AFF1F680AFF1F80F0004083
:10441800446CFF1F10B5FEF773FE10BD70B5402544
:104428001C4C012802D0002811D027E06069052122
:1044380040014009C90640186061E0691649084012
:1044480016494018E061E0692843E06116E0002160
:104458000A20FFF723FC00210B20FFF71FFCE0696F
:10446800032109020843E061E069A843E06160694B
:104478000B2140014009090740186061606901216A
:10448800090708436061A069032149048843A061C2
:1044980070BD000000F000407F00FEFF80FD0100BD
:1044A80010B50549486000F055F8044A002113206A
:1044B800FFF7A8FE002010BDB86BFF1F5D45FF1F6A
:1044C8000248006A002800D0004770474003FF1FD9
:1044D800FFB581B00A9F144D7E01A85D002802D067
:1044E800112005B0F0BD6846407B002801D00520AA
:1044F800F7E7741920212046FDF748FB01A80FC8EB
:1045080010340FC4384601F0EBFF0120A855002FE6
:1045180006D0064A00211920FFF774FE0020E0E7C4
:104528000021034A0820F7E78876FF1F9B66FF1FD4
:104538009166FF1F10B5064C43011B199B7E002B8B
:1045480002D001F02FFF10BD01F0F6FE10BD0000F3
:104558008876FF1FF8B522480178022901D904207E
:1045680000E000781F49204B0A68012100249A4284
:1045780001D1009100E0009400230121FDF71EFB0A
:104588001B491A4888631A48403004611021416168
:1045980002268661880317490860BFF34F8FBFF36F
:1045A8006F8F15480168FF2212049143B205114329
:1045B8000160642000904120FFF7DCF94020FFF7FC
:1045C800D9F975076E620098411E0091FBD203204D
:1045D8006862FFF791F9AC620020FDF7F5FAF8BDC3
:1045E8004A0AFF1FBC6BFF1F6B000208050001FF92
:1045F80000C8004080E100E010E400E00248806963
:10460800C00700D0012070474010004070470000EC
:1046180030B50AC8284A4C071068A40F80088000E3
:104628002043CC08E50704241060002D3CD0A043AB
:104638007824A0430C06240FE40020430F24E4014F
:10464800A0430C05240FE40120430C0BE5071B4C89
:1046580010602BD0A0431A4C20404C02A40D240318
:1046680020430F24A405A0434C01240FA405204394
:104678009C01C90E6408214303C2990ECC0701218D
:104688008906083A002C13D08843D90ECC070D4967
:1046980010600FD088430321090788439900890FC8
:1046A80009070843106030BD2043C1E72043D2E723
:1046B8000843EAE70843EEE73C6CFF1F00080000E8
:1046C800FF0FC0FF00000008F8B5054612480F4666
:1046D800C07881421FD1E878002818D00024A000B3
:1046E8004619FF368136F16800290DD00868002880
:1046F8000AD1287900F074FC0020F0600520C00180
:1047080028184178491E4170641C082CE7DB39469B
:104718002846FDF75FFAF8BDD06BFF1FF8B50746CE
:104728000546FF37052000268137C0012C18B00048
:104738004019FF3001300090C16E002905D028795A
:1047480000F04EFC2078401E20700098F96A761C14
:10475800C166082EEBDB0026B0004019FF3081301F
:104768000090C168002905D0287900F039FC6078EC
:10477800401E60700098F96A761CC160082EEBDB59
:104788000026B0004719FF378137396B002905D05B
:10479800287900F025FCA078401EA0700020761C27
:1047A8003863082EEDDB284600F088F82846FDF728
:1047B80017FA002108468A005219FF320132491CB3
:1047C800D0660829F7DB00218A005219FF328132AE
:1047D800491CD0600829F7DBE070F8BD10B50B481C
:1047E800A12180788900484309490968401841781F
:1047F800002907D0FF30FF300230C16C002901D0FA
:104808000021C164FDF7F2F910BD0000300DFF1F53
:104818003409FF1FFFB504466030C07E072581B00C
:104828001746012842D12046FDF7E6F900283DD079
:104838002148007800283CD0FF2611362046FDF795
:10484800E1F9009020790022314600F07FFB0099C1
:1048580089000E19FF360136F066002826D0A620FA
:10486800005D002807D03A462046049B0299FDF7D0
:10487800CFF93F1DFFB20520C001251828783A4618
:10488800401C2870029938020843F16E8880F06E47
:104898000499801DFDF7C2F9F16E012008602046D9
:1048A800FDF7C2F9E878401EE8700025284605B0F3
:1048B800F0BD3426C2E700001709FF1F10B50179C3
:1048C800134A4900515C002920D012490B688C1505
:1048D800A3430B600146FF3121310B46097D0224B9
:1048E800214004796400A418647821431975094BA0
:1048F800403BDC6BA408A4000C43DC630379002173
:104908005B00D154007940008018417010BD000050
:10491800C879FF1F40100340F3B507469848A12106
:10492800807889004843974989B009680026441867
:104938002046FF3021300690407D322822D02228A0
:1049480020D02546FF358135E86A0168002909D05D
:104958008188001D090A891CFDF76CF9E96A0020A5
:10496800761C0860FDF76CF90A9900250880204636
:10497800FF30C1300790007C002829D0B84227DCDE
:10498800002018E0804901200860FF20AD30002198
:10499800005901260160E5E780000019FF308130E9
:1049A800006B6D1C8188EDB2090A001D891CFDF79A
:1049B80041F90098401C00900798017C00988142BA
:1049C800EADC0798007C3F1A8619079800210174D1
:1049D8006E490020C870FF20AD30005901680029D9
:1049E80003D00079C04380073AD00698C07D0028DC
:1049F80036D00698807D002832D10798007CB842CE
:104A08002EDA5F4881781C20414361480818017AF2
:104A1800002925D101210172A9000919FF31C068B7
:104A28008131086300281FD00520C0012018817833
:104A38006D1C491C8170FF204930005BEDB2010AF2
:104A48002046FF304930891CFDF7F4F8069800210C
:104A5800C1750698012181754C48761CC1707F1E6E
:104A68000798007C002802D030460BB0F0BD2046E5
:104A7800FDF7ECF8049000283BDD002F39DD00201D
:104A880031E02046FDF7E8F880000019FF300130DA
:104A98000790C06E8188001D090A891CFDF7CAF8B5
:104AA80000281ED00798C16EA8000019FF30813079
:104AB800016307990020C8660520C0012018817885
:104AC8006D1C491C81700178EDB2491E01702046A9
:104AD800FDF7C8F8E11DFF31FA31086A401C761C61
:104AE80008620098401C04990090884201DAB84294
:104AF800C7DB23491C228878254B5043C218107AFB
:104B0800002822D00020691E1DE083001B19FF33F6
:104B180081331B6BD768BB4214D1884212D0A900DD
:104B28000A198000FF3200198132FF308130D16AC2
:104B38000163134881781C20414315480818C06850
:104B4800D06202E0401CA842DFDB09208001201867
:104B5800817E002911D0017D00290ED0428E002AC5
:104B68000BD0817F914202D2491C817705E0002158
:104B780081771A212046FDF77BF8B0B275E700006F
:104B8800300DFF1F3409FF1F00140340E010FF1F02
:104B9800E879FF1FF0B589B0FCF71AFF05469A4877
:104BA800A1218078890048439849096844189848A1
:104BB8000068012803D19748816D491C8165052D3E
:104BC80001D0042D02D12046FFF778FEFCF7EEFE57
:104BD8009149924A0861924842610122C26002608A
:104BE800052D17D0042D7DD1E08E8E4AC96850431B
:104BF800FF22DF32125B801AF8225258896C801A21
:104C0800814A52785208D040814200D20846FDF7C6
:104C180035F804E06079012801D0FEF7EBFCFCF7D9
:104C2800C5FE069080480078002805D0FF20113086
:104C380000273E46009033E03420F9E72046FDF790
:104C480023F88119794800788142204603D2FDF77C
:104C58001BF8801905E0FDF717F8811973480078EB
:104C6800081AC0B20790684802228078009900F0BC
:104C78006DF9079989000919FF318131C860002849
:104C880013D00520C001201842787F1C521C4270A6
:104C98000020CA68761C1060C968FFB28880F6B226
:104CA8002046FCF7F7FFB042C8D85D48FF21090449
:104CB8004268002F04D08A4339040A43426025E041
:104CC8008A430121090451184160217901204A00D1
:104CD80057498854FF203530005D2279C007C00F3E
:104CE800520000E015E0521850704D4840300268FC
:104CF80083151A43026002682379520852005B0048
:104D0800591849780A43026002218162069800F026
:104D18002BFA4849486B484AC0B21278002A17D182
:104D2800464A0023D356002B454BD35606DB1B04BB
:104D38000026965732029A18121808E0FF331B040F
:104D48000026965732029A183E4B1218D2184A6318
:104D5800022801D2022002E0502800D950203A4A05
:104D68001278022A11D0394A1678394B1F78BE4278
:104D78000FD916781B78F31A801E40104343107819
:104D88004001C01A1030401104E0324A1678324B04
:104D9800ECE710784A69120A120210434861052D9F
:104DA80001D0042D16D12D480078002806D02C48B3
:104DB8000078002802D00020FCF772FFFF34FF348F
:104DC8000234207B042801D0032803D1FF205F3060
:104DD800FCF740FE022D12D122480078012807D0A6
:104DE800032805D0022803D01F480078022806D1DE
:104DF80011480078002802D16C20FCF72BFE1B49D3
:104E08000120C88209B0F0BD300DFF1F3409FF1F13
:104E18009809FF1FFC0FFF1FD06BFF1FFF3F00000B
:104E280000100340710200001709FF1F1609FF1F39
:104E3800C879FF1F800003408C09FF1F680AFF1F05
:104E480000000000FFFE0000490AFF1F440AFF1F80
:104E5800450AFF1F460AFF1F470AFF1FF908FF1FE1
:104E68002209FF1F1C09FF1F2309FF1FBC0BFF1F7F
:104E7800F8B53148A1218078890048432F4909684D
:104E880044182646FF3681360020F16A35464035FB
:104E9800086028742A48C1684A050169520D490109
:104EA8004B0DC169274F39401143C1619F1A1EE05C
:104EB800F06A016800291ED02349287C09788842B5
:104EC80015D280000019FF308130006B00280ED009
:104ED800001DFCF7EBFE3F1A287C81000919FF3101
:104EE8008131096B8988090A01D0401C2874002F78
:104EF800DEDC2D7C1CE0001DFCF7D8FE3F1AF16AB1
:104F080001200860F3E7A8000619FF368136316BE7
:104F180000290BD00848807800F062F80020306340
:104F28000520C00120188178491E81706D1CEDB2E2
:104F3800082DE8D3F8BD0000300DFF1F3409FF1F0E
:104F4800401003400000FF071509FF1FF7B584B0A4
:104F58000C46FCF7D1FC1C4D1C4E286802903068AA
:104F68001B4F0190386800901A48816B2960C16B0B
:104F78003160006C38601848002101702046FCF749
:104F88009BFE0446029828600198306000983860BB
:104F98001148012202700499104B1C256943C91855
:104FA800002C03D0087E401C087607E00698C00055
:104FB8000B5C002B02D10A5408184468FCF7A8FCC3
:104FC800204607B0F0BD0000D808FF1FD408FF1F17
:104FD800DC08FF1FD06BFF1FD008FF1FE879FF1FF9
:104FE80070B50C460546FCF787FC10481C210022CA
:104FF8004D432818D100435C002B09D0411849685B
:10500800A14205D10021D2008154FCF781FC70BD7A
:10501800521CD2B2032AEDD3241F21884904490C1B
:105028002180017E491E0176EFE70000E879FF1F25
:10503800F0B5114A114B124900280ED00020145C1B
:10504800002C06D085005D59002D02D0A4006418FC
:105058002560401C1028F2DBF0BD00200446155CDA
:10506800002D05D0AD006D1887002E68DE512C602C
:10507800401C1028F3DBF0BD296CFF1F7C78FF1F54
:105088000000FF1F10B504490968002901D08847AE
:1050980010BDFCF7C7FC10BD8002FF1F10B5044906
:1050A8008968002901D0884710BDFCF7BBFC10BDFA
:1050B8008002FF1F10B504498969002901D088477B
:1050C80010BDFCF7AFFC10BD8002FF1F10B50449EE
:1050D8004969002901D0884710BDFCF7A3FC10BD21
:1050E8008002FF1F10B504494968002901D088478C
:1050F80010BDFCF797FC10BD8002FF1F10B50449D6
:105108000969002901D0884710BDFCF78BFC10BD48
:105118008002FF1F10B50449C968002901D08847DB
:1051280010BDFCF77FFC10BD8002FF1F10B50A48B8
:10513800A121807889004843084909684018007906
:1051480007494000085C002803D006490020887100
:1051580010BDFCF7B7FD10BD300DFF1F3409FF1F50
:10516800C879FF1FE010FF1F10B50446FCF71EFCAE
:10517800A04203D3FCF71AFC011B04E0FCF716FC61
:105188000949091B41180948026A914200D2016283
:10519800C269914200D9C161426AD3009A1A511872
:1051A800C908416210BD0000FFFF3F00D06BFF1F20
:1051B800F7B5064686B0002004900390079810E1E2
:1051C80025290AD00499002901D0039802E0049007
:1051D80000200390401C039000E10398002805D0AC
:1051E80081B20498B047002004900390002504225F
:1051F800082310210798401C079000782B2819D005
:1052080004DC202818D0232804D117E02D280FD03B
:10521800302815D0079A00271078FF430346303B03
:105228003C46092B0FD807A801F076F8044615E08C
:105238000D43DFE71543DDE71D43DBE7202000E0F2
:1052480001200543D6E72A2808D1521C089807925E
:1052580010C80890002C01DA64420D4307993846BB
:105268000A782E2A14D1491C079108780246303A48
:10527800092A03D807A801F04FF806E02A2806D122
:10528800491C0791089901C90891002800DA0020F3
:10529800079A39461778682F03D06C2F01D04C2F06
:1052A80002D1521C39460792079B0A221B786E2BA3
:1052B8002CD00CDC632B2AD004DC412B26D0582BB5
:1052C80011D19BE0642B01D0692B0CD19AE0732B90
:1052D8003DD004DC6F2B77D0702B04D164E0752BA4
:1052E80073D0782B6FD0252B09D0252069460872FA
:1052F800012102A8B04707980178002975D00798BE
:10530800694600780872012102A8B04766E0E806FD
:1053180009D42025641E002C05DD6846057201218C
:1053280002A8B047F6E708986A4601781172001D8E
:105338000890012102A8B047202504E068460572BC
:10534800012102A8B047641E002CF7DC46E0089A49
:1053580002CA08920091002901D12DA100910A46A4
:1053680000E0491C0B78002B01D0401EF9D28F1A9F
:10537800E8060AD420252046641EB84205DD6846A2
:105388000572012102A8B047F5E7B9B20098B04705
:10539800202504E068460572012102A8B04720468E
:1053A800641EB842F6DC19E0611C02D10824012110
:1053B8000D4300900898019502C8234610220890D2
:1053C80009E001E001E01BE00822089B02CB0893FA
:1053D800019500902346304600F084F80798401C59
:1053E80007900178002901D0EAE60EE0039800282A
:1053F80002D081B20498B04709B0F0BD40221543ED
:105408001022E2E702231D43DFE7401E0790E5E78D
:105418003C4E554C4C3E00007CB5194C0220207087
:10542800184D01202870FCF753FCFCF722FEFEF70C
:10543800B9FFFEF735FE2078FDF7D8FF2878FEF78C
:10544800EDFFFEF79BFE10480068FFF729F8FEF70E
:10545800BBF8FEF78FFB0D490DA0FEF7A7F8124920
:105468000978124800780191009023782A7810482A
:10547800017810A0FEF79AF8FDF77CFE00207CBDAD
:105488004A0AFF1F786BFF1F146AFF1F03010300FE
:1054980053444B2056657273696F6E20494420252A
:1054A800303878200A000000450AFF1F440AFF1F11
:1054B8004B0AFF1F7266436C6B202564207263439E
:1054C8006C6B20256420737973436C6B20256420F2
:1054D80074704361705B2530327820253032785DF6
:1054E8000A000000FFB50746574897B0219D00689D
:1054F80015901E460A46680602D55348406815901E
:10550800E80601D56D086D001998801E232870D211
:10551800E80701D0302100E0202110A80173002104
:105528000172A80710D5002A04DA2D2010A90872E4
:10553800524208E0680701D52B2002E0280703D56E
:10554800202010A908725E1EA80608D519981028F0
:1055580002D0082802D002E0B61E00E0761E002421
:10556800002A14D010461999FCF7B8FB159A525C1A
:1055780001A90A55641C0200F4D12098844200DD78
:1055880020942098361A112005420BD00EE03020C6
:10559800694608710124F0E7202069460870012156
:1055A8006846B8473046761E0028F5DC10A8007A11
:1055B800002802D0012112A8B847A80616D51998C4
:1055C800082802D0102802D010E0302009E030204E
:1055D8006946087001216846B8471B4800682030B2
:1055E80040786946087001216846B847E80604D53E
:1055F80007E027E0012113A8B8473046761E0028A7
:10560800F8DC30252099481E2090A1420BDD684621
:1056180005700121B847F5E7285D69460870012142
:105628006846B84700E001AD2046641E0028F3DC58
:1056380020243046761E002804DD684604700121C7
:10564800B847F6E71BB0F0BDB06BFF1F10B50024DC
:105658000220FCF731FB0549022208600021FCF713
:1056680043FB2046FDF7B4F910BD00007C6BFF1F1B
:1056780010B504480178C90701D07621C160FCF74C
:1056880039FB10BD0020004010B50C4A0021D3683A
:1056980012691B781268002A03D04C00145B002C96
:1056A80003D1491CC9B29942F5D3994204D20028C2
:1056B80000D00170002010BD012010BD0000FF1FA8
:1056C800F0B5234E234B002822D000211CE0A12056
:1056D800800032684843801804460022FF34813431
:1056E80097003F18FF370137E56A521CFD66082A04
:1056F800F6DB002297003F18FF378137E56A521C16
:10570800FD60082AF6DB491C18788142DFDBF0BD12
:105718000021084617E0A122920034684A43141970
:10572800002295002D19FF350135521CE866082A1C
:10573800F7DB002295002D19FF358135521CE860F2
:10574800082AF7DB491C1A789142E4DBF0BD000017
:105758003409FF1F1409FF1F10B502210520FDF7AA
:10576800D1FA02210A20FDF7CDFA02210B20FDF71C
:10577800C9FA02211120FDF7C5FA02210C20FDF714
:10578800C1FA02210D20FDF7BDFA02210E20FDF716
:10579800B9FA02210F20FDF7B5FA02211020FDF712
:1057A800B1FA02211320FDF7ADFA02211820FDF706
:1057B800A9FA02211920FDF7A5FA02211D20FDF7FB
:1057C800A1FA10BD70B51C480068012802D11BA0C1
:1057D800FDF7ECFE1E481D4941610121C1600160D1
:1057E8001C49486BC0B2022801D2022002E05028AE
:1057F80000D95020184A1278022A11D0174A147872
:10580800174B1D78AC4215D914781B78E31A801E03
:105818004010434310784001C01A1030401103E093
:10582800104A1478104BECE74A69120A1202104326
:10583800486170BD1078F7E79809FF1F5B50485919
:105848002054524947204552525D0A00FF3F00004C
:1058580000100340800003406476FF1F440AFF1FC6
:10586800450AFF1F460AFF1F470AFF1F37B568464C
:10587800007800F0EFFA6846C078104C002816D07F
:105888000146FCF73DFAA0680199000E000608439E
:10589800A0600220FCF73AFAA068694600028978FD
:1058A800000A09060843A0600298E0603EBD684609
:1058B8004078FCF731FA0020ECE700004000034094
:1058C80010B5FCF7C7F8FCF72DFA3C2208215A203E
:1058D800FCF72EFA10BD10B5FCF730FA3C2208216F
:1058E8005A20FCF725FA10BD10B5FCF7B3F8FCF701
:1058F8002BFA3C2208215A20FCF71AFA10BD0000A6
:1059080070B500242120FCF7A5F8084D0AE0032013
:10591800FCF712F9641CE4B20A2C03D904A0FDF7C1
:1059280045FE70BD28680028F1D170BD9809FF1F99
:105938005B5048592053544F50204552525D0A003D
:1059480010B501210A20FCF705FA3C20FCF708FAFB
:105958004220FCF70BFA342208213920FCF7E8F939
:1059680010BD000010B5FFF7CBFFFBF7C5FF0E48D1
:1059780007C8FFF77BFFFFF7E3FF0B4C0C34207BD6
:1059880000F0BEF8E089FFF79BFFFCF7F5F9FCF79C
:10599800F9F9FF20FCF784F9FFF714FF0349012008
:1059A8000860FBF7B5FF10BD6476FF1F9809FF1F5D
:1059B80010B5FFF7A5FFFBF79FFF144807C8FFF7CF
:1059C80055FFFFF7BDFF114C0C34207B00F098F811
:1059D8002078022815D0FFF77EFFFCF7CDF9FCF7F9
:1059E800D1F9FF20FCF75CF909484178891CFCF7DC
:1059F80021F9FFF7E7FE074901200860FBF788FF58
:105A080010BD208AFFF770FFE7E700006476FF1FEC
:105A18004475FF1F9809FF1F10B506480078032832
:105A280006D005482021C078FCF74AF8002010BDB0
:105A3800012010BD7076FF1F806BFF1F7CB51848D2
:105A4800184DC17800291DD06E7817A103C901919E
:105A580000900622A91C6846FCF792F800281ED080
:105A680013A0FDF7A3FD0E480C30037B174882886E
:105A78004178FF3AFF3A16A0023AFDF797FD002455
:105A8800B61C07E04678E0E7295D1AA0FDF78EFD11
:105A9800641CE4B2B442F7D318A0FDF787FD7CBDBF
:105AA8006476FF1F4474FF1FEFEEEEEEEEFE00007B
:105AB8002D2D2D2D2D2D2D2D2D2D2D2D2D2D2D2D0E
:105AC8002D2D2D2D2D2D2D2D2D0A0000806BFF1F26
:105AD8005B5048592052585D205B2D253033646453
:105AE800626D202534644B487A2025303264204387
:105AF800485D200025303278200000000A000000B0
:105B080010B50D490023CB560C4A002B0C4BCB5635
:105B180006DB1B0400240C5721025918081808E05A
:105B2800FF331B0400240C57210259180818054993
:105B38004018506310BD0000680AFF1F8000034032
:105B480000000000FFFE0000F8B5174604461E4698
:105B580002221248FCF71CF9104D06222146A81C07
:105B6800FCF716F92846324639460830FCF710F992
:105B78000BA0FDF71BFD17A0FDF718FD002405E09D
:105B8800295D19A0FDF712FD641CE4B26878801C39
:105B9800A042F5D802A0FDF709FDF8BD4475FF1F26
:105BA8000A2D2D2D2D2D2D2D2D2D2D2D2D2D2D2D40
:105BB8002D2D2D2D2D2D2D2D2D2D2D2D2D2D2D2D0D
:105BC8002D2D2D2D2D2D2D2D2D2D2D2D2D2D2D2DFD
:105BD8000A00000050485920425546205478204475
:105BE800756D700A00000000253032782000000032
:105BF80010B5FBF7DBFE12494A69824201D8821AC6
:105C080002E0104B9A1A1218CB899A4202D2FFF777
:105C1800A9FE10BD48610A4A087B0C3A022806D042
:105C28001A2808D05028F4D1FF20087010BD1A2077
:105C38000873332002E05020087373209070E6E761
:105C48007076FF1FFFFF3F00F8B51E484168090640
:105C580001D50020F8BD4168802211434160194DEB
:105C68000A260027803DE86940084000E8610620D0
:105C7800FBF762FF134CC03CA06980210843A06178
:105C8800E86901210843E86102E00820FBF754FFB6
:105C9800A86A800504D43046761EF6B20028F4D1EE
:105CA800002E07D0286A7E21C70BA0690F408843C1
:105CB8003843A061A16980208143A1613806400E64
:105CC800F8BD0000C0F00040124B10B512497E220A
:105CD80098420AD98B695B069B0E06D088698B6946
:105CE8004006800E9343401E0CE00C4B98420FD2A6
:105CF800886910407E280BD288698B694006800E1F
:105D08009343401C400003438B610320FBF714FFBF
:105D180010BD00000B20000000F00040FD1C00003A
:105D280001484069800870474010004010B500F0F5
:105D38003FFAFFF789FF10BD30B5394801680122E5
:105D48009204114301604168032212069143354AC7
:105D580013781B06194341604368032189058B4367
:105D680031490C78A40523434360436860242343E6
:105D780043601378022B08D01378012B05D00B78D9
:105D8800022B02D00B78012B04D14368FF24013485
:105D9800234343601278032A02D00A78032A03D1E6
:105DA800426880231A434260426803239B041A43D3
:105DB80042600B780122D2051C48002B03D11C4BF2
:105DC8001B78032B1BD0C3689343C360174A194B36
:105DD8004032D360FF2361331361174C5461174B72
:105DE8009361FF25114B813580335D609C60144CB5
:105DF800DC60144B03600978002903D006E0C3680F
:105E08001343E2E701680123194301600E49097849
:105E18000E4BC906C90BC91881630D48D06130BD46
:105E280040F000404C0AFF1F4B0AFF1F8000034050
:105E38004A0AFF1FC00B00207A3E6A070000890447
:105E480000808904CC240000480AFF1F25080000B0
:105E58002FFCA601F8B505004C4A4D484D4B4E4C59
:105E68004E4936D0022D34D08615B70206628669AF
:105E78009E43F31983612078002835D01120400310
:105E880008614748086347480078012212038018D0
:105E98004861424E414C444B803E403C002D28D046
:105EA8006521424AC9024248012D2FD0022D32D025
:105EB800032D5BD0042D59D03E49691831603E4905
:105EC800A1602360E06002210846FBF719FF3B4808
:105ED8002CE08026066286699E430123DB04F318C2
:105EE80083612078002801D00A61CAE7872000036F
:105EF800C6E7334830600020A06023603148E06086
:105F080003210846FBF7FCFE2F480FE02F4B3360B8
:105F1800A2602160D6E72D4B5B1C3360A260216034
:105F2800E06002210846FBF7EBFE29482061F06893
:105F3800FF210843F060274860612748A06127488F
:105F4800E06127482062274860622748A062274806
:105F5800E0622748206327486063E020012D0DD0C8
:105F68002168022D0ED081432160F8BD224BEB1829
:105F78003360224B73602160A260A3E721688143EC
:105F88002031F1E781434031EEE70000004504008D
:105F9800C000034000001C004B0AFF1F80000340A4
:105FA80002000001440AFF1F00280B005555553711
:105FB800D6BE898E00800642555555008055082268
:105FC8000080067807EE7536806608220180063D57
:105FD80080450822A49C5C544C44434241524C46A0
:105FE800403A342E28007F554F49433D37312B4CDA
:105FF80046403A342E28221C00800698545A98505D
:10600800F0B5224B214D21498026204A0727BF049D
:10601800403BC03DE024803902281662966914D0BE
:10602800BE430127BF04F6199661194A1278002A5F
:106038001ED07A101A6101281ED0164A80182860CE
:10604800154808610868A04314E00120BE43C00455
:10605800361896610E4A1278002A00D0401018614E
:106068000E4828600E4808610868A043403001E0E7
:106078001F61E0E70860F0BD0848401E2860094835
:1060880008610868A0432030F4E70000C00003401E
:106098004B0AFF1F00800698805508220280063DA3
:1060A800804508228066082270B50A4B5C6A9D6AA2
:1060B800A30501269B0D7602B34201D99B1B02E082
:1060C800FF33FF3302330B80290E0170200E10704E
:1060D80070BD0000C000034070B584050126A40D02
:1060E8007602049DB44201D9A41B02E0FF34FF34B8
:1060F8000234090E1C801170000E287070BD00005B
:1061080010B50A4900200870094902200870FFF7F5
:1061180013FE0848007800F011F8074C2078FFF7C4
:1061280099FE2078FBF73AFE10BD00004B0AFF1FCE
:106138004C0AFF1F480AFF1F490AFF1FF0B51A4AF9
:1061480003230725D60019499B026024ED015769EE
:106158003F281AD0B74305263604BE195661CA68C7
:106168009A43CB14D218CA60CA69A2432032CA61C2
:10617800CA69AA43CA610D4940398A6BC00612052B
:10618800120DC00B02438A63F0BDB7430126B60463
:10619800BE195661CA689A43CA60CA69A243CA61ED
:1061A800CA69AA438032E5E700F00040C000034016
:1061B80000B50021022000F021F80C49801C08706D
:1061C8000021422000F01AF80949801C08700121BA
:1061D800022000F013F80749801C087001214220B2
:1061E80000F00CF80449801C087000BD440AFF1F29
:1061F800450AFF1F460AFF1F470AFF1FF8B53B4C19
:10620800394A2260394D394A07239B048035403288
:106218000129A9690ED0994301239B04C918A961D2
:106228003349D16033490B780121C905324E002B1F
:1062380007D009E099430123DB04C918A9612F4954
:10624800EFE73378032B14D0D3688B43D3605063C4
:106258000E20106200275762FF2015305062284830
:10626800009030780300FBF79FFD0507070D090B29
:106278000D00D3680B43E9E7224802E0224800E01A
:10628800224800900098431E0093FBD2686B576227
:106298000002000E17621E4BD360FF234133536286
:1062A8006523DB0223601B4D2F78E023012F0AD0E2
:1062B8002D78022D25680AD09D4325600D4B1B784B
:1062C800002B07D009E025689D432035F5E79D435D
:1062D8004035F2E73378032B03D0D3688B43D36080
:1062E800F8BDD3680B43FAE71000030040000340F1
:1062F8007F4073004B0AFF1F4A0AFF1F7F4053006D
:1063080010270000204E000030750000409C00005F
:1063180040401000490AFF1F0146002006E0531CB8
:106328000B600A2312785843303810180A6813781B
:10633800303B092BF3D9704778B5174B012800D1AA
:10634800164B00241648009404E0009D6E1C00962D
:1063580085421ADCDD6FED07F7D10AE0009D6E1C5F
:106368000096854211DC1D7DAD06F7D50D781D70B0
:10637800491C1546521E92B2002D0094F3D106E036
:1063880000994A1C0092814201DD0D2078BD197DDB
:106398004906F5D5002078BD004000400090004037
:1063A800A0860100F7B507462A49400144182A4E3D
:1063B800241D1546002A10D0019800280DD02178F8
:1063C800002908D0E088A84205D3012916D0A18861
:1063D8004919814203D90320FEBD0620FEBDFBF703
:1063E8008BFAA188A0682A4640180199FBF716FC89
:1063F800A0884019A080FBF78BFA27E0A0680199D4
:10640800FBF70CFCA5800020608002202070A168AA
:10641800102D00D91025012F00D1104E72680220CE
:106428008243726004E06088421C6280085C3070BD
:1064380028466D1EADB20028F5D1002F08D01920CE
:10644800FDF7B4FE70680221084370600020FEBDAD
:106458000820F5E78876FF1F0040004000900040C4
:1064680070B5054608260B201849012D02D11926BA
:10647800174911200122824016480260BFF34F8F4E
:10648800BFF36F8F8020087300240C710C700C739D
:106498000C724C603046FDF787FA3046FDF750FA2B
:1064A800002D0ED00C4844600C4869010C18207C63
:1064B8000021FDF72DFB607C0021FDF729FB002062
:1064C80070BD05484038C462EEE700000040004057
:1064D8000090004080E100E0C003FF1F8876FF1FA6
:1064E800F0B587B00746FBF765FC049008200390D9
:1064F8000420009005200290594C0B263846FFF7DF
:10650800AFFF012F07D11920039008201126009012
:10651800544C09200290544879010D18287CFF2812
:1065280002D1687CFF282FD010350398FDF722FA96
:106538000398FDF739FA01211220FDF7AFFB01217D
:106548001220FDF7ABFB12200099FDF7F1FA12209B
:106558000299FDF7EDFA002020730498696800118C
:106568004A088018FBF7BAFB0021216180212173BA
:10657800010A21712070E87A002852D038493B4836
:106588008C4204D1007803E0062007B0F0BD4078C3
:10659800002801D01B2000E00B202073287A002857
:1065A80000D08720207201206060287A002803D05C
:1065B8006068802108436060A87A002803D060687A
:1065C80002210843606028780121FDF767FB68789D
:1065D8000121FDF763FB28780099FDF7A9FA68788F
:1065E8000299FDF7A5FA00211220FDF791FA03217F
:1065F8001220FDF753FB002F15D01E491C48486098
:10660800FF20002E14DBB2081B49920051180A68BB
:10661800B307DB0E984082438020984002430A600B
:1066280016E00320B9E7134914484039C862E7E780
:106638003107090F08398A08114992005118CA69A7
:10664800B307DB0E98408243802098400243CA611A
:10665800002E03DB01200B49B0400860002094E7BE
:1066680000400040009000408876FF1F926BFF1F9B
:10667800BD38FF1FC003FF1F00E400E07938FF1F8B
:1066880000ED00E000E100E010B50020FFF728FF72
:1066980010BD10B50120FFF723FF10BDF8B56E4CF3
:1066A800FF21E068D5316D4A095811608030806853
:1066B80080F30888FBF70CFB69486A4900680226E2
:1066C800884206D00020FBF73DFA70070169B14304
:1066D80001610020FBF736FA00F0EAF8624800781A
:1066E800FBF75CFB614D0027EF61EE616048686174
:1066F8000120FBF721FA0320E861FBF705FA0646BB
:10670800FBF754F90546FBF7FFF95A490860FFF70C
:10671800F7FC59480068864201D9301A01E0301A5E
:10672800401E5649884200D90840E1688A8DD20740
:1067380009D0534A030C126880B2534350431B02DA
:10674800000A18180BE0C2018300D21A4300D21ABB
:10675800C3001818921C80309208400A101820654F
:10676800FF314848013149680068091846480068FF
:10677800091A3F48401C09188A0844488B074449AD
:1067880002600E689B0F9B190B60042B04D9521CE6
:1067980002609A07920F0A60216D006808183D4947
:1067A800FBF79CFA02463C483C4E0368D31803604A
:1067B80032688A18374932608A4205D95B1C0360FF
:1067C8001046FBF78BFA3160FBF7FAFA3448007889
:1067D800002810D0FBF7EAF8324A216D401B1268F6
:1067E8000B18934202D2511A091A01E07D21C900FF
:1067F8001E48FBF7EBFA2C4E307A002810D0FBF736
:10680800D5F8216D401BF2680B189A4202D9511A2B
:10681800091A00E0254915483C30FBF7D7FA3772CA
:10682800A078002810D0FBF7C1F8411B226D0F4853
:106838006369551850309D4202D29A1A511A00E0E5
:106848001A49FBF7C3FAA770FBF7C6FA0220FBF751
:10685800B3F8FBF76BF9F8BDD06BFF1F0080FF1F83
:106868000C0AFF1FB6412103490AFF1F0010004010
:10687800C3090000100AFF1F340AFF1FFFFF3F0073
:10688800380AFF1F1C0AFF1F200AFF1F240AFF1FC8
:10689800280AFF1F710200006008FF1F2C0AFF1F53
:1068A8001C09FF1FE408FF1F740BFF1FDC05000015
:1068B800F8B5012081078862FCF790FEFCF754FACE
:1068C80001200090FDF7FCFD434E3078434C022830
:1068D80010D0FBF719F905460F20FBF72DF9FCF747
:1068E80053FC0520FBF728F93078012808D0FCF77D
:1068F800F5FC1AE03A48C068006AFBF71DF924E085
:1069080036484038C06B4007400F012802D10020AC
:10691800FCF76CFD6068FF270137B8436060022010
:10692800FBF70AF9606838436060FBF7EDF8A842A6
:1069380001D3401B01E0401B401E29491E22486329
:106948005043284AC9688018C86128492648086001
:10695800264827498030C163FF21413141623078A0
:10696800FCF744FD23492448FBF730FA224800216C
:106978001438C1610221C161204941610321C1610B
:106988001D481F491430FBF721FA0420FBF790FF3C
:106998001420FBF78DFF1520FBF78AFFFF20FBF77C
:1069A8007FF90120FBF71EFAFF20F530FBF7D6F838
:1069B8005820FBF74FF81348FBF760F90098FBF7EE
:1069C80017FA0720FBF7A2F9E0690F490840FF30E2
:1069D8000930E061F8BD00004A0AFF1F40F000409E
:1069E800D06BFF1F720600000180063D00000340C7
:1069F800340800007102000014100040C3090000B0
:106A0800FFFF3F003075000000FEFEFF3B0001085D
:106A180002000300050206020703080309030A002F
:106A28000C030D030003010304030B000E030F0303
:106A380010031103120313031403150316030000B4
:106A48000300000000000000000000000001020335
:106A580007090A0B0E0F101112141718191A1B1F09
:106A6800202122000201000504000807000B0A008B
:106A78001716001D1C010201010504010E0D01116C
:106A880010011413011716011A19020201020B0A48
:106A9800020E0D0211100214130217160305040347
:106AA8000807030B0A030E0D000D000E001000115D
:106AB8000013001401070108010A010B011C011D44
:106AC80002040205020702080219021A021C021D2A
:106AD80003010302031700000506FFFF00C20100BF
:106AE8000100000000000000303132333435363701
:106AF80038394142434445464748494A4B4C4D4E34
:106B08004F505152535455565758595A0000000087
:106B1800303132333435363738396162636465660B
:106B28006768696A6B6C6D6E6F7071727374757675
:106B38007778797A000000000004FF1F446CFF1F7B
:106B48000C000000502DFF1F446CFF1F0004FF1FA6
:106B580000040000C418FF1F446CFF1F446CFF1F93
:106B6800D4130000602DFF1F752BFF1F01000000CC
:106B7800000000000000000000000000000000000D
:106B880000000000000000000000000000000000FD
:106B980002000000882128005902E00100000000DE
:106BA8000000000000000000186BFF1FF06AFF1FC4
:106BB800000000003B000108000000000000000089
:106BC8000000000040787D01000000020000020083
:106BD80000000000000000000000000000000000AD
:106BE8000000000000000000FFFF0000000000009F
:106BF800000000000000000001000000000000008C
:106C0800000000000000000000100000000000006C
:106C18000000000000100000000000000205090E3E
:106C280014227E00001D700000000000000000001B
:0C6C380000000000000000000000000050
:040000051FFF184180
:00000001FF
