:020000041102E7
:1000000003B40148019001BD7511000003B401481B
:10001000019001BD75A9000003B40148019001BD24
:10002000C93E000003B40148019001BD9DA9000034
:1000300003B40148019001BD1130000003B4014830
:10004000019001BD53B9000003B40148019001BD06
:10005000B30E000003B40148019001BD6D48FF1FBD
:1000600003B40148019001BD6189000003B4014857
:10007000019001BD1907010003B40148019001BDC1
:10008000A9D8000003B40148019001BDB35201009A
:1000900003B40148019001BD0D52010003B40148B1
:1000A000019001BD8B52010003B40148019001BDD4
:1000B000C1A5000003B40148019001BD9D6A000084
:1000C00003B40148019001BD116E000003B4014862
:1000D000019001BDE94C010003B40148019001BD4C
:1000E0008BB9000003B40148019001BDD1D40000D8
:1000F00003B40148019001BDCD4C010003B4014897
:10010000019001BD85C1000003B40148019001BD0B
:1001100009B8000003B40148019001BD2DFC0000A6
:1001200003B40148019001BD25E7000003B4014874
:10013000019001BDEDB8000003B40148019001BD7C
:100140003148000003B40148019001BDC53F0000E3
:1001500003B40148019001BDF5D5000003B4014886
:10016000019001BDF1FA000003B40148019001BD06
:10017000913FFF1F03B40148019001BD9946000063
:1001800003B40148019001BD1547000003B40148C4
:10019000019001BDC5F0000003B40148019001BD0C
:1001A00079F4000003B40148019001BD63EC000044
:1001B00003B40148019001BD05FF000003B40148EC
:1001C000019001BD3161000003B40148019001BDFF
:1001D00059E4000003B40148019001BDD5E40000DA
:1001E00003B40148019001BD01BF000003B4014800
:1001F000019001BD21F1000003B40148019001BD4F
:1002000039B8000003B40148019001BD77F1000046
:1002100003B40148019001BDC1E2000003B40148EC
:10022000019001BD154D010003B40148019001BDCD
:100230008DE3000003B40148019001BD5511010098
:1002400003B40148019001BDA5FD000003B40148BD
:10025000019001BDA93C000003B40148019001BD1B
:10026000912DFF1F03B40148019001BDD534FF1F3C
:1002700003B40148019001BDADAE000003B40148D4
:10028000019001BD456B010003B40148019001BD1F
:10029000F54E010003B40148019001BD434D01003A
:1002A00003B40148019001BD2526000003B40148B4
:1002B000019001BDC94A010003B40148019001BD8C
:1002C000691F000003B40148019001BD5D170000E3
:1002D00003B40148019001BD3D4B010003B4014846
:1002E000019001BD5952010003B40148019001BDC4
:1002F0005125000003B40148019001BD014C0100EB
:1003000003B40148019001BD594F010003B40148F5
:10031000019001BD1D4B010003B40148019001BDD6
:100320008D12000003B40148019001BD4D1F000073
:1003300003B40148019001BD5522000003B40148F7
:10034000019001BDDD52010003B40148019001BDDF
:100350001D4D010003B40148019001BD810E000054
:1003600003B40148019001BD017F000003B40148BE
:10037000019001BDE117000003B40148019001BDE7
:100380007918000003B40148019001BDD94901006A
:1003900003B40148019001BDE928000003B40148FD
:1003A000019001BD5549010003B40148019001BD10
:1003B0004551010003B40148019001BDC926000068
:1003C00003B40148019001BD1DBC000003B4014805
:1003D000019001BD6DBC000003B40148019001BD56
:1003E0003555000003B40148019001BDC51D000052
:1003F00003B40148019001BDB161000003B401489C
:10040000019001BD315F000003B40148019001BDBE
:10041000DD5E000003B40148019001BDF53BFF1F04
:1004200003B40148019001BD8926FF1F03B40148B0
:10043000019001BD810E000003B40148019001BD8F
:10044000D554000003B40148019001BD19550000C6
:1004500003B40148019001BD913BFF1F03B4014863
:10046000019001BDF94C010003B40148019001BDA8
:10047000291C000003B40148019001BD851F000044
:1004800003B40148019001BD090E000003B4014806
:10049000019001BDA946010003B40148019001BDCE
:1004A0001147010003B40148019001BDC938FF1F85
:1004B00003B40148019001BD0321FF1F03B40148AB
:1004C000019001BDDD20FF1F03B40148019001BD73
:1004D0002124000003B40148019001BDB11F0000B8
:1004E00003B40148019001BDD91F000003B40148C5
:1004F000019001BDAD21000003B40148019001BD90
:10050000E548000003B40148019001BD29510100F4
:1005100003B40148019001BDD91B000003B4014898
:10052000019001BD5147010003B40148019001BD94
:100530009953FF1F38B5044600F044F80146684659
:1005400001704470210A81706A4603210248FFF756
:1005500057FD002038BD00001B20000038B50446C0
:1005600000F056F80146684601704470210A817017
:100570006A4603210248FFF743FD002038BD000012
:100580001A20000008B5002802D000F049FA00E067
:100590001220694608706A4601210248FFF730FDC3
:1005A000002008BD0520000070B50C460546FFF789
:1005B0002DFD21462846FFF72FFD0446FFF732FDAB
:1005C000204670BD10B5114AA1218900126841432F
:1005D0008C189D2189000959012901D00C2010BDDA
:1005E000FFF726FD0028FAD1E01DF9300279062137
:1005F000012A06D041710D212046FFF71FFD002082
:1006000010BDFF20213001550221F5E73409FF1FFD
:1006100070B50D46134AA1218900126841438C1818
:100620009D2189000959012901D00C2070BD002DA0
:1006300016D0FFF7FDFC0028F8D110210B1A2A5C18
:100640001B19E033401CC0B29A711028F6D3012167
:10065000F820015505212046FFF7F0FC002070BD71
:10066000122070BD3409FF1FFEB5089D099C174676
:10067000002874D0002972D0002C02D0012C02D0A6
:1006800003E02A2201E0FF220732921D0192354A3F
:100690000E461770344A10603448037034480570B1
:1006A00034480470002446E0A120800025464543DC
:1006B0002D48A121006889002818FFF7C5FC2A48A9
:1006C0002D49006862002818FF308130C662019809
:1006D0003618002088545118487026490978002996
:1006E0003BD0FF211131009121461C20414322487B
:1006F000002220300D182A764254E0B20099FFF70C
:10070000A9FC686000202872E0B201220099FFF77E
:10071000A1FCE86000202874E0B202220099FFF7F3
:1007200099FC68616968002919D0E968002916D028
:10073000002814D0641CBC42B6DB00200F4D104AC8
:10074000014683009C186580401CD154C0B2617082
:100750001028F6D30020FEBD01E03421C3E71220AB
:10076000F9E700001409FF1F3409FF1F1509FF1FD7
:100770001609FF1F1709FF1FF884FF1FFFFF000066
:10078000D886FF1FF8B5714D0028AA7916D0012A26
:1007900001D0032A12D16E490B78FF2B0ED14B7872
:1007A000FF2B0BD18B78FF2B08D1CB78FF2B05D1FA
:1007B0000B79FF2B02D14979FF2930D065490B789D
:1007C000012B1DD00026644C0E702178092931D0F0
:1007D0000A292FD00B292DD00C292BD00D2929D057
:1007E000052927D0062925D0A97B00290AD001296F
:1007F00008D0032906D0022904D004290FD101E032
:100800000C20F8BD002A05D0012A03D0022A01D00D
:10081000032A04D1514F002875D0012801D012209D
:10082000F8BDA888012805D0FFF7F0FB2078002844
:1008300002D01AE02120F8BDA87B0300FFF710FCCE
:10084000050408100C082400012020701F200AE075
:1008500002202070202006E004202070222002E0E8
:10086000032020702120FFF701FC20782821012897
:100870000DD002280BD0042809D0032807D0072860
:100880000ED008280CD01BE026701E20EBE7344861
:1008900006602975FFF7F0FB002820D0AE800FE03E
:1008A0003048C068808D80060AD52F480278002A1B
:1008B00006D1AA7B032A06D0022A04D0002A02D03D
:1008C000FFF7B0FBB6E70222027029751403214638
:1008D0003878FFF7D7FB21463878FFF7D9FB01209E
:1008E000A88022480078002809D0214801210288E8
:1008F0007D20C0004243C9033878FFF7CFFBFFF7E4
:1009000091FB20E0FFE7FFF781FBAE80207807280E
:1009100008D0082806D026701648FFF7C5FB1E2011
:10092000FFF7A4FB10480178002905D006700121CB
:1009300049033878FFF7A6FBFFF774FB0121C903D1
:100940003878FFF79FFB0020F8BD0000A60BFF1FC3
:100950006B09FF1F1A09FF1F1C09FF1F1B09FF1F3F
:100960004809FF1F8461FF1F2309FF1F2109FF1F83
:100970002C09FF1F00100040FFB585B016460D463C
:100980000446119FFFF742FB154829460078049062
:100990002046202C00D22020202900D220210EAA7F
:1009A0002CCA009201AAA8C23246089BFFF782FB1C
:1009B00005460C480A49448004980870012E01D06D
:1009C000042E08D1084880230078C1010748828896
:1009D0009A4311438180FFF725FB284609B0F0BDFB
:1009E0001C09FF1FA60BFF1F7809FF1F6C11FF1FBB
:1009F00010B5FB2908D8084B9A4205D81B2903D308
:100A0000FF2349339A4201D2302010BD034B198293
:100A10005A82FFF755FB10BD480800008410FF1FE5
:100A2000F8B53249097801292AD0022928D00329AA
:100A300026D0042924D0052922D0062920D02C49EB
:100A4000097802291CD004291AD0012918D00329B9
:100A500016D0062914D0072912D00178254C8C46CF
:100A60002170467866708378A370C278E27001794D
:100A700021714079204D6071AF79012F02D008E0DB
:100A80000C20F8BD6746EF712E726B72AA72E97284
:100A900028730622E91D1948FFF718FB0622E91DF5
:100AA0001748FFF713FB1748017801290BD121786C
:100AB000417061788170A178C170E178017121790C
:100AC0004171617981711048017801290BD1217838
:100AD000417061788170A178C170E17801712179EC
:100AE0004171617981710020F8BD00001C09FF1F70
:100AF0002309FF1F6B09FF1FA60BFF1F7211FF1FAA
:100B00008A13FF1FBC0BFF1FD40BFF1FFFB50D4641
:100B1000A12189004843234981B009681E46441831
:100B2000002D09D0FF20D930015B0398814203D307
:100B3000002E04D0012E02D0122005B0F0BDE078C6
:100B400000280AD00520C00127181748F978007836
:100B5000801C814203D30720EFE70220EDE7FFF777
:100B600055FAF878A91E401CF87003980870002EFA
:100B700010D00120487020467C30091FFFF7ACFAE6
:100B8000FFF750FA09480078082805D0072803D055
:100B90000020D2E70220EDE700212046FFF7A2FA6D
:100BA000F6E700003409FF1F1509FF1F1C09FF1F8E
:100BB00070B50446FF30FF300230406F0D4601280B
:100BC00012D1282D10D1A420005BE188401A1D49C4
:100BD00080B2884208D321466A3105220E46481F5A
:100BE000FFF786FA002818D0174900208200521813
:100BF0005278002A16D0401CC0B21028F6D31348F1
:100C0000012189020078FFF743FA20790101104899
:100C10000918897902290DD00FE031462046FFF7E7
:100C20006DFA70BD80002379421853800D54012065
:100C30005070E4E74178491E41702046FFF764FA9E
:100C400070BD0000FF7F0000D886FF1F1B09FF1F3B
:100C5000300DFF1FF0B5054687B0E0300490284600
:100C6000A030039040380590092080012E462818B6
:100C7000FF36E136029030462030EF1DF9372C4622
:100C8000803401909FE1E07A801E0300FFF7E8F9CD
:100C90001A0E3822396BF638C13892D1A938383853
:100CA000383838F5F4F3F23838F1F038A07A012802
:100CB00003D02846FFF72EFA12E0C54880780028B6
:100CC00001D0162130E1608A401E0004000C6082D1
:100CD0006FD076E1A07A012804D02846FFF720FAE9
:100CE000A0726EE1BA48C0780028ECD02846FFF721
:100CF0001DFA2A4629462879C832C031FFF71CFA66
:100D000061E1A07A012813D00498C07D012821D088
:100D10000498007E00287BD02A4629462846D732F0
:100D2000B031E730FFF70EFA04990120C8754AE1A7
:100D3000A748C078002805D00399012088710020B9
:100D4000E0673860B8790128BDD106212846FFF751
:100D5000FFF938E12846FFF701FA0128B9D1002050
:100D6000B8710120BCE7A07A012803D02846FFF71C
:100D7000FBF9B5E79648C0780028A4D0E88C6884D1
:100D80002846FFF7D3F905990120C87620713879F4
:100D90000128287909D001220021FFF7EBF9002072
:100DA00038713872F871B8710DE10021FFF7E8F978
:100DB000F5E7B8E0A07A012805D02846FFF7E6F964
:100DC000012807D0FDE0F8790128BDD12846FFF7BA
:100DD000ADF9F8E00020F871039988710120A07244
:100DE000F1E0A07A012804D079792846FFF7D4F9F8
:100DF00076E77748C178002906D0039A00219171DF
:100E0000059A0121D176217180780028DED15AE738
:100E10008EE0A07A012803D02846FFF7C3F95FE7E8
:100E20006B48C0780028F2D001203873E88C6884C1
:100E3000CCE7A07A012805D00120F8752846FFF7F5
:100E4000B7F94DE7787D012806D0608A401E00047E
:100E5000000C608213D0B4E0B87D0128B6D1B88B05
:100E600000907B8B3A7E29790020FFF7A7F9ADE748
:100E70008FE072E03BE02DE01BE009E09CE0B88BE6
:100E800000907B8B3A7E29792220FFF797F94AE080
:100E9000A07A012806D02846FFF796F9A072002014
:100EA00070748EE04A48C0780028B0D00120707479
:100EB0008CE7A07A012803D02846FFF78BF90FE7CB
:100EC0004348C0780028A2D0002030742879FFF76A
:100ED00087F97BE7A07A012803D02846FFF786F937
:100EE00036E03B48C078002891D0012018E0A07A75
:100EF000012807D0707FB17F08401BD041071DD566
:100F0000042020E03248C07800288CD001990020CD
:100F1000C871019A012111722E490979012987D1DD
:100F20000199087252E722212846FFF765F901204E
:100F300007B0F0BD707E7075B07E05E0800701D50A
:100F4000022000E001207075B0752846FFF75AF9BD
:100F5000A07201990020087233E0A07A012807D01E
:100F60002846FFF755F9A07202990120087628E07B
:100F70001748C07800289BD1608A401E0004000CEE
:100F800060821ED11448042200212818FFF746F978
:100F9000C9E7A07A012803D02846FFF745F99FE664
:100FA0000B48C07800280ED00299002008760299DC
:100FB000C875FFF73FF909E72846FFF741F901280F
:100FC00087D00020B4E7E07B002800D05BE6AFE7E5
:100FD000E010FF1F8461FF1F560200000E480D49FC
:100FE00001600E4981600C490D4A40314A610E4B47
:100FF0000C4A5A610D4AC2620D4A82630D4A8A60E8
:101000000D4A4263084A0D48403A10620C48886114
:1010100070470000790902114000FF1F8507021187
:10102000B54CFF1F794AFF1F4002FF1F5D3FFF1FA6
:10103000D13DFF1FB10B0211550C0211B140FF1F32
:101040006927FF1F104880681049421C04D03222D3
:10105000D04201DB322800DD0020087070470A48CA
:10106000C1680B484A1C09D01F2907D8C26BC906A2
:1010700052095201C90E0A43C2637047C16B490944
:1010800049010931C163704700400011680AFF1F20
:1010900080F0004070B5FEF7B9FF904C0020256845
:1010A0002060FFF7D3F806462560FEF7BBFF304609
:1010B00070BD8B49C968FF31813188657047F8B5CB
:1010C000FFF7CAF8864D874A68721178022903D95A
:1010D000002801D101201070834900200446E960F6
:1010E0008300401CCC50FF28FADDE8687F49882344
:1010F00019507F49C1627F490978002902D07C4993
:101100001131C1620A210165117881637A49C16197
:10111000FFF7A8F8E96879484861192080018861DB
:10112000084637228030C260082336220B64CA6327
:101130001E224A6436224260322202603B2203644D
:10114000C263282242644122C2643922826432226C
:101150004365026528228265022202664222C26538
:101160001E22836642662822C266202242674222ED
:1011700002675A22436102613C2282611922920174
:101180000A605F4A0A63FF222D328A60CA60FF222A
:10119000F5320A615B4A8A647D22D2005A4EC267E8
:1011A000CE644A62594A8A623222CA6506224A6578
:1011B0008A65CA1DF932022513604D664B25ED0084
:1011C0008D660925CD66524D0D678C674B67AB1058
:1011D000CB67504FFF313E604A4E86627D26F60057
:1011E0008667642646620526C66202260663C8260E
:1011F0004663846338205060474810644B20800168
:101200009061B000D061581010627D2000015062E2
:10121000D466956513665364D565146753671E20BD
:1012200090663E4890673E485B008131D0670B6016
:101230008B604860FF20F530C86008614B20C0001B
:1012400010630E6538483749274A81603749803A2C
:1012500011613549364A80318A62364ACA62364A55
:101260008261364AC262364A02632F4A3548403AA2
:1012700050633548D0633548C861354890632A4982
:1012800034484031886135493348886026483449BC
:10129000803841603349244A41633349C03AD160C0
:1012A0003349324B204CCB63324B403C2363324BAF
:1012B0009362324AC263324AC260324A4A63324A55
:1012C000E260324A8A63324A0A6332498163FEF736
:1012D000CFFF0120FEF7D2FFF8BD00009809FF1FE5
:1012E0008461FF1F4A0AFF1F0004FF1F0890FF1FB1
:1012F0006E040000505EFF1F3A07000080C3C90162
:101300009A02000050C30000280A00006A1800007A
:10131000204E0000F009FF1F00400011DC05000016
:1013200040420F00B544FF1F0001FF1FCD24FF1FE7
:10133000B14FFF1F8552FF1FD921FF1F6D23FF1FD4
:10134000F521FF1F9133FF1F8131FF1FAD5BFF1F91
:101350009959FF1F5D21FF1FF10902110002FF1FB4
:10136000493EFF1F3942FF1F2127FF1FA905021118
:101370000000FF1F794DFF1FD13FFF1F9147FF1F47
:101380000940FF1F0927FF1F9D3EFF1F0D0B021184
:10139000B526FF1F3D4AFF1F0A7802708A78427007
:1013A0004A88120A82700979C170042070470A784D
:1013B00002700988090A41700220704710B50022A6
:1013C0000EE093005B189C7804705C88521C240A21
:1013D00044701C7984709B88D2B21B0AC370001DB4
:1013E0000B789342EDD81806800D10BDF8B50D4668
:1013F00006464978012031700024761C16E0697891
:10140000012917D01221614349198A7832704A881C
:10141000871C120A7270B61C10223046091DFEF796
:1014200055FE1037B8B21036641CE4B22978A142D8
:10143000E5D8F8BDA10049198A7832704A88871C1E
:10144000120A7270B61C02223046091DFEF73EFEDB
:10145000BF1CB8B2B61CE7E710B50C46097801709E
:101460002188090A41706288211D801CFEF72EFE2A
:101470006088801C80B210BD10B50C4609780170E0
:101480002188090A4170A17881706188090AC170B8
:10149000A288A11D001DFEF719FEA088001D80B2C4
:1014A00010BD10B50C460A88891CFEF70FFE208877
:1014B00010BD10B50B788A7802705343DCB2224617
:1014C000401C091DFEF702FE601C10BD10B50B7814
:1014D0008A7802705343DCB22246401C091DFEF795
:1014E000F5FD601C10BD10B50C460A88891CFEF77E
:1014F000EDFD208810BD10B50C460A88891CFEF74A
:10150000E5FD208810BD7FB515460446022901D0AF
:10151000102903D1022B04D0102B02D0002004B0DC
:1015200070BD994202D10A46294607E01029694652
:1015300007D000F00DF8102269462846FEF7D8FDC6
:10154000EDE7104600F004F8102269462046F5E762
:1015500070B50C4605000CD0002C0AD010220649AC
:101560002046FEF7B3FD2878207368786073012069
:1015700070BD002070BD0000D88C021110B50B4664
:101580000122024902F078F810BD000099130211FF
:1015900070B5064608880C46172812D30B4603225E
:1015A0000949304602F068F8050008D1074920884B
:1015B0000988884200D20146304600F0CFF928461B
:1015C00070BD022070BD0000AF1302110862FF1F42
:1015D00010B500231922194602F04EF810BD000084
:1015E00010B50A78002A05D00B460722024902F0FE
:1015F00043F810BD022010BDBD13021110B54A788A
:10160000012A01D0022A08D10A78002A05D00B4607
:101610000522034902F030F810BD022010BD000081
:10162000ED130211024940008968085A7047000012
:10163000FC61FF1F10B50B461D22024902F01CF889
:1016400010BD00005914021110B50B461B220249AF
:1016500002F012F810BD00005914021110B506492D
:10166000002089681723054A02E044000B53401C00
:101670001478A042F9DB10BDFC61FF1FC462FF1F9C
:101680000098022B01D00420704711785278120282
:1016900089180180002070470098012B01D0042098
:1016A0007047117801700020704770B5049C1E4689
:1016B0001546062B1BD3697828780902401820802C
:1016C000E978A87809024018608002222271291D59
:1016D000601DFEF7FBFCB61FB2B22281F02A06D8CD
:1016E0002046A91D0A30FEF7F1FC002070BD042041
:1016F00070BD0098042B01D00420704753781178F6
:101700001B02C91801809178D27812028918418091
:1017100000207047F8B584890D460646002C26D077
:10172000B2681778380620D50C2C20D90C3CA4B20E
:101730001019009001217088234601F0DBFC00287D
:1017400011D0022028707806C00F6870B806800E8D
:10175000A870641E2004000CA88001D0B068401C52
:10176000A8600020F8BD0120ECE70020EAE7012096
:10177000F8BD10B502981146042B14D34C780A78A2
:10178000240212190280CC788A782402121942802D
:101790001B1F9AB28280F22A05D8801D091DFEF710
:1017A00095FC002010BD042010BD0098042B01D032
:1017B00004207047537811781B02C9180180917872
:1017C000D2781202891841800020704710B5029823
:1017D0001146062B03D0142B03D0042010BD022287
:1017E00000E0102202714B780A781B02D2180280A6
:1017F000CB788A781B02D21842800279401D091DDD
:10180000FEF764FC002010BD30B5039CD80718D14A
:10181000D805010E022914D30B488088814210D8C4
:10182000F6200155002008E0557813782D025B1949
:101830004500401C6353C0B2921C8842F4D3002080
:1018400030BD042030BD0000FC61FF1F0098022B5A
:1018500001D0042070471178527812028918018053
:101860000020704770B5144602460498022B18D326
:10187000667825783602AD1905800546E0352A766A
:101880006976002A0BD0E8219B1E9AB242808A42D8
:1018900007D8A11C001DFEF719FC002070BDF42123
:1018A000F2E7042070BD000010B50B461722024974
:1018B00001F0E2FE10BD00007914021110B50B46D4
:1018C0000D22024901F0D8FE10BD0000A314021140
:1018D00010B50A78002A05D00B461122024901F002
:1018E000CBFE10BD022010BDB314021110B50A7852
:1018F000002A05D00B460922024901F0BDFE10BDA9
:10190000022010BDCD14021110B50B460F22024962
:1019100001F0B2FE10BD0000E714021110B50B4635
:101920000B22024901F0A8FE10BD0000F7140211BD
:10193000F72800D9F720084A01461080401EC31737
:101940009B0F18188003000C5080491EC80F4018C8
:10195000C003000C90807047FC61FF1F034A13888E
:10196000994202D89268400011527047FC61FF1FF3
:1019700010B500231322194601F07EFE10BD0000B1
:1019800070B50C460146032000020A1A00253448AF
:101990001300FEF765FB1D1012151C1F2326282CB3
:1019A000303234383A3C3E40424446484A4E505227
:1019B0005A5456585A00C07911E01022294902E0C1
:1019C0002849102210312046FEF780FB45E0C06A0E
:1019D000206042E0224906223C31F4E70078207082
:1019E0003BE0808936E01E4942784231EBE71D49F1
:1019F00082781F39E7E7007AF1E7407AEFE7184984
:101A000006223031DFE7807AE9E7C07AE7E7C0896C
:101A100020E0808A1EE0C0781CE0C08A1AE0008BBB
:101A200018E0408B16E0808B14E00D490622363119
:101A3000C9E7C08B0EE0008C0CE0408C0AE0807996
:101A4000CDE7008A06E0408A04E0272904D2084650
:101A500000F078FA208000E00225284670BD0000E2
:101A6000245FFF1FD57AFF1F70B50E4C00256071F3
:101A7000A571691EE18100F091FB0420E071102244
:101A800000210948FEF7CAFB074810220021103048
:101A9000FEF7C4FBE562257265720720A072E5724D
:101AA00070BD0000245FFF1FD57AFF1FFEB53B4DC0
:101AB0000C4608040CD56879FEF7E6FB050004D057
:101AC00002F086FC2846FEF7E5FB0120C00360E03B
:101AD000600403D5012080034840FEBD2F48E10784
:101AE0000126807900292AD02978002920D00528CC
:101AF00021D0297A68460170697A41702749062207
:101B00003031801CFEF7E2FAA97A68460172E97A60
:101B100041726946687900F02DFA002808D0072044
:101B2000A871696A002903D00968002900D0884794
:101B300020467040FEBD032069460870E4E7A10717
:101B40000DD5052809D1E889FEF7AAFBAA8A002A43
:101B500003D002216879FEF7A1FA022019E060079C
:101B600004D5002002F08CFC042012E0200712D5DE
:101B70002879012802D002280AD107E00096AB8B11
:101B80006A8B298BE88A00F00BF801E000F05AF923
:101B900008206040FEBD0020FEBD0000245FFF1F46
:101BA000F8B5134C069EA579052D01D01420F8BD7B
:101BB000104F851FBD4219D2062917D3BD1DA9425A
:101BC00014D2FF27F537BA4210D20A2B0ED3AB42FC
:101BD0000CD2E08221836283A383304602F050FC62
:101BE00004216079FEF74EFA0020F8BD1820F8BDF8
:101BF000245FFF1F7A0C0000F7B50D46804900985E
:101C0000164642187F4F00247879B9791300FEF701
:101C100027FA190E141BE92040455970777E888FEA
:101C2000E996A2A9B4BFC8E9E9E9E9D3E900102D12
:101C300076D11022314674486FE0102D70D1724871
:101C400010223146103068E0042D69D13068F86206
:101C5000CEE0012D64D13B7832783A70002B0AD067
:101C6000002A07D1022903D0062901D0042901D175
:101C700000F03EF9BCE0002A0AD0012905D0032972
:101C800003D0052901D0042902D10121FEF700FA71
:101C9000AEE0022D44D13088B881A9E01F2D3FD895
:101CA00058481F2200214230FEF7B8FA55482A460C
:101CB00031464230FEF70AFA524B7D7042332A46D3
:101CC000012112E01F2D7CD84F481F2200211F3810
:101CD000FEF7A4FA4C482A4631461F38FEF7F6F9BB
:101CE000494B2A461F3BBD700021787900F0CCFAA1
:101CF00083E0012D65D13078042862D8387277E00E
:101D0000012D5ED1307803285BD8787270E0062D03
:101D100057D13C48062231463030FEF7D7F967E00C
:101D20004FE0012D4DD1307807284AD8B8725FE0D6
:101D3000012D46D13078032843D8F87258E0022D9F
:101D40003FD13288BA82002A52D0052950D10221CF
:101D5000FEF7A4F94CE0012D33D13078012830D8BA
:101D6000F87045E03088022D2BD1062829D319219F
:101D7000C901884225D8F8823AE03088022D20D166
:101D800006281ED31921C90188421AD838832FE0AA
:101D90003088022D15D1FF21F531884211D2788388
:101DA00026E03088022D0CD10A280AD31921C90156
:101DB000884206D8B8831BE03178012D01D1012972
:101DC00001D0182414E00821FEF770FA002801D091
:101DD00016240DE0002002F053FB04217879FEF771
:101DE00051F905E00098272801D2022D02D00224E3
:101DF0002046FEBD318800F0F7F90446F8E7000000
:101E0000FFFCFFFF245FFF1FD57AFF1F1CB50B4CA3
:101E1000A179002901D011201CBD002800D06062EA
:101E2000064907482C31034601910090103B0022DF
:101E3000E179607900F016F800201CBD245FFF1FD7
:101E4000E57AFF1F10B506488179052901D01220D7
:101E500010BDC1891322407900F0D6F910BD0000F1
:101E6000245FFF1FFFB581B01E460D4602240B9F65
:101E70000B00FEF7F5F80D1A0B1A1A0B1A1A1A1A9C
:101E80001A1A1A081A000AA001F02AFD2946019818
:101E900000F0D4F8040008D13A4630460A9900F020
:101EA00083F900F0E7F801F015F9204605B0F0BD20
:101EB0004741505F446576696365496E69743A20AD
:101EC0004741505F50524F46494C455F43454E5441
:101ED00052414C207C204741505F50524F46494C64
:101EE000455F5045524950484552414C200A000038
:101EF00070B5104C2168002904D00978814203D0C4
:101F0000032070BD122070BD0B4D02212878FEF712
:101F1000B9F80A480026468004212878FEF7B2F86E
:101F2000074806802168032048700020FEF7C4F9A6
:101F300070BD00006C62FF1F9D62FF1F8062FF1F6B
:101F40001062FF1F272803D202494000085A704739
:101F5000014870471862FF1FFFFF000010B5044CD6
:101F60006070FEF7AFF90521607800F09DFF10BDAD
:101F70009C62FF1F70B5284E054630680C4600284D
:101F800001D0112070BD254801780520014216D0EE
:101F900023488068002805D00078002802D0C807B0
:101FA00006D101E0102070BD00F044F8002808D0F0
:101FB0002078032805D0022803D0002801D0122061
:101FC00070BD0C20FEF784F93060002820D0057029
:101FD000002141700A222146801CFEF777F802F0AA
:101FE00033FB040002D001F017FD12E00D48007829
:101FF00003280ED11D20FFF7A5FF0B4900280880FC
:1020000007D00B48094A04210078FEF767F900E081
:102010001324204670BD00006C62FF1F0D62FF1F7D
:102020008062FF1F0E62FF1F1062FF1F60EA000048
:102030009D62FF1F10B504F065FC10BD70B50C4625
:1020400005461C2200210948FEF7E8F808480570FB
:102050004470FEF749F90549002803D000200870B4
:10206000122070BD01220A7070BD00006887FF1F3A
:102070000C62FF1F70B50F4C0025A068002802D02D
:10208000FEF738F9A560E068002802D0FEF732F9C3
:10209000E560094805210078084206D0054810305F
:1020A00002F098F801F05AFC70BD002002F092F89E
:1020B000002070BD8062FF1F0D62FF1FFEB5344D12
:1020C0000C46080419D56878FEF7DEF80121C9032B
:1020D0004C40064600280ED001F09CFF002807D196
:1020E0002878FF2804D03146FEF70AF9002802D0EC
:1020F0003046FEF7CFF82046FEBDE0070127002856
:102100000AD0A868002804D04168002901D0002026
:10211000884720467840FEBDA00709D5686800289A
:1021200004D04168002901D00120884702202AE01C
:1021300060072AD5174E308800281FD0401E0004A3
:10214000000C30801ED101F0DDFC002809D01248BF
:1021500007706868002804D04168002901D0012078
:10216000884701F0A9FC694600F00EFF684601F0BF
:102170003BFF1D20FFF7E6FE308003E00421687876
:10218000FDF780FF04206040FEBD0020FEBD000082
:102190009C62FF1F1062FF1F0F62FF1F0149087042
:1021A000704700009C62FF1F70B50E4C0B46261D49
:1021B00007C60546102200211846FEF7A7F8012899
:1021C00003D11021A06805F05FFA102200212846F3
:1021D000FEF79CF8012803D11021606805F054FA3D
:1021E00070BD00006887FF1F272807D2044A91426C
:1021F00004D0044A4000115200207047022070476A
:10220000FFFF00001862FF1FF8B50D4617461D4975
:1022100006461B4A12248868954208D100282DD012
:102220000268002A2AD029463046904723E0144A03
:10223000521C954213D1002807D00268002A04D00E
:10224000294630469047040005D03946304601F013
:102250005FFB040012D10B48067047700EE0284661
:1022600004F0F4FA002809D00078B04205D13946CC
:102270002846FEF751F8044600E003242046F8BD46
:10228000FEFF00007062FF1FF8B50E4601461948B8
:102290001546007805221F46104028D0304326D02E
:1022A0001548012E1BD0C468002C20D01F2D18D833
:1022B000002D01D0002F14D001701F220021601CBE
:1022C000FDF7ACFF2A463946601CFDF7FFFE2846A5
:1022D0002570002E07D0611CFEF724F8F8BD846835
:1022E000E2E70220F8BD611CFEF722F8F8BD1220DB
:1022F000F8BD00000D62FF1F8062FF1F014610B590
:102300000020C90704D0034A0421034800F0FEF965
:1023100010BD0000AC8C0211A85FFF1F10B5002398
:1023200009E01C012418E468944202D1190108183C
:1023300010BD5B1C9BB28B42F3D3002010BD00008C
:1023400070B50F4D0F4CA87029461831204600F08B
:102350001DF8002128460B461030CA00845212187E
:10236000491C09065360090EF7D0012003F062F8FA
:10237000A87800F095FB044804F0DAFA70BD00007C
:10238000885FFF1FFFFF0000494C021170B50A4C27
:102390000025A04209D1002082008C525218401C16
:1023A000C0B295700228F7D370BD02F01CFC002863
:1023B000FAD00480857070BDFFFF0000F8B50E46AE
:1023C0000746069900240798002902D00B242046CE
:1023D000F8BD022B01D00D24F9E7117852781202D2
:1023E00089188DB22946814301D08024EFE7384611
:1023F000F16800F083F9A842E9D02A463846F1682E
:1024000000F0EEF90400E2D171892A46384600F066
:10241000ABF9DCE7FFB50446C1B01F4600881E4A91
:1024200000254A9B904233D0A078002830D00A463D
:1024300019463846FFF772FF060029D0174A208850
:1024400012684100515C0023C91EC9B203AA0232BE
:102450000193029100927A8904AB314600F03CF876
:10246000002815D1708969468881A078C00705D0F9
:10247000208803A9439A00F0E1FA0546A078800776
:1024800006D5208803A94B9B439A00F079FA0543AF
:10249000284645B0F0BD0000FFFF00000462FF1FAA
:1024A00070B50C46080412D50A488078FDF7ECFE9A
:1024B000050008D02878B02802D1284602F0B0FCE8
:1024C0002846FDF7E7FE0120C003604070BD0020F4
:1024D00070BD0000885FFF1FFFB587B0087A002538
:1024E000109E1C460F46C0060DD5099802F074FBDD
:1024F000030006D00A22394607989847050035D1CF
:1025000001E00E2532E0387802281DD178682922B2
:102510000178407812020002081880B2811A9042B5
:102520007ED009DC7249401A23D0012821D002282C
:1025300051D0032808D125E0012972D0022971D099
:1025400003296DD004296ED0099802F06DFB002894
:10255000D7D00568002DD4D0129911980191009020
:102560003346224639460798A847054628460BB009
:10257000F0BD1198002873D1F86801783180027895
:10258000416897E0119800286AD101203080F868EE
:102590000021007820707889401C80B200F04EF94C
:1025A00000280FD0318802788918891C3180817AFF
:1025B00061704189090AA17002784168E01CFDF749
:1025C00085FDD3E730880422001D30800021601C87
:1025D000FDF724FECAE71198002872D1F86804A913
:1025E0000088009004203080009820700098000A35
:1025F0006070009800F022F9070028D0F868059074
:102600006846028A03AB3B49384600F06FF9002860
:102610000FD13B78022138487A68FEF774FF03E057
:1026200027E031E01DE049E0002802D13148694649
:1026300088810598007802280CD10598022241680B
:10264000201DFDF743FD3088801C308002E0694684
:102650000098888168468089A070000AE07085E74C
:102660002FE0119800282CD1F968079800F046F85F
:1026700004E01198002824D1F868008802213180F4
:102680002070000A607071E7F868FDF757FE119935
:10269000C0B2814210D8814201D1002206E0129AD4
:1026A0008918814202D31199401AC2B23280F96866
:1026B00011980918204682E7072557E71198002846
:1026C00001D00B2552E70721F8683180017821708D
:1026D000417861708178A1704188090AE1700179BF
:1026E000217181796171C088000AA0713EE7000004
:1026F00000280000FFFF00004E8D021110B502F00F
:1027000072FA002800D0807810BD00007CB5144615
:10271000050019D068460195018000F0C7F9030053
:102720001DD1002C1BD06D89002D0DD00C20FDF784
:10273000CFFD00280AD0002303608580094A846009
:102740009168002904D006E0022308E0132306E084
:10275000906004E011460A68002AFBD10860184620
:102760007CBD0000885FFF1FF8B50C4C0746207841
:1027700015460E46FF280FD00A20FDF7E5FD0100A3
:102780000AD0B12008700020487008714F80CE80B8
:102790000D812078FDF7B4FDF8BD0000885FFF1FB4
:1027A000FFB583B008461F4601A90C9E00F046F80D
:1027B000050012D06846808802F036FA00280AD058
:1027C0004468002C07D000963B462946059A03989A
:1027D000A04707B0F0BD0E20FBE70120F9E700009D
:1027E00070B514460E46054602F0FDF9002806D1E4
:1027F0003146054802F0F7F9002803D005808470BF
:10280000002070BD112070BDFFFF000010B50178E1
:10281000B0290BD14178002908D10179122906D0BD
:102820001B2903D14088012100F0BAFA10BDFF2115
:102830000231095C0129F5D010BD0000F0B58C46CD
:1028400010494B6819E09F687C89A04214D39E8888
:102850003119814210D900220CE011017D186989DB
:10286000814205D16046002800D004802846F0BD92
:10287000521C92B29642F0D81B68002BE3D1002084
:10288000F0BD0000A862FF1FFFB5174881B00A9F86
:10289000446824E000251EE0A068290146187089DC
:1028A0000199884215D30299884212D804980028C9
:1028B00007D031787068049B039AFEF724FE002845
:1028C00007D0002F02D0A06840893880304605B07C
:1028D000F0BD6D1CADB2A088A842DDD82468002CE4
:1028E000D8D10020F3E70000A862FF1FFEB517460D
:1028F00000256A469580044640891D4A1E4690423E
:1029000008D001AA0092401C237880B26268FFF7C9
:10291000BBFF05462378022116486268FEF7F3FDE7
:10292000002807D12378022113486268FEF7EBFDE7
:10293000002801D060890EE0237802210F486268E8
:10294000FEF7E1FD00280DD0002D03D068468088F9
:10295000B84203D0384602F081FE04E06889401E88
:1029600080B200E06089002E00D030802846FEBD95
:10297000FFFF00004C8D02114E8D0211528D02118D
:10298000FFB581B00F461E4614466946019801F016
:1029900071FF050018D1002C06D0012210210198EA
:1029A00003F02EFF05000FD139460198FEF742FED5
:1029B000050009D1009CFF2E06D021461E22A31C33
:1029C000034802F057FEE670284605B0F0BD00004F
:1029D0006155021110B505490870042100F064FA30
:1029E00000F006F8FEF73AFE10BD0000B462FF1FCB
:1029F000F8B50F4D0D4B00206E1C1C78FF2209E02E
:102A00009F688100C91900280ED00E80CA70401C32
:102A10008A70C0B2A042F3D3064802F0CFF806484D
:102A200003F086FF0020F8BD0D80EFE7A862FF1FCE
:102A3000FEFF00008D550211E1540211F8B50D465C
:102A400014460646694601F015FF17280CD0002CE5
:102A500006D001221021304603F0D2FE002803D117
:102A600029463046FEF7F0FDF8BD000070B50C4673
:102A7000080411D509480078FDF706FC050007D0C9
:102A80000178A02901D102F03DF82846FDF702FCAB
:102A90000120C003604070BD002070BDB462FF1F04
:102AA0000149487070470000A862FF1F70B50546D5
:102AB000008800281DD068680221037842682248F7
:102AC000FEF721FD002808D16868022103784268DA
:102AD0001E48FEF718FD00280BD01D4C608800280A
:102AE00005D0012229881204101A814203D901203D
:102AF00070BD022070BD0C20FDF7EAFB060001D07E
:102B000000200BE0132070BD01016B6862880A3160
:102B10005A526188491C401C618080B229888142D8
:102B2000F2D80020306008222946301DFDF7CEFA89
:102B30006068002802D1666004E008460168002948
:102B4000FBD10660002070BD4C8D02114E8D02112C
:102B5000A862FF1F0649496806E08A6852898242D6
:102B600001D18888704709680029F6D10020704794
:102B7000A862FF1F10B51422114201D0012202E009
:102B80004A0604D50022102103F03AFE10BDC80702
:102B900001D0002010BD022010BD10B514468A06D9
:102BA00004D50122102103F02BFE10BD8822114212
:102BB0000ED008220A40102103F022FE00280BD07C
:102BC000E034617E0029F0D0217E0129EDD103E0BF
:102BD000880701D4032010BD002010BD014610B5A8
:102BE0000020C90704D0034A07210348FFF78EFDE0
:102BF00010BD0000988C0211B05EFF1F70B50D462D
:102C0000164600241D490300FDF72AFA0805123470
:102C1000341934222934152D23D8162200211848BE
:102C2000FDF7FCFA2A4631461548FDF74FFA22E037
:102C3000022D16D111491088103908801BE0082D8B
:102C40000FD10E48082231460838FDF783FB12E009
:102C5000012D06D1CA6909493078283107E0012DD4
:102C600001D0182407E0CA6B04493078483102F0DB
:102C7000C2FD00E00224204670BD0000B05EFF1FD0
:102C8000A07AFF1FF0B5069F099E002833D01028B8
:102C900031D800292FD0002A2DD0002B2BD0002F87
:102CA00029D0079C002C26D0089C002C23D0002E75
:102CB00021D00A9C002C1ED0104C851D2070657000
:102CC000A26061600E490F4A0B60059911600E49C0
:102CD0000E4A0F60079911600D4A089911600D495D
:102CE000401C08700C490E600C4908700C490A9889
:102CF00008600020F0BD1820F0BD0000C462FF1F76
:102D00000863FF1F0462FF1F7C62FF1FF462FF1F46
:102D1000F862FF1FE862FF1FEC62FF1FA862FF1F3F
:102D2000B062FF1F0B7803700B8802221B0A4370EE
:102D30000B88801C012B02D0022B07D011E08A786F
:102D400002704988090A417004220AE08A780270F8
:102D50004A88120A42700A7982708988090AC17009
:102D6000062210467047000008B5044B0093134636
:102D70000A46012103F094FC08BD0000252D021134
:102D80001CB50323019200930A46024B122103F063
:102D9000B7FC1CBD795F021110B5FDF7E1FA10BD5B
:102DA00013B504480078012803D101AA6946FDF74C
:102DB000DDFA1CBDC062FF1F70B51049104A0870D3
:102DC00000210B468C00491CC9B213530429F9D3C6
:102DD0000B4C00211034FF260A460A256A431519B8
:102DE0006B80491CA354C9B26E720329F4D3FDF75A
:102DF000C3FA03F00BFC03F05FFD70BDC162FF1F5F
:102E00008487FF1F082A01D0012070474B780A7879
:102E10001B02D2180280CB788A781B02D21842801B
:102E20004B790A791B02D21882808A79C979090202
:102E30005118C1800020704770B50C46080411D5A8
:102E400009480078FDF720FA050007D0017890299D
:102E500001D103F03DFB2846FDF71CFA0120C00319
:102E6000604070BD002070BDC162FF1F70B50C498D
:102E70000978884213D20B4C0601606800258553FF
:102E800030188581606830188580606830188068E7
:102E9000002804D0FDF776FA60683018856070BDB0
:102EA000C462FF1FF062FF1F072907D0052905D064
:102EB000042903D0062901D002207047044A8B0060
:102EC0009A181346403B1986203A907400207047A8
:102ED0008487FF1F70B517490978884228D25C2182
:102EE000154C4843A168054640180026403006743A
:102EF000A068281840304674A0682818403006762C
:102F0000A0682818406D002804D0FDF73BFAA0689F
:102F1000281846650026A068F10028184018406867
:102F2000002801D0FDF72EFA761CF6B20A2EF2D355
:102F300070BD0000C462FF1FF062FF1F70B50A88F9
:102F40000C460546072A07D0052A05D0042A03D0D7
:102F5000062A01D0022070BD012103F01BFD0028CC
:102F600004D02146284603F01DF870BD142070BD22
:102F700010B5001D80B2FDF70BFA002803D0032125
:102F8000C943FDF70BFA10BD38B50C46050014D047
:102F9000002C12D00321684604F076FB694688783D
:102FA00040218006800E08436946887022462846E4
:102FB00005F0C2F8050002D006E0022038BD032269
:102FC0006946E01CFDF782F8284638BDF7B58EB09B
:102FD0000E9815460E4600282DD0002D2BD0301D02
:102FE000C0B20190FDF774F9040039D000F070FD13
:102FF00007463246201D0E99FDF7D6F9F8B2089023
:10300000E0703804000E0B90A0703802000E0A9099
:1030100060703F0E277000F055FD0146102202A897
:10302000FDF7C2F906AB214602A8019A04F0DAFFC7
:10303000060003D010E0022011B0F0BD08982870FF
:103040000B9868700A98A870EF70082206A9281DCE
:10305000FDF7AAF900F042FD2046FDF74BF900E02C
:1030600013263046E8E7000010B5064C2070FDF747
:10307000A1F906212078FFF717FF034803F058FC59
:1030800010BD0000DC62FF1FE176021170B50C4636
:10309000080419D50D480078FDF7F6F805000FD0A3
:1030A00004F044FC002808D109480078FF2804D027
:1030B0002946FDF725F9002802D02846FDF7EAF851
:1030C0000120C003604070BD002070BDDC62FF1FA6
:1030D0009C62FF1F10B505480078400701D50448E1
:1030E00000E0002004F0AAFC002010BD0D62FF1FCC
:1030F000D062FF1FFFB58DB00F98169C0E460028BA
:1031000015D0002C13D00D9803F0A0FB050011D0B2
:103110006178207809024018A178E2780904120643
:1031200089184718286AB84206D3401C04D00220E8
:1031300011B0F0BD1420FBE7002E04D028798007E1
:1031400001D40120F4E70822002106A8FDF766F863
:103150001098001DC0B20190FDF7BAF8060017D014
:10316000301D109A0F99FDF71FF9042221463046B1
:10317000FDF71AF91022A91802A8FDF715F906ABF8
:10318000314602A8019A04F02DFF050002D013E099
:103190001320CDE7082206A908A8FDF705F90822A3
:1031A000211D08A8FCF7A4FF012801D0012503E098
:1031B00039460D9801F0A2FA3046FDF79BF82846F3
:1031C000B6E7000030B5694CC1B0607206211F201F
:1031D000FFF70AF800206946087201220A730722E5
:1031E0000A74888218228A83192252010A848884E8
:1031F000FF20F53008855EA003C80191009020787B
:103200006946087606AA01215B48FEF7F5FC5A4894
:103210006A460621801CFEF7EFFCC32004AA0121A8
:103220008000FEF7E9FC544802AA0121001FFEF7C6
:10323000E3FC514805AA0221C01EFEF7DDFC214631
:103240005631084611223838FCF740FF22466120EB
:103250001C321C21C000FEF7CFFC47482246383202
:103260001E21801EFEF7C8FC312003AA01210001A7
:10327000FEF7C2FC404807AA02210830FEF7BCFC5A
:103280003D4808AA02210930FEF7B6FC3A4809AACF
:1032900002210A30FEF7B0FCC5200AAA02218000F4
:1032A000FEF7AAFC2246563215210020FFF7A6FCA5
:1032B000A02529460620FEF797FF29460720FEF79E
:1032C00093FF29460820FEF78FFF29460920FEF7C5
:1032D0008BFF0025ED432846FFF780FC2846FFF7CB
:1032E0000DF8284600F01CF90F20694608700020F0
:1032F00001A901E0062801D2002200E002460A549A
:10330000401CC0B2FB28F5D36A460121032000F01F
:1033100055F901AAFB21042000F050F917490020BB
:103320000854401CFF28FBDB1048103000F03CF92B
:10333000F7250120FDF744F80120FDF747F828465E
:10334000FEF7F6FA29460EA000F0CAFA0121607ACB
:10335000FCF79EFE607AFEF721FF1048FDF73CF86F
:103360000F4800F0BDFA41B030BD00001461FF1FEE
:10337000010203040506000009030000AC82FF1FE0
:103380005B324D627073207C20444C45207C204D84
:1033900054552025645D200A00000000F080FF1FC6
:1033A000EC8D0211FEB5454C0D46080414D5607A2B
:1033B000FCF76AFF04000CD02078912806D16078D1
:1033C0000E2803D1A1883EA000F08AFA2046FCF71F
:1033D00061FF0120C0036CE0E8070126002808D047
:1033E00036481430FEF712FDFCF7FCFF284670400B
:1033F000FEBDA80702D502204840FEBD280708D51B
:10340000684606706A4601213848FEF7F5FB082039
:103410004FE068074FD50027354E35E0A089010AF7
:1034200031707070002F18D169460020FCF7E0FF62
:1034300001A90020FCF7E2FF02A90020FCF7E4FF4D
:1034400068460078707468468088FF38FF38023814
:103450008010B0746846007AF0740020FEF7E2F83D
:10346000C01EC1B2224A052003F038FFA289010024
:1034700003D020A000F034FA09E024A000F030FAD4
:10348000A089401CA0817F1CA0788742C6DB62898E
:10349000002A07D0E07800280AD10421607AFCF7DE
:1034A000FDFD05E00421607AFCF7ECFD0020A08121
:1034B00004206840FEBD0020FEBD00001461FF1F17
:1034C0003D3D3E204843495F434F4D4D414E445F93
:1034D000434F4D504C4554455F4556454E545F4310
:1034E0004F44453A2025780A0000000005030000FB
:1034F000AC82FF1F5B4E4F54465F545820455252DA
:103500005D2025303278202534780A005B4E4F54F8
:10351000465F54585D2025303278202534780A00E3
:1035200070B50546002409490948FEF72FFF0948F0
:1035300003F0FEF9E80706D00448074A0E210830D8
:10354000FFF7E4F80446204670BD0000FC5FFF1F53
:10355000FFFF0000AD720211CC8C021170B5002487
:103560000D46032806D0042808D006280CD00224D3
:10357000204670BD094800780870F9E70020FEF782
:1035800051F8C21E064904E00020FEF74BF8054939
:10359000C21E2846FCF79AFDEAE70000EC5FFF1F19
:1035A000E07DFF1FD67FFF1F002803D0024948603F
:1035B0000020704711207047EC5FFF1F10B50024FA
:1035C0001346032806D004280AD006280ED0022469
:1035D000204610BD012911D1094910780870F7E77C
:1035E000FB290BD80A461946064804E0FB2905D8F2
:1035F0000A4619460448FCF769FDE9E71824E7E79D
:10360000EC5FFF1FE07DFF1FD67FFF1F002805DB5B
:10361000C106C90E012088400149086070470000BA
:1036200000E100E08307FF22DB0E9A408907090EC4
:103630009940002808DB830809489B001B1818687C
:1036400090430843186070470007000F083883084C
:1036500004489B001B18D86990430843D861704701
:1036600000E400E000ED00E00A4610B5014600204D
:10367000FCF7D0FE10BD0000FFB583B016460F4624
:103680001B2A01D0522E04D10398FCF7C9FE002852
:103690001BD01D49039889684000085AFFF768FC51
:1036A00004002DD00125601C2670002F03D0069940
:1036B000B847401C85B2300613D51021039803F09B
:1036C00069F9002804D0192616E0132007B0F0BDD0
:1036D0006219E9B22046FFF779FC06000CD10C35DF
:1036E000ADB20421684601800194058169460398C2
:1036F000FFF724FC060004D02046FCF743FE00E060
:1037000013263046E2E70000FC61FF1F10B586B0CB
:10371000044614220FA16846FCF788FE12493020A7
:103720000870782048700620891C6A46A41D641E13
:103730002378401E1B09D35C0B70237800061B07FF
:103740001B0FD35C4B70891C000EF0D1087006482B
:1037500006B010BD30313233343536373839414256
:103760004344454600000000E080FF1FF0B5002004
:103770008BB009900746064605460890079025A09D
:1037800000F0AEF828A000F0ABF8002404A9204611
:10379000FCF752FE6846838AC28A018B408A0393F3
:1037A0006B4607C36846038A428B21462AA000F075
:1037B00097F86846418B0798641C081880B20790F8
:1037C0006846018A0998E4B2081880B209906846F0
:1037D000418A0898081880B208906846008B401902
:1037E00085B26846C08A801986B26846808AC01948
:1037F00087B2252CCAD323A000F072F86846E0C037
:103800002CA0089B099A079900F06AF8FCF71AFEA9
:103810000BB0F0BD5B504552205354415453204EE1
:103820006F746966795D0D002D2D2D2D2D20636837
:1038300020636F6E6E4E2072784E756D20727843E5
:103840007263207278546F4E20747841636B2074D9
:1038500078527479200D00005B5045525D20253070
:1038600032642025303564202530356420253035FC
:1038700064202530356420253035642025303564BA
:103880000A000000544F54414C20636820636F6E5F
:103890006E4E2072784E756D20727843726320727E
:1038A00078546F4E20747841636B20747852747929
:1038B000200D00000A5B5045525D202D2D20253043
:1038C0003564202530356420253035642025303599
:1038D00064202530356420253035640A000000005E
:1038E0000FB410B503AA0448029903F065F810BCA0
:1038F00008BC04B0184700006936021138B5034B04
:1039000000240FCB0094FCF7A3FD38BD808C02117E
:1039100010B50C4602F0B2FF002804D040882146C2
:10392000FCF7FAFC10BD122010BD0022002913D0B4
:10393000002811D0012806D04A799206920E4A71C9
:10394000032805D007E04879C0221043487102E0FF
:10395000402002434A7101221046704770B5124858
:1039600000250078052108421BD02020FCF7B0FC80
:103970000E4C0028A06013D020220021FCF74EFC42
:103980002020FCF7A5FCE060002804D020220021C4
:10399000FCF744FC05E0A068FCF7ACFC0020A0604C
:1039A0001325284670BD00000D62FF1F8062FF1FB7
:1039B000002909D0012807D1497989098901C0293D
:1039C00002D0402901D00220704703207047FFB584
:1039D00000200E4608701AE01C5C401CC5B2002C8A
:1039E00017D02819904214D85F5D6D1CEDB238468F
:1039F00000F0ADFE002806D0641EE0B230700099E1
:103A00008F4202D1581904B0F0BD4019C0B29042A3
:103A1000E2D30020F7E7000010B5044C206800282E
:103A200003D0FCF767FC0020206010BD6C62FF1F14
:103A300070B5104D8400E8680059002819D0006A5C
:103A4000002801D0FCF756FCE8680059406A0028BD
:103A500001D0FCF74FFCE8680059806A002801D0CB
:103A6000FCF748FCE8680059FCF744FCE9680020D2
:103A7000085170BD7062FF1F10B5044C60680028CB
:103A800003D0FCF737FC0020606010BD7062FF1FA0
:103A9000011E044805D104498978002901D0024853
:103AA000801D70477887FF1F0C62FF1F01488078D8
:103AB000704700000C62FF1F01484068704700001B
:103AC0006887FF1F01488068704700006887FF1FF4
:103AD0000148C068006870476887FF1F10B5074835
:103AE000C0680168491C016005480078FF2803D0C0
:103AF00001218903FCF7CCFA10BD00006887FF1F85
:103B00000C62FF1F02484068002800D00120704767
:103B10006862FF1FFFB581B00F460D9E0A9D039896
:103B200002F094FE040042D0019800283FD1207991
:103B30001021084320710499490702D50221084346
:103B400001E0FD21084020710B99284608430C999B
:103B500008433043207902D00421084301E0FB21CF
:103B600008402071002E06D03069102220623146B4
:103B7000A018FCF7ABFA002D01D0002F05D00B9850
:103B8000002814D0012F08D011E0606A002801D06D
:103B9000FCF7B0FB1C21284606E0606A002801D033
:103BA000FCF7A8FB1C210B98FCF758FC60620398FB
:103BB000274C8700E068C059002846D0002D11D05E
:103BC000006A002807D11C20FCF782FBE16800286E
:103BD000C959086206D0E0681C22C0592946006A0B
:103BE000FCF774FA0C98002813D0E068C059406ABA
:103BF000002807D11620FCF76BFBE1680028C959A3
:103C0000486206D0E0681622C0590C99406AFCF759
:103C10005DFA002E13D0E068C059806A002807D1F1
:103C20001420FCF755FBE1680028C959886206D0CA
:103C3000E0681422C0593146806AFCF747FA0B9BB2
:103C4000049A0399019803F017F905B0F0BD00003C
:103C50007062FF1FF3B581B0019802F0F7FD050017
:103C600029D00E20FCF770FB040024D02620FEF79C
:103C700069F9060000D12E78D020207000276770E7
:103C80000B20A0700622E91DE01CFCF71FFA01982A
:103C900060810298C1070120002901D0207300E053
:103CA00027730299890701D5607300E06773F0B24A
:103CB0002146FCF725FBFEBD10B581881F4B012472
:103CC000CA1A994237D011DC1D4BCA1A994219D031
:103CD00007DC1C4A8A1810D0022A1ED0032A29D1D8
:103CE0001BE0472A27D0482A24D124E01300FCF700
:103CF000B7F906212222222222218068007800F0D2
:103D0000E7FC08E08068827841781202891889B25D
:103D1000007800F03DFD04460DE0094A921E9142F4
:103D200001D1012200E0002280680178104600F0F5
:103D300017FD00E00024204610BD000053200000C5
:103D40000A200000FADFFFFF70B51A4D1A4A01463B
:103D5000002628781268194C01290CD0002A09D0B5
:103D600017490978490705D50221FCF78BF96680C8
:103D7000FFF752FE70BD6188002903D0114B1B78FC
:103D8000002B05D0002AF5D01078FEF7B1F870BDF1
:103D90003C2902D33C39618070BD0221FCF772F9E5
:103DA00062887D20C000424302212878FCF776F922
:103DB000668070BD9D62FF1F6C62FF1F8062FF1FE7
:103DC0000D62FF1F0F62FF1F08B541890091038933
:103DD000C2888188C07800F0C7FB08BDF0B50446F2
:103DE0008088A12189004843304987B0096840187C
:103DF000FF30FF300230A1794167002C54D02C4DA8
:103E00006868002823D006782A480068002804D073
:103E10004168002901D0002088472146E079083117
:103E20000591FFF7C5FDE0710246277D638A218A6F
:103E3000E089019002A88AC0A0880090E07831460D
:103E4000059B03F091F8E078002802D00DE01A48B5
:103E5000D9E7E079E2896B46059907C3A379A18880
:103E60000122304602F0A0FCE0706868002811D002
:103E7000FFF702FE287800280CD06978FFF748FD8C
:103E8000002807D0E078A2880346297803F099F843
:103E900000202870A0881721FDF760FDA088FEF79C
:103EA000E5FFA088FFF716F807B0F0BD3409FF1F43
:103EB0007062FF1FA062FF1F0C62FF1F70B50446F7
:103EC0000025808802F0C2FC002803D00578A08875
:103ED00002F044FD134E3078002808D0854206D108
:103EE0007178FFF715FD002809D000203070002DF3
:103EF00005D0A379A288A078294603F062F8A088AB
:103F0000F26881005158002901D0FFF791FDA08887
:103F10001721FDF723FDA088FEF7A8FFA088FEF774
:103F2000D9FF70BD7062FF1F70B58288294D0124D2
:103F3000531B2949AA4242D019DC284D531BAA42DF
:103F400018D00BDC264BD21826D0254B1033D218B4
:103F50001ED0032A17D0042A39D10BE0012B09D037
:103F6000022B07D0032B21D0042B30D11AE0433B86
:103F7000072B2CD8496800292AD00968002927D0A6
:103F80008847044624E08068007800F0ADF81FE020
:103F9000806800F001F9F4E78068411C007800F0C7
:103FA000D9F8EEE783681B78002B11D089680029C7
:103FB0000ED00B6808E0014610469847E1E7094932
:103FC0000968002904D04B68002BF4D100E00024DC
:103FD000204670BD0E2000009C62FF1F08200000DC
:103FE000F7EFFFFF7862FF1F10B5094CA178002999
:103FF0000CD001460622A01DFCF768F8A11DA07890
:10400000FFF793FCA01DFCF7BDFA10BD002010BD0A
:104010000C62FF1F1CB52F49037801240A68912BFD
:1040200002D0A22B2ED13EE04178052909D00E29DD
:1040300004D00F2908D03E2924D115E0FFF774FFE2
:1040400010E0FFF73BFF3AE001468088224B012455
:10405000C31801D0062B15D1002A30D05268002A8F
:104060002DD0904704462AE081780124032917D0F7
:1040700004DC012911D0022904D105E015291ED044
:1040800016291CD000241AE014498968002916D08A
:104090004968002913D0884711E0FFF79FFE0EE022
:1040A000FFF792FE0BE00E490978042909D0002A97
:1040B00005D05268002A02D001460A48904720469F
:1040C0001CBD00216A46118001794088FEF74CFE34
:1040D000F5E700007862FF1FF3DFFFFF9C62FF1F20
:1040E0000D62FF1FFFFF0000F8B5164F0646BD1F0B
:1040F0002878FF2814D00A20FCF726F904000FD0F6
:10410000D020207066700820A070A878E070062289
:104110003946201DFBF7DAFF21462878FCF7F0F836
:10412000E87801280DD108480068002803D080688D
:10413000002800D080470648044A04210078FCF794
:10414000CDF8F8BD1262FF1FA062FF1F60EA0000F9
:104150009D62FF1F70B500240546002805D1002987
:1041600003D006220B48FBF7B1FF0A48103801784C
:10417000012907D10124002D06D000210170284615
:1041800000F0CEF9204670BD02210170FCF76CF9F9
:10419000F8E700007887FF1F10B50024002813D02F
:1041A00002780B49002A03D14288CA8202790A7632
:1041B0000A78022A08D102780124002A06D00022B7
:1041C0000A70007800F0ACF9204610BD0322F7E732
:1041D0006887FF1F01494860704700009C62FF1F0D
:1041E000F8B5794C87780146002507266079A279D1
:1041F0003B00FBF735FF0805381C39396196CC3890
:10420000487800285ED1704806223C30C91CFBF774
:104210005DFF0120A0716278002A07D06A4B01215E
:1042200042336079FEF730F800284BD1A5E00F4605
:104230004978002946D1F978002906D0634BA27845
:104240000021FEF721F878700AE0022A0BD0012144
:10425000FCF72CF8002803D101216079FBF718FF47
:10426000787800282ED1F8BD497800292AD1032F6B
:1042700009D0A289002A0CD0217800290AD0012176
:10428000FBF70CFF06E0052A01D0022012E0062011
:1042900010E02570A079062802D0042802D008E09A
:1042A000052007E00120207001466079FBF7F0FE51
:1042B00063E00320A07160E048780F46002803D037
:1042C00031282CD0A67158E03F480622391D3630DF
:1042D000FBF7FCFE7889E081B8892082F88960824A
:1042E0000520A071A28A002A03D002216079FBF781
:1042F000D5FEB889E083F8892084388A6084E07824
:1043000001280AD11F20FDF71DFE7D21C900484369
:10431000024604216079FBF7C1FE25702DE025706F
:10432000C7E729480E46062200213630FBF776FF04
:10433000E5832584658404216079FBF7A3FE0821C9
:104340006079FBF79FFEB07908280BD00320A0719D
:10435000607800280ED02078002805D06079FDF71D
:10436000C7FD07E00420F2E70120207001466079D4
:10437000FBF78EFE0020C043E081606A002800D178
:1043800071E701680029FBD0A0798847F8BD0D4688
:104390000821FBF777FE68780028F7D1E888E083EA
:1043A000288920846889608404216079FBF77EFF76
:1043B0000028EBD1A06A0028E8D00368628C218C29
:1043C000E08B9847F8BD0000245FFF1FB67AFF1FFF
:1043D00010B50178224C912906D0A22926D0D029E7
:1043E00001D1FFF7FDFE10BD41780E29FBD1818878
:1043F0001C4A91420FD1816803200856A1790529F2
:10440000F1D17F28EFD0616A0029ECD049680029FA
:10441000E9D0884710BD144A9142FBD18068837867
:104420004278017811A0FFF75BFA10BD417913299A
:10443000FBD10089012802D12079022808D005206B
:10444000FDF780FD024608216079FBF727FE10BDCD
:1044500008216079FBF716FEFDF7F4FC10BD0000A3
:10446000245FFF1F05140000222000005B48434921
:1044700020444C455D25642025642025640A000005
:104480007CB5154C0546E08BE18A88420AD3218B26
:10449000884207D8208C618B884203D1608CA18B25
:1044A000884217D00520FDF74DFD0646E18A684693
:1044B0000180218B4180618B8180A18BC1806279D9
:1044C0006946E089FEF75CFC257132460821607977
:1044D000FBF7E4FD7CBD0000245FFF1FF8B5074635
:1044E0000E46084602F0B2F9040018D02620FDF767
:1044F00029FD050000D125780620FBF725FF0400E3
:104500000DD006220021FBF789FED02020706770B5
:104510000E20A070A680E8B22146FBF7F1FEF8BDA0
:1045200070B50F4D06462878FF2818D00E20FBF7EF
:104530000BFF040013D0D020207066700020A07004
:1045400006220849E01CFBF7C1FD06481038C18A65
:104550006181007E207321462878FBF7D1FE70BD73
:104560000C62FF1F7887FF1FFFB581B01E461746FC
:104570000D460C20FBF7E8FE040013D0284602F09D
:1045800065F9002810D00078D02121700199617060
:104590000721A170A580E78026810A9961812146C3
:1045A000FBF7AEFE05B0F0BD0048ECE70C62FF1F64
:1045B00070B50D4D044628680E46002812D006201E
:1045C000FBF7C2FE010009D0D02008704C70032018
:1045D00088708E8028680078FBF792FE002C01D04E
:1045E000FFF71AFA70BD00006C62FF1FFFB581B0C3
:1045F0001F460E46084602F029F9050022D0102079
:10460000FBF7A2FE04001DD010220021FBF706FEDE
:104610002620FDF797FC002800D12878D0212170B2
:10462000019961700F21A170A680039921726772B0
:104630000A99A1720B99E1720C99E160C0B221460E
:10464000FBF75EFE05B0F0BDF0B51F4D85B02868E4
:10465000002837D08778FDF7EDFC002805D00A2028
:10466000FDF770FC04900B200EE001F053FC0028D5
:1046700005D00620FDF766FC0490072004E0082022
:10468000FDF760FC04900920FDF75CFC04460F4830
:104690000078002814D001262968C878091DFFF782
:1046A00044F929686D46CA7A8B7A091D0BC50392B5
:1046B00033463A4621460498FBF7DCFE05B0F0BDD0
:1046C0000026E9E70120F9E76C62FF1F0E62FF1F79
:1046D00010B50949096800290CD0002805D101202E
:1046E0004870FBF7E9FD002802D00021FFF760FFCA
:1046F000012010BD002010BD6C62FF1FF8B50C46F4
:1047000002F0A4F8020021D026201462FDF71AFC62
:1047100005062D0E00D115789679D01D0090102039
:10472000176AFBF711FE040010D0D0202070002083
:1047300060700920A070E6700622201D0099FBF72A
:10474000C5FC21462846E760FBF7DAFDF8BD411EAF
:10475000152903D9FF2801D0002070470120704798
:1047600070B50A4E054630780C46FF280DD004205F
:10477000FBF7EAFD010008D0D02008704C70022041
:104780008870CD703078FBF7BBFD70BD8062FF1F75
:10479000F3B5284D81B0286800284AD04078264ECD
:1047A000012803D03078002831D041E001F0B2FB7D
:1047B000224F002813D00120FDF7C4FB04464128F6
:1047C00008D91F4A02213878FBF788FD1D483C3C78
:1047D00044800EE07D20C0002246424303E00020DA
:1047E000FDF7B0FB0246002A03D002213878FBF720
:1047F00055FC2968022048703078002802D000203B
:10480000307015E002990198FFF7D2FE10E0032006
:10481000019CFBF799FD010008D0D02008704C7076
:104820000420887028680078FBF76AFDFFF7F4F829
:104830000120FEBD6C62FF1F0F62FF1F9D62FF1F04
:1048400060EA00008062FF1F30B5094A002113783A
:1048500009E095688C002C5B844202D188004019E5
:1048600030BD491CC9B29942F3D3002030BD0000CD
:10487000A862FF1F10B50C46FFF7E6FF00280DD019
:10488000002C00D020608078FE2803D0FF2803D0C1
:10489000162010BD172010BD002010BD022010BD35
:1048A000FFB581B0FF201E46174605300A9DFBF775
:1048B0004BFD04001BD0B020207067700298608010
:1048C0002671002D06D02046FC2229460830FBF731
:1048D000FDFB05E02046FC2200210830FBF79EFC92
:1048E00021460198FBF70CFD002005B0F0BD132018
:1048F000FBE700000548172202800988172901D22A
:104900000420704701800020704700000862FF1FEC
:104910000020704708B50A460888498888420BD8A5
:10492000002809D0002300931379521DFDF7ACFF36
:10493000002803D0002008BD012008BD0A2008BDC2
:10494000F3B50D4608884988002687B0814215D303
:10495000002813D0002769460F710097002369884B
:104960001A46FDF791FF04004FD0684600790028F1
:1049700007D069464979012925D008E0012009B00E
:10498000F0BD217802291BD002216A465171122202
:10499000504301AA6189801841806846007912233A
:1049A000584380181022001D6168FBF78FFB684692
:1049B0000079401C0106090E684601711FD11AE0FA
:1049C00001216A465171217802291ED1820001A875
:1049D0006189121851806A46127961689200101834
:1049E0000222001DFBF772FB6A461079401CC0B220
:1049F0001071052803D261890A48814200D101263D
:104A00006089401C80B2002EA7D06846007900283B
:104A100005D001A90798FCF7F1FD0020AFE70A20B7
:104A2000ADE70000FFFF000038B50C460888498854
:104A3000884215D8002813D02379621D02210B4823
:104A4000FCF761FD00280DD00020009023796188DB
:104A50002088621DFDF718FF002805D0002038BD12
:104A6000012038BD102038BD0A2038BD4C8D021100
:104A700008B50A460888498888420BD8002809D01A
:104A8000002300931379521DFDF7FEFE002803D08A
:104A9000002008BD012008BD0A2008BDF8B500258A
:104AA0000F4606460C46E03717E06800205A002102
:104AB000FDF7C4FE002809D0017A3046FEF75AF807
:104AC000002808D06900615A2180F8BD6800205A8A
:104AD00020800120F8BD6D1CEDB2B87DA842E4D85D
:104AE0000020F8BD10B5044608880021FDF7A6FE99
:104AF000002804D0017A2046FEF73CF810BD0120C2
:104B000010BD000030B585B005466946FCF702FED1
:104B1000040026D168468078C1071E4809D0826803
:104B2000002A04D0688869469047044619E00624A4
:104B300017E04268002A05D068886946904704005B
:104B400001D10EE0062468464078002809D1684665
:104B5000817801730021C1810474688803A9FCF77E
:104B60000DFDA868002801D0FBF70CFC002C05D136
:104B700068468078122807D01B2803D06888012156
:104B8000FEF70EF905B030BD684640780128F5D132
:104B9000F8E70000B462FF1F70B505460C460888B0
:104BA0000021FDF74BFE002805D0017A2246284659
:104BB000FDF7F3FF70BD012070BD000001494860A2
:104BC00070470000B462FF1F10B50446801C00F05F
:104BD00058FDFF20E07010BD10B500F025F800284A
:104BE00000D0806810BD00229300CB5A834202D1CE
:104BF000900040187047521CD2B2022AF4D3002011
:104C000070470000074A0021CB00D35A834202D1EB
:104C1000C80080187047491C0906090EF4D000200E
:104C200070470000985FFF1F0649896805E08A8881
:104C3000824201D18868704709680029F7D10020B5
:104C400070470000885FFF1FF8B50746012906D0AE
:104C5000022924D1012101F09DFE00281FD13846F0
:104C6000FFF7D0FF050015D000240D4E0CE0F82012
:104C70006968604308180188002908D0F8220021DB
:104C8000FBF7CCFA641CE4B270788442EFD30020C6
:104C9000C0432880024938461831FDF777FBF8BD3C
:104CA000885FFF1FF3B5064683B0083001900020EF
:104CB00000907088FFF7A6FF07002FD0002523E0A3
:104CC000F820796868430C182188002920D00198C1
:104CD000007801280FD160880090A3887088A21DF9
:104CE000FDF75EFD0090002805D0019900200870B6
:104CF000049821880180F82200212046FBF78EFAD3
:104D000000206D1C2080EDB2074840788542D7D343
:104D10000020C04338800098002802D17088FCF73A
:104D200057FC009805B0F0BD885FFF1FF3B505463E
:104D3000374C064685B00835F62200212046FBF7A1
:104D40006DFA03A800902B79698828886A1DFDF701
:104D50009BFD074646E02F4A708812684100515C6F
:104D60000022C91FCBB22C49029300910192284B1B
:104D700069468A89F63B3946FDF7AEFB002812D119
:104D800025482989001F828891420CD12049284654
:104D9000F6390A30FBF7ACF9002804D0217878897D
:104DA00089000919488068468289698804AB3846B9
:104DB000FDF79CFD07462078810009194A88002AE2
:104DC00010D0002F05D06A46128A401C20708A80BD
:104DD0000AE001060022890DD2430919401C207007
:104DE0008A8006E0002F04D00C4821780088814298
:104DF000B1D32078002806D070882146FCF7F0FB5C
:104E0000002007B0F0BD0698298801800A20F8E745
:104E1000E47CFF1F0462FF1F8C5FFF1FFE61FF1F0A
:104E2000F0B585B0044600206946888120790E28B7
:104E30006BD00FDC082823D004DC022813D006280E
:104E400018D118E025460835494F0A281DD00C28EE
:104E500010D139E010285DD0122860D0162863D018
:104E6000182879D165E04448424900880880608864
:104E7000FCF78EFB70E003A92046FFF757FF5CE0CC
:104E800003A9204600F080F957E0288804A9FDF71F
:104E9000D5FC010016D060883B6842009A5C354E14
:104EA000521ED2B200230193029200966A46B31CAE
:104EB000128AFDF711FB00281ED160883146FCF7ED
:104EC0002DFD49E0012017E0288804A9FDF7B6FC74
:104ED0000100F7D060883B6842009A5C6B88521EE4
:104EE000244ED2B20193029200966A46B31C128AF3
:104EF000FDF7F2FA002803D029886A4691811CE068
:104F000060883146FCF7DAFC26E003A9204600F071
:104F1000DDF912E003A9204600F082F80DE003A9B4
:104F2000204600F049FA08E003A9204600F028F8DE
:104F300003E003A92046FFF7B5FE00280CD06178F6
:104F4000142909D00B4922790A706A4692894A804D
:104F500008716088FCF712FB2046FDF757FC0748F4
:104F6000C168002901D02046884705B0F0BD000087
:104F70000462FF1FE47CFF1FFC61FF1F885FFF1FAF
:104F8000F8B504460F460546083400896946FDF722
:104F900055FC06003AD0307A80060ED56846008867
:104FA000FFF71AFE030006D06888122231469847A0
:104FB000060002D02BE00E2629E06E883046FFF76F
:104FC00021FE010005D11448FFF71CFE01000ED0A0
:104FD0000E80124A0020527807E0F8264B684643BC
:104FE0009B5B002B05D0401CC0B29042F5D3092634
:104FF0000DE04968F822504308182146FBF766F88F
:10500000002668882146FCF74FFC02E00126208834
:1050100038803046F8BD0000FFFF0000885FFF1FAA
:10502000F3B58BB000200B9E0746039004A80090B8
:105030003246337B71893089504C0D320836FDF78A
:1050400023FC05467EE00B98297A4088FDF792FD07
:10505000070003D00C986989018076E00B984849D5
:10506000408809684200895C464B891FC9B2009399
:10507000002202910192414B69460A8AF63B294679
:10508000FDF72AFA070003D00C99688908805CE0D4
:105090000398002834D03B486188001F8088021D97
:1050A000914255D1039909180B9840884200344821
:1050B0000068805A801F81424ADC0399A87A6118EF
:1050C000087103986989401C80B22218090A401CA3
:1050D000117180B203906846028A718807AB284636
:1050E000FDF704FC050011D003986946898B201850
:1050F000017103986946401C898B80B2090A0CE053
:105100002048001F8088001D6080D6E70398FF219B
:10511000201801710398401C80B222181171401CA4
:1051200080B218490390091F8A8814492018F6395B
:10513000001DFAF7CBFF13490398091F898840180F
:1051400080B20390002D00D07DE7039800280CD09A
:1051500061880398FBF794F920700B9821464088EA
:10516000FCF7B6FB00200DB0F0BD002F00D10A27E0
:105170000C99308808803846F5E70000E47CFF1F72
:105180000462FF1F8C5FFF1FF3B507460446083714
:105190008BB04A480490388800252E4605906CE074
:1051A00007A800903B7979887A1D0598FDF76CFB7C
:1051B0000890002854D0408905900898017A6088AA
:1051C000FDF7D8FC060060D13D49608809684200BF
:1051D000895C3C4B091FC9B20093002202910192E5
:1051E000364B69468A8BF63B0899FDF775F9060040
:1051F0004BD1002D37D0049841883248001F808859
:10520000801C814243D12F4B2D491B1F9888096870
:105210002A1860884000085A001F824220DC089843
:105220000499807A4919087108996D1C4989E8B276
:105230000A0A049909180A71401CC5B21946049853
:105240008A881E494019F639001DFAF73FFF1D48AC
:105250001D49001F00792818C5B20598884209D158
:10526000002D14D123E017480499001F8088801C6A
:105270004880C8E7401C80B2059060884100104813
:105280000068405A001FA8428ADA002D0DD0049809
:1052900041882846FBF7F4F804990870608804995F
:1052A000FCF724FB00200DB0F0BD002E00D10A2633
:1052B0000C98059901803046F5E70000E47CFF1F5B
:1052C0000462FF1F8C5FFF1FFFFF0000F3B506465F
:1052D0000446002085B0354D0090083628800746EA
:1052E0003046E03004904EE07800305A03A9FDF7D4
:1052F000A5FA01001BD060882E4B844642002C4842
:105300000068805C0093401EC0B2002202900192AF
:10531000264B68468289F63B6046FDF7DDF8009033
:1053200000280BD07800315A069801803BE001201C
:10533000009078000699305A088034E01D4829888A
:10534000001F80880A186088430019480068C05A06
:10535000431E9A4204DD401A1649091F401E8880E8
:105360002988A81C08181349091F8A880F49F6398B
:10537000FAF7ACFE0F482988001F8088081828809B
:105380007F1C0498FFB2807DB84208D960882988C4
:10539000420007480068805A401E8142A4DB6088B2
:1053A0002946FCF7B1FA009807B0F0BDE47CFF1F76
:1053B0000462FF1F8C5FFF1FF3B5054683B00446F0
:1053C0000835008901A9FDF739FA2746E83706466E
:1053D000002822D0307A80060ED568468088FFF7F4
:1053E000FBFB030006D06088122231469847060076
:1053F00002D013E00E2611E0002000906B8829886F
:1054000060882A1DFDF7CCF9060007D1787E0028B8
:1054100007D16088FCF7ACFA03E0012604982988DC
:105420000180787E002802D0002005B0F0BD304613
:10543000FBE70000F8B504460246F820424319484D
:1054400000250746457010377868002807D00020EF
:10545000C100C919401C00064D60000EF8D0124E64
:1054600000213046FAF7DAFE002001466143C9B256
:10547000F82251438B190B49C200103152180021F8
:10548000536005E0F8274F435368491CDD53C9B208
:10549000A142F7D3401C0006000EE6D0014844703C
:1054A0000020F8BD885FFF1FF67AFF1F7CB50C78DF
:1054B000069D022C0FD14C6826786478240234199A
:1054C000064EA4B2F44206D10224DBB20095019448
:1054D000FCF774FF7CBD01207CBD0000FED6FFFF01
:1054E000F8B505461D48854223D0461C002921D029
:1054F00001292BD002291CD10121284601F04AFAAA
:10550000002816D12846FFF79FF9040011D0A07893
:10551000FF280ED0FE2807D000200090E0781E2340
:1055200014222946FFF7BCF92046FFF74DFBFF2068
:10553000A070F8BD2846FFF787F90028F9D130465A
:10554000FFF782F90028F4D00580F8BD2846FFF760
:105550007BF90400F9D02680D9E70000FEFF0000A7
:1055600038B5040010D0A078FF280DD0FE280BD04D
:10557000002000902188E0781E231722FFF790F981
:10558000FE20A070FF20E07038BD0000F3B50C468F
:105590008978C1B01E2914D02E4D6878FF2829D0F3
:1055A000182927D84808C2002B481218803A976F4C
:1055B000002F1FD0D06F00281CD02078002817D1D2
:1055C00013E04198FFF740F905000BD00020009050
:1055D000A378E87800224199FFF762F90646284649
:1055E000FFF7F2FA304643B0F0BD6278012A03D1EA
:1055F000122901D00620F6E702AE0096A388617852
:10560000A268B8470028EED1A0784008C10012482F
:1056100008188038C26F02A94198904700280FD01F
:1056200061780029DFD1A27869460A70087168465E
:105630000189418069464198FBF7A0FF0020D2E72D
:10564000A378042BCFD00096002268784199FFF709
:1056500027F9C8E7A862FF1FE88C021100B50346CE
:10566000FDF778FA002803D0C018401E80B200BDB4
:10567000184600BD10B57D24E4006243FAF706FF2A
:1056800010BD10B5040008D02078FF2805D0FE28F2
:1056900003D0FAF701FFFF20207010BDF7B50646D2
:1056A0000F461020FAF714FE05461020FAF710FEF8
:1056B0000446002D3AD0002C2DD010220021FAF7FC
:1056C000ADFD2A462146304601F04EFF060023D1AB
:1056D0002878000604D43946284601F057F808E037
:1056E0002146284601F052F83A461149204603F077
:1056F00077FA3878000604D43846029901F046F863
:105700000AE02146384601F041F809492046029A4C
:1057100003F066FA00E013262846FAF7EBFD002CAA
:1057200002D02046FAF7E6FD3046FEBD1326F6E726
:10573000728D0211F8B5069800271D4614460E46D4
:10574000002801D00B20F8BD30780021022801D0BC
:1057500019804DE070680278407800021018152218
:1057600080B25202801A0300FAF77AFC0504121F75
:105770001A254100F068FAF7E1FDC2B207988242AB
:1057800000D902462A80F1682046FAF79FFC30E0F3
:10579000F0680221008829802070000A607028E0EB
:1057A000062028800246F168EEE701202880F06894
:1057B000007820701DE0F068002816D008212980AC
:1057C000017821700188090A61708178A17041888F
:1057D000090AE170017921718188090A6171817971
:1057E000A171C088000AE07103E0298001E02980EE
:1057F00001273846F8BD10B50B78840702D502247E
:10580000234301E0FD2423400B7003070B7802D5EE
:105810000824234301E0F72423400B7083060B7810
:1058200002D52024234301E0DF2423400B700A210A
:10583000084201D1810603D510780C21084304E009
:10584000002803D11078F3210840107010BD00002B
:10585000FFB581B0087800240A9E1F460D46022835
:105860000FD168680178407800020818152180B2CD
:105870004902401A09D0012829D0022848D003281B
:105880003CD00124204605B0F0BDE868FAF756FD8B
:10589000C0B2864205D8F0190090152803D90D240E
:1058A000F0E70724EEE7E8683A4680190399FAF72B
:1058B0000DFC0098EA6880B2002111541C48406831
:1058C0000028DFD001680029DCD0002012E0002E83
:1058D00012D1022BE3D10399E8680A7849780902CA
:1058E00051180180124840680028CBD00168002977
:1058F000C8D001208847C5E70B24C3E7002EFBD1A1
:10590000062BCCD10622E8680399FAF7DFFBB9E74A
:10591000002EF1D1012BC2D103980078002803D0CA
:10592000012801D08024ADE7E9680870AAE70000EB
:10593000A05EFF1F10B50448C16B034A40321068D7
:10594000D06000F09FFA10BD0080004030B5C21F4B
:105950000A2A01D3062030BD162801D9052030BD02
:105960000124074D9440002905D0002100F0D0F813
:105970002868204301E02868A0432860002030BD4B
:1059800000380040162809D8054A01238340D06812
:10599000002901D0184300E09843D0607047000010
:1059A00000380040F3B50646FF2819D0B007C40EF2
:1059B000B708651D304600F00BFA0A48B90009180F
:1059C00088692B1B01225B1C9A40521EA240904307
:1059D000019AA2401043886101213046FFF7D2FFAF
:1059E000FCBD00000038004010B5114C20780028A4
:1059F00001D0072010BDFF2131310D48FAF724FBFB
:105A0000012020700B490020086348630A4908629E
:105A1000486202211020FDF705FE1020FDF7F6FD7B
:105A2000064A07490D20FAF73DFD002010BD000091
:105A3000EC78FF1F0080004080F00040955C021170
:105A4000FD5B021110B5162801D9052010BD0C4BC5
:105A50009C6B01228240104620439863586B904310
:105A60005863DC6B012907D020469043D863186B3C
:105A700002431A63002010BD10462043F6E70000E1
:105A800000800040054B0122801E82405869002999
:105A900001D0104300E09043586170470038004047
:105AA000F0B50E460446162801D90520F0BD16486B
:105AB000012507197978A540012904D18069284278
:105AC00001D0002E08D000212046FFF75BFF022CFA
:105AD00004D0032C02D005E00620F0BD01212046B1
