:020000041102E7
:1000000003B40148019001BD75A9000003B4014883
:10001000019001BDC93E000003B40148019001BD3B
:100020009DA9000003B40148019001BDB30E00007A
:1000300003B40148019001BD314AFF1F03B40148D8
:10004000019001BD116E000003B40148019001BD93
:100050008BB9000003B40148019001BDD1D4000068
:1000600003B40148019001BDA93C000003B401485C
:10007000019001BD6D2AFF1F03B40148019001BD2D
:10008000E533FF1F03B40148019001BDADAE000090
:1000900003B40148019001BD456B010003B4014860
:1000A000019001BD1D1EFF1F03B40148019001BD59
:1000B000831EFF1F03B40148019001BDB13CFF1F27
:1000C00003B40148019001BD810E000003B4014852
:1000D000019001BD453CFF1F03B40148019001BDE3
:1000E0004539FF1F03B40148019001BDA538FF1F2A
:1000F00003B40148019001BDD1A5000003B401483B
:10010000019001BDF538FF1F03B40148019001BD06
:10011000090E000070B50C460546FFF771FF214639
:100120002846FFF773FF0446FFF776FF204670BDB1
:10013000FEB5089D099C1746002874D0002972D08E
:10014000002C02D0012C02D003E02A2201E0FF2281
:100150000732921D0192354A0E461770344A1060DC
:10016000344803703448057034480470002446E075
:10017000A1208000254645432D48A1210068890023
:100180002818FFF74FFF2A482D49006862002818F9
:10019000FF308130C662019836180020885451180B
:1001A00048702649097800293BD0FF211131009180
:1001B00021461C2041432248002220300D182A7677
:1001C0004254E0B20099FFF733FF686000202872C4
:1001D000E0B201220099FFF72BFFE86000202874AD
:1001E000E0B202220099FFF723FF686169680029E5
:1001F00019D0E968002916D0002814D0641CBC422C
:10020000B6DB00200F4D104A014683009C18658024
:10021000401CD154C0B261701028F6D30020FEBD3E
:1002200001E03421C3E71220F9E700001409FF1FA1
:100230003409FF1F1509FF1F1609FF1F1709FF1FAC
:10024000587CFF1FFFFF0000387EFF1F10B5FB2901
:1002500008D8084B9A4205D81B2903D3FF234933FA
:100260009A4201D2302010BD034B19825A82FFF707
:10027000E5FE10BD480800008410FF1FFFB50D46C5
:10028000A12189004843234981B009681E464418CA
:10029000002D09D0FF20D930015B0398814203D3A0
:1002A000002E04D0012E02D0122005B0F0BDE0785F
:1002B00000280AD00520C00127181748F9780078CF
:1002C000801C814203D30720EFE70220EDE7FFF710
:1002D00097FEF878A91E401CF87003980870002E4D
:1002E00010D00120487020467C30091FFFF7ACFE7B
:1002F000FFF792FE09480078082805D0072803D0A8
:100300000020D2E70220EDE700212046FFF7A2FE01
:10031000F6E700003409FF1F1509FF1F1C09FF1F26
:1003200070B5FFF76DFE904C002025682060FFF748
:1003300097FE06462560FFF76FFE304670BD8B497D
:10034000C968FF31813188657047F8B5FFF78EFEC7
:10035000864D874A68721178022903D9002801D195
:1003600001201070834900200446E9608300401C8E
:10037000CC50FF28FADDE8687F49882319507F496F
:10038000C1627F490978002902D07C491131C162DC
:100390000A210165117881637A49C161FFF76CFE1A
:1003A000E968794848611920800188610846372248
:1003B0008030C260082336220B64CA631E224A645E
:1003C00036224260322202603B220364C26328224A
:1003D00042644122C264392282643222436502654A
:1003E00028228265022202664222C2651E2283669C
:1003F00042662822C26620224267422202675A22AF
:10040000436102613C228261192292010A605F4AC3
:100410000A63FF222D328A60CA60FF22F5320A6128
:100420005B4A8A647D22D2005A4EC267CE644A6219
:10043000594A8A623222CA6506224A658A65CA1DFD
:10044000F932022513604D664B25ED008D660925B6
:10045000CD66524D0D678C674B67AB10CB67504F25
:10046000FF313E604A4E86627D26F600866764262E
:1004700046620526C66202260663C8264663846372
:1004800038205060474810644B2080019061B000D4
:10049000D061581010627D2000015062D4669565CD
:1004A00013665364D565146753671E2090663E48F3
:1004B00090673E485B008131D0670B608B6048607D
:1004C000FF20F530C86008614B20C00010630E6546
:1004D00038483749274A81603749803A11613549A0
:1004E000364A80318A62364ACA62364A8261364A60
:1004F000C262364A02632F4A3548403A5063354853
:10050000D0633548C861354890632A493448403142
:1005100088613549334888602648344980384160CD
:100520003349244A41633349C03AD1603349324B9D
:10053000204CCB63324B403C2363324B9362324AB4
:10054000C263324AC260324A4A63324AE260324A85
:100550008A63324A0A6332498163FFF793FD0120BF
:10056000FFF796FDF8BD00009809FF1FA45EFF1F6E
:100570004A0AFF1F0004FF1FA882FF1F6E0400002D
:100580004C5EFF1F3A07000080C3C9019A020000B9
:1005900050C30000280A00006A180000204E000026
:1005A000F009FF1F00400011DC05000040420F0071
:1005B0007946FF1F0001FF1F8522FF1FC953FF1F40
:1005C0009D56FF1F911FFF1F2521FF1FAD1FFF1FFE
:1005D0001533FF1F8D30FF1F9D5BFF1F8959FF1FC4
:1005E000F140FF1F4D0202110002FF1FAD41FF1F2E
:1005F000FD43FF1FAD24FF1F150102110000FF1F67
:100600009151FF1FC142FF1F5549FF1FF942FF1FB4
:100610009524FF1F0142FF1F7D0202114124FF1F8D
:10062000BD4BFF1F002809DB00BF00BFC206D20E72
:1006300001219140024A116000BF00BF70470000D5
:1006400000E100E010B5002819DB1A4A03231B0261
:10065000D21883089B00D2588307DC0EFF23A340E7
:100660009A438B071B0E8407E40EA3401A43114BD9
:10067000032424021B198408A4001A5118E00E4A0E
:1006800003071B0F083B9B089B00D2588307DC0E17
:10069000FF23A3409A438B071B0E8407E40EA3405D
:1006A0001A43054B0407240F083CA408A4001A5160
:1006B00010BD000000E100E01CED00E010B50028D6
:1006C00019DB1A4A03231B02D21883089B00D25855
:1006D0008307DC0EFF23A3409A438B071B0E84077E
:1006E000E40EA3401A43114B032424021B1984086F
:1006F000A4001A5118E00E4A03071B0F083B9B0881
:100700009B00D2588307DC0EFF23A3409A438B073C
:100710001B0E8407E40EA3401A43054B0407240F65
:10072000083CA408A4001A5110BD000000E100E03C
:100730001CED00E070B50548C56B04484030046806
:10074000C4602946204600F0D7FB70BD0080004001
:1007500010B5134880680407240F062C17D004DC5A
:10076000022C10D0042C17D108E0072C10D00C2C30
:1007700012D102210020FFF791FC0EE001210020A0
:10078000FFF78CFC09E00020FFF78EFC05E004E099
:1007900003484030C06B00E000BF00BF10BD000048
:1007A0000040004010B5134880680407240F062C51
:1007B00017D004DC022C10D0042C17D108E0072C31
:1007C00010D00C2C12D102210120FFF767FC0EE0A3
:1007D00001210846FFF762FC09E00120FFF764FCF5
:1007E00005E004E003484030C06B00E000BF00BFFC
:1007F00010BD00000090004030B504460D46072CA7
:1008000001DB102C01DD062030BD162C01DD05209A
:10081000FAE7002D0CD00021204600F033F90948FA
:100820000068E11F01228A4010430649086007E082
:1008300004480068E11F01228A4090430149086092
:100840000020E1E700380040162800DD704700294D
:1008500007D0084AD268012383401A43054BDA6067
:1008600006E0044AD268012383409A43014BDA60D0
:1008700000BFEBE700380040FEB504460F460020FD
:1008800001900025FF2C20D0A610A007800F00901B
:100890000098C500681D0190204600F0C3FA0B487F
:1008A000B10041580198421B521C01209040421E49
:1008B000AA40084690433946A94008430349B2007C
:1008C000885001212046FFF7BFFFFEBD18380040C9
:1008D00010B511480078002801D0072010BDFF2175
:1008E00031310D48FFF79EFB01200B4908700020B5
:1008F0000A49086348630A490862486202211020D5
:10090000FFF7A0FE1020FFF78DFE064A06490D20D6
:10091000FFF7D0FB0020E1E7F078FF1F00800040E8
:1009200080F00040B10C0211E50B021101461048A5
:10093000426B4B1A5B1C01209840431E8B401046B3
:10094000984301228A401043094A50631046026BC3
:100950004B1A5B1C01209840431E8B401046984365
:1009600000228A401043024A1063002070470000B2
:100970000080004010B502460B46162A01DD052016
:1009800010BD1248816B0120904001430F488163E4
:10099000416B012090400C46844321460B48416343
:1009A000C16B012B03D101209040014304E00120E1
:1009B00090400C46844321460448C163016B0120EA
:1009C00090400143014801630020D9E700800040C6
:1009D00010B5002908D0094A5269831E01249C40A1
:1009E0002243064B5A6107E0044A5269841E0123E0
:1009F000A3409A43014B5A6110BD000000380040EB
:100A000030B504460D46162C01DD052030BD1B48CF
:100A1000005D01280BD11948401E80690121A140C9
:100A20000840002803D0002D01D10620EEE7002168
:100A30002046FFF709FF022C01D0032C03D101212E
:100A40002046FFF7C5FF00212046FFF7D5FE012D08
:100A50000AD10B4840680121A14008430849486079
:100A600001210648015506E0054840680121A140E2
:100A70008843034948600020C8E70000F178FF1F61
:100A800000800040F0B50246162A00DDF0BD55009A
:100A90005519184E735D55005519AD196C785500F0
:100AA0005519AD19A878132A11DA134D9E00AE59C5
:100AB000271A7F1C0125BD406F1E87403546BD4368
:100AC0000E4686402E430C4D9F00EE5110E00A4D1D
:100AD000083D6E69271A7F1C0125BD406F1E8740A7
:100AE0003546BD430E4686403543034E083E75618C
:100AF00000BFCBE79714021108F000400146162909
:100B000001DD012070470948406801238B401840EF
:100B1000002802D00548026802E00448403002691B
:100B20001046C840C007C00FECE70000008000403E
:100B300030B5162800DD30BD002926D0142803D09A
:100B4000152801D016280BD1244A52694300244CA1
:100B50001B195C780123A3401A43204B5A613AE0E9
:100B60001E4A083243001E4CE3569B00D2584300F5
:100B70001B195C780123A3401A43184B0833440027
:100B8000174D2C57A4001A5125E0142803D015281E
:100B900001D016280BD1114A53694200104C12198A
:100BA00054780122A24093430C4A536113E00B4A4C
:100BB000083243000A4CE3569B00D35842001219F6
:100BC00054780122A2409343044A08324400044D61
:100BD0002C57A400135100BFADE7000000F0004007
:100BE000DC14021170B5002427E01548005D0128CF
:100BF0000BD11348401E80690121A1400840002804
:100C000003D0E0B20121FFF793FF0D48005D0228F9
:100C100012D1E0B2FFF772FF012148400546E0B271
:100C2000294600F087F8E0B2FFF768FF0C21614326
:100C3000034A1B3289184870641C172CD5DB70BD21
:100C4000F178FF1F10B5142815DA002909D0164ACB
:100C5000126A164B1C5C0123A3401A43124B1A6202
:100C600020E0114A136A114A145C0122A240934306
:100C70000D4A136216E000290AD00B4A526A0B4B48
:100C80001B5C203B01249C402243074B5A6209E035
:100C9000054A526A054B1B5C203B01249C40A24341
:100CA000014B5A6210BD000080F000408014021118
:100CB00070B502211020FFF7C5FC1020FFF7B2FC31
:100CC000002432E01A48005D002807D0022C01D031
:100CD000032C03D1E0B20121FFF77AFE1448005D36
:100CE000012814D11248401E80690121A14008400A
:100CF00000280CD0E0B2FFF701FF0546E0B229461C
:100D000000F070F8E0B20021FFF712FF00BF0C20E6
:100D1000604307491B31085C002805D0E0B200F0B1
:100D200099F8E0B200F05EF9641C172CCADB70BDC4
:100D3000F178FF1FF8B504460F46162C00DDF8BD0C
:100D40006000201823490D5C60002018401880784E
:100D5000401EC6B22048005D022800D0EFE71F48C1
:100D6000806B0121A14008431C498863132C15DACC
:100D7000002F09D11A48A90040580121B140014370
:100D80001748AA0081501EE01548A90040580121CB
:100D9000B14088431249AA00885014E0002F09D1BD
:100DA0000F48083840690121B14008430C4908390F
:100DB000486108E00A48083840690121B140884389
:100DC00007490839486101212046FFF73BFF00BF72
:100DD000B5E7000097140211F178FF1F0080004072
:100DE00008F0004030B504460D46162C00DD30BD3D
:100DF000002D07D00A4800680121A1400843084996
:100E0000086006E0064800680121A14088430449C3
:100E1000086001212046FFF7F3FD00BFE7E700006F
:100E20000080004070B50446094D162C01DD0520F8
:100E300070BD00210C206043295405481B38015522
:100E40002046FFF7DDFD2046FFF770FDF0E70000CC
:100E50000C79FF1FF8B50446264D00260027162CF6
:100E600001DD0520F8BD0C206043401940680028D2
:100E700007D10C20604340198068002801D112205E
:100E8000F0E702211B481B38015501210C2060436B
:100E9000295400212046FFF7B3FD0C206043401980
:100EA0004068002810D00C2060434019806800285A
:100EB0000AD02046FFF722FE0746002F01D101206D
:100EC00000E0002006460EE00C2060434019406818
:100ED000002801D0012606E00C20604340198068FC
:100EE000002800D0002631462046FFF743FD0020B1
:100EF000B8E700000C79FF1FF3B581B00646234D1B
:100F0000002440E00120A040304000283AD00120D9
:100F1000A04002990840002801D0012000E00020F4
:100F20000746E0B2394600F033F80C206043401920
:100F30004068002810D00C206043401980680028C9
:100F40000AD0012F01D0012000E000200746E0B2C6
:100F50003946FFF70FFD14E00C206043401940684C
:100F6000002804D0E0B20121FFF704FD09E00C20C5
:100F7000604340198068002803D0E0B20021FFF7E9
:100F8000F9FC00BF641C172CBCDBFEBD0C79FF1FF5
:100F900070B504460E46124D162C00DD70BD0C20B7
:100FA000604340194068002809D0012E07D10C2069
:100FB0006043401901214268204690470EE00C2012
:100FC000604340198068002808D0002E06D10C200C
:100FD00060434019002182682046904700BFDDE74A
:100FE0000C79FF1F70B50546162D00DD70BD284633
:100FF000FFF784FD0446002C01D0012000E0002012
:1010000006460C206843054940184078A04203D0AA
:1010100031462846FFF7BCFF00BFE7E70C79FF1F0A
:101020007FB5089C60011849085C002802D0112097
:1010300004B070BD6846407A002801D00520F7E76B
:101040006101114A88182021FEF7ECFF60010E496A
:10105000401869462EC910302EC0204600F034F9E1
:1010600001206101084A5054002C05D1074A002193
:101070000820FFF71FF804E0054A00211920FFF7B8
:1010800019F80020D4E70000207AFF1F6D14021128
:101090007714021170B504460D46164660010849E2
:1010A0004018807E002805D032462946204600F0B0
:1010B00051F870BD32462946204600F003F8F8E7A3
:1010C000207AFF1F38B504460B461F49012C00D17A
:1010D0001E490020009007E00098451C00951C4D1B
:1010E000A84201DD0D2038BDC86FC007C00F002821
:1010F000F2D112E00020009007E00098451C009516
:10110000134DA84201DD0D20EDE7087D2025284084
:101110000028F2D0187808705B1C1046551EAAB241
:101120000028E7D1009007E00098451C0095084D85
:10113000A84201DD0D20D6E7087D40252840002883
:10114000F2D00020CFE700000040004000900040B7
:10115000A0860100F7B582B00746154678013249EE
:101160004018041D314E002D02D00398002802D1F2
:10117000062005B0F0BD2078002801D10320F8E753
:10118000E088A84201DA0320F3E72078012816D08E
:10119000A0884019E188884201DD0320E9E7FEF7D5
:1011A0002FFFA288A16888182A460399FEF788FFB6
:1011B000A0884019A080FEF72FFF0020D9E72A461B
:1011C000A0680399FEF77CFFA580002060800220C4
:1011D0002070A0680190102D01DD102000E028464D
:1011E0000546012F00D1124E7068022188437060BD
:1011F00005E06188481C60800198405C307028469A
:10120000691E8DB20028F4D1002F03D10820FEF70B
:101210005DFF02E01920FEF759FF706802210843C4
:1012200070600020A5E70000207AFF1F004000400A
:1012300000900040F8B5054608270B261D4C012DEF
:1012400002D1192711261C4C3046002809DBC206A2
:10125000D20E01219140194A1160BFF34F8FBFF3A5
:101260006F8F00BF802020730020207120702073BA
:10127000207260603846FEF72FFF3846FEF732FFD7
:10128000002D03D100200E49C86203E000200C4964
:101290004031486069010B4A8918087C0021FFF73A
:1012A000D3FA6901074A8918487C0021FFF7CCFA74
:1012B0000020F8BD004000400090004080E100E0C8
:1012C0008003FF1F207AFF1FF0B585B00646FEF7AA
:1012D0000FFF04905C4C082003900B200290042028
:1012E0000190052000903046FFF7A4FF012E08D1A1
:1012F000564C1920039011200290082001900920DB
:101300000090700152494018007CFF2807D17001FD
:101310004018407CFF2802D1062005B0F0BD7001C6
:101320004B494018054610350398FEF7E7FE039831
:10133000FEF7D2FE01211220FFF7A4FB01211220AB
:10134000FFF7A0FB12200199FFF796FA12200099EF
:10135000FFF792FA00202073049A12116B685B0861
:10136000D0186968FEF7D0FE074600202061802073
:1013700020733846FF2109020840000A20712770B7
:10138000E87A002810D030498C4202D131490978DE
:1013900001E0314909780846002802D01B21217359
:1013A00001E00B21217301E003202073287A00283B
:1013B00002D08720207201E00020207201206060AE
:1013C000287A002803D06068802108436060A87AEA
:1013D000002803D06068022108436060287801215A
:1013E000FFF750FB68780121FFF74CFB2878019943
:1013F000FFF742FA68780099FFF73EFA00211220C1
:10140000FFF722FA03211220FFF73CFB002E03D145
:1014100012481349C86203E012481149403148603C
:1014200002210298FFF74AF90298002809DB00BF61
:1014300000BFC206D20E012191400B4A116000BFCD
:1014400000BF00BF002068E700400040009000405F
:10145000207AFF1F605EFF1F615EFF1F51070211B0
:101460008003FF1FA507021100E100E010B5002076
:10147000FFF72AFF10BD10B50120FFF725FF10BDB3
:101480000001020307090A0B0E0F1011121417189E
:10149000191A1B1F20212200020100050400080761
:1014A000000B0A001716001D1C01020101050401B2
:1014B0000E0D011110011413011716011A19020261
:1014C00001020B0A020E0D0211100214130217166C
:1014D000030504030807030B0A030E0D000D000E9D
:1014E000001000110013001401070108010A010B8C
:1014F000011C011D02040205020702080219021A5A
:10150000021C021D03010302031700000300000078
:081510000000000000000000D3
:020000041FFFDC
:10000000000000006951FF1F445EFF1F485EFF1F94
:10001000545EFF1F00000000000000000000000010
:1000200000000000000000000000000000000000D0
:1000300000000000000000000000000000000000C0
:1000400000000000000000000000000000000000B0
:1000500000000000000000000000000000000000A0
:100060000000000000000000000000000000000090
:100070000000000000000000000000000000000080
:100080000000000000000000000000000000000070
:100090000000000000000000000000000000000060
:1000A0000000000000000000000000000000000050
:1000B0000000000000000000000000000000000040
:1000C0000000000000000000000000000000000030
:1000D0000000000000000000000000000000000020
:1000E0000000000000000000000000000000000010
:1000F0000000000000000000000000000000000000
:1001000000000000000000000000000000000000EF
:1001100000000000000000000000000000000000DF
:1001200000000000000000000000000000000000CF
:1001300000000000000000000000000000000000BF
:1001400000000000000000000000000000000000AF
:10015000000000000000000000000000000000009F
:10016000000000000000000000000000000000008F
:10017000000000000000000000000000000000007F
:10018000000000000000000000000000000000006F
:10019000253DFF1F053EFF1F4557FF1F00000000C4
:1001A000000000000000000000000000000000004F
:1001B000000000000000000000000000000000003F
:1001C000000000000000000000000000000000002F
:1001D000000000000000000000000000000000001F
:1001E000000000000000000000000000000000000F
:1001F00000000000000000000000000000000000FF
:1002000000000000000000000000000000000000EE
:1002100000000000000000000000000000000000DE
:1002200000000000000000000000000000000000CE
:1002300000000000000000000000000000000000BE
:1002400000000000000000000000000000000000AE
:10025000000000000000000000000000000000009E
:10026000000000000000000000000000000000008E
:10027000000000000000000000000000000000007E
:10028000000000000000000000000000000000006E
:10029000000000000000000000000000000000005E
:1002A000000000000000000000000000000000004E
:1002B000000000000000000000000000000000003E
:1002C000000000000000000000000000000000002E
:1002D000000000000000000000000000000000001E
:1002E000000000000000000000000000000000000E
:1002F00000000000000000000000000000000000FE
:1003000000000000000000000000000000000000ED
:1003100000000000000000000000000000000000DD
:1003200000000000000000000000000000000000CD
:1003300000000000000000000000000000000000BD
:1003400000000000000000000000000000000000AD
:10035000000000000000000000000000000000009D
:10036000000000000000000000000000000000008D
:100370000D19FF1F00000000000000000000000039
:10038000000000000000000000000000000000006D
:10039000000000000000000000000000000000005D
:1003A00000000000000000000000000051070211E2
:1003B000000000000000000000000000000000003D
:1003C000000000000000000000000000000000002D
:1003D000000000000000000000000000000000001D
:1003E000000000000000000000000000000000000D
:1003F00000000000000000000000000000000000FD
:0C04000001FF01FF01FF01FF910000005F
:020000041FFFDC
:10183800A882FF1F4519FF1F81840000F1280000BE
:101848000000000000000000000000000000000090
:101858000000000000000000000000005119FF1FF8
:101868000000000000000000CD8400005519FF1F93
:101878005719FF1F5719FF1F5719FF1F5719FF1F28
:101888005719FF1F5719FF1F5719FF1F5719FF1F18
:101898005719FF1F5719FF1F5719FF1F5719FF1F08
:1018A8005719FF1F5719FF1F5719FF1F5719FF1FF8
:1018B8005719FF1F5719FF1F5719FF1F5719FF1FE8
:1018C8000000000000000000000000000000000010
:1018D8000000000000000000000000000000000000
:1018E8005719FF1F000000005719FF1F5719FF1F46
:1018F8000348854600F030F800480047814FFF1F35
:10190800A882FF1F0A484838694601600430F0C0C1
:1019180044464D4656465F46F0C030BCF0BCF0C069
:10192800F0BCF0C044380349034A95460847000014
:101938000008FF1FFD27FF1F3018FF1F04488047BE
:1019480004480047FEE7FEE7FEE7FEE7FEE7FEE79E
:101958000925FF1FF918FF1F064C0125064E05E053
:10196800E36807CC2B430C3C98471034B442F7D3B8
:10197800FFF7C2FF145EFF1F445EFF1F30B58C18CF
:101988000278401C13071B0F01D10378401C120971
:1019980006D10278401C03E005780D70401C491CF4
:1019A8005B1EF9D101E00B70491C521EFBD1A1420C
:1019B800E6D3002030BD000003B40148019001BD0A
:1019C80075A9000003B40148019001BDF9A6000003
:1019D80003B40148019001BDA1AF000003B4014860
:1019E800019001BDDD3F000003B40148019001BD35
:1019F8008944000003B40148019001BD214400005E
:101A080003B40148019001BD750F000003B40148FB
:101A1800019001BDC95C010003B40148019001BDFA
:101A28001907010003B40148019001BDBD0B010075
:101A380003B40148019001BDDD0C010003B4014865
:101A4800019001BDDD0A010003B40148019001BD08
:101A58000134010003B40148019001BD09340100BB
:101A680003B40148019001BD0534010003B40148E5
:101A7800019001BDF535010003B40148019001BD95
:101A8800F935010003B40148019001BDE9170100CF
:101A980003B40148019001BD6137010003B4014856
:101AA800019001BD01D7000003B40148019001BDB8
:101AB8006DF6000003B40148019001BD79120100E0
:101AC80003B40148019001BD4DF9000003B4014879
:101AD800019001BDC1F7000003B40148019001BDA8
:101AE800413F000003B40148019001BD095A0000BC
:101AF80003B40148019001BD0966000003B4014820
:101B0800019001BD8D82000003B40148019001BD20
:101B1800E1AC000003B40148019001BD79B30000B5
:101B280003B40148019001BDE53A010003B401483E
:101B3800019001BD156B010003B40148019001BD7E
:101B48009510021103B40148019001BDED4A01004E
:101B580003B40148019001BDA54F010003B4014839
:101B6800019001BD8552010003B40148019001BDF7
:101B7800B54C010003B40148019001BD31010211C7
:101B880003B40148019001BD0189000003B4014874
:101B9800019001BD016C010003B40148019001BD31
:101BA800B30E000003B40148019001BDBD5C010003
:101BB80003B40148019001BD2110021103B401488A
:101BC800019001BDF907021103B40148019001BD5C
:101BD800010A021103B40148019001BD850A0211EE
:101BE80003B40148019001BD8512010003B4014806
:101BF800019001BDD1AE000003B40148019001BDC0
:101C0800C53F000003B40148019001BDCD4C01005F
:101C180003B40148019001BD9DA9000003B4014827
:101C2800019001BD0972010003B40148019001BD92
:101C3800D108021103B40148019001BD810E0000D2
:101C480003B40148019001BD21A9000003B4014873
:101C5800019001BDADAE000003B40148019001BD83
:101C6800C56D010003B40148019001BDE9D400002D
:101C780003B40148019001BD79D5000003B40148BF
:101C8800019001BDADFF000003B40148019001BD02
:101C98005DB0000003B40148019001BDE1B000004F
:101CA80003B40148019001BD6142000003B401483A
:101CB800019001BD810E000003B40148019001BDEF
:101CC8008576010003B40148019001BDC1150100EA
:101CD80003B40148019001BDCD0C010003B40148D3
:101CE800019001BD71B0000003B40148019001BD2D
:101CF800D9B0000003B40148019001BD5976010034
:101D080003B40148019001BD53B9000003B4014870
:101D1800019001BD8D11010003B40148019001BD7E
:101D2800B9B0000003B40148019001BD1DB0000026
:101D380003B40148019001BDED6B010003B40148F3
:101D4800019001BDAD0F010003B40148019001BD30
:101D58003D4B010003B40148019001BDCD3601009F
:101D680003B40148019001BDC9A9000003B40148AA
:101D7800019001BD4B03021103B40148019001BD5C
:101D8800090E000003B40148019001BD154D010082
:101D980003B40148019001BDB14E000003B40148ED
:101DA800019001BDD94F010003B40148019001BD64
:101DB8002D11010003B40148019001BD89140100EF
:101DC80003B40148019001BD6189000003B40148D2
:101DD800019001BDD544010003B40148019001BD43
:101DE8002D6C010003B40148019001BD79970000F2
:101DF80003B40148019001BD6911010003B4014811
:101E0800019001BDE512010003B40148019001BD34
:101E1800F90D0100F3B587B00446484F012C00D1F5
:101E2800474F600147494018007E00280BD08420A6
:101E3800C059C6B2002503E0387803A948556D1C7F
:101E4800B542F9DB04E00126387D38786946087325
:101E580060013C494018C06900280CD069460898C0
:101E6800087003A801900E726001364A8018C16993
:101E78006846884700BF09B0F0BDF0B585B0054693
:101E8800680130494018041D2C4803906801085C1B
:101E9800002801D105B0F0BD68012A494018007E2C
:101EA800002800D1F6E7680126494018807E0028FE
:101EB80000D1EFE72078022800D0EBE7A768A088D8
:101EC8006188401A86B2102E01DD102000E03046ED
:101ED8000646002E1FD10120207000206080A080BF
:101EE800680118494018C06900280AD0164A07CA6C
:101EF8006B4607C36801134A8018C169684688475A
:101F080000BF002D03D1082001F036FF02E01920A0
:101F180001F032FFBEE7012D01D10948039005E029
:101F28006188481C6080795C039801703046711E96
:101F38008EB20028F4D100BFACE70000004000409A
:101F480000900040207AFF1F0C1502110446FFF78D
:101F580033FD0C48C069402188430A49C8612046BE
:101F6800FFF730FD01F030FE00210648C030416027
:101F780004200449C03108600120FFF729FD00BF93
:101F8800FEE7000000F0004070B50124A407A36834
:101F980010252B43A360FFF721FDA068A843A0608C
:101FA80070BD0000FFB5064601208007816881B03A
:101FB8001D46102211438160554F0020386030467D
:101FC800D730FFF711FD9D20800034468059FF3639
:101FD800CA3401360028306822462CD00121FFF788
:101FE80009FD4B4F2078F863641C2046FFF708FD75
:101FF80000BA000AE17800020843B863241D2046AD
:10200800FFF7FEFC00BA000AE17800020843786393
:10201800241D2046FFF7F4FC00BA000AE17800020C
:10202800084338630398029900020843F860039F45
:1020380000243F1D0EE00021D1E72819401CFFF7BE
:10204800DFFC0102285D0143324820180160241D8D
:10205800A4B23F1F042FF0DA032F04D0022F08D0B8
:10206800012F0CD011E02819FFF7CAFC0102090A58
:1020780006E0291948780A780102114300E0295D31
:10208800244820180160241DA4B20021214F02E039
:10209800E0190160241DFF2CFADD1D481E4A42602C
:1020A8000F220261012202604269002AFCD04269C3
:1020B800930701D4520708D40120800782681021B1
:1020C8008A438260002005B0F0BD01600020039AB9
:1020D80011E0C11909682954401C80B20B0A2B541D
:1020E800401C0B0C80B22B54401C80B2090E2954A2
:1020F800401C80B2121F002AEBDC3068401C3060A4
:1021080001208007826810218A4382600120DAE773
:102118000000044000010440080F0000FFB5054618
:1021280001208007816881B01E461022114381601A
:10213800504F002038602846D730FFF755FC9D20C7
:1021480080002C464059CA3480350028E86F224662
:102158002BD00021FFF74EFC464F2078F863641C13
:102168002046FFF74DFC00BA000AE1780002084358
:10217800B863241D2046FFF743FC00BA000AE17843
:10218800000208437863241D2046FFF739FC00BA93
:10219800000AE178000208433863039802990002B4
:1021A8000843F8600024039F0EE00121D2E73019AC
:1021B800401CFFF725FC0102305D01432E48201822
:1021C8000160241DA4B23F1F042FF0DA032F04D0AE
:1021D800022F08D0012F0FD014E03019FFF710FCA0
:1021E8000102090A09E03119487809780002084310
:1021F80021496118086003E0315D1F48201801601B
:10220800241DA4B200211C4B02E0E0180160241D2B
:10221800FF2CFADD0F221748120242600F220261DA
:10222800012202604269002AFCD00160039A002062
:10223800121D11E0C11809683154401C80B20C0A03
:102248003454401C0C0C80B23454401C80B2090E2B
:102258003154401C80B2121F002AEBDCE86F401C8E
:10226800E86701208007826810218A43826005B0F0
:10227800F0BD00000000044000010440F8B5FFF77D
:10228800C5FB644908600420FFF7C6FBFFF7CAFBDB
:102298000546C00715D06049002008605F480078EF
:1022A800012811D0032813D0042815D0022817D0EC
:1022B800052819D0FFF7BCFB594F044601281AD04E
:1022C8001EE0FFF7BBFBF8BD2846FFF7BDFB0EE09D
:1022D8002846FFF7BFFB0AE02846FFF7C1FB06E0E8
:1022E8002846FFF7C3FB02E02846FFF7C5FB40B2CC
:1022F8000128E8D05FE03878052809D0062807D0FB
:102308004848494E0078022806D0052804D009E03C
:10231800284602F0FBFB4EE0002C06D0022808D02D
:10232800052806D0022C0ED005E0284602F012FC43
:1023380041E0022C02D0012C13D016E0B17B002919
:1023480007D0022905D03978052906D001281AD0E6
:102358000BE0284602F00AFC18E0284602F0E2FBEF
:1023680014E0012807D0062809D02846FFF78AFB81
:10237800022C0BD01FE0284602F010FC1BE0284678
:1023880002F000FC17E0284602F0D8FB3878012854
:1023980011D168050FD4707BC10701D0252004E056
:1023A800800701D5262000E02720317D814202D90F
:1023B8003220FFF76DFB1B4C2078042804D003283B
:1023C8001AD007281DD020E0FFF768FB00281CD092
:1023D800FFF76AFB5820FFF76DFB2078002801D033
:1023E800022020701148407800280ED0207800285C
:1023F8000BD10320207008E00D48807CFFF760FBBC
:1024080003E00C48807BFFF761FB0320FFF704FB28
:10241800F8BD00009C09FF1F9809FF1F9009FF1FC6
:102428001C09FF1F2309FF1FA60BFF1FA45EFF1F28
:10243800BC0BFF1FD40BFF1FF8B50C4610490C420C
:102448001AD1610518D500250E48AF003E187178DD
:10245800012909D1C15D7088FFF73EFB0A487080E9
:1024680008490020C85570706D1CEDB2102DEBD3D3
:10247800012080026040F8BD2146FFF733FBF8BD1C
:10248800DE090000387EFF1FFFFF000010B50120A5
:1024980002F0A2FEFFF72CFB0446002002F09CFE8F
:1024A800204610BD70B50446FFF728FBE21DFF3239
:1024B800FA32D06F0021000C0004D0671046803833
:1024C8008B001B19FF330133C56A491CDD660829D7
:1024D800F6DB00218B001B19FF338133C56A491CC9
:1024E800DD600829F6DB0120D06470BDC106C90E85
:1024F80001208840014908607047000000E100E0C1
:10250800014802490860704740787D01A05EFF1FBE
:10251800002809DBC206D20E01219140034A11604E
:10252800BFF34F8FBFF36F8F7047000080E100E06B
:1025380010B5002819DB1A4A03231B02D218830896
:102548009B00D2588307DC0EFF23A3409A438B07D6
:102558001B0E8407E40EA3401A43114B03242402E4
:102568001B198408A4001A5118E00E4A03071B0F10
:10257800083B9B089B00D2588307DC0EFF23A3402F
:102588009A438B071B0E8407E40EA3401A43054B9E
:102598000407240F083CA408A4001A5110BD000029
:1025A80000E100E01CED00E010B5002819DB1A4A34
:1025B80003231B02D21883089B00D2588307DC0E22
:1025C800FF23A3409A438B071B0E8407E40EA34006
:1025D8001A43114B032424021B198408A4001A511E
:1025E80018E00E4A03071B0F083B9B089B00D258B4
:1025F8008307DC0EFF23A3409A438B071B0E840737
:10260800E40EA3401A43054B0407240F083CA40812
:10261800A4001A5110BD000000E100E01CED00E02C
:1026280010B5002819DB1A4A03231B02D2188308A5
:102638009B00D2588307DC0EFF23A3409A438B07E5
:102648001B0E8407E40EA3401A43114B03242402F3
:102658001B198408A4001A5118E00E4A03071B0F1F
:10266800083B9B089B00D2588307DC0EFF23A3403E
:102678009A438B071B0E8407E40EA3401A43054BAD
:102688000407240F083CA408A4001A5110BD000038
:1026980000E100E01CED00E002E008C8121F08C1DC
:1026A800002AFAD170477047002001E001C1121FCB
:1026B800002AFBD1704700000248C069002800D0FA
:1026C800004770474003FF1FFFB5074601208007FA
:1026D800816883B01C4615460291466939490968E4
:1026E800384A4900490801910021C94380321160E4
:1026F800354A1268520052080092334A80321160FB
:1027080032498160212141611F20FFF7EFFEE20776
:1027180080212F48002A02D042680A434260A2075B
:1027280004D54268FF2301331A434260002D0CD0C0
:102738002A07520F04D00122144342680A43426018
:1027480041682A07D20B1143416021494039CA6BBD
:102758005201520FBA4206D0CA6B07231B069A438E
:102768003B061A43CA63CA6B5307049A5B0F93422A
:1027780005D0CA6B049BD208D2001A43CA634168C9
:10278800FF2281329143E2011143416041680F22E7
:10279800520391436A03114341600C480299014373
:1027A8008007816001210E43466141000548803061
:1027B800016005490098086002490198086007B05F
:1027C800F0BD000000E100E000E200E001000800C8
:1027D80040F000401CB569460120FFF795F901203B
:1027E80000900348019000F0B3FD01201CBD0000DB
:1027F800BB0B000088B0044625463F48C0680078F7
:102808000790002006903D480590002312220521DC
:10281800E1204002FFF77EF939A0FFF781F9286B24
:1028280000903DA0EB6AAA6A696AFFF779F92869FE
:10283800009044A0291D0EC9FFF772F9286A00907C
:102848004BA0EB69AA696969FFF76AF9E86B009020
:1028580052A0AB6B2A68696BFFF762F95AA0296C22
:10286800FFF75EF95C4841685CA0FFF759F90598E5
:1028780001780798814206DA1F4881680598007830
:1028880080000858069005980078019006980290F4
:10289800564800680390FFF749F90490049800909F
:1028A80053A001A90EC9FFF73BF95EA0FFF738F95D
:1028B80066492E680E40002711E0F01963498842E6
:1028C80000D90EE03807000F002803D1F11960A0E5
:1028D800FFF726F9F15960A0FFF722F93F1DFF2FF6
:1028E800EBDD00BF5E480068002802D05C48006845
:1028F800804700BFFEE700000000FF1FB408FF1F6D
:102908000A5B48617264206661756C742068616E48
:10291800646C65725D0A000052302D52332020200D
:1029280020202020203D203078253038782030782D
:1029380025303878203078253038782030782530A0
:1029480038780A0052342D523720202020202020A9
:10295800203D203078253038782030782530387878
:1029680020307825303878203078253038780A00BB
:1029780052382D523131202020202020203D203077
:102988007825303878203078253038782030782508
:10299800303878203078253038780A005231322C97
:1029A80053502C4C522C5043203D20307825303841
:1029B80078203078253038782030782530387820DD
:1029C8003078253038780A0050535220203D203086
:1029D800782530387820200000ED00E04943535234
:1029E800203D203078253038780A00006008FF1F25
:1029F8005B4F53414C5D6964782025642046756EB1
:102A08006320307825303878207379737469636B64
:102A180020253038782072746320253038780A20D1
:102A2800000000002D2D2D2D2D2D2D2D2D2D2D644B
:102A3800756D7020737461636B2D2D2D2D2D2D2DCB
:102A48002D2D2D2D2D2D2D0A00000000FCFFFF1F20
:102A58000A5B253038585D002530387820000000A2
:102A6800505EFF1F1CB569460320FFF74DF8684606
:102A780001F03CFB0098002802D10198002800D002
:102A880001201CBD10B500F0D9FBFFF7A3FE0028FC
:102A980002D00248804710BDFEE70000E1A2000016
:102AA80010B502460B46114600E0491C087800287C
:102AB80003D018465B1E0028F7D1881A10BD70B5E0
:102AC80004460D462A4621460020FFF735F870BD1A
:102AD800F3B589B0044600200790022C7EDB072C52
:102AE8007CDC6948A1004358214668A00A9A00F096
:102AF80069FBE0016C494018406806900698070594
:102B08003F0D06980001000D05905F48A100405850
:102B18000605360D5C48A100405864490840050B7D
:102B28005948A1004058C00FC007002807D0B74235
:102B380002DC0598B04209DD0120079006E0AF42AB
:102B480002DB0598A84201DA0120079007980128BE
:102B580011D10598009701A961C14B48A1004258BD
:102B680021465348069B00F02DFB52480068401C44
:102B7800504908600EE00598009701A961C14248D4
:102B8800A100425821464C48069B00F01BFB002040
:102B980048490860474800680A2815D93A48A100FA
:102BA8004058C20FD207214644A000F00BFB00207A
:102BB800404908603448A1004058C00FC0070028A9
:102BC80002D1012000F090F82F48A10040580121BF
:102BD8008907884301462C48A20000E04DE0815057
:102BE8000520089000BF0898411E08910028FAD1D6
:102BF8002548A100405801218907884341182248E7
:102C0800A20081500520089000BF0898411E089135
:102C18000028FAD11C484038C169221B521C0120E7
:102C28009040421EA240084690430121A14008431B
:102C380015494039C8610520089000BF0898411E11
:102C480008910028FAD110484038C169221B521C4B
:102C580001209040421EA240084690430021A14016
:102C6800084309494039C8610520089000BF089801
:102C7800411E08910028FAD103E0214616A000F071
:102C8800A1FA0BB0F0BD000040000540636F6D7005
:102C980061726520696E743A256420307825782041
:102CA800307825780A0000000004054000F0FF0095
:102CB8008C5DFF1F805EFF1FD05DFF1F6164632076
:102CC800636F6D7061726520696E643A25642C309B
:102CD8007825780A00000000636F6D7061726520C6
:102CE8006572723A25640A0001490870704700004D
:102CF800935EFF1F0E480F4988600020C8601B20A4
:102D0800400308614D20C00348610B4888610B48A7
:102D1800C861002008624862C862086348630549C0
:102D28008031086248628862012088637047000029
:102D3800000C000600F0004040400601ABFF010017
:102D480010B5FEF7FFFE0120FEF702FFFEF706FFB3
:102D5800002010BD1CB5012109030748FEF704FF38
:102D6800012002210B4602460091019003490448C4
:102D7800FEF700FF1CBD0000F068FF1F185FFF1F73
:102D88006C66FF1FF8B54E484068C043000603D57F
:102D98003C20FEF7F5FEF8BDFEF7C8FE484D009052
:102DA800803D28680121890408432860E86945496D
:102DB80008402830E8610320FEF7E2FE686AC7038E
:102DC800FF0B0320FEF7DCFE686AC403E40B032054
:102DD800FEF7D6FE686AC603F60BA74201D3204663
:102DE80000E03846B04200D33046A74201D3394606
:102DF80000E02146B14200D23146334ABA18C32A0C
:102E080026D2314BDB439C4222D9304A94421FD20E
:102E18009E421DD996421BD2081A132818D2284858
:102E280042680C218A4342604168FF2212029143A2
:102E380041601420FEF7A4FE21488038416AC26927
:102E4800C903C90B08239A43C26121488162F8BDAE
:102E5800274634460320FEF793FE19488038406A17
:102E6800C603F60BFEF762FE0099884201D3401AAA
:102E780001E0401A401E17498842AED31048416805
:102E880009040D0E4168FF22120291436A1C1206C2
:102E9800120C1143416041680C229143091D4160A5
:102EA8000020FEF773FE642D02D30548002141601F
:102EB800062D00D306250748A840FFF747F88CE7FA
:102EC800C0F0004000FEFEFF91FCFFFF320400004E
:102ED800A45EFF1FE40C0000F8B53D4840683C4C78
:102EE8000006803C8021002806DB6068084360609B
:102EF8000320FEF745FEF8BD364D00202863206804
:102F08000122920410432060334F606880210843F7
:102F180060600320FEF734FE286B401C286360685D
:102F280001210904084360600026E0692B49384004
:102F38004018E0610320FEF723FE606AE169C003E0
:102F4800C00B08229143E161A96A062251438142DC
:102F580001D3091A00E0411A3C2909D2E26901218A
:102F680009048A43E26162688A436260E862F8BDE4
:102F7800761CF6B2052ED8D3E169012000048143FE
:102F8800E161616881436160286B2E46052807D39B
:102F9800BFF34F8F13491248C860BFF34F8FFEE746
:102FA80060688021884360600320FEF7E9FDE069DE
:102FB80038402830E0610320FEF7E2FD606AC00374
:102FC800C00BB062E16908208143E1619DE7000020
:102FD800C0F00040A45EFF1F00FEFEFF28000100B5
:102FE8000400FA0500ED00E010B50020044948701F
:102FF8008870C87028210248FEF7CEFD10BD000079
:10300800E47AFF1FFEB504461948C16B194D4907FC
:10301800C90E6958164AC90B403200911168490314
:1030280004D4116801239B0419431160C16B182251
:103038001143C163C06B104F4001400F0190B84766
:1030480006462046B84706430C49F007C00F884794
:103058000346A0000A49285808600098411E0091BC
:10306800FBD2324621460198FFF72EFB0020FEBD19
:1030780000F00040E07B0100018C0000A98A0000FC
:103088007408FF1FF8B506460120FEF779FD214DAB
:10309800214F2878214C002816D0FEF783FD2060A8
:1030A80001F01AF8002802D002F084F978611C496E
:1030B8008B6A1C4803601C48C76A1C4A12689742FE
:1030C80005D2C06A101A03E0F8684069E7E70020F3
:1030D800174A10609819C862486A2922D203104317
:1030E80048622878002812D012480178022908D0AE
:1030F8000178012908D000780328206808D0C01E6C
:1031080004E020680F3801E0206808382060F8BD26
:10311800401FFBE71C09FF1FA45EFF1FE408FF1FF9
:1031280000F00040340AFF1F00100040180AFF1F7B
:103138001C0AFF1F4A0AFF1F10B51E48A1218078EC
:10314800890048431C49A12309689B004418912120
:1031580089000A591749002089785943164B1B687A
:10316800C918C98E002A1ED01448C068FF30013023
:10317800012A0CD0114BDB68FF338133062A08D8AB
:103188006479012C05D00D4C5234125D04E0006BBB
:1031980009E00A4A543212791B6D006B5A430B0A34
:1031A8005B1C5A431018064AC9085143814200D88B
:1031B800084610BD300DFF1F3409FF1FA45EFF1F16
:1031C800530700000FB408B503A800900548009AFB
:1031D800029901F031FD0020009001B008BC04B054
:1031E80018470000C72AFF1F00B585B0064B0FCB54
:1031F800049301AB07C30020009001A80FC8FEF795
:10320800D7FC05B000BD00002C5DFF1F70B504465B
:1032180026460948855DFF2D00D170BD002128464E
:10322800FEF7CCFC00212846FEF7CEFC00212846FC
:10323800FEF7D0FC00BFF0E78A5EFF1F03490020BD
:1032480048610349086048607047000040F000404A
:1032580040F100401CB52748A121807889004843E7
:103268002549096844182548406A80B20090912091
:103278008000015900290FD02148C068FF30013073
:1032880001290ED01E4AD268FF32813206290AD897
:103298001B4B5233C95C09E0608CE18E48434010F7
:1032A8000DE0006B0AE0164954310979126D006B84
:1032B8005143E28E120A521C5143081840000099EB
:1032C80040180090FFF738FF0190019900980D4BC6
:1032D800421AE069C10859438A4201D8009805E0BA
:1032E800094940084843019940180090FEF778FCC6
:1032F8001CBD0000300DFF1F3409FF1F00100340E4
:10330800A45EFF1F530700007102000070B50D4C4A
:103318000546E068808D400505D50B48406AC00326
:10332800C00B02F01BF8002001F03AFF002808D07B
:1033380006480168E068FF30813041652846FEF79D
:1033480055FC70BDA45EFF1F40F000400080FF1FC9
:1033580070B58AB000241E4D04940594287801287D
:1033680006D004A90120FEF7CFFB002802D00020D8
:103378000AB070BD049800900598019015488168BE
:103388000291C0681349039006AA10316846FEF7F7
:1033980033FC104E10222036314606A8FEF732FCC8
:1033A800002811D0012028700B4A31466846FEF7E4
:1033B80023FC04940020694605948200401C8C502C
:1033C8000428FADB0120D3E7FF202870CFE70000AC
:1033D8000D5FFF1F00290011987EFF1F10B52248BE
:1033E800037822491022C968022B08D00378012BE0
:1033F80005D00378032B02D00378042B00D10A628E
:1034080004780E23022C09D00478012C08D0047803
:10341800032C07D00478042C06D007E01B2404E012
:10342800122402E04B6001E00C244C6004780F4940
:10343800C9688031022C0BD00478012C0CD0047898
:10344800032C0ED00078042801D1CB610A6210BD8C
:103458001F20C861212002E01420C86118200862DA
:1034680010BD1320CA61FAE74A0AFF1FA45EFF1FB6
:10347800F0B5A3B03D48C06B8703BF0B3B48406B1A
:10348800400A40023949486339484078B84264D113
:1034980002245AE00120A0403840002853D0334885
:1034A800406B0121A140884330494863002517E05B
:1034B800E00130494118A81C800008580005000D9B
:1034C800A90005AA5052E0012A494118A81C800009
:1034D80008580001010D6800401C400011526D1C85
:1034E8001E2DE5DB0120A040204988632048007894
:1034F800002800D128E02046E10F091849104900AA
:10350800611A01D0611E00E0611C0E46B100184826
:10351800001D405800280FD001200190684606720F
:1035280005A803903C2168460174B2001048001DAC
:10353800815801A8884700BF0C48406B0121A14071
:1035480008430A49486300BF641C072CA2DD0848E9
:10355800C078002801D100F0BFFA0448406B064942
:1035680008430249486323B0F0BD0000000005404D
:10357800E47AFF1F00040540FF01000000B5A7B072
:103588006648C06B8003800B25906448406BFF2120
:1035980089028843614948630846C06B8003800BF1
:1035A80022900846406B400A40024863FF21890286
:1035B80025980840002821D00A20239017E0FF21F1
:1035C8008902259808400121239A91400840002843
:1035D8000AD00120239988405049886323990A39E1
:1035E80088B22599FFF774FA2398401C23902398F2
:1035F8001128E4DBFF208002484988634848407866
:10360800229988427DD10220269071E001202699D6
:10361800884022990840002866D04048406B012124
:10362800269A914088433D494863002023901FE033
:103638002698C0013B4941182398801C80000858EF
:103648000005000D2399890004AA50522698C0014C
:10365800344941182398801C800008580001010D46
:1036680023984000401C400011522398401C23908E
:1036780023981E28DCDB0120269988402749886387
:1036880027480078002800D12FE02698C10F091894
:1036980049104900411A02D02699491E01E026998D
:1036A800491C2491249881001D48001D4058002879
:1036B80012D0012000902498C1B26846017104A874
:1036C80002903C2168460173249882001448001D2A
:1036D80081586846884700BF1048406B0121269AE8
:1036E800914008430D49486300BF2698401C269026
:1036F800269807288ADD0A48C078002801D100F0FA
:1037080017F80648406B084909688902074A89186A
:1037180008430249486327B000BD00000000054087
:10372800E47AFF1F000405407C5EFF1FFF030000D2
:1037380070B52E4880788021084040102B49897840
:103748004022114049000843284989782022114025
:103758004910084325498978102211404900084337
:103768002249897808221140491008431F4989785D
:10377800042211404900084305461D4800780028E6
:1037880001D1122070BD1B481B4948631D20FEF75C
:10379800BFFE00201949486308151749886318486F
:1037A80080680821884316498860002408E00120C1
:1037B800A0402840002802D0E0B2FFF727FD641C93
:1037C800092CF4DB0E488068400840000C498860EA
:1037D800112000F0B3F8112000F060F8FFF704FCA6
:1037E800112000F0C9FA0020CCE70000E47AFF1F9E
:1037F800845EFF1FFF01000000000540C003FF1F9B
:1038080040F0004008B564200090412000F06EF8B8
:10381800402000F06BF802204107486200BF009882
:10382800411E00910028FAD103200121890748622E
:1038380000F006F8002001218907886208BD000011
:1038480038B5FEF7B9F801208007846A082000908F
:10385800002C02D101208107886202200E490860ED
:1038680000BF0098411E00910028FAD103200A49A0
:1038780008600820009000BF0098411E00910028B1
:10388800FAD105490860002C02D101218907886214
:10389800FEF7BEF938BD000000C00040202809DA54
:1038A80001218907896801228240914301229207F8
:1038B80091601AE040280BDA012189074A6901461C
:1038C800203901238B409A43012189074A610CE082
:1038D80060280ADA012189070A6A0146403901236A
:1038E8008B409A43012189070A627047202809DA28
:1038F8000121890789680122824011430122920728
:1039080091601AE040280BDA012189074A690146CB
:10391800203901238B401A43012189074A610CE0B1
:1039280060280ADA01218907096A0246403A012318
:10393800934019430122920711627047202823DA25
:1039480015280FDB16280DDC0121890709682022BC
:10395800914352061160114609682022114352060C
:10396800116056E0012189070968012282409143CC
:103978000122920711601146096801228240114311
:1039880001229207116044E0402827DA35280FDB2E
:1039980038280DDC01218907C96810229143920655
:1039A800D1601146C968102211439206D16030E0F7
:1039B80001218907C9680246203A012393409943A7
:1039C80001229207D1601146C9680246203A0123B4
:1039D8009340194301229207D1601AE0602818DA4F
:1039E80001218907496A0246413A01239B1A0122AB
:1039F8009A4091430122920751621146496A024650
:103A0800413A01239B1A01229A401143012292074D
:103A18005162704710B50020FEF700F9002010BD74
:103A280008B500F01BF80A480078FFF7EBFA0948D8
:103A3800007800F091FA00F0E5F807480068009077
:103A4800009800F0DDFAFFF7CFFBFEF7EDF808BDB0
:103A58004A0AFF1F4C5EFF1F285DFF1F10B58CB080
:103A680030221B496846FEF7E5F8002409E06200A9
:103A78006B46D21851786200985CFEF7ABF8601C70
:103A8800C4B2172CF3D3134840690F21C9038843E4
:103A98000521090440180F49486108464069012179
:103AA8004906884340180B49486108464069032184
:103AB80049058843012149054018064948610720FE
:103AC80000F068F800F08CF800F058F80CB010BD61
:103AD800F85CFF1F00F0004010B52148007800286E
:103AE80001D1122010BD1D20FEF712FD1D481E49F0
:103AF800486300201D49486308151B4988631C4812
:103B08008068082188431A498860002408E0A100D9
:103B180018484058002802D0E0B2FFF777FB641C31
:103B2800092CF4DB1248806840084000104988607E
:103B38001120FFF703FF1120FFF7B0FEFFF754FA3B
:103B4800112000F019F91D20002805DBC206D20E4D
:103B580001219140084A116000BF0020C2E700001F
:103B6800845EFF1FFF01000000000540C003FF1F27
:103B780040F00040E87AFF1F80E200E00448406916
:103B8800012189068843024948610F2070470000D7
:103B980000F00040014648094001002807D00948C4
:103BA8000078C008C000074A107006207047054812
:103BB8000078C008C0004A07520F1043014A10702D
:103BC8000020F3E7655EFF1F0448C0691F21490410
:103BD80088430249C86100207047000000F0004097
:103BE8000648C0691F2149048843054909784907DF
:103BF800090B08430149C8610020704700F00040E4
:103C0800655EFF1F10B578210A48FDF7C5FF0A4811
:103C18000078012804D0022806D0042807D100E043
:103C280000BFFEF70DF802E0FEF710F800BF00BF76
:103C3800002010BD607AFF1F645EFF1F70B5054647
:103C4800122617480078012803D015480078042860
:103C580003D1FDF7F5FF002070BDFDF7ADFE002490
:103C680017E00C2060430F49085C002800D112E0DF
:103C78000C2060430B49085CA84209D101210C20A3
:103C88006043084A80184170FDF7DAFF002602E019
:103C9800641C0A2CE5DB00BFFDF7BAFF3046DBE702
:103CA800645EFF1F607AFF1FF0B503460C46154699
:103CB8000021002220E00C205043164E305C984230
:103CC80001D10720F0BD0C205043124E305C002873
:103CD80011D10C20504381190F480078F826B043C1
:103CE8000D4E3678F608761CF600F8273E4030432D
:103CF800094E307002E0521C0A2ADCDB00BF0029A2
:103D080001D10320DEE7002048700B704C608D6005
:103D180000BFD7E7607AFF1F655EFF1F10B5FFF78A
:103D28005FFF11A0FFF74EFA11480078C008441E43
:103D380015E00C2060430F49085C002801D11220CF
:103D480010BD0C2060430B4940184068002805D07E
:103D58000C216143074A891848688047641E002C73
:103D6800E7DA0020ECE70000536C6565700A000094
:103D7800655EFF1F607AFF1F70B5054600261D4867
:103D88000078012803D01B480078042803D1FDF7E8
:103D980057FF002070BDFDF70FFE00241BE00C202C
:103DA80060431549085C002800D116E00C206043E8
:103DB8001149085CA84205D100210C2060430E4A35
:103DC800801841700C2060430B4940184078002847
:103DD80000D0761C641C0A2CE1DB00BF002E02D147
:103DE800FDF734FF01E0FDF72BFFFDF711FF002081
:103DF800D0E70000645EFF1F607AFF1F10B52448FB
:103E08000068012189078860224800680121084369
:103E1800890748612048006B204908601E483030F7
:103E280040681F49086000210420FEF7BDFB0121FE
:103E38001420FEF7B9FB01211520FEF7B5FB01217F
:103E48001720FEF7B1FB01F013FA002415E00C204F
:103E580060431449085C002801D1122010BD0C20D1
:103E68006043104940188068002805D00C21614340
:103E78000C4A891888688047641C0B480078C00879
:103E8800A042E4DC09A0FFF79DF90020E6E7000066
:103E9800685EFF1F6C5EFF1F80F00040705EFF1FB2
:103EA800745EFF1F607AFF1F655EFF1F77616B6599
:103EB8002075700A0000000010B505480549086023
:103EC80005490860FEF716FF00210448416010BD4F
:103ED800841E0000140AFF1F380AFF1FC0F00040AC
:103EE80010B51F20164908700120164908700020D7
:103EF800154908701548C06B40094001093013493D
:103F0800C8630846C06B6021884360300F49C863A6
:103F1800FFF7D2FF00F01CF800210420FEF708FB91
:103F280001211420FEF704FB01211520FEF700FBF8
:103F380001211720FEF7FCFAFEF70CFF10BD000068
:103F4800480AFF1F490AFF1F680AFF1F80F0004048
:103F580010B5FEF797FD10BD10B50446012C18D119
:103F680024484069400140090521C90640182149F3
:103F780048610846C06920490840204940181D4941
:103F8800C8610846C0694021884340301949C86162
:103F980020E0002C1ED100210A20FDF71BFE002185
:103FA8000B20FDF717FE1348C06903210902884357
:103FB80040181049C8610846C069402188430D4926
:103FC800C86108464069400140090B2109074018AB
:103FD8000849486107484069012109078843401892
:103FE8000449486108468069032149048843014916
:103FF800886110BD00F000407F00FEFF80FD0100D9
:1040080001B50748002101600099016000F014F82B
:10401800044A00211320FFF747FE002008BD0000D6
:10402800945EFF1F4140FF1F0248006A002800D02D
:10403800004770474003FF1F38B521480078022821
:1040480001DD042001E01E48007804461D48006890
:104058001D49884209D1012000901A4800230121F6
:1040680002682046FDF7F8FD08E00020009015489A
:104078000023012102682046FDF7EEFD134814498C
:1040880088630020124940310861102048610220ED
:1040980088611220002809DBC206D20E0121914056
:1040A8000C4A1160BFF34F8FBFF36F8F00BF02211F
:1040B8001220FEF7B5FAFFF7A5FBFFF7ABFC38BDFA
:1040C8004A0AFF1F945EFF1F6B000208050001FFEC
:1040D80000C8004080E100E002488069C00700D0C5
:1040E80001207047401000407047000030B50AC8F2
:1040F800284A4C071068A40F800880002043CC0889
:10410800E50704241060002D3CD0A0437824A04388
:104118000C06240FE40020430F24E401A0430C05FF
:10412800240FE40120430C0BE5071B4C10602BD037
:10413800A0431A4C20404C02A40D240320430F2412
:10414800A405A0434C01240FA40520439C01C90EDB
:104158006408214303C2990ECC0701218906083A55
:10416800002C13D08843D90ECC070D4910600FD00E
:1041780088430321090788439900890F09070843E1
:10418800106030BD2043C1E72043D2E70843EAE787
:104198000843EEE7105FFF1F00080000FF0FC0FF95
:1041A80000000008F8B5054612480F46C07881425D
:1041B8001FD1E878002818D00024A0004619FF363F
:1041C8008136F16800290DD0086800280AD12879BD
:1041D80000F074FC0020F0600520C0012818417828
:1041E800491E4170641C082CE7DB39462846FDF758
:1041F80039FDF8BDA45EFF1FF8B507460546FF3731
:10420800052000268137C0012C18B0004019FF3066
:1042180001300090C16E002905D0287900F04EFCCD
:104228002078401E20700098F96A761CC166082E16
:10423800EBDB0026B0004019FF3081300090C168E8
:10424800002905D0287900F039FC6078401E60709C
:104258000098F96A761CC160082EEBDB0026B000D6
:104268004719FF378137396B002905D0287900F0C5
:1042780025FCA078401EA0700020761C3863082E0C
:10428800EDDB284600F088F82846FDF7F1FC002110
:1042980008468A005219FF320132491CD0660829A3
:1042A800F7DB00218A005219FF328132491CD060A5
:1042B8000829F7DBE070F8BD10B50B48A12180781C
:1042C800890048430949096840184178002907D0FE
:1042D800FF30FF300230C16C002901D00021C164D9
:1042E800FDF7CCFC10BD0000300DFF1F3409FF1F87
:1042F800FFB504466030C07E072581B01746012807
:1043080042D12046FDF7C0FC00283DD02148007866
:1043180000283CD0FF2611362046FDF7BBFC009054
:1043280020790022314600F07FFB009989000E19A0
:10433800FF360136F066002826D0A620005D00284A
:1043480007D03A462046049B0299FDF7A9FC3F1D79
:10435800FFB20520C001251828783A46401C28706D
:10436800029938020843F16E8880F06E0499801D26
:10437800FDF79CFCF16E012008602046FDF79CFCCF
:10438800E878401EE8700025284605B0F0BD3426C0
:10439800C2E700001709FF1F10B50179134A490049
:1043A800515C002920D012490B688C15A3430B607F
:1043B8000146FF3121310B46097D02242140047951
:1043C8006400A418647821431975094B403BDC6BE1
:1043D800A408A4000C43DC63037900215B00D154DA
:1043E800007940008018417010BD0000587CFF1F04
:1043F80040100340F3B507469848A121807889000A
:104408004843974989B00968002644182046FF3078
:1044180021300690407D322822D0222820D02546FF
:10442800FF358135E86A0168002909D08188001DB7
:10443800090A891CFDF746FCE96A0020761C086019
:10444800FDF746FC0A99002508802046FF30C13058
:104458000790007C002829D0B84227DC002018E00B
:10446800804901200860FF20AD3000210059012655
:104478000160E5E780000019FF308130006B6D1C9A
:104488008188EDB2090A001D891CFDF71BFC009804
:10449800401C00900798017C00988142EADC07984C
:1044A800007C3F1A86190798002101746E49002084
:1044B800C870FF20AD3000590168002903D0007989
:1044C800C04380073AD00698C07D002836D00698A9
:1044D800807D002832D10798007CB8422EDA5F48E8
:1044E80081781C20414361480818017A002925D1A8
:1044F80001210172A9000919FF31C06881310863DF
:1045080000281FD00520C001201881786D1C491C87
:104518008170FF204930005BEDB2010A2046FF3070
:104528004930891CFDF7CEFB06980021C175069815
:10453800012181754C48761CC1707F1E0798007C4C
:10454800002802D030460BB0F0BD2046FDF7C6FB70
:10455800049000283BDD002F39DD002031E02046A3
:10456800FDF7C2FB80000019FF3001300790C06ED4
:104578008188001D090A891CFDF7A4FB00281ED0AC
:104588000798C16EA8000019FF30813001630799B0
:104598000020C8660520C001201881786D1C491CC0
:1045A80081700178EDB2491E01702046FDF7A2FB2B
:1045B800E11DFF31FA31086A401C761C0862009838
:1045C800401C04990090884201DAB842C7DB2349AD
:1045D8001C228878254B5043C218107A002822D014
:1045E8000020691E1DE083001B19FF3381331B6BFC
:1045F800D768BB4214D1884212D0A9000A1980009A
:10460800FF3200198132FF308130D16A01631348CB
:1046180081781C20414315480818C068D06202E020
:10462800401CA842DFDB092080012018817E002978
:1046380011D0017D00290ED0428E002A0BD0817F37
:10464800914202D2491C817705E0002181771A2125
:104658002046FDF755FBB0B275E70000300DFF1F8F
:104668003409FF1F00140340E010FF1F787CFF1F70
:10467800F0B589B0FDF7DCF905469A48A1218078A4
:1046880089004843984909684418984800680128EF
:1046980003D19748816D491C8165052D01D0042DF2
:1046A80002D12046FFF778FEFDF7B0F99149924A0A
:1046B8000861924842610122C2600260052D17D04C
:1046C800042D7DD1E08E8E4AC9685043FF22DF3227
:1046D800125B801AF8225258896C801A814A5278E3
:1046E8005208D040814200D20846FDF70FFB04E093
:1046F8006079012801D0FEF7ADFDFDF787F9069036
:1047080080480078002805D0FF20113000273E4659
:10471800009033E03420F9E72046FDF7FDFA8119CF
:10472800794800788142204603D2FDF7F5FA8019CE
:1047380005E0FDF7F1FA811973480078081AC0B24C
:104748000790684802228078009900F06DF907996F
:1047580089000919FF318131C860002813D005206C
:10476800C001201842787F1C521C42700020CA6881
:10477800761C1060C968FFB28880F6B22046FDF743
:10478800D1FAB042C8D85D48FF2109044268002F19
:1047980004D08A4339040A43426025E08A43012150
:1047A800090451184160217901204A005749885469
:1047B800FF203530005D2279C007C00F520000E0AD
:1047C80015E0521850704D484030026883151A435E
:1047D800026002682379520852005B005918497830
:1047E8000A43026002218162069800F001FA4849F2
:1047F800486B484AC0B21278002A17D1464A0023AB
:10480800D356002B454BD35606DB1B040026965780
:1048180032029A18121808E0FF331B040026965734
:1048280032029A183E4B1218D2184A63022801D253
:10483800022002E0502800D950203A4A1278022A71
:1048480011D0394A1678394B1F78BE420FD91678DD
:104858001B78F31A801E4010434310784001C01A99
:104868001030401104E0324A1678324BECE71078E9
:104878004A69120A120210434861052D01D0042D1D
:1048880016D12D480078002806D02C48007800283A
:1048980002D00020FDF74CFAFF34FF340234207BAD
:1048A800042801D0032803D1FF205F30FDF702F967
:1048B800022D12D122480078012807D0032805D0FC
:1048C800022803D01F480078022806D11148007832
:1048D800002802D16C20FDF7EDF81B490120C882A1
:1048E80009B0F0BD300DFF1F3409FF1F9809FF1FE5
:1048F800FC0FFF1FA45EFF1FFF3F000000100340D6
:10490800710200001709FF1F1609FF1F587CFF1FBF
:10491800800003408C09FF1F680AFF1F0000000089
:10492800FFFE0000490AFF1F440AFF1F450AFF1F38
:10493800460AFF1F470AFF1FF908FF1F2209FF1F2A
:104948001C09FF1F2309FF1FBC0BFF1FF8B53148C7
:10495800A1218078890048432F49096844182646D0
:10496800FF3681360020F16A3546403508602874E4
:104978002A48C1684A050169520D49014B0DC169B0
:10498800274F39401143C1619F1A1EE0F06A016840
:1049980000291ED02349287C0978884215D2800036
:1049A8000019FF308130006B00280ED0001DFDF784
:1049B800C5F93F1A287C81000919FF318131096B3B
:1049C8008988090A01D0401C2874002FDEDC2D7C60
:1049D8001CE0001DFDF7B2F93F1AF16A01200860DA
:1049E800F3E7A8000619FF368136316B00290BD092
:1049F8000848807800F062F8002030630520C00184
:104A080020188178491E81706D1CEDB2082DE8D3FD
:104A1800F8BD0000300DFF1F3409FF1F4010034090
:104A28000000FF071509FF1FF7B584B00C46FCF717
:104A3800C3FF1C4D1C4E2868029030681B4F019024
:104A4800386800901A48816B2960C16B3160006C2E
:104A580038601848002101702046FDF775F90446B2
:104A68000298286001983060009838601148012247
:104A780002700499104B1C256943C918002C03D0F7
:104A8800087E401C087607E00698C0000B5C002BE7
:104A980002D10A5408184468FDF7BAF8204607B04E
:104AA800F0BD0000D808FF1FD408FF1FDC08FF1F57
:104AB800A45EFF1FD008FF1F787CFF1F70B50C464F
:104AC8000546FCF779FF10481C2100224D432818A1
:104AD800D100435C002B09D041184968A14205D197
:104AE8000021D2008154FDF793F870BD521CD2B258
:104AF800032AEDD3241F21884904490C2180017E13
:104B0800491E0176EFE70000787CFF1F10B50449C5
:104B18000968002901D0884710BDFCF7B3FF10BD14
:104B28008002FF1F10B504498968002901D0884711
:104B380010BDFCF7A7FF10BD8002FF1F10B5044988
:104B48008969002901D0884710BDFCF79BFF10BD7B
:104B58008002FF1F10B504494969002901D0884720
:104B680010BDFCF78FFF10BD8002FF1F10B5044970
:104B78004968002901D0884710BDFCF783FF10BDA4
:104B88008002FF1F10B504490969002901D0884730
:104B980010BDFCF777FF10BD8002FF1F10B5044958
:104BA800C968002901D0884710BDFCF76BFF10BD0C
:104BB8008002FF1F10B50A48A12180788900484368
:104BC800084909684018007907494000085C00282E
:104BD80003D006490020887110BDFDF7BBF810BD51
:104BE800300DFF1F3409FF1F587CFF1FE010FF1F07
:104BF80010B50446FCF70AFFA04203D3FCF706FFF2
:104C0800011B04E0FCF702FF0949091B4118094888
:104C1800026A914200D20162C269914200D9C1611F
:104C2800426AD3009A1A5118C908416210BD00009F
:104C3800FFFF3F00A45EFF1FF7B58CB005460020BC
:104C48000690059083E10D98007825280AD00698EB
:104C5800002803D10D980690002005900598401C67
:104C6800059071E10598002806D0059881B206984C
:104C7800A847002006900590002400BF0D98401C0E
:104C88000D900D9800782B280DD004DC20280DD02D
:104C9800232814D10DE02D2802D030280FD10BE0A5
:104CA80010200443EAE704200443E7E7082004430C
:104CB800E4E720200443E1E701200443DEE700267F
:104CC800F6430D980078302808DB0D9800783928CD
:104CD80004DC0DA800F03EFE06460EE00D980078B4
:104CE8002A280AD10D98401C0D900E9840C80E90A5
:104CF800002E02DA7642102004430020C0430890B8
:104D08000D9800782E2821D10D98401C0D900D98F3
:104D18000078302808DB0D980078392804DC0DA8C5
:104D280000F018FE08900CE00D9800782A2808D1A9
:104D38000D98401C0D900E98006808900E98001D64
:104D48000E900898002801DA002008900020C0433F
:104D580007900D980078682807D00D9800786C287F
:104D680003D00D9800784C2805D10D98007807904D
:104D78000D98401C0D900A200A900D9800786E2816
:104D88007ED00CDC632817D004DC412879D0582861
:104D980073D17AE064287FD06928F9D17DE073283F
:104DA8002AD004DC6F286DD070287AD150E075289D
:104DB80076D0782875D16BE010202040002808D1E3
:104DC80004E020200490012104A8A847701E061EB4
:104DD800F7DC0E980178001D0E90C8B204900121EE
:104DE80004A8A84704E020200490012104A8A847AB
:104DF800701E061EF7DCA7E00E98006809900E9852
:104E0800001D0E900998002801D159A00990089911
:104E18000998FDF745FE074610202040002809D1D3
:104E280004E020200490012104A8A8473046761EFB
:104E3800B842F6DCB9B20998A84704E020200490EB
:104E4800012104A8A8473046761EB842F6DC7BE06C
:104E5800701C002802D108260120044308980194F8
:104E680000900E9802C83346102203910E902846EF
:104E780000F09AF868E003E003E012E00CE001E0DB
:104E880062E061E008200A9023E04020044300BF6C
:104E980010200A901DE003E000BF0220044300BF79
:104EA80017E00D980078252804D0252004900121CA
:104EB80004A8A8470D980078002806D00D98007817
:104EC8000490012104A8A84702E00D98401E0D9007
:104ED8003AE000BF07986C2806D10E9800680B903E
:104EE8000E98001D0E9025E00798682811D1022021
:104EF8002040002806D00E9800680B900E98001DE0
:104F08000E9017E00E9800680B900E98001D0E90FA
:104F180010E002202040002806D00E9800680B9070
:104F28000E98001D0E9005E00E9800680B900E98E4
:104F3800001D0E90089833460194009028460A9A5E
:104F48000B9900F031F800BF0D98401C0D900D989A
:104F58000078002800D076E60598002806D0059845
:104F680081B20698A8470020069005900FB0F0BDC2
:104F78003C4E554C4C3E000010B5022008490870C4
:104F8800012008490870FCF7EBFEFCF7EFFEFEF77E
:104F9800A7FFFEF745FDFDF7D3FE002010BD00007A
:104FA8004A0AFF1F4C5EFF1FFFB597B0054617461C
:104FB8001E46219C68480068039040202040002835
:104FC80002D066480068039010202040002801D0D5
:104FD80064086400022F01DB242F01DD1BB0F0BD43
:104FE800E007C00F002801D0302100E020211691F1
:104FF8000021159102202040002818D01898002878
:1050080006DA2D201590189840421890761E0EE06A
:1050180004202040002803D02B201590761E06E09F
:1050280008202040002802D020201590761E20203D
:105038002040002806D0102F01D1B61E02E0082F0C
:1050480000D1761E002002901898002806D1302240
:105058000298411C029104A90A5413E00FE0394652
:105068001898FCF789FE0398425C0298411C02914B
:1050780004A90A5439461898FCF77EFE1890189827
:105088000028ECD120990298884201DD02982090EE
:105098002098361A11202040002809D104E0202049
:1050A8000190012101A8A8473046761E0028F6DCA9
:1050B80010A8007D002802D0012115A8A8472020AB
:1050C8002040002816D0082F05D13020019001215A
:1050D80001A8A8470EE0102F0CD130210191012121
:1050E80001A8A8471C480068203041780191012197
:1050F80001A8A84710202040002807D102E001217C
:1051080016A8A8473046761E0028F8DC04E03020B0
:105118000190012101A8A8472098411E20910299D9
:105128008842F4DC06E004A90298085C0190012199
:1051380001A8A8470298411E02910028F3DC04E068
:1051480020200190012101A8A8473046761E00289A
:10515800F6DC00BF42E70000585EFF1F5C5EFF1FE1
:1051680010B500240220FCF7EFFD06490860022272
:10517800002104480068FCF705FE2046641CFCF783
:1051880007FE10BD545EFF1F10B504480178C9071B
:1051980001D07621C160FCF701FE10BD002000405F
:1051A80010B50C4A0021D36812691B781268002ACE
:1051B80003D04C00145B002C03D1491CC9B299429E
:1051C800F5D3994204D2002800D00170002010BD08
:1051D800012010BD0000FF1FF0B5234E234B00280F
:1051E80022D000211CE0A1208000326848438018AA
:1051F80004460022FF34813497003F18FF370137F7
:10520800E56A521CFD66082AF6DB002297003F1863
:10521800FF378137E56A521CFD60082AF6DB491C16
:1052280018788142DFDBF0BD0021084617E0A12293
:10523800920034684A431419002295002D19FF354D
:105248000135521CE866082AF7DB002295002D1963
:10525800FF358135521CE860082AF7DB491C1A78AB
:105268009142E4DBF0BD00003409FF1F1409FF1F61
:1052780010B502210520FDF797F902210A20FDF754
:1052880093F902210B20FDF78FF902211120FDF778
:105298008BF902210C20FDF787F902210D20FDF77B
:1052A80083F902210E20FDF77FF902210F20FDF777
:1052B8007BF902211020FDF777F902211320FDF771
:1052C80073F902211820FDF76FF902211920FDF763
:1052D8006BF902211D20FDF767F910BDF8B51E48CE
:1052E8004168090601D50020F8BD416880221143B4
:1052F8004160194D0A260027803DE86940084000B2
:10530800E8610620FCF73CFC134CC03CA0698021F6
:105318000843A061E86901210843E86102E0082028
:10532800FCF72EFCA86A800504D43046761EF6B237
:105338000028F4D1002E07D0286A7E21C70BA06967
:105348000F4088433843A061A16980208143A1614F
:105358003806400EF8BD0000C0F00040124B10B5F2
:1053680012497E2298420AD98B695B069B0E06D0A9
:1053780088698B694006800E9343401E0CE00C4BF5
:1053880098420FD2886910407E280BD288698B69B1
:105398004006800E9343401C400003438B6103206A
:1053A800FCF7EEFB10BD00000B20000000F00040F1
:1053B800FD1C00000148406980087047401000400B
:1053C80010B500F013FAFFF789FF10BD30B5394862
:1053D8000168012292041143016041680322120608
:1053E8009143354A13781B061943416043680321EA
:1053F80089058B4331490C78A405234343604368EE
:105408006024234343601378022B08D01378012BC0
:1054180005D00B78022B02D00B78012B04D14368FE
:10542800FF240134234343601278032A02D00A7808
:10543800032A03D1426880231A4342604268032347
:105448009B041A4342600B780122D2051C48002BAA
:1054580003D11C4B1B78032B1BD0C3689343C36039
:10546800174A194B4032D360FF2361331361174C3D
:105478005461174B9361FF25114B813580335D6073
:105488009C60144CDC60144B03600978002903D03D
:1054980006E0C3681343E2E701680123194301608A
:1054A8000E4909780E4BC906C90BC91881630D4806
:1054B800D06130BD40F000404C0AFF1F4B0AFF1F6F
:1054C800800003404A0AFF1FC00B00207A3E6A078B
:1054D8000000890400808904CC240000480AFF1FCA
:1054E800250800002FFCA601F8B505004C4A4D48D8
:1054F8004D4B4E4C4E4936D0022D34D08615B7024E
:10550800066286699E43F31983612078002835D0A6
:105518001120400308614748086347480078012282
:10552800120380184861424E414C444B803E403C37
:10553800002D28D06521424AC9024248012D2FD0AA
:10554800022D32D0032D5BD0042D59D03E49691865
:1055580031603E49A1602360E06002210846FCF703
:1055680023FC3B482CE08026066286699E43012383
:10557800DB04F31883612078002801D00A61CAE7A8
:1055880087200003C6E7334830600020A06023600E
:105598003148E06003210846FCF706FC2F480FE07D
:1055A8002F4B3360A2602160D6E72D4B5B1C336024
:1055B800A2602160E06002210846FCF7F5FB29485B
:1055C8002061F068FF210843F060274860612748A0
:1055D800A0612748E0612748206227486062274881
:1055E800A0622748E0622748206327486063E020DC
:1055F800012D0DD02168022D0ED081432160F8BD08
:10560800224BEB183360224B73602160A260A3E742
:10561800216881432031F1E781434031EEE7000002
:1056280000450400C000034000001C004B0AFF1F97
:105638008000034002000001440AFF1F00280B00FD
:1056480055555537D6BE898E0080064255555500AA
:10565800805508220080067807EE75368066082295
:105668000180063D80450822A49C5C544C4443427A
:1056780041524C46403A342E28007F554F49433D0D
:1056880037312B4C46403A342E28221C008006988D
:10569800545A9850F0B5224B214D21498026204A72
:1056A8000727BF04403BC03DE0248039022816622A
:1056B800966914D0BE430127BF04F6199661194AAA
:1056C8001278002A1ED07A101A6101281ED0164AB4
:1056D80080182860154808610868A04314E0012074
:1056E800BE43C004361896610E4A1278002A00D0CC
:1056F800401018610E4828600E4808610868A043E9
:10570800403001E01F61E0E70860F0BD0848401E36
:105718002860094808610868A0432030F4E70000C1
:10572800C00003404B0AFF1F0080069880550822DE
:105738000280063D804508228066082210B50A4985
:1057480000200870094902200870FFF73FFE08484A
:10575800007800F011F8074C2078FFF7C5FE207894
:10576800FCF728FB10BD00004B0AFF1F4C0AFF1F67
:10577800480AFF1F490AFF1FF0B51A4A03230725E5
:10578800D60019499B026024ED0157693F281AD0B9
:10579800B74305263604BE195661CA689A43CB1426
:1057A800D218CA60CA69A2432032CA61CA69AA4328
:1057B800CA610D4940398A6BC0061205120DC00B2B
:1057C80002438A63F0BDB7430126B604BE19566189
:1057D800CA689A43CA60CA69A243CA61CA69AA4325
:1057E8008032E5E700F00040C000034000B500212A
:1057F800022000F021F80C49801C0870002142208A
:1058080000F01AF80949801C08700121022000F0F4
:1058180013F80749801C08700121422000F00CF899
:105828000449801C087000BD440AFF1F450AFF1F79
:10583800460AFF1F470AFF1FF8B53B4C394A22604A
:10584800394D394A07239B04803540320129A9691B
:105858000ED0994301239B04C918A9613349D1602B
:1058680033490B780121C905324E002B07D009E0D6
:1058780099430123DB04C918A9612F49EFE733785D
:10588800032B14D0D3688B43D36050630E2010626F
:1058980000275762FF201530506228480090307862
:1058A8000300FCF78DFA0507070D090B0D00D368F7
:1058B8000B43E9E7224802E0224800E02248009032
:1058C8000098431E0093FBD2686B57620002000EDB
:1058D80017621E4BD360FF23413353626523DB02FB
:1058E80023601B4D2F78E023012F0AD02D78022D3D
:1058F80025680AD09D4325600D4B1B78002B07D0E7
:1059080009E025689D432035F5E79D434035F2E7DA
:105918003378032B03D0D3688B43D360F8BDD368A7
:105928000B43FAE710000300400003407F40730078
:105938004B0AFF1F4A0AFF1F7F4053001027000031
:10594800204E000030750000409C000040401000D0
:10595800490AFF1F0146002008E00B685A1C0A602C
:105968001B780A2242439A18104630380A6812787F
:10597800302A03DB0A681278392AEEDD7047000006
:10598800F8B56E4CFF21E068D5316D4A09581160B1
:105998008030806880F30888FCF7E2F969486A4932
:1059A80000680226884206D00020FCF7EFF870074E
:1059B8000169B14301610020FCF7E8F800F0EAF85A
:1059C80062480078FCF7F6F9614D0027EF61EE6157
:1059D800604868610120FCF7D3F80320E861FCF710
