:020000041102E7
:1000000003B40148019001BD7511000003B401481B
:10001000019001BD75A9000003B40148019001BD24
:10002000C93E000003B40148019001BD9DA9000034
:1000300003B40148019001BD1130000003B4014830
:10004000019001BD53B9000003B40148019001BD06
:10005000B30E000003B40148019001BDD553FF1F4A
:1000600003B40148019001BD6189000003B4014857
:10007000019001BD1907010003B40148019001BDC1
:10008000A9D8000003B40148019001BDB35201009A
:1000900003B40148019001BD0D52010003B40148B1
:1000A000019001BD8B52010003B40148019001BDD4
:1000B000C1A5000003B40148019001BD9D6A000084
:1000C00003B40148019001BD116E000003B4014862
:1000D000019001BDE94C010003B40148019001BD4C
:1000E0008BB9000003B40148019001BDD1D40000D8
:1000F00003B40148019001BDCD4C010003B4014897
:10010000019001BD85C1000003B40148019001BD0B
:1001100009B8000003B40148019001BD2DFC0000A6
:1001200003B40148019001BD25E7000003B4014874
:10013000019001BDEDB8000003B40148019001BD7C
:100140003148000003B40148019001BDC53F0000E3
:1001500003B40148019001BDF5D5000003B4014886
:10016000019001BDF1FA000003B40148019001BD06
:10017000F94AFF1F03B40148019001BD99460000F0
:1001800003B40148019001BD1547000003B40148C4
:10019000019001BDC5F0000003B40148019001BD0C
:1001A00079F4000003B40148019001BD63EC000044
:1001B00003B40148019001BD05FF000003B40148EC
:1001C000019001BD3161000003B40148019001BDFF
:1001D00059E4000003B40148019001BDD5E40000DA
:1001E00003B40148019001BD01BF000003B4014800
:1001F000019001BD21F1000003B40148019001BD4F
:1002000039B8000003B40148019001BD77F1000046
:1002100003B40148019001BDC1E2000003B40148EC
:10022000019001BD154D010003B40148019001BDCD
:100230008DE3000003B40148019001BD5511010098
:1002400003B40148019001BDA5FD000003B40148BD
:10025000019001BDA93C000003B40148019001BD1B
:10026000FD2FFF1F03B40148019001BD7538FF1F2A
:1002700003B40148019001BDADAE000003B40148D4
:10028000019001BD456B010003B40148019001BD1F
:100290001D4B010003B40148019001BD090E00008F
:1002A00003B40148019001BDF54E010003B40148BB
:1002B000019001BD434D010003B40148019001BD0F
:1002C0004551010003B40148019001BD25260000FD
:1002D00003B40148019001BDC94A010003B40148BB
:1002E000019001BD3D4B010003B40148019001BDE7
:1002F000014C010003B40148019001BDF94C01001B
:1003000003B40148019001BD691F000003B4014816
:10031000019001BD5D17000003B40148019001BDCB
:100320005952010003B40148019001BD512500005C
:1003300003B40148019001BD594F010003B40148C5
:10034000019001BD8D12000003B40148019001BD70
:100350004D1F000003B40148019001BD552200006B
:1003600003B40148019001BDDD52010003B401480E
:10037000019001BD1D4D010003B40148019001BD74
:10038000810E000003B40148019001BDF121FF1F5F
:1003900003B40148019001BD1DBC000003B4014835
:1003A000019001BD6DBC000003B40148019001BD86
:1003B000017F000003B40148019001BDE117000076
:1003C00003B40148019001BD7918000003B401484D
:1003D000019001BDD949010003B40148019001BD5C
:1003E000E928000003B40148019001BD554901000E
:1003F00003B40148019001BDC926000003B40148BF
:10040000019001BDA947FF1F03B40148019001BD40
:10041000B926FF1F03B40148019001BD4547FF1FE6
:1004200003B40148019001BD952AFF1F03B40148A0
:10043000019001BD350E000003B40148019001BDDB
:10044000C93BFF1F03B40148019001BD7D3CFF1F64
:1004500003B40148019001BD3519000003B40148FF
:10046000019001BDBD18000003B40148019001BD19
:10047000291C000003B40148019001BD851F000044
:1004800003B40148019001BDA946010003B401482D
:10049000019001BD1147010003B40148019001BD65
:1004A0001D3BFF1F03B40148019001BD2147FF1F01
:1004B00003B40148019001BD6B21FF1F03B4014843
:1004C000019001BD4521FF1F03B40148019001BD0A
:1004D000156B010003B40148019001BDB13E00005D
:1004E00003B40148019001BD7529FF1F03B4014801
:1004F000019001BDB95E000003B40148019001BD47
:100500008929FF1F03B40148019001BDC90E0000F5
:1005100003B40148019001BD055E000003B4014829
:10052000019001BDE548000003B40148019001BD00
:100530002951010003B40148019001BDD91B0000FD
:1005400003B40148019001BD5147010038B504468C
:1005500000F044F80146684601704470210A817039
:100560006A4603210248FFF74BFD002038BD00001A
:100570001B20000038B5044600F056F801466846D6
:1005800001704470210A81706A4603210248FFF716
:1005900037FD002038BD00001A20000008B50028F3
:1005A00002D000F049FA00E01220694608706A465D
:1005B00001210248FFF724FD002008BD05200000AE
:1005C00070B50C460546FFF721FD21462846FFF78A
:1005D00023FD0446FFF726FD204670BD10B5114AE5
:1005E000A1218900126841438C189D218900095975
:1005F000012901D00C2010BDFFF71AFD0028FAD107
:10060000E01DF93002790621012A06D041710D2141
:100610002046FFF713FD002010BDFF2021300155BB
:100620000221F5E73409FF1F70B50D46134AA121D9
:100630008900126841438C189D21890009590129BC
:1006400001D00C2070BD002D16D0FFF7F1FC002862
:10065000F8D110210B1A2A5C1B19E033401CC0B2E0
:100660009A711028F6D30121F82001550521204662
:10067000FFF7E4FC002070BD122070BD3409FF1F9D
:10068000FEB5089D099C1746002874D0002972D039
:10069000002C02D0012C02D003E02A2201E0FF222C
:1006A0000732921D0192354A0E461770344A106087
:1006B000344803703448057034480470002446E020
:1006C000A1208000254645432D48A12100688900CE
:1006D0002818FFF7B9FC2A482D490068620028183D
:1006E000FF308130C66201983618002088545118B6
:1006F00048702649097800293BD0FF21113100912B
:1007000021461C2041432248002220300D182A7621
:100710004254E0B20099FFF79DFC68600020287207
:10072000E0B201220099FFF795FCE86000202874F0
:10073000E0B202220099FFF78DFC68616968002928
:1007400019D0E968002916D0002814D0641CBC42D6
:10075000B6DB00200F4D104A014683009C186580CF
:10076000401CD154C0B261701028F6D30020FEBDE9
:1007700001E03421C3E71220F9E700001409FF1F4C
:100780003409FF1F1509FF1F1609FF1F1709FF1F57
:100790001492FF1FFFFF0000F493FF1FF8B5714D87
:1007A0000028AA7916D0012A01D0032A12D16E4955
:1007B0000B78FF2B0ED14B78FF2B0BD18B78FF2BB7
:1007C00008D1CB78FF2B05D10B79FF2B02D14979CA
:1007D000FF2930D065490B78012B1DD00026644CD1
:1007E0000E702178092931D00A292FD00B292DD05C
:1007F0000C292BD00D2929D0052927D0062925D051
:10080000A97B00290AD0012908D0032906D0022992
:1008100004D004290FD101E00C20F8BD002A05D036
:10082000012A03D0022A01D0032A04D1514F002803
:1008300075D0012801D01220F8BDA888012805D064
:10084000FFF7E4FB2078002802D01AE02120F8BD51
:10085000A87B0300FFF704FC050408100C08240023
:10086000012020701F200AE002202070202006E0D6
:1008700004202070222002E0032020702120FFF7B6
:10088000F5FB2078282101280DD002280BD0042860
:1008900009D0032807D007280ED008280CD01BE069
:1008A00026701E20EBE7344806602975FFF7E4FB4D
:1008B000002820D0AE800FE03048C068808D8006D0
:1008C0000AD52F480278002A06D1AA7B032A06D02F
:1008D000022A04D0002A02D0FFF7A4FBB6E70222C6
:1008E00002702975140321463878FFF7CBFB2146A7
:1008F0003878FFF7CDFB0120A88022480078002837
:1009000009D02148012102887D20C0004243C9034B
:100910003878FFF7C3FBFFF785FB20E0FFE7FFF721
:1009200075FBAE802078072808D0082806D02670EE
:100930001648FFF7B9FB1E20FFF798FB1048017817
:10094000002905D00670012149033878FFF79AFB8A
:10095000FFF768FB0121C9033878FFF793FB0020FC
:10096000F8BD0000A60BFF1F6B09FF1F1A09FF1F30
:100970001C09FF1F1B09FF1F4809FF1F7871FF1F7C
:100980002309FF1F2109FF1F2C09FF1F0010004032
:10099000FFB585B016460D460446119FFFF736FB9E
:1009A00015482946007804902046202C00D22020AB
:1009B000202900D220210EAA2CCA009201AAA8C286
:1009C0003246089BFFF776FB05460C480A494480EF
:1009D00004980870012E01D0042E08D10848802305
:1009E0000078C101074882889A4311438180FFF74C
:1009F00019FB284609B0F0BD1C09FF1FA60BFF1FFD
:100A00007809FF1F6C11FF1F10B5FB2908D8084B90
:100A10009A4205D81B2903D3FF2349339A4201D2B6
:100A2000302010BD034B19825A82FFF749FB10BDDD
:100A3000480800008410FF1FF8B5324909780129E1
:100A40002AD0022928D0032926D0042924D0052918
:100A500022D0062920D02C49097802291CD004294B
:100A60001AD0012918D0032916D0062914D0072935
:100A700012D00178254C8C462170467866708378B8
:100A8000A370C278E270017921714079204D6071C4
:100A9000AF79012F02D008E00C20F8BD6746EF7156
:100AA0002E726B72AA72E97228730622E91D194828
:100AB000FFF70CFB0622E91D1748FFF707FB174855
:100AC000017801290BD12178417061788170A1787A
:100AD000C170E178017121794171617981711048AA
:100AE000017801290BD12178417061788170A1785A
:100AF000C170E178017121794171617981710020C2
:100B0000F8BD00001C09FF1F2309FF1F6B09FF1F11
:100B1000A60BFF1F7211FF1F8A13FF1FBC0BFF1FC5
:100B2000D40BFF1FFFB50D46A1218900484323497F
:100B300081B009681E464418002D09D0FF20D93025
:100B4000015B0398814203D3002E04D0012E02D012
:100B5000122005B0F0BDE07800280AD00520C001C1
:100B600027181748F9780078801C814203D30720A2
:100B7000EFE70220EDE7FFF749FAF878A91E401CDD
:100B8000F87003980870002E10D00120487020469D
:100B90007C30091FFFF7A0FAFFF744FA09480078F4
:100BA000082805D0072803D00020D2E70220EDE76F
:100BB00000212046FFF796FAF6E700003409FF1FF0
:100BC0001509FF1F1C09FF1F70B50446FF30FF30D9
:100BD0000230406F0D46012812D1282D10D1A420DB
:100BE000005BE188401A1D4980B2884208D3214643
:100BF0006A3105220E46481FFFF77AFA002818D0FE
:100C000017490020820052185278002A16D0401C42
:100C1000C0B21028F6D31348012189020078FFF7EB
:100C200037FA2079010110480918897902290DD075
:100C30000FE031462046FFF761FA70BD800023794E
:100C4000421853800D5401205070E4E74178491E4A
:100C500041702046FFF758FA70BD0000FF7F00008A
:100C6000F493FF1F1B09FF1F300DFF1FF0B5054652
:100C700087B0E03004902846A030039040380590BB
:100C8000092080012E462818FF36E13602903046B2
:100C90002030EF1DF9372C46803401909FE1E07A37
:100CA000801E0300FFF7DCF91A0E3822396BF63884
:100CB000C13892D1A9383838383838F5F4F3F238D9
:100CC00038F1F038A07A012803D02846FFF722FA3D
:100CD00012E0C5488078002801D0162130E1608AF2
:100CE000401E0004000C60826FD076E1A07A0128DB
:100CF00004D02846FFF714FAA0726EE1BA48C07813
:100D00000028ECD02846FFF711FA2A462946287910
:100D1000C832C031FFF710FA61E1A07A012813D080
:100D20000498C07D012821D00498007E00287BD043
:100D30002A4629462846D732B031E730FFF702FA73
:100D400004990120C8754AE1A748C078002805D059
:100D50000399012088710020E0673860B879012884
:100D6000BDD106212846FFF7F3F938E12846FFF701
:100D7000F5F90128B9D10020B8710120BCE7A07AAB
:100D8000012803D02846FFF7EFF9B5E79648C07869
:100D90000028A4D0E88C68842846FFF7C7F9059995
:100DA0000120C876207138790128287909D00122DC
:100DB0000021FFF7DFF9002038713872F871B8713F
:100DC0000DE10021FFF7DCF9F5E7B8E0A07A012892
:100DD00005D02846FFF7DAF9012807D0FDE0F879B9
:100DE0000128BDD12846FFF7A1F9F8E00020F871ED
:100DF000039988710120A072F1E0A07A012804D043
:100E000079792846FFF7C8F976E77748C17800294D
:100E100006D0039A00219171059A0121D1762171A2
:100E200080780028DED15AE78EE0A07A012803D02E
:100E30002846FFF7B7F95FE76B48C0780028F2D083
:100E400001203873E88C6884CCE7A07A012805D0AB
:100E50000120F8752846FFF7ABF94DE7787D0128AA
:100E600006D0608A401E0004000C608213D0B4E0FB
:100E7000B87D0128B6D1B88B00907B8B3A7E29795A
:100E80000020FFF79BF9ADE78FE072E03BE02DE03B
:100E90001BE009E09CE0B88B00907B8B3A7E2979BF
:100EA0002220FFF78BF94AE0A07A012806D02846D5
:100EB000FFF78AF9A072002070748EE04A48C0786B
:100EC0000028B0D0012070748CE7A07A012803D0EC
:100ED0002846FFF77FF90FE74348C0780028A2D0E3
:100EE000002030742879FFF77BF97BE7A07A01288E
:100EF00003D02846FFF77AF936E03B48C07800284F
:100F000091D0012018E0A07A012807D0707FB17F2E
:100F100008401BD041071DD5042020E03248C0788E
:100F200000288CD001990020C871019A012111720A
:100F30002E490979012987D10199087252E72221A6
:100F40002846FFF759F9012007B0F0BD707E707593
:100F5000B07E05E0800701D5022000E00120707519
:100F6000B0752846FFF74EF9A0720199002008726B
:100F700033E0A07A012807D02846FFF749F9A0728C
:100F800002990120087628E01748C07800289BD1F4
:100F9000608A401E0004000C60821ED114480422A6
:100FA00000212818FFF73AF9C9E7A07A012803D0F1
:100FB0002846FFF739F99FE60B48C07800280ED085
:100FC0000299002008760299C875FFF733F909E7FE
:100FD0002846FFF735F9012887D00020B4E7E07BE9
:100FE000002800D05BE6AFE7E010FF1F7871FF1F1D
:100FF000560200000E480D4901600E4981600C49FF
:101000000D4A40314A610E4B0C4A5A610D4AC26288
:101010000D4A82630D4A8A600D4A4263084A0D48B0
:10102000403A10620C488861704700009109021133
:101030004000FF1F9D0702110558FF1F3556FF1F77
:101040004002FF1FC54AFF1F3949FF1FC90B02118C
:101050006D0C0211194CFF1F9927FF1F70B5FEF789
:10106000D5FF904C002025682060FFF7EFF806467A
:101070002560FEF7D7FF304670BD8B49C968FF3148
:10108000813188657047F8B5FFF7E6F8864D874AE5
:1010900068721178022903D9002801D1012010704B
:1010A000834900200446E9608300401CCC50FF289F
:1010B000FADDE8687F49882319507F49C1627F497A
:1010C0000978002902D07C491131C1620A210165E9
:1010D000117881637A49C161FFF7C4F8E9687948FA
:1010E0004861192080018861084637228030C2603B
:1010F000082336220B64CA631E224A6436224260E9
:10110000322202603B220364C263282242644122ED
:10111000C2643922826432224365026528228265D4
:10112000022202664222C2651E228366426628228D
:10113000C26620224267422202675A22436102614C
:101140003C228261192292010A605F4A0A63FF22EF
:101150002D328A60CA60FF22F5320A615B4A8A64D6
:101160007D22D2005A4EC267CE644A62594A8A62D0
:101170003222CA6506224A658A65CA1DF9320225ED
:1011800013604D664B25ED008D660925CD66524DE9
:101190000D678C674B67AB10CB67504FFF313E60DC
:1011A0004A4E86627D26F6008667642646620526DC
:1011B000C66202260663C8264663846338205060F0
:1011C000474810644B2080019061B000D0615810F6
:1011D00010627D2000015062D466956513665364E9
:1011E000D565146753671E2090663E4890673E4859
:1011F0005B008131D0670B608B604860FF20F53069
:10120000C86008614B20C00010630E65384837493C
:10121000274A81603749803A11613549364A803121
:101220008A62364ACA62364A8261364AC262364A9F
:1012300002632F4A3548403A50633548D0633548F9
:10124000C861354890632A4934484031886135493E
:101250003348886026483449803841603349244AFD
:1012600041633349C03AD1603349324B204CCB63A0
:10127000324B403C2363324B9362324AC263324A60
:10128000C260324A4A63324AE260324A8A63324A70
:101290000A6332498163FEF7EBFF0120FEF7EEFFA0
:1012A000F8BD00009809FF1F7871FF1F4A0AFF1F51
:1012B0000004FF1F0899FF1F6E040000006AFF1F53
:1012C0003A07000080C3C9019A02000050C3000021
:1012D000280A00006A180000204E0000F009FF1FD5
:1012E00000400011DC05000040420F001D50FF1FB0
:1012F0000001FF1FFD24FF1F115BFF1FE55DFF1FA6
:101300000922FF1F9D23FF1F2522FF1FA537FF1F57
:101310006134FF1F6566FF1F5164FF1FC521FF1F5A
:10132000090A02110002FF1FB149FF1FA14DFF1F53
:101330005127FF1FC10502110000FF1FD958FF1FD1
:10134000394BFF1FF952FF1F714BFF1F3927FF1F3A
:10135000054AFF1F250B0211E526FF1FF955FF1F48
:101360000A7802708A7842704A88120A8270097973
:10137000C170042070470A7802700988090A417018
:101380000220704710B500220EE093005B189C7895
:1013900004705C88521C240A44701C7984709B88F9
:1013A000D2B21B0AC370001D0B789342EDD8180609
:1013B000800D10BDF8B50D46064649780120317004
:1013C0000024761C16E06978012917D012216143A8
:1013D00049198A7832704A88871C120A7270B61CC2
:1013E00010223046091DFEF771FE1037B8B21036D4
:1013F000641CE4B22978A142E5D8F8BDA1004919DE
:101400008A7832704A88871C120A7270B61C0222CF
:101410003046091DFEF75AFEBF1CB8B2B61CE7E7FE
:1014200010B50C46097801702188090A417062885C
:10143000211D801CFEF74AFE6088801C80B210BD12
:1014400010B50C46097801702188090A4170A1780D
:1014500081706188090AC170A288A11D001DFEF774
:1014600035FEA088001D80B210BD10B50C460A885C
:10147000891CFEF72BFE208810BD10B50B788A78EA
:1014800002705343DCB22246401C091DFEF71EFECB
:10149000601C10BD10B50B788A7802705343DCB223
:1014A0002246401C091DFEF711FE601C10BD10B540
:1014B0000C460A88891CFEF709FE208810BD10B56D
:1014C0000C460A88891CFEF701FE208810BD7FB5F6
:1014D00015460446022901D0102903D1022B04D05D
:1014E000102B02D0002004B070BD994202D10A46F0
:1014F000294607E01029694607D000F00DF81022B0
:1015000069462846FEF7F4FDEDE7104600F004F8C2
:10151000102269462046F5E770B50C4605000CD050
:10152000002C0AD0102206492046FEF7CFFD28786D
:10153000207368786073012070BD002070BD0000CA
:10154000B9AE021110B50B460122024903F002F9AF
:1015500010BD00006113021170B5064608880C46E4
:10156000172812D30B4603220949304603F0F2F83C
:10157000050008D1074920880988884200D2014621
:10158000304600F0CFF9284670BD022070BD000043
:1015900077130211F071FF1F10B5002319221946AD
:1015A00003F0D8F810BD000010B50A78002A05D065
:1015B0000B460722024903F0CDF810BD022010BDF2
:1015C0008513021110B54A78012A01D0022A08D1E8
:1015D0000A78002A05D00B460522034903F0BAF821
:1015E00010BD022010BD0000B513021102494000D9
:1015F0008968085A70470000E471FF1F10B50B4658
:101600001D22024903F0A6F810BD000021140211AA
:1016100010B50B461B22024903F09CF810BD0000D8
:101620002114021110B50649002089681723054AC4
:1016300002E044000B53401C1478A042F9DB10BDBB
:10164000E471FF1FAC72FF1F0098022B01D0042031
:101650007047117852781202891801800020704773
:101660000098012B01D004207047117801700020F0
:10167000704770B5049C1E461546062B1BD369782F
:101680002878090240182080E978A87809024018D3
:10169000608002222271291D601DFEF717FDB61F12
:1016A000B2B22281F02A06D82046A91D0A30FEF7E0
:1016B0000DFD002070BD042070BD0098042B01D0EA
:1016C00004207047537811781B02C9180180917863
:1016D000D27812028918418000207047F8B58489B9
:1016E0000D460646002C26D0B2681778380620D55D
:1016F0000C2C20D90C3CA4B2101900900121708848
:10170000234602F09FFF002811D00220287078069F
:10171000C00F6870B806800EA870641E2004000C0C
:10172000A88001D0B068401CA8600020F8BD01204E
:10173000ECE70020EAE70120F8BD10B50298114659
:10174000042B14D34C780A78240212190280CC7826
:101750008A782402121942801B1F9AB28280F22AD0
:1017600005D8801D091DFEF7B1FC002010BD042026
:1017700010BD0098042B01D00420704753781178D5
:101780001B02C91801809178D27812028918418011
:101790000020704710B502981146062B03D0142B79
:1017A00003D0042010BD022200E0102202714B7809
:1017B0000A781B02D2180280CB788A781B02D218D2
:1017C00042800279401D091DFEF780FC002010BDFB
:1017D00030B5039CD80718D1D805010E022914D3BF
:1017E0000B488088814210D8F6200155002008E07F
:1017F000557813782D025B194500401C6353C0B225
:10180000921C8842F4D3002030BD042030BD00007B
:10181000E471FF1F0098022B01D00420704711785B
:1018200052781202891801800020704770B5144662
:1018300002460498022B18D3667825783602AD1933
:1018400005800546E0352A766976002A0BD0E82126
:101850009B1E9AB242808A4207D8A11C001DFEF747
:1018600035FC002070BDF421F2E7042070BD0000BB
:1018700010B50B461722024902F06CFF10BD0000A4
:101880004114021110B50B460D22024902F062FF0D
:1018900010BD00006B14021110B50A78002A05D0A3
:1018A0000B461122024902F055FF10BD022010BD67
:1018B0007B14021110B50A78002A05D00B460922C4
:1018C000024902F047FF10BD022010BD951402111D
:1018D00010B50B460F22024902F03CFF10BD00007C
:1018E000AF14021110B50B460B22024902F032FF71
:1018F00010BD0000BF140211F72800D9F720084AD4
:1019000001461080401EC3179B0F18188003000C5F
:101910005080491EC80F4018C003000C90807047CB
:10192000E471FF1F034A1388994202D8926840006D
:1019300011527047E471FF1F10B50023132219469E
:1019400002F008FF10BD000010B50549054801F080
:1019500029FA0348044A0521083001F0A3FB10BD11
:10196000C470FF1FFFFF000078AE0211034610B5E0
:101970000020104A002B08D0012B08D01032022B77
:1019800008D0032B09D0022010BD127800E0527855
:101990000A7010BD52890A8010BD064B9B1C1C7832
:1019A0000C715B784B71538D0B80528F4A800122F2
:1019B0008A7110BDBC70FF1F10B5044608488442F0
:1019C0000DD0012907D0022909D10121204607F0B5
:1019D00073F8002803D10349204601F0E3F910BD54
:1019E000FEFF0000C470FF1F10B505495F200A7894
:1019F0005F2A03D90870034807F012F8002010BDD1
:101A0000BC70FF1FE94702110149486070470000A0
:101A1000BC70FF1F70B50C460146012080020A1AF7
:101A200000251C481300FEF71BFB0F32090B0D109D
:101A300012181A1C2A1F212325272A00408A23E076
:101A4000807800E0C078207021E00079FBE7102268
:101A500011492046FEF73AFB19E04079F3E7C07AD6
:101A6000F1E78069206012E0407AECE7807AEAE7EB
:101A7000007BE8E7807BE6E703F0E4FAE3E7272969
:101A800004D2084600F0F4FE208000E0022528463B
:101A900070BD00004C6AFF1FAC89FF1F10B50249E2
:101AA000087003F0CFFB10BD4C6AFF1FFFB59FB05D
:101AB00000261F46079607AA089600F0D7F90546A4
:101AC00048A002F021FF062107A807F079F90A2DA6
:101AD0007AD22C460620444320462030C0B26A46C3
:101AE0000E2107F039FA002802D168468089C6B273
:101AF00021980990082F14D000200F90082F12D0A1
:101B000020462130C0B20E901C2200216846FEF70C
:101B100085FB6A461C210E9807F01EFA002805D0A6
:101B200010E00120E9E720462230EBE76846807E9E
:101B3000C01F092806D8F107C90F6A460F9B0998EC
:101B400000F0E2FD142200211AA8FEF767FB2046F0
:101B50002430C0B21AAA102107F0FEF9002812D1D1
:101B60001022FF211AA8FEF78FFB00280BD1253485
:101B7000E0B21EAA042107F0EFF9F107C90F1AAA73
:101B8000219801F029F87035E8B210AA282107F051
:101B9000E3F9002811D110A803F045FB002410AD93
:101BA000A00040190188002903D08278219801F013
:101BB000D5FA641CE4B20A2CF2D3B00704D50B4862
:101BC0000178219801F0B8FA042F08D1074921982B
:101BD000491C085C022802D1219803F06BFB00200D
:101BE00023B0F0BD7265733A0A0000004C6AFF1F13
:101BF00070B50024054600290BD108491046FEF7B0
:101C000049FB0846294600F0CBFE040003D0012121
:101C1000284601F007F8204670BD000040420F0042
:101C200070B50C46080428D515480078FEF738FB37
:101C300005001ED00178B02908D0B1290ED0D029D6
:101C400014D100F01FF8002810D112E001791E29EC
:101C50000CD16888002100F065F907E001790029BE
:101C600004D10289C188688800F048FA2846FEF746
:101C70001DFB0120C003604070BD002070BD00004E
:101C80004C6AFF1F7FB582786E4C921FE16913008A
:101C9000FEF7E6F90AB2D6D6681B06D6D65F7AD624
:101CA0000546002908D00E68002E05D06B7B2A7BE4
:101CB0006989E81CB047C3E06989A06900F070FE3B
:101CC0000028F8D06889012190E005464078002876
:101CD0002DD1A879C0072AD0A8885A498000203180
:101CE0000858002823D10E2200216846FEF796FAF4
:101CF0006969002903D006226846103107E0A888E8
:101D000006F01CFE00283ED0C11D06226846FEF7E4
:101D1000DDF969468889A9794907C90F08436946E9
:101D200088812946684603F045F8002809D0E06913
:101D3000002828D04368002B25D06A78A888012184
:101D400051E0A8882A46694603F086FB002004B0CB
:101D500070BD002974D04B68002B71D04278808808
:101D6000022140E00446C0780022211D00F07EF8E8
:101D70000A2865D20621484325302246C0B20C32DB
:101D8000042107F005F95BE00546607A0028A88881
:101D900001D0A17A2AE02B49491C095C002924D0F2
:101DA00006F0CCFD0646A87AC0070DD0002E47D01D
:101DB000B079002808D0A989890505D46A46F11DA3
:101DC00000F054F8002814D02A46B179A8880832C7
:101DD00003F0AEF8E069002832D04368002B2FD022
:101DE0000022A888114698472AE0052100F01AFF32
:101DF00026E0A8880321F9E700F0B2FD00281FD1F2
:101E0000E07B0025012805D00F4E0024305D01281D
:101E100009D00CE003F05AF9E5730A2200210A48C0
:101E2000FEF7FCF907E0204603F05CF93555641C29
:101E3000E4B20A2CEAD3502007F08CF803F002FA3F
:101E4000012084E74C6AFF1F488AFF1F10B5064C2B
:101E5000E0612178FF2905D0262000F0ADFE207832
:101E600001F01AF910BD00004C6AFF1FF0B50A24FA
:101E700085B016460F46002807D0012805D00A2550
:101E8000022810D0032847D11FE0084603F08AF942
:101E900004460A2840D2002E3ED00622394630465B
:101EA000FEF714F938E01E4F002400910E20604325
:101EB000C0190622801D0099FEF71AF9002823D1C7
:101EC000641CE4B20A2CF1D31CE000242046062155
:101ED00048432330C0B26A46102107F03DF800287D
:101EE0000CD11022FF216846FEF7CEF9002805D15B
:101EF0003946684600F012FE002805D0641CE4B2A2
:101F00000A2CE3D32C4607E00A2C05D2002E03D07E
:101F10003146204603F06CF9204605B0F0BD0000C4
:101F2000BC89FF1F70B50E4617491525884212D18E
:101F3000002432460221204603F09CF8002800D0FD
:101F40000025641CE4B20A2CF3D3002E1AD00F48EB
:101F500006F066FD16E006F0F1FC040011D0A07951
:101F60000022E11DFFF782FF0A2804D23246022137
:101F700003F080F80025002E04D0204603F090F9ED
:101F800000E01425284670BDFFFF0000A152021199
:101F9000FEB5154601229202821A00240127544EF2
:101FA0001300FEF75DF8110A151A21282F373E435A
:101FB0004B767E858D9B9B569B00012970D129789D
:101FC00002297FD84A480122401CFEF727F98DE0FC
:101FD000022977D12888708288E0012972D1287877
:101FE00001286FD8B07081E001296BD128780428CE
:101FF00068D8F0707AE0012964D12878012861D886
:10200000307173E010295DD1102229463948FEF75E
:102010005DF86BE0012955D12878012852D87071FC
:1020200064E001294ED12878F0725FE0042949D19B
:1020300031492868884245D8B06157E0002941D12C
:1020400000F08EFC002801D0F7734FE003F03EF85B
:1020500019E0072936D10622691C6846FEF72CF9DB
:10206000287800226946FFF701FF05460A280ED2AC
:1020700000F076FC002803D01E489C30475535E020
:10208000284603F02FF8502006F064FF23E00224D6
:102090002CE0012916D12878012813D8707225E088
:1020A00010E001290ED1287809280BD8B0721DE064
:1020B000012907D12878C11F092903D8307315E0F9
:1020C000012901D0182411E0B07B2978B1730028D0
:1020D0000CD101290AD103F0B5F807E02728D6D2A0
:1020E0000229D4D1298800F067FD04462046FEBDB0
:1020F0004C6AFF1FAC89FF1F3F420F00F8B50F4627
:1021000013491525164688420DD10024324639461A
:10211000204603F0F1F8002800D00025641CE4B24A
:102120000A2CF3D312E006F009FC00280DD08379C5
:10213000C11D00221846FFF799FE0A2806D2324632
:10214000394603F0D9F8002500E014252846F8BDEB
:10215000FFFF000070B50C460146032000020A1A7A
:10216000002534481300FDF77BFF1D1012151C1FBE
:102170002326282C303234383A3C3E4042444648EC
:102180004A4E50525A5456585A00C07911E0102203
:10219000294902E02849102210312046FDF796FF18
:1021A00045E0C06A206042E0224906223C31F4E763
:1021B000007820703BE0808936E01E494278423149
:1021C000EBE71D4982781F39E7E7007AF1E7407AAB
:1021D000EFE7184906223031DFE7807AE9E7C07A75
:1021E000E7E7C08920E0808A1EE0C0781CE0C08A52
:1021F0001AE0008B18E0408B16E0808B14E00D494C
:1022000006223631C9E7C08B0EE0008C0CE0408C12
:102210000AE08079CDE7008A06E0408A04E02729B9
:1022200004D2084600F024FB208000E00225284666
:1022300070BD0000F86AFF1F878AFF1F70B50E4C43
:1022400000256071A571691EE18100F061FC042028
:10225000E071102200210948FDF7E0FF0748102235
:1022600000211030FDF7DAFFE56225726572072064
:10227000A072E57270BD0000F86AFF1F878AFF1F19
:10228000FEB53B4D0C4608040CD56879FEF708F8FE
:10229000050004D003F030FE2846FEF707F80120C1
:1022A000C00360E0600403D5012080034840FEBD08
:1022B0002F48E1070126807900292AD029780029B2
:1022C00020D0052821D0297A68460170697A4170AA
:1022D000274906223031801CFDF7F8FEA97A6846AE
:1022E0000172E97A41726946687900F0D9FA0028EA
:1022F00008D00720A871696A002903D0096800295D
:1023000000D0884720467040FEBD03206946087013
:10231000E4E7A1070DD5052809D1E889FDF7D2FF2B
:10232000AA8A002A03D002216879FDF7B7FE0220AD
:1023300019E0600704D5002003F036FE042012E007
:10234000200712D52879012802D002280AD107E0F7
:102350000096AB8B6A8B298BE88A00F00BF801E0C2
:1023600000F05AF908206040FEBD0020FEBD0000CC
:10237000F86AFF1FF8B5134C069EA579052D01D00C
:102380001420F8BD104F851FBD4219D2062917D35E
:10239000BD1DA94214D2FF27F537BA4210D20A2B2D
:1023A0000ED3AB420CD2E08221836283A3833046FA
:1023B00003F0FAFD04216079FDF764FE0020F8BD0A
:1023C0001820F8BDF86AFF1F7A0C0000F7B50D461B
:1023D00080490098164642187F4F00247879B979D1
:1023E0001300FDF73DFE190E141BE92040455970FE
:1023F000777E888FE996A2A9B4BFC8E9E9E9E9D355
:10240000E900102D76D11022314674486FE0102D6E
:1024100070D1724810223146103068E0042D69D125
:102420003068F862CEE0012D64D13B7832783A70A2
:10243000002B0AD0002A07D1022903D0062901D097
:10244000042901D100F0EAF9BCE0002A0AD00129F0
:1024500005D0032903D0052901D0042902D1012187
:10246000FDF716FEAEE0022D44D13088B881A9E018
:102470001F2D3FD858481F2200214230FDF7CEFEC5
:1024800055482A4631464230FDF720FE524B7D70BA
:1024900042332A46012112E01F2D7CD84F481F22CB
:1024A00000211F38FDF7BAFE4C482A4631461F3836
:1024B000FDF70CFE494B2A461F3BBD700021787981
:1024C00000F000FC83E0012D65D13078042862D84B
:1024D000387277E0012D5ED1307803285BD87872AE
:1024E00070E0062D57D13C48062231463030FDF7CA
:1024F000EDFD67E04FE0012D4DD1307807284AD837
:10250000B8725FE0012D46D13078032843D8F872C5
:1025100058E0022D3FD13288BA82002A52D00529D4
:1025200050D10221FDF7BAFD4CE0012D33D13078B6
:10253000012830D8F87045E03088022D2BD10628CC
:1025400029D31921C901884225D8F8823AE0308878
:10255000022D20D106281ED31921C90188421AD87C
:1025600038832FE03088022D15D1FF21F5318842C4
:1025700011D2788326E03088022D0CD10A280AD3A4
:102580001921C901884206D8B8831BE03178012D92
:1025900001D1012901D0182414E00821FDF798FE8B
:1025A000002801D016240DE0002003F0FDFC0421DA
:1025B0007879FDF767FD05E00098272801D2022D04
:1025C00002D002242046FEBD318800F0F5FA044610
:1025D000F8E70000FFFCFFFFF86AFF1F878AFF1F74
:1025E0001CB50B4CA179002901D011201CBD00287D
:1025F00000D06062064907482C31034601910090E3
:10260000103B0022E179607900F0C2F800201CBD87
:10261000F86AFF1F978AFF1F10B5064881790529C0
:1026200001D0122010BDC1891322407900F00AFBAD
:1026300010BD0000F86AFF1FF8B504462F480F468A
:102640000078022805D0012803D0082803D1002FE4
:1026500001D01220F8BD002C08D0294D2088EA684E
:1026600081005158002903D01120F8BD0220F8BD87
:1026700006F064F906003BD02C20FDF72FFE2188E0
:10268000EA6889005050002834D02C220021FDF740
:10269000C5FD2088EA68810051581C2248802088A6
:1026A000E96880000858211D001DFDF70FFD2188F5
:1026B000EA6889005158022008702288E968900071
:1026C0000B5870791B1D002816D000200D49097881
:1026D00001F05CFF0546002F03D03946304607F075
:1026E0000FFA002D02D0208802F030FF2846F8BDF6
:1026F0001420F8BD1320F8BD0120E7E7F571FF1F96
:102700005872FF1F8572FF1FFFB5204D81B02878DA
:102710001E461746022823D0012821D0002F22D0A0
:10272000019806F00BF904001FD0606A002801D060
:10273000FDF7DAFD1C213846FDF7DCFD6062011E65
:1027400015D02878000714D5002E12D0887E00906E
:102750000B4612330A8A019807F0B0FC014609E0E3
:10276000122005B0F0BD0220FBE71420F9E713208A
:10277000F7E700212079042210432071029A002AF1
:1027800002D00222104320710846EAE7F571FF1FCC
:10279000FFB581B01E460D4602240B9F0B00FDF7CE
:1027A0005FFC0D1A0B1A1A0B1A1A1A1A1A1A1A089F
:1027B0001A000AA002F0A8F82946019800F0D4F8FF
:1027C000040008D13A4630460A9900F0ABF900F00F
:1027D0000BF901F0CBFE204605B0F0BD4741505F3C
:1027E000446576696365496E69743A204741505F74
:1027F00050524F46494C455F43454E5452414C2040
:102800007C204741505F50524F46494C455F5045F0
:10281000524950484552414C200A000070B5104CB6
:102820002168002904D00978814203D0032070BDBB
:10283000122070BD0B4D02212878FDF723FC0A48B9
:102840000026468004212878FDF71CFC07480680F6
:102850002168032048700020FDF752FD70BD000084
:102860005472FF1F8572FF1F6872FF1FF871FF1FF0
:10287000272803D202494000085A70470148704790
:102880000072FF1FFFFF000010B5044C6070FDF7E1
:102890003DFD0521607801F0E5FC10BD8472FF1F4D
:1028A00070B5284E054630680C46002801D011202E
:1028B00070BD254801780520014216D02348806864
:1028C000002805D00078002802D0C80706D101E012
:1028D000102070BD00F044F8002808D020780328AC
:1028E00005D0022803D0002801D0122070BD0C2092
:1028F000FDF7F4FC3060002820D005700021417005
:102900000A222146801CFDF7E1FB03F031FC0400A4
:1029100002D002F00FFE12E00D48007803280ED11D
:102920001D20FFF7A5FF0B490028088007D00B48A2
:10293000094A04210078FDF7EFFC00E0132420464B
:1029400070BD00005472FF1FF571FF1F6872FF1FFA
:10295000F671FF1FF871FF1F60EA00008572FF1F0C
:1029600010B506F047F810BD70B50C4605461C22A0
:1029700000210948FDF752FC084805704470FDF736
:10298000D1FC0549002803D000200870122070BD3A
:1029900001220A7070BD00006494FF1FF471FF1FD4
:1029A0007FB504460D46084605F0C8FF002805D04F
:1029B0000C48844204D9022004B070BD1220FBE709
:1029C000102200216846FDF729FC68460470210AA0
:1029D0004170210C8170210EC170294601F034FD37
:1029E000EAE700003F420F0070B50F4C0025A068D9
:1029F000002802D0FDF778FCA560E068002802D02E
:102A0000FDF772FCE560094805210078084206D010
:102A10000548103003F06CF902F0A2F970BD0020F7
:102A200003F066F9002070BD6872FF1FF571FF1F8B
:102A3000FEB5344D0C46080419D56878FDF730FC16
:102A40000121C9034C40064600280ED003F070F85F
:102A5000002807D12878FF2804D03146FDF768FC0C
:102A6000002802D03046FDF721FC2046FEBDE007DD
:102A7000012700280AD0A868002804D0416800294E
:102A800001D00020884720467840FEBDA00709D528
:102A90006868002804D04168002901D001208847D7
:102AA00002202AE060072AD5174E308800281FD060
:102AB000401E0004000C30801ED102F0B1FD002841
:102AC00009D0124807706868002804D041680029BE
:102AD00001D00120884702F07DFD694601F032FCFB
:102AE000684603F00FF81D20FFF7C2FE308003E0B8
:102AF00004216878FDF7C6FA04206040FEBD00207E
:102B0000FEBD00008472FF1FF871FF1FF771FF1FE9
:102B100001490870704700008472FF1F10B501F072
:102B2000FFFC10BD70B50E4C0B46261D07C60546B2
:102B3000102200211846FDF7A7FB012803D1102120
:102B4000A06806F041FE102200212846FDF79CFBFC
:102B5000012803D11021606806F036FE70BD000028
:102B60006494FF1F38B5054610480C4600784007AE
:102B700001D4122038BD284605F0E0FE002812D00E
:102B80000B48A90000684058002801D0817D00E072
:102B90002146684607F0ECFA064B6A4602212846B1
:102BA00007F048FA38BD142038BD0000F571FF1F4A
:102BB0006472FF1F81A60211272807D2044A91429E
:102BC00004D0044A40001152002070470220704790
:102BD000FFFF00000072FF1F70B50E46104915463A
:102BE0000978022916D0012914D0002D14D005F03F
:102BF000A5FE040012D0002E03D020790221084344
:102C0000207110222946A018FDF760FA2869206279
:102C1000002070BD122070BD022070BD142070BD58
:102C2000F571FF1F38B50C46054605F087FE0028F4
:102C300006D0684604706946284607F0E9F938BDB1
:102C4000142038BDF8B50D4617461D4906461B4AE7
:102C500012248868954208D100282DD00268002AE5
:102C60002AD029463046904723E0144A521C954208
:102C700013D1002807D00268002A04D02946304624
:102C80009047040005D03946304601F055FE040057
:102C900012D10B48067047700EE0284605F04EFE34
:102CA000002809D00078B04205D139462846FDF702
:102CB00045FB044600E003242046F8BDFEFF00006B
:102CC0005872FF1FF8B50E460146194815460078A0
:102CD00005221F46104028D0304326D01548012E2B
:102CE0001BD0C468002C20D01F2D18D8002D01D077
:102CF000002F14D001701F220021601CFDF78EFAF6
:102D00002A463946601CFDF7E1F928462570002E59
:102D100007D0611CFDF718FBF8BD8468E2E70220CC
:102D2000F8BD611CFDF716FBF8BD1220F8BD0000D0
:102D3000F571FF1F6872FF1F014610B50020C9071B
:102D400004D0034A0421034800F0ACF910BD000090
:102D500028AD02117C6BFF1F70B50F4D0F4CA87092
:102D600029461831204600F01DF8002128460B4660
:102D70001030CA0084521218491C09065360090E0B
:102D8000F7D0012004F0EAF8A87800F073FB0448BB
:102D900005F060FE70BD00005C6BFF1FFFFF0000D0
:102DA0007167021170B50A4C0025A04209D10020BC
:102DB00082008C525218401CC0B295700228F7D382
:102DC00070BD03F0A4FC0028FAD00480857070BDAB
:102DD000FFFF0000F8B50E46074606990024079845
:102DE000002902D00B242046F8BD022B01D00D246F
:102DF000F9E711785278120289188DB22946814379
:102E000001D08024EFE73846F16800F03DF9A84290
:102E1000E9D02A463846F16800F0CCF90400E2D146
:102E200071892A46384600F06BF9DCE770B50C462C
:102E3000080412D50A488078FDF732FA050008D058
:102E40002878B02802D1284603F07EFD2846FDF7F9
:102E50002DFA0120C003604070BD002070BD00004D
:102E60005C6BFF1FFFB587B0087A0025109E1C46DB
:102E70000F46C0060DD5099803F042FC030006D0AA
:102E80000A22394607989847050035D101E00E25FA
:102E900032E0387802281DD17868292201784078FC
:102EA00012020002081880B2811A90427ED009DC1A
:102EB0007249401A23D0012821D0022851D003287A
:102EC00008D125E0012972D0022971D003296DD0E3
:102ED00004296ED0099803F03BFC0028D7D0056880
:102EE000002DD4D0129911980191009033462246BA
:102EF00039460798A847054628460BB0F0BD1198FB
:102F0000002873D1F868017831800278416897E031
:102F1000119800286AD101203080F86800210078DB
:102F200020707889401C80B200F072F900280FD020
:102F3000318802788918891C3180817A61704189D1
:102F4000090AA17002784168E01CFDF7BFF8D3E7D9
:102F500030880422001D30800021601CFDF75EF9DE
:102F6000CAE71198002872D1F86804A90088009077
:102F700004203080009820700098000A607000984B
:102F800000F046F9070028D0F86805906846028AE4
:102F900003AB3B49384600F093F900280FD13B784A
:102FA000022138487A68FEF792FA03E027E031E020
:102FB0001DE049E0002802D1314869468881059822
:102FC000007802280CD1059802224168201DFDF7E7
:102FD0007DF83088801C308002E069460098888146
:102FE00068468089A070000AE07085E72FE011989C
:102FF00000282CD1F968079800F046F804E01198F1
:10300000002824D1F8680088022131802070000A4D
:10301000607071E7F868FDF7A3F91199C0B28142B9
:1030200010D8814201D1002206E0129A891881420B
:1030300002D31199401AC2B23280F9681198091866
:10304000204682E7072557E71198002801D00B2575
:1030500052E70721F868318001782170417861706A
:103060008178A1704188090AE17001792171817923
:103070006171C088000AA0713EE7000000280000CE
:10308000FFFF000032AF021110B503F040FB002833
:1030900000D0807810BD0000014908707047000022
:1030A0005C6BFF1F7CB51446050019D0684601957E
:1030B000018000F0E5F903001DD1002C1BD06D89C3
:1030C000002D0DD00C20FDF709F900280AD00023AF
:1030D00003608580094A84609168002904D006E075
:1030E000022308E0132306E0906004E011460A681A
:1030F000002AFBD1086018467CBD00005C6BFF1FF6
:10310000F8B50C4C0746207815460E46FF280FD020
:103110000A20FDF72BF901000AD0B1200870002029
:10312000487008714F80CE800D812078FDF700F93E
:10313000F8BD00005C6BFF1F70B50C4605460649E4
:10314000FFF7A2FF800704D52146284600F0ECF9DE
:1031500070BD012070BD0000746BFF1F1CB56B4675
:103160001A71120A5A7100220092022301AA00F079
:1031700001F81CBDFFB583B008461F4601A90C9E8F
:1031800000F046F8050012D06846808803F0E0FAA7
:1031900000280AD04468002C07D000963B462946F8
:1031A000059A0398A04707B0F0BD0E20FBE7012069
:1031B000F9E7000070B514460E46054603F0A7FA7D
:1031C000002806D13146054803F0A1FA002803D0B3
:1031D00005808470002070BD112070BDFFFF0000CD
:1031E00010B50178B0290BD14178002908D10179B7
:1031F000122906D01B2903D14088012100F0AEFF1F
:1032000010BDFF210231095C0129F5D010BD00007D
:10321000F0B58C4610494B6819E09F687C89A04244
:1032200014D39E883119814210D900220CE011017B
:103230007D186989814205D16046002800D004804C
:103240002846F0BD521C92B29642F0D81B68002B63
:10325000E3D10020F0BD00009072FF1FFFB51748BA
:1032600081B00A9F446824E000251EE0A06829017F
:10327000461870890199884215D30299884212D85C
:103280000498002807D031787068049B039AFEF7F1
:103290001EF9002807D0002F02D0A068408938808E
:1032A000304605B0F0BD6D1CADB2A088A842DDD897
:1032B0002468002CD8D10020F3E700009072FF1F93
:1032C000FEB5174600256A469580044640891D4A8A
:1032D0001E46904208D001AA0092401C237880B27A
:1032E0006268FFF7BBFF0546237802211648626833
:1032F000FEF7EDF8002807D1237802211348626811
:10330000FEF7E5F8002801D060890EE0237802215D
:103310000F486268FEF7DBF800280DD0002D03D0BF
:1033200068468088B84203D0384603F02BFF04E09B
:103330006889401E80B200E06089002E00D0308095
:103340002846FEBDFFFF000030AF021132AF021170
:1033500036AF0211FFB581B00F461E4614466946CE
:10336000019803F01BF8050018D1002C06D00122AB
:103370001021019805F0BCFA05000FD139460198DB
:10338000FEF73CF9050009D1009CFF2E06D021462E
:103390001E22A31C034803F001FFE670284605B077
:1033A000F0BD00008970021110B5054908700421B4
:1033B00000F058FF00F006F8FEF734F910BD0000E9
:1033C0009C72FF1FF8B50F4D0D4B00206E1C1C7832
:1033D000FF2209E09F688100C91900280ED00E80E5
:1033E000CA70401C8A70C0B2A042F3D3064803F0F2
:1033F00079F9064805F02EFB0020F8BD0D80EFE7B7
:103400009072FF1FFEFF0000B570021109700211DB
:10341000F8B50D4614460646694602F0BFFF172868
:103420000CD0002C06D001221021304605F060FAA5
:10343000002803D129463046FEF7EAF8F8BD00001F
:1034400070B50C46080411D509480078FCF728FF30
:10345000050007D00178A02901D103F0E7F828463C
:10346000FCF724FF0120C003604070BD002070BD48
:103470009C72FF1F01494870704700009072FF1F47
:1034800070B50546008800281DD0686802210378C1
:1034900042682248FEF71BF8002808D1686802211C
:1034A000037842681E48FEF712F800280BD01D4C26
:1034B0006088002805D0012229881204101A814250
:1034C00003D9012070BD022070BD0C20FCF706FF5F
:1034D000060001D000200BE0132070BD01016B68D5
:1034E00062880A315A526188491C401C618080B24E
:1034F00029888142F2D80020306008222946301DF8
:10350000FCF7E4FD6068002802D1666004E008462C
:1035100001680029FBD10660002070BD30AF0211A8
:1035200032AF02119072FF1F70B5BEB00D46064655
:10353000002402230E4A0F4901200094FFF78EFE5B
:10354000002812D040896A46108004205080012053
:1035500010715471FF209071D0712B460022694682
:103560003046FFF7F7FE3EB070BD0120FBE70000DC
:103570004EAF0211FFFF00000649496806E08A6865
:103580005289824201D18888704709680029F6D1A2
:10359000002070479072FF1F10B51422114201D015
:1035A000012202E04A0604D50022102105F0A0F90C
:1035B00010BDC80701D0002010BD022010BD10B5FD
:1035C00014468A0604D50122102105F091F910BD98
:1035D000882211420ED008220A40102105F088F9F5
:1035E00000280BD0E034617E0029F0D0217E012933
:1035F000EDD103E0880701D4032010BD002010BDE9
:10360000014610B50020C90704D0034A072103482A
:10361000FFF748FD10BD000014AD0211846AFF1FC2
:1036200070B50D46164600241D490300FCF718FD31
:1036300008051234341934222934152D23D81622C2
:1036400000211848FCF7EAFD2A4631461548FCF7E8
:103650003DFD22E0022D16D1114910881039088055
:103660001BE0082D0FD10E48082231460838FCF720
:1036700083FE12E0012D06D1CA690949307828314C
:1036800007E0012D01D0182407E0CA6B0449307807
:10369000483103F044FE00E00224204670BD0000E3
:1036A000846AFF1F528AFF1F38B5114C6946E071CA
:1036B0000120087001466A460E48FEF769FC0025A5
:1036C000ED432846FFF79CFF2846FFF735FBFCF744
:1036D00059FEFEF739F901F01DF80020FEF794F9C4
:1036E000054801F029F80121E079FCF7D1FC38BD4B
:1036F0007C6DFF1F0D040000953B02117CB50C464C
:10370000414942A001F000F9414D200409D5E87972
:10371000FCF7C6FD002801D0FCF7C8FD0120C0035E
:103720006EE0E007012600280DD039482030FEF772
:1037300057FF35480838FEF789FB36A001F0E4F85A
:10374000204670407CBD60070ED52878052809D139
:10375000A878002803D004F0D7FB33A000E038A0FD
:1037600001F0D2F804204BE0A0070BD528780528FB
:1037700006D1FEF739F93B4A0221E879FCF78EFCC5
:1037800002203DE0200724D56978082026464640DF
:1037900000291AD034A001F0B7F86879A9798842D5
:1037A0000FD00B21401CFCF775FD69710B204143C4
:1037B00032480B1805D09A7859781878DB1C04F039
:1037C00041FB6879A979884201D130467CBD204609
:1037D0007CBDE00616D56846067006712878052877
:1037E0000DD1312001AA01210001FEF7EFFD6A464B
:1037F00001212348FEF7EAFD22A001F085F8102000
:1038000060407CBD00207CBD80AD021125730A00A4
:103810007C6DFF1F73746172742044657669636503
:10382000204556540A0D0000686964446576537457
:1038300061727449646C6554696D6572200A0D008B
:10384000686964446576537461727449646C655444
:10385000696D657220646973636F6E6E6563742051
:103860000A0D0000983A000053656E6420486964B0
:10387000205265706F72740A0D000000F08EFF1FF9
:10388000190300006465766963652075706461746E
:103890006120636F6E6E6563746564207061726130
:1038A0006D656E7400000000FEB51D464B6817463E
:1038B0001C785B78089A1B02E3189CB200260998D2
:1038C000314B002A04D09B1E9C4227D00B20FEBD0A
:1038D0009C420AD02C4B2B3B9C4206D02A4B1B3BD4
:1038E0009C4202D05B1C9C4214D1488904F090FA9F
:1038F00000280CD001970095244A4179126900797B
:10390000156801232246A847060038D039E0002078
:10391000288034E01C4B9B1E9C420FD11C4B1B8803
:103920009A4201D307262CE09B1A834200DC1846FA
:1039300080B22880C968891802461DE01248C01E5E
:10394000844204D104202880C968024614E0114A48
:10395000022094420DD00C4A521C944205D1012001
:103960002880C8680078387009E00A4A521E9442DC
:1039700005D12880C96802223846FCF7A7FB04F06D
:10398000C3FA3046FEBD00004D2A00007C6DFF1FCB
:10399000A46DFF1F08290000014A116150617047A2
:1039A0007C6DFF1F014AD160107270477C6DFF1F54
:1039B000F8B5074622480E4601781C4615460529EB
:1039C00025D0022934D004F007F800282ED0202179
:1039D0000620FFF7F1F830210720FFF7EDF8052169
:1039E0000120FFF7E9F80321684601706A460121CA
:1039F0001448FEF7EBFC01216846017011486A4645
:103A00000838FEF7E3FC10A000F07EFF10E04178DC
:103A100000290DD041798079814209D1314638465B
:103A200004F010FA0BA000F06FFFF8BD04F0D6F818
:103A300023462A463146384604F020F8F8BD0000F7
:103A40007C6DFF1F0D030000686967682061647664
:103A50000A0D000073656E64206B657920616374E4
:103A6000696F6E0A0D000000FFB583B00C9B002447
:103A700015460F468446002B02D00B2007B0F0BD40
:103A80007868017840780002081886B23E4886427D
:103A900003D03D481B38864212D1788904F0B8F92A
:103AA00000286AD006A901950091384A4179126927
:103AB0000079146800233246A04704005DD05EE020
:103AC0003248314A01696846521E008B96420AD13B
:103AD000012841D12878002801D0012843D10028AD
:103AE00049D0012047E02A4A96422FD10121009374
:103AF0000191C3B22A4639466046FFF76BF90400CC
:103B00003DD16978287809024018204982B2C868F6
:103B10007B89097A15E047889F420FD100282CD075
:103B200006A901950091012A0ED00323174A417975
:103B30001269007915683246A8471EE0491EC9B2CD
:103B400008300029E7D118E00223EFE70E4A521CA3
:103B5000964212D1012801D00D2410E028780028C7
:103B600003D0012801D0802409E0FA681070287879
:103B7000002806D003204968884704F0C5F920468C
:103B80007CE70220F7E700004D2A00007C6DFF1F54
:103B90000229000070470000F8B5424C4049204619
:103BA000FFF700F93E4920460831FFF7FBF83C4992
:103BB00020461031FFF7F6F839483B4A25211A30E4
:103BC000FFF770FA009036481A30C1690220FDF7FD
:103BD000CDFE3348354C0B38077827714678FF30D7
:103BE0006671263041892180408B60802C480125F8
:103BF000A57109380378237342782D496273488987
:103C0000208100206081A57327756675498F218208
:103C1000274940314E896682A07523776277498DA6
:103C2000218360832646A07720362149357175713E
:103C3000C0314A8922844A8B6284194AB071D21FEA
:103C40001378337352787273498F218560852146CA
:103C5000B57330310320FDF789FE1148401F01780C
:103C60003177407870771248803841892187408BBE
:103C700060870B49B577C91E20460A78403002712B
:103C8000497841710A4980314A890280498B4180D3
:103C9000857121460920FFF785FE0098F8BD0000D8
:103CA000BE6DFF1FFFFF000044AE02116A8FFF1FB1
:103CB000186FFF1F70B50C4C049816190B4A01249D
:103CC000002E0FD000251B2E03D1022903D003297B
:103CD00003D01D8004E0117800E0917801701C8011
:103CE000002070BD5178F9E7CED5FFFFB06DFF1F02
:103CF00070B57F4988B048707E497FA000F004FE0F
:103D000006211F20FEF758FF012568460571002493
:103D1000048105730A21018214218182FF21048319
:103D2000F531818302AA02217448FEF74FFB704AE5
:103D300072482A321021401CFEF748FB6C4A612071
:103D400014321621C000FEF741FB312003AA0121E5
:103D50000001FEF73BFB694804AA02210B30FEF785
:103D600035FB664805AA02210C30FEF72FFB63489D
:103D700006AA02210D30FEF729FBC52007AA022161
:103D80008000FEF723FBC4216846017003264670BD
:103D90006A4602210120FFF743FC564A1521153AD5
:103DA0000020FFF73DFC6846029405730474067515
:103DB0000576812002AA0421C000FEF7E9F801215E
:103DC00003AA8802FEF7E4F84C4804AA0121FC305B
:103DD000FEF7DEF8494805AA0121FD30FEF7D8F8C4
:103DE00006AA01214648FEF7D3F8502529460620A9
:103DF000FEF7E2FE29460720FEF7DEFE29460820F0
:103E0000FEF7DAFE29460920FEF7D6FEFFF7C4FECC
:103E100037493C3108463838FFF7BEFD1720FDF71B
:103E20006BFD0020FCF7B4FA0020FCF7B7FA05F0B0
:103E300079F92F4A08210C32852005F08DF82F4E94
:103E40002B4DF61C0C35002804D02EA000F05CFD94
:103E50002C7043E0287855281CD168460472284805
:103E600002A90830FDF7D6FD6846007A00280AD07E
:103E7000234800221146C01CFEF78AF800282BD0E8
:103E800024A000F041FD1A4A2C700C320821852034
:103E900005F07EF82878002820D0042069460872B2
:103EA00002AA01213046FEF791FA1448AA1C062105
:103EB000401DFEF78BFA11486A1C0121001DFEF718
:103EC00085FA19A000F020FD0C4801AA0121401E2E
:103ED000FEF77CFA08B070BD1BA0D2E768460472FA
:103EE00002AA01213046FEF771FA1CA0EAE70000A1
:103EF0002071FF1F99AE021125730A00060300000E
:103F000006040000524541445F4E4F5F464C414716
:103F10000D0A00005B626F6E64206572617365203C
:103F20006661696C5D0D0A004741505F4144545918
:103F300050455F4144565F4C44435F4449524543BA
:103F4000545F494E44200A005B626F6E64206572C4
:103F5000617365206F6B5D0D0A0000004741505F83
:103F60004144545950455F4144565F494E44200AEC
:103F70000000000070B50C461A491BA000F0C4FCFC
:103F80001A4E20040CD57078FCF78AF9050004D08D
:103F900004F000F82846FCF789F90120C00302E08C
:103FA000E00702D00120604070BDE00517D5002277
:103FB0000121104603F0FAFC00221146104603F0DE
:103FC000F5FC0B48FF2500780135052804D1094A86
:103FD00029467078FCF762F82046684070BD0020E2
:103FE00070BD0000A5AE021125730A002071FF1FED
:103FF0007C6DFF1F8813000030B50F4D0020551950
:10400000039C0E4A13D01B2D04D1022903D003298F
:1040100008D00A2030BD012B02D12178117030BDAB
:104020000D2030BD012BFBD12178917030BD012BCB
:10403000F6D12178517030BDCED5FFFFB06DFF1F96
:10404000F0B5069F099E002833D0102831D80029EA
:104050002FD0002A2DD0002B2BD0002F29D0079C49
:10406000002C26D0089C002C23D0002E21D00A9CA6
:10407000002C1ED0104C851D20706570A260616000
:104080000E490F4A0B60059911600E490E4A0F60E8
:10409000079911600D4A089911600D49401C08707C
:1040A0000C490E600C4908700C490A980860002001
:1040B000F0BD1820F0BD0000AC72FF1FF072FF1FB2
:1040C000EC71FF1F6472FF1FDC72FF1FE072FF1FA5
:1040D000D072FF1FD472FF1F9072FF1F9872FF1FD4
:1040E0000B7803700B8802221B0A43700B88801C1C
:1040F000012B02D0022B07D011E08A780270498888
:10410000090A417004220AE08A7802704A88120A79
:1041100042700A7982708988090AC17006221046A5
:104120007047000008B5044B009313460A4601216E
:1041300004F02EFB08BD0000E14002111CB5032372
:10414000019200930A46024B122104F051FB1CBD60
:104150006980021110B5FCF727F910BD13B50448AA
:104160000078012803D101AA6946FCF723F91CBD98
:10417000A872FF1F70B51049104A087000210B4645
:104180008C00491CC9B213530429F9D30B4C0021EC
:104190001034FF260A460A256A4315196B80491C0C
:1041A000A354C9B26E720329F4D3FCF709F904F0E1
:1041B000A5FA04F0F9FB70BDA972FF1F8094FF1FE0
:1041C000082A01D0012070474B780A781B02D218C8
:1041D0000280CB788A781B02D21842804B790A7908
:1041E0001B02D21882808A79C97909025118C180CC
:1041F0000020704770B50C46080411D509480078B6
:10420000FCF74EF8050007D00178902901D104F0A1
:10421000D7F92846FCF74AF80120C003604070BD7A
:10422000002070BDA972FF1F70B50C490978884243
:1042300013D20B4C06016068002585533018858128
:10424000606830188580606830188068002804D065
:10425000FCF7BCF860683018856070BDAC72FF1F59
:10426000D872FF1F072907D0052905D0042903D0DC
:10427000062901D002207047044A8B009A18134681
:10428000403B1986203A9074002070478094FF1FAD
:1042900070B517490978884228D25C21154C4843EB
:1042A000A16805464018002640300674A06828180A
:1042B00040304674A068281840300676A068281858
:1042C000406D002804D0FCF781F8A06828184665E6
:1042D0000026A068F100281840184068002801D086
:1042E000FCF774F8761CF6B20A2EF2D370BD00000B
:1042F000AC72FF1FD872FF1F70B50A880C460546C6
:10430000072A07D0052A05D0042A03D0062A01D09F
:10431000022070BD012104F0CFFB002804D021460B
:10432000284603F0B7FE70BD142070BD10B5001D07
:1043300080B2FCF751F8002803D00321C943FCF7F1
:1043400051F810BD38B50C46050014D0002C12D021
:104350000321684605F038FA6946887840218006CE
:10436000800E0843694688702246284605F0C0FF43
:10437000050002D006E0022038BD03226946E01C99
:10438000FBF7A4FE284638BDF7B58EB00E9815464B
:104390000E4600282DD0002D2BD0301DC0B201902C
:1043A000FBF79CFF040039D001F020F907463246A4
:1043B000201D0E99FBF780FFF8B20890E0703804DA
:1043C000000E0B90A0703802000E0A9060703F0E35
:1043D000277001F005F90146102202A8FBF76CFFD7
:1043E00006AB214602A8019A05F0D8FE060003D0CC
:1043F00010E0022011B0F0BD089828700B9868708A
:104400000A98A870EF70082206A9281DFBF754FF30
:1044100001F0F2F82046FBF767FF00E01326304674
:10442000E8E7000010B5064C2070FBF7E1FF06211D
:104430002078FFF717FF034804F00CFB10BD0000C5
:10444000C472FF1F21980211F8B50E46214C014697
:10445000A068B50040590027002807D02422125C2C
:10446000022A05D0032A03D0042A01D01220F8BD65
:10447000C288B24201D00220F8BD10220C30FBF7F6
:1044800025FEA06810214059353005F09DF9A0683F
:10449000415930460B460A46253335320C3105F07A
:1044A00049FFA068022140590278002A427807D0CB
:1044B000032A0BD14170304605F04CF9074605E060
:1044C000042A02D0032A03D000E041703846F8BD28
:1044D0000521EFE7E872FF1F70B50C46080419D5F7
:1044E0000D480078FBF7DCFE05000FD005F0BEFAA2
:1044F000002808D109480078FF2804D02946FBF796
:1045000017FF002802D02846FBF7D0FE0120C00389
:10451000604070BD002070BDC472FF1F8472FF1F19
:104520007CB50C4605001DD0002C1BD00322E11CDD
:104530006846FBF7CBFD6946887840218006800EEF
:1045400008436946887001AA284605F0D1FE002874
:1045500007D10322214601A8FBF7CAFD012803D099
:1045600001207CBD02207CBD00207CBD10B505482B
:104570000078400701D5044800E0002005F02AFB40
:10458000002010BDF571FF1FB872FF1FFFB581B08D
:1045900000202B4C0090A068950040591E461746FD
:1045A000002802D0112005B0F0BD002E0BD0212034
:1045B000FEF75EF9317E884205D82220FEF758F9D1
:1045C000317E884201D20220EDE77820FBF786FE9B
:1045D000A1680028485130D078220021FBF71EFE48
:1045E000A068002140594170A2680198525910708A
:1045F000A268029852599070A268FF205259D07058
:10460000A0684259D7804259966042591162405978
:10461000203001710198002803D0384605F0B2F827
:104620000090A1680120495948700098002802D0E4
:10463000384605F059F80098B5E71320B3E70000B5
:10464000E872FF1FFFB58DB00F98169C0E4600282C
:1046500015D0002C13D00D9804F070F9050011D07E
:104660006178207809024018A178E27809041206DE
:1046700089184718286AB84206D3401C04D0022083
:1046800011B0F0BD1420FBE7002E04D0287980077C
:1046900001D40120F4E70822002106A8FBF7BEFDA3
:1046A0001098001DC0B20190FBF718FE060017D04D
:1046B000301D109A0F99FBF7FFFD0422214630466A
:1046C000FBF7FAFD1022A91802A8FBF7F5FD06ABCF
:1046D000314602A8019A05F061FD050002D013E001
:1046E0001320CDE7082206A908A8FBF7E5FD08225C
:1046F000211D08A8FBF7FCFC012801D0012503E0DF
:1047000039460D9801F08EFD3046FBF7EDFD284649
:10471000B6E7000010B505490548FEF743FB03481E
:10472000044A06210830FEF7BDFC10BD5070FF1F83
:10473000FFFF000060AE02110149086070470000F1
:104740004870FF1F0A4610B501460020FBF756FED1
:1047500010BD0000FFB583B016460F461B2A01D0DE
:10476000522E04D10398FBF74FFE00281BD01D49A1
:10477000039889684000085AFFF7D8FD04002DD03F
:104780000125601C2670002F03D00699B847401CF5
:1047900085B2300613D51021039804F08DF9002856
:1047A00004D0192616E0132007B0F0BD6219E9B253
:1047B0002046FFF7E9FD06000CD10C35ADB204210F
:1047C000684601800194058169460398FFF794FDCE
:1047D000060004D02046FBF7F9FD00E01326304622
:1047E000E2E70000E471FF1F10B504460079BEB097
:1047F000C00716D060880C49FEF746FCC00710D0F1
:10480000094800220830418D68460180012141801D
:104810000548083801786846017160886946FEF7E6
:10482000F7FD3EB010BD0000C470FF1F70B50498C6
:1048300000241546002801D00B2070BD486802787E
:104840004078000210180E4A80B290420AD10D49F9
:104850005F200A785F2A00D9087001201880087844
:1048600028700BE0084A904207D1022018800246C7
:10487000C9682846FBF72AFC00E00A24204670BDE0
:10488000192A0000BC70FF1F082900007CB51546DE
:104890004A68069C167852781202B218104E92B2EC
:1048A000F24209D101220192DBB200942A46FEF7BE
:1048B00091FA040003D000E00A2420467CBD697808
:1048C000287809024018074980B249680029F4D0C5
:1048D000002802D001208847EFE70220FBE7000014
:1048E000FED6FFFFBC70FF1F01680A0508D110311A
:1048F000044A016092781203914201D3891A01603F
:10490000704700006C71FF1F0FB410B503AA044874
:10491000029904F021F910BC08BC04B0184700004B
:104920004547021138B5034B00240FCB0094FBF729
:1049300071FD38BDFCAC021110B50C4604F016F840
:10494000002804D040882146FBF7F8FC10BD122057
:1049500010BD000070B5144B984201D12F2070BDDE
:10496000124A00248DB26600965B864208D1600030
:10497000841880342580994200D11352002070BDE4
:10498000641C402CEFDB00214C00145B9C4205D1E1
:1049900049005052881880300580EFE7491C4029B3
:1049A000F2DB302070BD0000FFFF0000B48FFF1F5E
:1049B00010B503484078002801D0FBF731FD10BD49
:1049C0006C71FF1FF0B5594E594C9BB07068206058
:1049D000B0782071FF20A07110216171E071014653
:1049E000002520462F4609220830FBF717FC4E22EF
:1049F000002106A8FBF712FC37E0206829034018C5
:104A0000102202A900F05CF90298216888421DD1A9
:104A10006846007B2179884218D16846407B6179DD
:104A2000884213D16846C07BE17988420ED168463E
:104A3000B178807B491E884225DAA84201D102273D
:104A400000E0032706A94855A0710CE00298401C1D
:104A500019D16846007BFF2815D16846407BFF28A6
:104A600011D106A948556D1CEDB22179A942C4D8CF
:104A7000042F08D0A0790125FF2807D0012F05D0E9
:104A8000002006AA24E020201BB0F0BD00270DE086
:104A9000A7712068390340181022254900F026F933
:104AA000002801D01F20EFE77F1CFFB22079401EB5
:104AB000B842EDDC002020742079401E6074102084
:104AC0006082357025E0135C002B03D0401CC0B21F
:104AD0008142F8D881421CD9401E0818FBF7A6FC79
:104AE00061740020357002466946009000F026F897
:104AF000002802D0212802D004E0009901E0012121
:104B000009036182C0B2212803D0002801D02A20E5
:104B1000BAE70849084A00204400A31880331980E6
:104B2000401C11534028F7DB0020ADE76C71FF1FDC
:104B3000B490FF1FFFFF0000B48FFF1FF7B50124E3
:104B40008AB000200E4627460590A3E05A48017916
:104B5000407CC019FBF79EFBC8B2FF2C03D9FF3C79
:104B6000A4B2FF2C33D20A9A002A01D1524A1174FE
:104B70000003029005980125002803D0002005902D
:104B8000601C06E0012C05D92819811EFF2917DABF
:104B9000401E85B202982901081807904648042251
:104BA00001680798081804A900F08AF80A980028F4
:104BB0000ED0012828D002283BD006200DB0F0BD31
:104BC000FF200230401B201A84B2012005905FE0D4
:104BD00004998803800F04D0022802D0032852D100
:104BE0000DE0080D0903890F01294BD10C21FBF7BA
:104BF00051FB002900D00121401884B243E00798FE
:104C00000005000D30604FE004998803820F04D046
:104C1000022A05D0032A36D14CE0800F0228E0D1C9
:104C2000328888B292B29042DBD10C990798086022
:104C30003AE004988103890F04D002291ED0032989
:104C400021D131E00103890F012903D0306801240B
:104C50000C300CE0000D0C21FBF71CFB002900D0F0
:104C60000121401884B20C2031686043081830607C
:104C70000C980C990068401C086004E00103890F3F
:104C8000012913D001246D1CADB2FF2D00D879E7A6
:104C90007F1CFFB209488078874200D256E70A9805
:104CA000002805D0012805D0002087E7000D9DE7EA
:104CB000212083E7252081E7B490FF1F6C71FF1F3F
:104CC00010B5094C636898420BD3A4782403E31809
:104CD000834206D9002904D0002A02D0FBF7ACFB9E
:104CE00010BD222010BD00006C71FF1F70B515466D
:104CF0000E460446FFF75CFE800601D0292070BDF9
:104D000009494868844206D3897809030818A042F3
:104D100001D9A00701D0222070BD2A463146204685
:104D2000FBF790FBC0B270BD6C71FF1F0022002921
:104D300013D0002811D0012806D04A799206920E8D
:104D40004A71032805D007E04879C0221043487112
:104D500002E0402002434A710122104670470000E1
:104D600070B5124800250078052108421BD020208C
:104D7000FBF7B4FA0E4C0028A06013D020220021CB
:104D8000FBF74CFA2020FBF7A9FAE060002804D0DA
:104D900020220021FBF742FA05E0A068FBF7A4FA05
:104DA0000020A0601325284670BD0000F571FF1F8C
:104DB0006872FF1FF3B588880D4681005A485A4C27
:104DC00040585A4F203C8BB0002823D10B98002824
:104DD0007ED0002D7CD000F0E5F920740A281CD389
:104DE00000260E207043C0190622FF21FBF74CFA63
:104DF000002804D1761CF6B20A2EF2D30A262674B5
:104E00000A2E07D1607B0A210646FBF743FA21747C
:104E1000761C6673207C0A2861D2A888424E8000E6
:104E2000305800285ED082680027002A0BD0207CF2
:104E3000062148432130C0B21C2104F0A9F8A888FB
:104E4000800030588760A888800030580269002AA6
:104E50000BD0207C062148432230C0B21C2104F034
:104E600097F8A888800030580761A88880003058DB
:104E70004269002A0BD0207C062148432330C0B26F
:104E8000102104F085F8A888800030584761A88870
:104E900080003058C268002A18D0207C0621484380
:104EA0002430C0B2102104F073F8A88806218000D5
:104EB0003058C268207C103248432530C0B20421EB
:104EC00004F066F8A88880003058C760A07B00E036
:104ED00005E0002801D000F0A5FA00F0E7FA012073
:104EE0000DB0F0BD207C062148432030C0B20E2119
:104EF0000B9A04F04DF82822FF216846FBF78EF943
:104F0000207C6A467030C0B2282104F041F8207C31
:104F10000E2148430A46C0190B99FBF7D7F8A88819
:104F2000800035500020DBE76C6AFF1FBC89FF1F43
:104F3000F0B589B017460E46044620220021684687
:104F4000FBF76CF968460480394C0225E178017161
:104F500022794271217B017706984108E07A490065
:104F6000C307DB0F1943069181070029069901DA6F
:104F7000294300E0A943069101072E4B069901D56C
:104F8000194300E099430691C1062B4B069901D5C0
:104F9000194300E0994306918106284B069901D5F3
:104FA000194300E099430691400704210028069820
:104FB00001DA084300E088430690002A05D001A8E2
:104FC00010221F490230FBF781F86179002904D0D3
:104FD000002E02D00698284306906846807D00295E
:104FE00000D00121084369468875A178002900D0C6
:104FF0000421084369468875A179002900D0082159
:10500000084369468875E179002900D010210843DA
:1050100069468875217A002900D020210843694615
:10502000887539466846FDF707FB09B0F0BD0000FA
:105030004C6AFF1F00010000000200000004000095
:10504000AC89FF1F70B50025094E2C460E20604329
:1050500080190622FF21FBF717F9002801D16D1CEA
:10506000EDB2641CE4B20A2CF0D3284670BD0000F7
:10507000BC89FF1F7FB50C460621484306461546EE
:105080002036F0B26A460E2103F066FF002806D1F2
:105090000622FF216846FBF7F7F8002802D000201F
:1050A00004B070BD68468189002DC8B202D020438B
:1050B000C0B200E0A043814206D069468881F0B2C8
:1050C0006A460E2103F064FF0120E9E710B50024D1
:1050D000204600F007F8641CE4B20A2C01D2002834
:1050E000F6D010BD70B5054604460620444326465A
:1050F00096B02036F0B211AA0E2103F02DFF002841
:1051000006D10622FF2111A8FBF7BEF8002802D025
:10511000002016B070BD0E22FF2111A8FBF77EF80B
:105120001C22FF216846FBF779F82822FF2107A8F7
:10513000FBF774F8F0B211AA0E2103F029FF06461E
:1051400020462130C0B26A461C2103F021FF0643ED
:1051500020462230C0B26A461C2103F019FF0643E4
:1051600020462330C0B26A46102103F011FF0643E7
:1051700020462430C0B26A46102103F009FF0643DE
:105180002534E0B26A46042103F002FF01463143B0
:105190000C467035E8B207AA282103F0F9FE204337
:1051A000B7E7000070B50A4D064600240E206043A4
:1051B000401906223146FAF79BFF002801D020460D
:1051C00070BD641CE4B20A2CF0D30A2070BD00004C
:1051D000BC89FF1F00229300CB5A834202D190006A
:1051E00040187047521CD2B20A2AF4D300207047EC
:1051F0007FB50C460A280CD2002C0AD00621484361
:105200002030C0B26A460E2103F0A6FE050003D08E
:1052100007E0022004B070BD062269462046FAF776
:1052200055FF2846F6E700218A00835A491CDB43D4
:10523000835212189378C9B2DB4393700A29F3D3CF
:105240007047000070B5144E00240E206043821990
:1052500020460621484320301546C0B20E2103F0F7
:105260007BFE00280BD028460622FF21FAF7D6FF46
:10527000A81D0622FF21FAF7D1FF0020A881641C97
:10528000E4B20A2CE1D30548807B002801D000F06D
:10529000C9F800F00BF970BDBC89FF1F4C6AFF1FF5
:1052A00010B5034940880978FDF746FF10BD00009E
:1052B0004C6AFF1F10B50F494A79002A01D001231B
:1052C00000E000238A78002A00D004221A438B7958
:1052D000002B00D008231343CA79002A00D01022E3
:1052E000097A1A43002900D020211143FDF73AFC26
:1052F00010BD00004C6AFF1F70B50E460446062123
:1053000048438EB015462030C0B20AAA0E2103F0E1
:1053100023FE002843D10622FF210AA8FAF7B4FF92
:1053200000283CD17034E0B26A46282103F014FE14
:10533000002831D16846FFF776FF002E06D0694677
:105340003046FFF747FF00280DD015E02822002146
:105350006846FAF799FF00281ED1282200216846E6
:10536000FAF75CFF10E0002D19D069460020FFF726
:1053700031FF002813D006808178A9420CD08570B7
:10538000002D01D1002101806846FFF74CFFE0B2FB
:105390006A46282103F0FCFD01200EB070BD0020FC
:1053A000FBE7000070B51C4C0646606A1B4D86B0DA
:1053B000002809D12046143000900223184A2946BB
:1053C0000120FDF74BFF20E004A8022200210090FD
:1053D0000292019103ABA28A3046616AFDF742FD59
:1053E00000280CD16846017B407B000208180204AB
:1053F000120C04D0606A41893046FCF77FFE00231E
:10540000A28A2946606AFDF75BFF60620028DBD153
:10541000012006B070BD00004C6AFF1FFFFF0000B6
:105420003CAF021170B5FBF713F80A4E00240E20B2
:105430006043801905460622FF21FAF725FF002860
:1054400002D12946FBF70AF8641CE4B20A2CEED319
:1054500070BD0000BC89FF1F70B50B4604461146A5
:105460001846FFF7A7FC00281DD00F4DA4002859AF
:105470008088FFF797FF002815D02E46203EF06960
:10548000002807D04368002B04D0285900228088C8
:10549000012198472859002803D0FAF707FF002078
:1054A00028510A20307470BD6C6AFF1F08B5FFF7E1
:1054B000C9FD012801D9022000E00A2069460870D0
:1054C0006A4601210520FEF7ABF808BD002909D086
:1054D000012807D1497989098901C02902D04029C9
:1054E00001D00220704703207047FFB500200E4610
:1054F00008701AE01C5C401CC5B2002C17D028199B
:10550000904214D85F5D6D1CEDB2384600F0B3FEDA
:10551000002806D0641EE0B2307000998F4202D19C
:10552000581904B0F0BD4019C0B29042E2D3002037
:10553000F7E7000010B5044C2068002803D0FAF704
:10554000D3FE0020206010BD5472FF1F70B5104DB7
:105550008400E8680059002819D0006A002801D0AA
:10556000FAF7C2FEE8680059406A002801D0FAF74D
:10557000BBFEE8680059806A002801D0FAF7B4FE43
:10558000E8680059FAF7B0FEE9680020085170BDDC
:105590005872FF1F10B5044C6068002803D0FAF75A
:1055A000A3FE0020606010BD5872FF1F011E04485A
:1055B00005D104498978002901D00248801D70472F
:1055C0007494FF1FF471FF1F01488078704700003A
:1055D000F471FF1F01484068704700006494FF1F8A
:1055E00001488068704700006494FF1F0148C0684C
:1055F000006870476494FF1F10B50748C0680168D1
:10560000491C016005480078FF2803D00121890367
:10561000FAF73EFD10BD00006494FF1FF471FF1FF8
:1056200002484068002800D0012070475072FF1FD8
:10563000FFB581B00F460D9E0A9D039803F07EF9D9
:10564000040042D0019800283FD12079102108435E
:1056500020710499490702D50221084301E0FD2188
:10566000084020710B99284608430C9908433043A1
:10567000207902D00421084301E0FB210840207179
:10568000002E06D03069102220623146A018FAF7A9
:105690001DFD002D01D0002F05D00B98002814D03F
:1056A000012F08D011E0606A002801D0FAF71CFE33
:1056B0001C21284606E0606A002801D0FAF714FE93
:1056C0001C210B98FAF716FE60620398274C87009E
:1056D000E068C059002846D0002D11D0006A00288B
:1056E00007D11C20FAF7FAFDE1680028C9590862C1
:1056F00006D0E0681C22C0592946006AFAF7E6FC89
:105700000C98002813D0E068C059406A002807D1DF
:105710001620FAF7E3FDE1680028C959486206D06F
:10572000E0681622C0590C99406AFAF7CFFC002EA7
:1057300013D0E068C059806A002807D11420FAF716
:10574000CDFDE1680028C959886206D0E0681422BE
:10575000C0593146806AFAF7B9FC0B9B049A039949
:10576000019803F083FE05B0F0BD00005872FF1FE2
:10577000F3B581B0019803F0E1F8050029D00E20BF
:10578000FAF7F4FD040024D02620FDF771F8060096
:1057900000D12E78D0202070002767700B20A070D9
:1057A0000622E91DE01CFAF791FC0198608102983D
:1057B000C1070120002901D0207300E0277302995E
:1057C000890701D5607300E06773F0B22146FAF7EC
:1057D000AFFDFEBD10B581881F4B0124CA1A994246
:1057E00037D011DC1D4BCA1A994219D007DC1C4A6C
:1057F0008A1810D0022A1ED0032A29D11BE0472A7A
:1058000027D0482A24D124E01300FAF729FC0621E6
:105810002222222222218068007800F0EDFC08E09C
:105820008068827841781202891889B2007800F085
:1058300043FD04460DE0094A921E914201D1012226
:1058400000E0002280680178104600F01DFD00E0B5
:105850000024204610BD0000532000000A20000054
:10586000FADFFFFF70B51A4D1A4A01460026287864
:105870001268194C01290CD0002A09D0174909785F
:10588000490705D50221FAF7FDFB6680FFF752FEB6
:1058900070BD6188002903D0114B1B78002B05D007
:1058A000002AF5D01078FCF7B9FF70BD3C2902D36F
:1058B0003C39618070BD0221FAF7E4FB62887D20EB
:1058C000C000424302212878FAF7E8FB668070BDE9
:1058D0008572FF1F5472FF1F6872FF1FF571FF1F53
:1058E000F771FF1F08B5418900910389C28881883B
:1058F000C07800F0CDFB08BDF0B504468088A1213A
:1059000089004843304987B009684018FF30FF30AC
:105910000230A1794167002C54D02C4D68680028D2
:1059200023D006782A480068002804D0416800295E
:1059300001D0002088472146E07908310591FFF722
:10594000C5FDE0710246277D638A218AE0890190C6
:1059500002A88AC0A0880090E0783146059B03F039
:10596000FDFDE078002802D00DE01A48D9E7E07983
:10597000E2896B46059907C3A379A18801223046C5
:1059800002F08AFFE0706868002811D0FFF702FE7D
:10599000287800280CD06978FEF7CEFF002807D0C1
:1059A000E078A2880346297803F022FE00202870C0
:1059B000A0881721FBF7B6FFA088FEF735FCA0886A
:1059C000FEF766FC07B0F0BD3409FF1F5872FF1FD9
:1059D0008872FF1FF471FF1F70B504460025808890
:1059E00002F0ACFF002803D00578A08803F048F847
:1059F000134E3078002808D0854206D17178FEF722
:105A00009BFF002809D000203070002D05D0A3791D
:105A1000A288A078294603F0EBFDA088F2688100F7
:105A20005158002901D0FFF791FDA0881721FBF7FD
:105A300079FFA088FEF7F8FBA088FEF729FC70BD6F
:105A40005872FF1F70B58288294D0124531B2949C4
:105A5000AA4242D019DC284D531BAA4218D00BDCB5
:105A6000264BD21826D0254B1033D2181ED0032A2D
:105A700017D0042A39D10BE0012B09D0022B07D013
:105A8000032B21D0042B30D11AE0433B072B2CD819
:105A9000496800292AD00968002927D08847044688
:105AA00024E08068007800F0ADF81FE0806800F026
:105AB00001F9F4E78068411C007800F0D9F8EEE7BE
:105AC00083681B78002B11D0896800290ED00B68E1
:105AD00008E0014610469847E1E7094909680029AE
