:020000041102E7
:1000000003B40148019001BD75A9000003B4014883
:10001000019001BDC93E000003B40148019001BD3B
:100020009DA9000003B40148019001BDB30E00007A
:1000300003B40148019001BD3152FF1F03B40148D0
:10004000019001BD116E000003B40148019001BD93
:100050008BB9000003B40148019001BDD1D4000068
:1000600003B40148019001BD21A9000003B4014877
:10007000019001BDA93C000003B40148019001BDFD
:10008000412EFF1F03B40148019001BD7136FF1FCF
:1000900003B40148019001BDADAE000003B40148B6
:1000A000019001BD456B010003B40148019001BD01
:1000B0001947FF1F03B40148019001BD5534FF1FCC
:1000C00003B40148019001BD353CFF1F03B4014852
:1000D000019001BDF145FF1F03B40148019001BD2E
:1000E000A13FFF1F70B50C460546FFF789FF21466B
:1000F0002846FFF78BFF0446FFF78EFF204670BDB2
:10010000FEB5089D099C1746002874D0002972D0BE
:10011000002C02D0012C02D003E02A2201E0FF22B1
:100120000732921D0192354A0E461770344A10600C
:10013000344803703448057034480470002446E0A5
:10014000A1208000254645432D48A1210068890053
:100150002818FFF767FF2A482D4900686200281811
:10016000FF308130C662019836180020885451183B
:1001700048702649097800293BD0FF2111310091B0
:1001800021461C2041432248002220300D182A76A7
:100190004254E0B20099FFF74BFF686000202872DC
:1001A000E0B201220099FFF743FFE86000202874C5
:1001B000E0B202220099FFF73BFF686169680029FD
:1001C00019D0E968002916D0002814D0641CBC425C
:1001D000B6DB00200F4D104A014683009C18658055
:1001E000401CD154C0B261701028F6D30020FEBD6F
:1001F00001E03421C3E71220F9E700001409FF1FD2
:100200003409FF1F1509FF1F1609FF1F1709FF1FDC
:10021000288BFF1FFFFF0000088DFF1F10B5FB2973
:1002200008D8084B9A4205D81B2903D3FF2349332A
:100230009A4201D2302010BD034B19825A82FFF737
:10024000FDFE10BD480800008410FF1FFFB50D46DD
:10025000A12189004843234981B009681E464418FA
:10026000002D09D0FF20D930015B0398814203D3D0
:10027000002E04D0012E02D0122005B0F0BDE0788F
:1002800000280AD00520C00127181748F9780078FF
:10029000801C814203D30720EFE70220EDE7FFF740
:1002A000AFFEF878A91E401CF87003980870002E65
:1002B00010D00120487020467C30091FFFF7C4FE93
:1002C000FFF7AAFE09480078082805D0072803D0C0
:1002D0000020D2E70220EDE700212046FFF7BAFE1A
:1002E000F6E700003409FF1F1509FF1F1C09FF1F57
:1002F00010B50E480078012803D00C480078042877
:1003000003D1FFF7ADFE002010BD002109E00C2055
:100310004843074A80184078012801D10020F3E7BC
:10032000491C0A29F3DB0120EEE70000046CFF1FE3
:100330009087FF1F70B5FFF763FE904C0020256883
:100340002060FFF793FE06462560FFF765FE304606
:1003500070BD8B49C968FF31813188657047F8B538
:10036000FFF78AFE864D874A68721178022903D901
:10037000002801D101201070834900200446E96063
:100380008300401CCC50FF28FADDE8687F498823B1
:1003900019507F49C1627F490978002902D07C4900
:1003A0001131C1620A210165117881637A49C16105
:1003B000FFF768FEE9687948486119208001886183
:1003C000084637228030C260082336220B64CA6395
:1003D0001E224A6436224260322202603B220364BB
:1003E000C263282242644122C264392282643222DA
:1003F0004365026528228265022202664222C265A6
:100400001E22836642662822C2662022426742225A
:1004100002675A22436102613C22826119229201E1
:100420000A605F4A0A63FF222D328A60CA60FF2297
:10043000F5320A615B4A8A647D22D2005A4EC26755
:10044000CE644A62594A8A623222CA6506224A65E5
:100450008A65CA1DF932022513604D664B25ED00F1
:100460008D660925CD66524D0D678C674B67AB10C5
:10047000CB67504FFF313E604A4E86627D26F600C4
:100480008667642646620526C66202260663C8267B
:100490004663846338205060474810644B208001D5
:1004A0009061B000D061581010627D200001506250
:1004B000D466956513665364D565146753671E202B
:1004C00090663E4890673E485B008131D0670B6084
:1004D0008B604860FF20F530C86008614B20C00089
:1004E00010630E6538483749274A81603749803A9A
:1004F00011613549364A80318A62364ACA62364AC3
:100500008261364AC262364A02632F4A3548403A0F
:1005100050633548D0633548C861354890632A49EF
:100520003448403188613549334888602648344929
:10053000803841603349244A41633349C03AD1602D
:100540003349324B204CCB63324B403C2363324B1C
:100550009362324AC263324AC260324A4A63324AC2
:10056000E260324A8A63324A0A6332498163FFF7A2
:100570008FFD0120FFF792FDF8BD00009809FF1FD5
:10058000B06CFF1F4A0AFF1F0004FF1F7891FF1F76
:100590006E040000F06BFF1F3A07000080C3C90122
:1005A0009A02000050C30000280A00006A180000E8
:1005B000204E0000F009FF1F00400011DC05000084
:1005C00040420F00794EFF1F0001FF1F2525FF1F2E
:1005D000455DFF1F1960FF1F3122FF1FC523FF1F4D
:1005E0004D22FF1F6D35FF1F1533FF1F2969FF1FA8
:1005F0001567FF1FF148FF1F1D0202110002FF1FB8
:10060000AD49FF1FFD4BFF1F4D27FF1FE5000211E6
:100610000000FF1FA55AFF1FC14AFF1F5551FF1FB2
:10062000F94AFF1F3527FF1F014AFF1F4D02021124
:10063000E126FF1FBD53FF1F002809DB00BF00BFDD
:10064000C206D20E01219140024A116000BF00BFD4
:100650007047000000E100E010B5002819DB1A4ADD
:1006600003231B02D21883089B00D2588307DC0E99
:10067000FF23A3409A438B071B0E8407E40EA3407D
:100680001A43114B032424021B198408A4001A5195
:1006900018E00E4A03071B0F083B9B089B00D2582B
:1006A0008307DC0EFF23A3409A438B071B0E8407AE
:1006B000E40EA3401A43054B0407240F083CA4088A
:1006C000A4001A5110BD000000E100E01CED00E0A4
:1006D00070B505460C2068432B4909684418284624
:1006E00000F090FA00283CD06078002809D1012061
:1006F00060702078C007C00F002802D0E8B200F078
:1007000019F9E08800283EDDA088E188884211DAE6
:10071000A088401C80B2A080E188884233D1207834
:100720000421084000282ED029468031C8B200F0AC
:1007300001F928E02089002825DD6089401C80B26D
:100740006081218988421EDB002060812078082199
:100750000840002817D02946C031C8B200F0EAF896
:1007600011E0607801280BD1002060702078022110
:100770000840002804D029464031C8B200F0DAF819
:100780000020A080608170BD346CFF1F0B48007D8D
:100790000A4A527D904201D1FF2070470748007DF0
:1007A000064A115C1046007D401CC0B2107514282A
:1007B00001DB002010750846EFE700004289FF1FAB
:1007C000FFB50C4600204B4D287568750098002831
:1007D00003D0002C01D0202C02DD012004B0F0BD9C
:1007E000454D009828604548047000215AE00025D6
:1007F0000C204843404E3668801945700C20484311
:100800003D4E36688019857005250C2048433A4EC8
:1008100036688019C57000250C204843364E36686E
:10082000801985800C204843334D2D68285C0425B1
:100830002840002808D10C2048432F4D2D68285C03
:1008400008252840002819D02D480068858A0C20EA
:100850004843294E36688019C58029480068C58AF2
:100860000C204843244E36688019058100250C2051
:100870004843214E36688019458112E000250C203E
:1008800048431D4E36688019C5800C2048431A4ED7
:100890003668801905810C204843174E3668801948
:1008A0004581491CA142A2DB002104E000208D000B
:1008B000144E7051491C0029F8D0002B17D0601E2F
:1008C000904214DB104802701048036010460CE0A0
:1008D0000C254543084E3668755D102635430C26B9
:1008E0004643054F3F68BD55401CA042F0DB002049
:1008F00074E700004289FF1F346CFF1F386CFF1F34
:10090000486CFF1F4C6CFF1F406CFF1F3C6CFF1FAF
:1009100070B5002403E0E0B2FFF7DAFE641C04487F
:1009200000788442F7DBFFF731FF0546284670BDAB
:10093000386CFF1F0649497D054A50541146497DD0
:10094000491CC9B25175142901DB0021517570474A
:100950004289FF1F014608460123DB03CA1A994258
:100960007DD039DC80287BD016DC082879D00CDCDF
:10097000644A8018002875D0521E8018002877D04D
:10098000012877D0032870D176E0102878D020286D
:100990007BD04028F7D17AE00123DB02C21A9842CB
:1009A0007FD00DDCFF380138002874D0FF380138C3
:1009B000002872D0FF38FF3802380028E3D16EE0FB
:1009C0000120C002101A70D001221203801A6ED0CA
:1009D0005200801A49D16CE0FF23DB03D01A9A42FF
:1009E0007BD01ADC484BD01A9A426ED00ADC4748BA
:1009F000101A62D001221204801A60D05200801AAC
:100A00007DD160E00122D204801A60D05200801AA9
:100A10005FD05200801A72D15DE00F23DB05C21A4D
:100A2000984262D00CDC3A4A801A58D0FF22120653
:100A30008018002855D05200801800285FD152E05D
:100A40001F20C0061018002851D00F22120780184E
:100A500000284ED052008018002850D14BE02AE0E8
:100A600017E00BE049E003E004E048E008E00CE0B8
:100A7000002070470120FCE70220FAE70320F8E796
:100A80000420F6E70DE006E007E00520F1E7062088
:100A9000EFE70720EDE70820EBE70920E9E70A2068
:100AA000E7E70B20E5E700E001E00C20E1E70D209F
:100AB000DFE70E20DDE70F20DBE71020D9E711206C
:100AC000D7E70AE001E01220D3E71320D1E7142092
:100AD000CFE71520CDE71620CBE71720C9E7182070
:100AE000C7E71920C5E71A20C3E71B20C1E71C2070
:100AF000BFE71D20BDE71E20BBE71F20B9E7FF2091
:100B0000B7E70000000000800080070000800000C0
:100B10000000800070B50546224805600068FFF7B8
:100B2000C3FA002013E0102805D0112803D01228A2
:100B300001D00D2805D10F220C2141431A4B5A54E4
:100B400004E003220C214143174B5A54401C122845
:100B5000E9DB14480068007B022803D013A0FFF7EC
:100B6000A9FA70BD00240BE00E4800680069A100DE
:100B70004058002803D115A0FFF79CFAF1E7641C48
:100B8000022CF1DB07480068102212210369064895
:100B9000FFF716FE002802D014A0FFF78BFA00BF63
:100BA000DFE70000486CFF1F6A88FF1F636F6D62FC
:100BB000696E6520627574746F6E20636F6E66690E
:100BC00067206572726F720A00000000636F6D62C9
:100BD000696E6520627574746F6E20646174612043
:100BE000696E6974206572726F720A006273702098
:100BF000627574746F6E20696E6974206572726FAD
:100C0000720A0000F8B504460C20604326490968C2
:100C1000085C1021084000900098002816D1E217C7
:100C2000D20E121952119200204B9A582046E31707
:100C3000DB0E1B185B115B01E51A0123AB401A4068
:100C4000002A01D00120F8BD0020FCE718480078F8
:100C5000201A8000174909680E58002520E001205D
:100C6000A840304000281AD00121A9400846FFF7CB
:100C700071FE0446E217D20E1219521192000B4B6C
:100C80009A582046E317DB0E1B185B115B01E71A2D
:100C90000123BB401A40002A01D10020D3E76D1C7C
:100CA000202DDCD30120CEE7346CFF1F4C6CFF1FDE
:100CB000406CFF1F3C6CFF1FFFB583B00399049885
:100CC0004843059944186009002808D02246B221FB
:100CD0002EA0069BFFF7EEF9002007B0F0BD0698A6
:100CE00000280DD0600980002E490858E206D20E77
:100CF000012191400843610989002A4A50500CE0C3
:100D00006009800027490958E206D20E0120904070
:100D1000814360098000234A11500C20604322491E
:100D20000968085C1021084000282DD01F48007871
:100D3000201A80001E49096808580290002721E007
:100D40000120B840064602990E40002E19D03046C8
:100D5000FFF700FE0546E917C90E49194911890038
:100D6000104A019551582846EA17D20E121852110E
:100D70005201AB1A01229A401140002901D10020F2
:100D8000ABE77F1C202FDBD30120A6E72D2D2D2DD7
:100D90002D2D2D2D2D2D2D3E282564292025642037
:100DA00025640A004C6CFF1F346CFF1F406CFF1F52
:100DB0003C6CFF1F01480078704700002C6CFF1F3F
:100DC00070B50548C56B044840300468C4602946C6
:100DD000204600F09DFB70BD0080004030B5044609
:100DE0000D46072C01DB102C01DD062030BD162C32
:100DF00001DD0520FAE7002D0CD00021204600F08F
:100E00004DF909480068E11F01228A401043064954
:100E1000086007E004480068E11F01228A4090430F
:100E2000014908600020E1E700380040162800DD95
:100E30007047002907D0084A1268012383401A43EB
:100E4000054B1A6006E0044A1268012383409A4366
:100E5000014B1A6000BFEBE700800040162800DD60
:100E60007047002907D0084AD268012383401A43FB
:100E7000054BDA6006E0044AD268012383409A43B6
:100E8000014BDA6000BFEBE700380040FEB50446D6
:100E90000F46002001900025FF2C20D0A610A007AF
:100EA000800F00900098C500681D0190204600F05A
:100EB000C5FA0B48B10041580198421B521C012051
:100EC0009040421EAA40084690433946A940084334
:100ED0000349B200885001212046FFF7BFFFFEBD45
:100EE0001838004010B511480078002801D00720BC
:100EF00010BDFF2131310D48FFF794F801200B4957
:100F0000087000200A49086348630A490862486279
:100F100002211020FFF7A0FB1020FFF78DFB064AEF
:100F200006490D20FFF7CCF80020E1E72086FF1FDF
:100F30000080004080F00040C9120211FD11021132
:100F400001461048426B4B1A5B1C01209840431E1F
:100F50008B401046984301228A401043094A50634F
:100F60001046026B4B1A5B1C01209840431E8B40BD
:100F70001046984300228A401043024A1063002022
:100F8000704700000080004010B502460B46162A4C
:100F900001DD052010BD1248816B01209040014306
:100FA0000F488163416B012090400C4684432146E9
:100FB0000B484163C16B012B03D1012090400143D9
:100FC00004E0012090400C46844321460448C1635C
:100FD000016B012090400143014801630020D9E7E3
:100FE0000080004010B5002908D0094A5269831ECC
:100FF00001249C402243064B5A6107E0044A52698F
:10100000841E0123A3409A43014B5A6110BD000086
:101010000038004030B504460D46162C01DD052091
:1010200030BD1C48005D01280BD11A48401E806964
:101030000121A1400840002803D0002D01D1062045
:10104000EEE700212046FFF709FF022C01D0032C18
:1010500003D101212046FFF7C5FF00212046FFF7FD
:10106000BDFE012D0AD10C4840680121A140084372
:101070000949486001210748015509E006484168CF
:101080000120A040814304484160022101480155EC
:101090000020C5E72186FF1F00800040F0B5024612
:1010A000162A00DDF0BD55005519184E735D550028
:1010B0005519AD196C7855005519AD19A878132A32
:1010C00011DA134D9E00AE59271A7F1C0125BD4031
:1010D0006F1E87403546BD430E4686402E430C4D5D
:1010E0009F00EE5110E00A4D083D6E69271A7F1CE3
:1010F0000125BD406F1E87403546BD430E468640E4
:101100003543034E083E756100BFCBE7BD170211A2
:1011100008F000400146162901DD0120704709480A
:10112000406801238B401840002802D0054802681F
:1011300002E00448403002691046C840C007C00FB2
:10114000ECE700000080004030B5162800DD30BD1F
:10115000002926D0142803D0152801D016280BD139
:10116000244A52694300244C1B195C780123A34094
:101170001A43204B5A613AE01E4A083243001E4C83
:10118000E3569B00D25843001B195C780123A3400F
:101190001A43184B08334400174D2C57A4001A511A
:1011A00025E0142803D0152801D016280BD1114AA8
:1011B00053694200104C121954780122A240934303
:1011C0000C4A536113E00B4A083243000A4CE356C1
:1011D0009B00D3584200121954780122A240934335
:1011E000044A08324400044D2C57A400135100BF98
:1011F000ADE7000000F000400218021170B50024B5
:1012000027E01548005D01280BD11348401E806976
:101210000121A1400840002803D0E0B20121FFF7DE
:1012200093FF0D48005D022812D1E0B2FFF772FF74
:10123000012148400546E0B2294600F087F8E0B2B7
:10124000FFF768FF0C216143034A1B32891848707D
:10125000641C172CD5DB70BD2186FF1F10B5142828
:1012600015DA002909D0164A126A164B1C5C0123B4
:10127000A3401A43124B1A6220E0114A136A114A22
:10128000145C0122A24093430D4A136216E0002928
:101290000AD00B4A526A0B4B1B5C203B01249C403A
:1012A0002243074B5A6209E0054A526A054B1B5C10
:1012B000203B01249C40A243014B5A6210BD000018
:1012C00080F00040A617021170B502211020FFF730
:1012D000C3F91020FFF7B0F9002432E01A48005D8E
:1012E000002807D0022C01D0032C03D1E0B2012149
:1012F000FFF778FE1448005D012814D11248401E03
:1013000080690121A140084000280CD0E0B2FFF71D
:1013100001FF0546E0B2294600F070F8E0B2002176
:10132000FFF712FF00BF0C20604307491B31085C28
:10133000002805D0E0B200F099F8E0B200F05EF9C4
:10134000641C172CCADB70BD2186FF1FF8B504464C
:101350000F46162C00DDF8BD6000201823490D5CF7
:101360006000201840188078401EC6B22048005DFA
:10137000022800D0EFE71F48806B0121A1400843FD
:101380001C498863132C15DA002F09D11A48A900CB
:1013900040580121B14001431748AA0081501EE086
:1013A0001548A90040580121B14088431249AA00BC
:1013B000885014E0002F09D10F48083840690121F6
:1013C000B14008430C490839486108E00A48083828
:1013D00040690121B140884307490839486101212A
:1013E0002046FFF73BFF00BFB5E70000BD17021125
:1013F0002186FF1F0080004008F0004030B5044601
:101400000D46162C00DD30BD002D07D00A480068BF
:101410000121A14008430849086006E00648006829
:101420000121A14088430449086001212046FFF7BB
:10143000F1FD00BFE7E700000080004070B5044602
:10144000094D162C01DD052070BD00210C206043E4
:10145000295405481B3801552046FFF7DBFD20467F
:10146000FFF76EFDF0E700003C86FF1FF8B504466D
:10147000264D00260027162C01DD0520F8BD0C2086
:10148000604340194068002807D10C206043401990
:101490008068002801D11220F0E702211B481B3888
:1014A000015501210C206043295400212046FFF7FB
:1014B000B1FD0C20604340194068002810D00C207A
:1014C00060434019806800280AD02046FFF722FEBA
:1014D0000746002F01D1012000E0002006460EE063
:1014E0000C20604340194068002801D0012606E026
:1014F0000C20604340198068002800D00026314647
:101500002046FFF741FD0020B8E700003C86FF1FA2
:10151000F3B581B00646234D002440E00120A040F1
:10152000304000283AD00120A0400299084000280D
:1015300001D0012000E000200746E0B2394600F06B
:1015400033F80C20604340194068002810D00C206C
:1015500060434019806800280AD0012F01D0012083
:1015600000E000200746E0B23946FFF70DFD14E029
:101570000C20604340194068002804D0E0B20121EB
:10158000FFF702FD09E00C20604340198068002845
:1015900003D0E0B20021FFF7F7FC00BF641C172C5A
:1015A000BCDBFEBD3C86FF1F70B504460E46124DE7
:1015B000162C00DD70BD0C206043401940680028E7
:1015C00009D0012E07D10C20604340190121426847
:1015D000204690470EE00C206043401980680028A8
:1015E00008D0002E06D10C206043401900218268EB
:1015F0002046904700BFDDE73C86FF1F70B50546DB
:10160000162D00DD70BD2846FFF784FD0446002C32
:1016100001D0012000E0002006460C206843054967
:1016200040184078A04203D031462846FFF7BCFF5F
:1016300000BFE7E73C86FF1F002800D17047024942
:10164000086000BFFAE70000446CFF1F10B5FFF709
:101650005FF90446FF2C0DD007480068002809D028
:10166000054800680068002804D003480068016845
:101670002046884710BD0000446CFF1F70B504462B
:101680000D46FFF797FB002803D100F00DF800206E
:1016900070BD2946204600F049F8002801D100F02D
:1016A00003F80120F4E7000070B51C48007800281A
:1016B00033D11B48C068C0B210282EDC194800681E
:1016C00002282AD10120154908701548C068C5B202
:1016D000E817800F401982101148C068C4B2E017A3
:1016E000800F001980108000201AC1B2002304204E
:1016F000FFF7E2FAFFF70CF98606B60E0A48006813
:10170000002809D0084800688068002804D00648EE
:10171000006881683046884700BF70BD2D6CFF1F90
:10172000C0F00040800AFF1F446CFF1F70B50446E4
:101730000D460D480068022813D10C48C068C0B29D
:1017400010280BDC29462046FEF7C0FC002801D0FB
:10175000012070BD002006490870FAE70020C04350
:10176000F7E70020C043F4E7800AFF1FC0F0004005
:101770002C6CFF1F70B504460D46FEF7ADFC064607
:10178000A64206D3301BA84201D9012070BD00201B
:10179000FCE70020C043001B8019A84201D90120AA
:1017A000F4E70020F2E70001020307090A0B0E0F1D
:1017B000101112141718191A1B1F202122000201E0
:1017C000000504000807000B0A001716001D1C0185
:1017D0000201010504010E0D01111001141301177E
:1017E00016011A19020201020B0A020E0D02111053
:1017F000021413021716030504030807030B0A0358
:101800000E0D000D000E0010001100130014010752
:101810000108010A010B011C011D02040205020757
:1018200002080219021A021C021D03010302031717
:020000041FFFDC
:10000000000000006D5AFF1FE06BFF1FEC6BFF1F2D
:10001000A86CFF1F000000000000000000000000AE
:1000200000000000000000000000000000000000D0
:1000300000000000000000000000000000000000C0
:1000400000000000000000000000000000000000B0
:1000500000000000000000000000000000000000A0
:100060000000000000000000000000000000000090
:100070000000000000000000000000000000000080
:100080000000000000000000000000000000000070
:100090000000000000000000000000000000000060
:1000A0000000000000000000000000000000000050
:1000B0000000000000000000000000000000000040
:1000C0000000000000000000000000000000000030
:1000D0000000000000000000000000000000000020
:1000E0000000000000000000000000000000000010
:1000F0000000000000000000000000000000000000
:1001000000000000000000000000000000000000EF
:1001100000000000000000000000000000000000DF
:1001200000000000000000000000000000000000CF
:1001300000000000000000000000000000000000BF
:1001400000000000000000000000000000000000AF
:10015000000000000000000000000000000000009F
:10016000000000000000000000000000000000008F
:10017000000000000000000000000000000000007F
:10018000000000000000000000000000000000006F
:10019000A93CFF1F793DFF1FC160FF1F0000000049
:1001A000000000000000000000000000000000004F
:1001B000000000000000000000000000000000003F
:1001C000000000000000000000000000000000002F
:1001D000000000000000000000000000000000001F
:1001E000000000000000000000000000000000000F
:1001F00000000000000000000000000000000000FF
:1002000000000000000000000000000000000000EE
:1002100000000000000000000000000000000000DE
:1002200000000000000000000000000000000000CE
:1002300000000000000000000000000000000000BE
:1002400000000000000000000000000000000000AE
:10025000000000000000000000000000000000009E
:10026000000000000000000000000000000000008E
:10027000000000000000000000000000000000007E
:10028000000000000000000000000000000000006E
:10029000000000000000000000000000000000005E
:1002A000000000000000000000000000000000004E
:1002B000000000000000000000000000000000003E
:1002C000000000000000000000000000000000002E
:1002D000000000000000000000000000000000001E
:1002E000000000000000000000000000000000000E
:1002F00000000000000000000000000000000000FE
:1003000000000000000000000000000000000000ED
:1003100000000000000000000000000000000000DD
:1003200000000000000000000000000000000000CD
:1003300000000000000000000000000000000000BD
:1003400000000000000000000000000000000000AD
:10035000000000000000000000000000000000009D
:10036000000000000000000000000000000000008D
:100370000D19FF1F00000000000000000000000039
:10038000000000000000000000000000000000006D
:10039000000000000000000000000000000000005D
:1003A0000000000000000000000000008D37FF1F6B
:1003B000000000000000000000000000000000003D
:1003C000000000000000000000000000000000002D
:1003D000000000000000000000000000000000001D
:1003E000000000000000000000000000000000000D
:1003F00000000000000000000000000000000000FD
:0C04000001FF01FF01FF01FF41000000AF
:020000041FFFDC
:101838007891FF1F4519FF1F81840000F1280000DF
:101848000000000000000000000000000000000090
:101858000000000000000000000000005119FF1FF8
:101868000000000000000000CD8400005519FF1F93
:101878005719FF1F5719FF1F5719FF1F5719FF1F28
:101888005719FF1F5719FF1F5719FF1F5719FF1F18
:101898005719FF1F5719FF1F5719FF1F5719FF1F08
:1018A8005719FF1F5719FF1F5719FF1F5719FF1FF8
:1018B8005719FF1F5719FF1F5719FF1F5719FF1FE8
:1018C8000000000000000000000000000000000010
:1018D8000000000000000000000000000000000000
:1018E8005719FF1F000000005719FF1F5719FF1F46
:1018F8000348854600F030F8004800478157FF1F2D
:101908007891FF1F0A484838694601600430F0C0E2
:1019180044464D4656465F46F0C030BCF0BCF0C069
:10192800F0BCF0C044380349034A95460847000014
:101938000008FF1FD12BFF1F3018FF1F04488047E6
:1019480004480047FEE7FEE7FEE7FEE7FEE7FEE79E
:101958008528FF1FF918FF1F064C0125064E05E0D4
:10196800E36807CC2B430C3C98471034B442F7D3B8
:10197800FFF7C2FF906BFF1FE06BFF1F70B58C185D
:101988000578401C6B075B0F01D10378401C2A11B6
:1019980006D10278401C03E006780E70401C491CF2
:1019A8005B1EF9D12B0705D40023521E0DD40B70F2
:1019B800491CFAE70378401CCB1A921C03E01D78F7
:1019C8000D70491C5B1C521EF9D5A142D8D30020CA
:1019D80070BD000003B40148019001BD75A9000065
:1019E80003B40148019001BDF9A6000003B4014801
:1019F800019001BDA1AF000003B40148019001BDF1
:101A08001510021103B40148019001BD2D0E0211F9
:101A180003B40148019001BD9D10021103B40148AF
:101A2800019001BD1511021103B40148019001BDD7
:101A38004D13021103B40148019001BD8B520100FE
:101A480003B40148019001BDDD3F000003B4014823
:101A5800019001BD8944000003B40148019001BD13
:101A68002144000003B40148019001BD750F000036
:101A780003B40148019001BDC95C010003B40148E9
:101A8800019001BD1907010003B40148019001BD8F
:101A9800BD0B010003B40148019001BDDD0C01003C
:101AA80003B40148019001BDDD0A010003B40148F7
:101AB800019001BD0134010003B40148019001BD4A
:101AC8000934010003B40148019001BD0534010047
:101AD80003B40148019001BDF535010003B4014884
:101AE800019001BDF935010003B40148019001BD21
:101AF800E917010003B40148019001BD61370100F5
:101B080003B40148019001BD01D7000003B40148A6
:101B1800019001BD6DF6000003B40148019001BDBC
:101B28007912010003B40148019001BD4DF900008C
:101B380003B40148019001BDC1F7000003B4014896
:101B4800019001BD413F000003B40148019001BD6F
:101B5800095A000003B40148019001BD096600005C
:101B680003B40148019001BD8D82000003B401480F
:101B7800019001BDB90C021103B40148019001BDE7
:101B8800B50D021103B40148019001BD751702118A
:101B980003B40148019001BD4D16021103B4014878
:101BA800019001BDA916021103B40148019001BDBD
:101BB800E1AC000003B40148019001BD79B3000015
:101BC80003B40148019001BDE53A010003B401489E
:101BD800019001BD156B010003B40148019001BDDE
:101BE800ED4A010003B40148019001BDA54F010071
:101BF80003B40148019001BD8552010003B40148B6
:101C0800019001BDB54C010003B40148019001BD2C
:101C18000101021103B40148019001BDE94C010022
:101C280003B40148019001BD3916021103B40148FB
:101C3800019001BD0D52010003B40148019001BD9E
:101C48000189000003B40148019001BD016C010045
:101C580003B40148019001BDBD5C010003B4014813
:101C6800019001BD8512010003B40148019001BD36
:101C7800D1AE000003B40148019001BDC53F00008A
:101C880003B40148019001BDCD4C010003B40148E3
:101C9800019001BDB352010003B40148019001BD98
:101CA800810E000003B40148019001BD9DA9000008
:101CB80003B40148019001BD0972010003B4014851
:101CC800019001BDE50E021103B40148019001BD68
:101CD800B30E000003B40148019001BD21A9000022
:101CE80003B40148019001BDADAE000003B4014842
:101CF800019001BDC56D010003B40148019001BD0B
:101D0800150B021103B40148019001BD154D0100E6
:101D180003B40148019001BDF102021103B4014866
:101D2800019001BD894A010003B40148019001BD39
:101D3800FD13021103B40148019001BD810E00009A
:101D480003B40148019001BDE9D4000003B401487F
:101D5800019001BD79D5000003B40148019001BD8F
:101D6800ADFF000003B40148019001BD5DB0000063
:101D780003B40148019001BDE1B0000003B401487B
:101D8800019001BD6142000003B40148019001BD0A
:101D98008576010003B40148019001BDC115010019
:101DA80003B40148019001BDCD0C010003B4014802
:101DB800019001BD71B0000003B40148019001BD5C
:101DC800D9B0000003B40148019001BD5976010063
:101DD80003B40148019001BD53B9000003B40148A0
:101DE800019001BD8D11010003B40148019001BDAE
:101DF800B9B0000003B40148019001BD1DB0000056
:101E080003B40148019001BDED6B010003B4014822
:101E1800019001BDAD0F010003B40148019001BD5F
:101E28003D4B010003B40148019001BDCD360100CE
:101E380003B40148019001BDC9A9000003B40148D9
:101E4800019001BD5F03021103B40148019001BD77
:101E5800090E000003B40148019001BDB14E000015
:101E680003B40148019001BDD94F010003B40148F2
:101E7800019001BD7D16021103B40148019001BD16
:101E88002D11010003B40148019001BD891401001E
:101E980003B40148019001BD6189000003B4014801
:101EA800019001BD5D0E021103B40148019001BD0E
:101EB800D1A5000003B40148019001BD8D0E0211A7
:101EC80003B40148019001BDD544010003B40148A1
:101ED800019001BD2D6C010003B40148019001BDC2
:101EE8007997000003B40148019001BD6911010010
:101EF80003B40148019001BDE512010003B4014893
:101F0800019001BDF90D0100F3B587B00446484FB3
:101F1800012C00D1474F600147494018007E002836
:101F28000BD08420C059C6B2002503E0387803A935
:101F380048556D1CB542F9DB04E00126387D387838
:101F48006946087360013C494018C06900280CD0F4
:101F580069460898087003A801900E726001364A15
:101F68008018C1696846884700BF09B0F0BDF0B560
:101F780085B00546680130494018041D2C48039077
:101F88006801085C002801D105B0F0BD68012A4944
:101F98004018007E002800D1F6E76801264940185D
:101FA800807E002800D1EFE72078022800D0EBE7F8
:101FB800A768A0886188401A86B2102E01DD10201B
:101FC80000E030460646002E1FD101202070002078
:101FD8006080A080680118494018C06900280AD0AC
:101FE800164A07CA6B4607C36801134A8018C169B5
:101FF8006846884700BF002D03D1082001F076FE0F
:1020080002E0192001F072FEBEE7012D01D1094856
:10201800039005E06188481C6080795C0398017032
:102028003046711E8EB20028F4D100BFACE7000024
:1020380000400040009000405087FF1FC86AFF1F03
:102048000446FFF7C7FC0C48C069402188430A4989
:10205800C8612046FFF7C4FC01F078FD002106485E
:10206800C030416004200449C03108600120FFF7F6
:10207800BDFC00BFFEE7000000F00040F8B548488E
:102088000068044608346069002802D0A069002866
:1020980000D1F8BD00250FE0A069475D0121384651
:1020A800FFF7AAFC00213846FFF7ACFC03213846AD
:1020B800FFF7AEFC681CC5B2042DEDDB002518E067
:1020C8006169485D0221FFF7A3FC6069475D002153
:1020D8003846FFF791FC3846FFF7A0FC0121064679
:1020E8004E4031463846FFF79FFC2E484655681C3F
:1020F800C5B2042DE4DB00BFCBE7F8B5284800687B
:10210800044608346069002802D0A069002800D17C
:10211800F8BD00250BE0A069475D01213846FFF7AF
:102128006BFC00213846FFF76DFC681CC5B2042D16
:10213800F1DB00250BE06069475D00213846FFF7B9
:102148005BFC02213846FFF763FC681CC5B2042D0E
:10215800F1DB00251AE06069475D00213846FFF78A
:102168004BFC3846FFF75AFC06460E48415DB14223
:1021780000D10DE0002E04D10A48405D012800D1AD
:1021880006E0032D00D1C3E7681CC5B2042DE2DBCD
:1021980000BF218AA0780122FFF74CFC00BFB7E7F7
:1021A800506CFF1F546CFF1F0149087070470000F6
:1021B800586CFF1F70B505460C460E480078A842BB
:1021C80001D0002070BDE007C00F002805D002F044
:1021D800FBF8204601214840F4E70420204000286D
:1021E80005D003F005FD204604214840EAE7002019
:1021F800E8E70000586CFF1F10B504460248047059
:10220800024800F0D9FE10BD786CFF1F8C6CFF1FD0
:10221800024604480078904201D000207047002010
:10222800FCE70000786CFF1F70B50124A407A368C1
:1022380010252B43A360FFF703FCA068A843A06008
:1022480070BD0000FFB5064601208007816881B097
:102258001D46102211438160554F002038603046DA
:10226800D730FFF7F3FB9D20800034468059FF36B6
:10227800CA3401360028306822462CD00121FFF7E5
:10228800EBFB4B4F2078F863641C2046FFF7EAFB12
:1022980000BA000AE17800020843B863241D20460A
:1022A800FFF7E0FB00BA000AE17800020843786310
:1022B800241D2046FFF7D6FB00BA000AE178000289
:1022C800084338630398029900020843F860039FA3
:1022D80000243F1D0EE00021D1E72819401CFFF71C
:1022E800C1FB0102285D0143324820180160241D0A
:1022F800A4B23F1F042FF0DA032F04D0022F08D016
:10230800012F0CD011E02819FFF7ACFB0102090AD4
:1023180006E0291948780A780102114300E0295D8E
:10232800244820180160241DA4B20021214F02E096
:10233800E0190160241DFF2CFADD1D481E4A426089
:102348000F220261012202604269002AFCD0426920
:10235800930701D4520708D401208007826810210E
:102368008A438260002005B0F0BD01600020039A16
:1023780011E0C11909682954401C80B20B0A2B547A
:10238800401C0B0C80B22B54401C80B2090E2954FF
:10239800401C80B2121F002AEBDC3068401C306001
:1023A80001208007826810218A4382600120DAE7D1
:1023B8000000044000010440080F0000FFB5054676
:1023C80001208007816881B01E4610221143816078
:1023D800504F002038602846D730FFF737FB9D2044
:1023E80080002C464059CA3480350028E86F2246C0
:1023F8002BD00021FFF730FB464F2078F863641C90
:102408002046FFF72FFB00BA000AE17800020843D4
:10241800B863241D2046FFF725FB00BA000AE178BF
:10242800000208437863241D2046FFF71BFB00BA0F
:10243800000AE17800020843386303980299000211
:102448000843F8600024039F0EE00121D2E7301909
:10245800401CFFF707FB0102305D01432E4820189E
:102468000160241DA4B23F1F042FF0DA032F04D00B
:10247800022F08D0012F0FD014E03019FFF7F2FA1D
:102488000102090A09E0311948780978000208436D
:1024980021496118086003E0315D1F482018016078
:1024A800241DA4B200211C4B02E0E0180160241D89
:1024B800FF2CFADD0F221748120242600F22026138
:1024C800012202604269002AFCD00160039A0020C0
:1024D800121D11E0C11809683154401C80B20C0A61
:1024E8003454401C0C0C80B23454401C80B2090E89
:1024F8003154401C80B2121F002AEBDCE86F401CEC
:10250800E86701208007826810218A43826005B04D
:10251800F0BD00000000044000010440F8B5FFF7DA
:10252800A7FA644908600420FFF7A8FAFFF7ACFA95
:102538000546C00715D06049002008605F4800784C
:10254800012811D0032813D0042815D0022817D049
:10255800052819D0FFF79EFA594F044601281AD0CA
:102568001EE0FFF79DFAF8BD2846FFF79FFA0EE038
:102578002846FFF7A1FA0AE02846FFF7A3FA06E083
:102588002846FFF7A5FA02E02846FFF7A7FA40B267
:102598000128E8D05FE03878052809D0062807D058
:1025A8004848494E0078022806D0052804D009E09A
:1025B800284602F0ABFE4EE0002C06D0022808D0D8
:1025C800052806D0022C0ED005E0284602F0C2FEEF
:1025D80041E0022C02D0012C13D016E0B17B002977
:1025E80007D0022905D03978052906D001281AD044
:1025F8000BE0284602F0BAFE18E0284602F092FEE8
:1026080014E0012807D0062809D02846FFF76CFAFD
:10261800022C0BD01FE0284602F0C0FE1BE0284623
:1026280002F0B0FE17E0284602F088FE387801284C
:1026380011D168050FD4707BC10701D0252004E0B3
:10264800800701D5262000E02720317D814202D96C
:102658003220FFF74FFA1B4C2078042804D00328B7
:102668001AD007281DD020E0FFF74AFA00281CD00E
:10267800FFF74CFA5820FFF74FFA2078002801D0CE
:10268800022020701148407800280ED020780028B9
:102698000BD10320207008E00D48807CFFF742FA38
:1026A80003E00C48807BFFF743FA0320FFF7E6F9C5
:1026B800F8BD00009C09FF1F9809FF1F9009FF1F24
:1026C8001C09FF1F2309FF1FA60BFF1FB06CFF1F6C
:1026D800BC0BFF1FD40BFF1FF8B50C4610490C426A
:1026E8001AD1610518D500250E48AF003E1871783B
:1026F800012909D1C15D7088FFF720FA0A48708066
:1027080008490020C85570706D1CEDB2102DEBD330
:10271800012080026040F8BD2146FFF715FAF8BD98
:10272800DE090000088DFF1FFFFF000010B5012023
:1027380003F0DCF9FFF70EFA0446002003F0D6F99F
:10274800204610BD70B50446FFF70AFAE21DFF32B5
:10275800FA32D06F0021000C0004D0671046803890
:102768008B001B19FF330133C56A491CDD66082934
:10277800F6DB00218B001B19FF338133C56A491C26
:10278800DD600829F6DB0120D06470BDC106C90EE2
:1027980001208840014908607047000000E100E01E
:1027A800F8B507460C4615461E46012E05D12A46A1
:1027B80021463846FFF7DAF923E0124AD268D0B248
:1027C800C217920F121892109200821AA24212D1C6
:1027D8000C4AD268D1B2CA17920F52189210AA4264
:1027E80009D1094A1278012A05D100200649087042
:1027F80001200649087000232A4621463846FFF77B
:10280800B5F9F8BDC0F000402C6CFF1F2D6CFF1F00
:1028180010B5FFF7B1F901281BD1FF2151310E483E
:102828000068FFF7AFF9002813D00C48007800289B
:102838000FD101200949087009480068002808D00C
:1028480007480068C068002803D005490968C868B7
:102858008047FFF79DF910BD306CFF1F746CFF1F98
:10286800446CFF1F10B5002003490870FFF796F964
:1028780001F06CFD10BD00002C6CFF1F01480249DF
:102888000860704740787D01AC6CFF1F10B50028C8
:1028980019DB1A4A03231B02D21883089B00D2585B
:1028A8008307DC0EFF23A3409A438B071B0E840784
:1028B800E40EA3401A43114B032424021B19840875
:1028C800A4001A5118E00E4A03071B0F083B9B0887
:1028D8009B00D2588307DC0EFF23A3409A438B0743
:1028E8001B0E8407E40EA3401A43054B0407240F6C
:1028F800083CA408A4001A5110BD000000E100E043
:102908001CED00E010B5002819DB1A4A03231B024E
:10291800D21883089B00D2588307DC0EFF23A340FC
:102928009A438B071B0E8407E40EA3401A43114BEE
:10293800032424021B198408A4001A5118E00E4A23
:1029480003071B0F083B9B089B00D2588307DC0E2C
:10295800FF23A3409A438B071B0E8407E40EA34072
:102968001A43054B0407240F083CA408A4001A5175
:1029780010BD000000E100E01CED00E010B50028EB
:1029880019DB1A4A03231B02D21883089B00D2586A
:102998008307DC0EFF23A3409A438B071B0E840793
:1029A800E40EA3401A43114B032424021B19840884
:1029B800A4001A5118E00E4A03071B0F083B9B0896
:1029C8009B00D2588307DC0EFF23A3409A438B0752
:1029D8001B0E8407E40EA3401A43054B0407240F7B
:1029E800083CA408A4001A5110BD000000E100E052
:1029F8001CED00E010B5002819DB1A4A03231B025E
:102A0800D21883089B00D2588307DC0EFF23A3400B
:102A18009A438B071B0E8407E40EA3401A43114BFD
:102A2800032424021B198408A4001A5118E00E4A32
:102A380003071B0F083B9B089B00D2588307DC0E3B
:102A4800FF23A3409A438B071B0E8407E40EA34081
:102A58001A43054B0407240F083CA408A4001A5184
:102A680010BD000000E100E01CED00E002E008C835
:102A7800121F08C1002AFAD170477047002001E0F0
:102A880001C1121F002AFBD1704700000248C0692B
:102A9800002800D0004770474003FF1FFFB50746D6
:102AA80001208007816883B01C461546029146695B
:102AB80039490968384A4900490801910021C94340
:102AC80080321160354A1268520052080092334A27
:102AD8008032116032498160212141611F20FFF756
:102AE80055FEE20780212F48002A02D042680A4397
:102AF8004260A20704D54268FF2301331A434260AB
:102B0800002D0CD02A07520F04D00122144342682A
:102B18000A43426041682A07D20B114341602149A8
:102B28004039CA6B5201520FBA4206D0CA6B07230A
:102B38001B069A433B061A43CA63CA6B5307049A97
:102B48005B0F934205D0CA6B049BD208D2001A438C
:102B5800CA634168FF2281329143E2011143416017
:102B680041680F22520391436A03114341600C48A4
:102B7800029901438007816001210E4346614100AB
:102B880005488030016005490098086002490198AD
:102B9800086007B0F0BD000000E100E000E200E0DE
:102BA8000100080040F000401CB569460120FEF70E
:102BB800FBFF012000900348019000F0F5FC012084
:102BC8001CBD0000BB0B000088B0044625463F48EA
:102BD800C06800780790002006903D4805900023C3
:102BE80012220521E1204002FEF7E4FF39A0FEF79A
:102BF800E7FF286B00903DA0EB6AAA6A696AFEF7B6
:102C0800DFFF2869009044A0291D0EC9FEF7D8FFF0
:102C1800286A00904BA0EB69AA696969FEF7D0FFA2
:102C2800E86B009052A0AB6B2A68696BFEF7C8FF8F
:102C38005AA0296CFEF7C4FF5C4841685CA0FEF707
:102C4800BFFF059801780798814206DA1F48816816
:102C5800059800788000085806900598007801903B
:102C680006980290564800680390FEF7AFFF04905C
:102C78000498009053A001A90EC9FEF7A1FF5EA019
:102C8800FEF79EFF66492E680E40002711E0F019F6
:102C98006349884200D90EE03807000F002803D1A5
:102CA800F11960A0FEF78CFFF15960A0FEF788FFCC
:102CB8003F1DFF2FEBDD00BF5E480068002802D0F3
:102CC8005C480068804700BFFEE700000000FF1F67
:102CD800B408FF1F0A5B48617264206661756C74F2
:102CE8002068616E646C65725D0A000052302D5276
:102CF8003320202020202020203D20307825303807
:102D08007820307825303878203078253038782089
:102D18003078253038780A0052342D523720202058
:102D280020202020203D2030782530387820307829
:102D3800253038782030782530387820307825309C
:102D480038780A0052382D52313120202020202096
:102D5800203D203078253038782030782530387874
:102D680020307825303878203078253038780A00B7
:102D78005231322C53502C4C522C5043203D203091
:102D88007825303878203078253038782030782504
:102D9800303878203078253038780A00505352205F
:102DA800203D2030782530387820200000ED00E0E4
:102DB80049435352203D203078253038780A0000A6
:102DC8006008FF1F5B4F53414C5D696478202564A0
:102DD8002046756E632030782530387820737973F3
:102DE8007469636B2025303878207274632025302D
:102DF80038780A20000000002D2D2D2D2D2D2D2D89
:102E08002D2D2D64756D7020737461636B2D2D2DC0
:102E18002D2D2D2D2D2D2D2D2D2D2D0A00000000B1
:102E2800FCFFFF1F0A5B253038585D0025303878D5
:102E380020000000F46BFF1F1CB569460320FEF755
:102E4800B3FE684601F052FD0098002802D10198AF
:102E5800002800D001201CBD10B500F01BFBFFF7B7
:102E6800A3FE002802D00248804710BDFEE70000FC
:102E7800E1A2000010B502460B46114600E0491CCD
:102E88000878002803D018465B1E0028F7D1881A56
:102E980010BD70B504460D462A462146002001F0B3
:102EA800BBF870BD0E480F4988600020C8601B2021
:102EB800400308614D20C00348610B4888610B48F6
:102EC800C861002008624862C8620863486305490F
:102ED8008031086248628862012088637047000078
:102EE800000C000600F0004040400601ABFF010066
:102EF80010B5FEF771FE0120FEF774FEFEF778FEAE
:102F0800002010BD10B501F047F80446214602A084
:102F180000F09CFA10BD0000706F7765726F6666EE
:102F2800206B6579206C6F6E67207469636B633DF5
:102F380025640A0070B5044601F02EF805462A46B5
:102F4800214602A000F082FA70BD00005B6B657933
:102F58005D3A25303264207072652D2D2D746963B9
:102F68006B3D25640A00000010B50446214602A006
:102F780000F06CFA10BD00005B6B65795D3A253096
:102F880032642072656C0A001CB503218902074867
:102F9800FEF734FE012003210B4602460091019002
:102FA80003490448FEF730FE1CBD0000207AFF1FCD
:102FB800246DFF1F9C77FF1F10B504461C22214675
:102FC8000C48FEF727FE0B498869FEF729FE0A48D8
:102FD8000068022805D1042108480078FEF726FE7B
:102FE80001E001F0B3F90A22012104480078FEF754
:102FF80021FD10BDC089FF1F800AFF1F586CFF1FED
:10300800F8B54E484068C043000603D53C20FEF79B
:1030180013FEF8BDFEF7DAFD484D0090803D2868A4
:103028000121890408432860E86945490840283097
:10303800E8610320FEF700FE686AC703FF0B032060
:10304800FEF7FAFD686AC403E40B0320FEF7F4FDFB
:10305800686AC603F60BA74201D3204600E038464B
:10306800B04200D33046A74201D3394600E021469A
:10307800B14200D23146334ABA18C32A26D2314B5C
:10308800DB439C4222D9304A94421FD29E421DD92A
:1030980096421BD2081A132818D2284842680C21D5
:1030A8008A4342604168FF22120291434160142022
:1030B800FEF7C2FD21488038416AC269C903C90BBD
:1030C80008239A43C26121488162F8BD27463446E5
:1030D8000320FEF7B1FD19488038406AC603F60B95
:1030E800FEF774FD0099884201D3401A01E0401AA6
:1030F800401E17498842AED31048416809040D0E96
:103108004168FF22120291436A1C1206120C1143F5
:10311800416041680C229143091D41600020FEF77F
:1031280091FD642D02D3054800214160062D00D38E
:1031380006250748A840FEF783FF8CE7C0F000404B
:1031480000FEFEFF91FCFFFF32040000B06CFF1F81
:10315800E40C0000F8B53D4840683C4C0006803C53
:103168008021002806DB6068084360600320FEF7C2
:1031780063FDF8BD364D00202863206801229204C3
:1031880010432060334F606880210843606003204B
:10319800FEF752FD286B401C286360680121090472
:1031A800084360600026E0692B4938404018E06118
:1031B8000320FEF741FD606AE169C003C00B0822E5
:1031C8009143E161A96A06225143814201D3091A58
:1031D80000E0411A3C2909D2E269012109048A4325
:1031E800E26162688A436260E862F8BD761CF6B202
:1031F800052ED8D3E169012000048143E1616168AB
:1032080081436160286B2E46052807D3BFF34F8F93
:1032180013491248C860BFF34F8FFEE760688021EA
:10322800884360600320FEF707FDE06938402830D6
:10323800E0610320FEF700FD606AC003C00BB062C6
:10324800E16908208143E1619DE70000C0F000408A
:10325800B06CFF1F00FEFEFF280001000400FA0505
:1032680000ED00E0FEB504461948C16B194D490749
:10327800C90E6958164AC90B4032009111684903B2
:1032880004D4116801239B0419431160C16B1822EF
:103298001143C163C06B104F4001400F0190B84704
:1032A80006462046B84706430C49F007C00F884732
:1032B8000346A0000A49285808600098411E00915A
:1032C800FBD2324621460198FFF7E8FB0020FEBDFD
:1032D80000F00040E07B0100018C0000A98A00009A
:1032E8007408FF1F02460B46002A01D101207047CF
:1032F800002106E0505C002801D00020F7E7481CB8
:10330800C1B29942F6DB0120F1E70000F8B50646A4
:103318000120FEF791FC214D214F2878214C0028EF
:1033280016D0FEF795FC206000F0DEFE002802D0E3
:1033380002F0FEFC78611C498B6A1C4803601C483B
:10334800C76A1C4A1268974205D2C06A101A03E07D
:10335800F8684069E7E70020174A10609819C862C2
:10336800486A2922D203104348622878002812D0DC
:1033780012480178022908D00178012908D000787C
:103388000328206808D0C01E04E020680F3801E038
:10339800206808382060F8BD401FFBE71C09FF1FA4
:1033A800B06CFF1FE408FF1F00F00040340AFF1F45
:1033B80000100040180AFF1F1C0AFF1F4A0AFF1FBF
:1033C80010B51E48A1218078890048431C49A123D3
:1033D80009689B004418912189000A59174900205F
:1033E80089785943164B1B68C918C98E002A1ED004
:1033F8001448C068FF300130012A0CD0114BDB683B
:10340800FF338133062A08D86479012C05D00D4C86
:103418005234125D04E0006B09E00A4A5432127912
:103428001B6D006B5A430B0A5B1C5A431018064A63
:10343800C9085143814200D8084610BD300DFF1F0E
:103448003409FF1FB06CFF1F530700000FB408B505
:1034580003A800900548009A029901F0EDFF0020AA
:10346800009001B008BC04B0184700009B2EFF1F55
:1034780000B585B0064B0FCB049301AB07C3002002
:10348800009001A80FC800F08DFD05B000BD000038
:10349800B86AFF1F03490020486103490860486073
:1034A8007047000040F0004040F100401CB527483C
:1034B800A12180788900484325490968441825488E
:1034C800406A80B2009091208000015900290FD0F5
:1034D8002148C068FF30013001290ED01E4AD26849
:1034E800FF32813206290AD81B4B5233C95C09E0E6
:1034F800608CE18E484340100DE0006B0AE01649ED
:1035080054310979126D006B5143E28E120A521C34
:10351800514308184000009940180090FFF750FFE9
:103528000190019900980D4B421AE069C10859436E
:103538008A4201D8009805E00949400848430199A2
:1035480040180090FEF78AFB1CBD0000300DFF1FDD
:103558003409FF1F00100340B06CFF1F5307000021
:103568007102000070B50D4C0546E068808D40057D
:1035780005D50B48406AC003C00B02F0ADFB002024
:1035880002F098FA002808D006480168E068FF3081
:10359800813041652846FEF767FB70BDB06CFF1FA0
:1035A80040F000400080FF1F70B58AB000241E4D17
:1035B800049405942878012806D004A90120FEF770
:1035C800F3FA002802D000200AB070BD04980090D9
:1035D80005980190154881680291C06813490390C5
:1035E80006AA10316846FEF745FB104E1022203619
:1035F800314606A8FEF744FB002811D001202870A8
:103608000B4A31466846FEF735FB049400206946AC
:1036180005948200401C8C500428FADB0120D3E773
:10362800FF202870CFE70000196DFF1F0029001147
:10363800688DFF1F30B50146002010E08400094D59
:103648006419E46CA2B284006419E46C230C84004D
:103658000A534400641C64000B53421CD0B2062871
:10366800ECDB30BD80D0004010B5224803782249F9
:103678001022C968022B08D00378012B05D00378E3
:10368800032B02D00378042B00D10A6204780E239E
:10369800022C09D00478012C08D00478032C07D018
:1036A8000478042C06D007E01B2404E0122402E06E
:1036B8004B6001E00C244C6004780F49C9688031E4
:1036C800022C0BD00478012C0CD00478032C0ED0DB
:1036D8000078042801D1CB610A6210BD1F20C8619F
:1036E800212002E01420C8611820086210BD1320B0
:1036F800CA61FAE74A0AFF1FB06CFF1F00B589B01C
:103708001E480078012802D100201C4908701C4A74
:10371800D18E2032107DFEF7B9FA03A8FFF78AFF91
:1037280017480079012802D103A802F0D1FD1448F6
:10373800006900280ED001AA03A91148183001F029
:1037480087F868460079002803DD0D48016901A85B
:10375800884700BF182203A909481830FEF79CFAC9
:10376800074B1B7D5B001A460A32054BD98E203366
:10377800187DFEF75FF909B000BD0000286CFF1F37
:103788001488FF1F10B5134880680407240F062CFF
:1037980017D004DC022C10D0042C17D108E0072C19
:1037A80010D00C2C12D102210020FEF7ADFB0EE048
:1037B80001210020FEF7A8FB09E00020FEF7D7FB57
:1037C80005E004E003484030C06B00E000BF00BFE4
:1037D80010BD00000040004010B513488068040781
:1037E800240F062C17D004DC022C10D0042C17D17F
:1037F80008E0072C10D00C2C12D102210120FEF772
:1038080083FB0EE001210846FEF77EFB09E001205C
:10381800FEF7ADFB05E004E003484030C06B00E074
:1038280000BF00BF10BD00000090004008B5642034
:103838000090412000F06EF8402000F06BF8022064
:103848004107486200BF0098411E00910028FAD144
:10385800032001218907486200F006F800200121B1
:103868008907886208BD000038B5FEF7B3F8012063
:103878008007846A08200090002C02D1012081076B
:10388800886202200E49086000BF0098411E00911E
:103898000028FAD103200A4908600820009000BFD8
:1038A8000098411E00910028FAD105490860002CB3
:1038B80002D1012189078862FEF7F4F938BD0000BA
:1038C80000C00040202809DA0121890789680122FF
:1038D800824091430122920791601AE040280BDA56
:1038E800012189074A690146203901238B409A43FF
:1038F800012189074A610CE060280ADA0121890759
:103908000A6A0146403901238B409A4301218907FD
:103918000A627047202809DA01218907896801228B
:10392800824011430122920791601AE040280BDA85
:10393800012189074A690146203901238B401A432E
:10394800012189074A610CE060280ADA0121890708
:10395800096A0246403A012393401943012292071B
:1039680011627047202823DA15280FDB16280DDC92
:1039780001218907096820229143520611601146E6
:103988000968202211435206116056E00121890777
:103998000968012282409143012292071160114671
:1039A800096801228240114301229207116044E014
:1039B800402827DA35280FDB38280DDC0121890754
:1039C800C968102291439206D1601146C968102235
:1039D80011439206D16030E001218907C968024687
:1039E800203A01239340994301229207D16011465E
:1039F800C9680246203A01239340194301229207DD
:103A0800D1601AE0602818DA01218907496A02465C
:103A1800413A01239B1A01229A40914301229207BD
:103A280051621146496A0246413A01239B1A012212
:103A38009A401143012292075162704710B5002045
:103A4800FEF736F9002010BD08B500F01BF80A484B
:103A58000078FFF707FC0948007800F02DFA00F01D
:103A680093F8074800680090009800F079FAFFF78B
:103A7800FFFCFEF723F908BD4A0AFF1FF06BFF1F82
:103A8800B46AFF1F10B58CB030221B496846FEF798
:103A980003F9002409E062006B46D21851786200ED
:103AA800985CFDF7B5FF601CC4B2172CF3D313481C
:103AB80040690F21C90388430521090440180F49AB
:103AC80048610846406901214906884340180B4966
:103AD8004861084640690321490588430121490591
:103AE800401806494861072000F016F800F03AF837
:103AF80000F006F80CB010BD846AFF1F00F000400B
:103B080004484069012189068843024948610F2019
:103B18007047000000F000400146480940010028B5
:103B280007D009480078C008C000074A107006206E
:103B3800704705480078C008C0004A07520F104374
:103B4800014A10700020F3E7056CFF1F0448C069A4
:103B58001F21490488430249C861002070470000BA
:103B680000F000400648C0691F2149048843054900
:103B780009784907090B08430149C86100207047C3
:103B880000F00040056CFF1F10B578210A48FEF7C9
:103B98009BF80A480078012804D0022806D0042897
:103BA80007D100E000BFFEF795F802E0FEF798F8AD
:103BB80000BF00BF002010BD9087FF1F046CFF1FCF
:103BC80070B50546122617480078012803D0154815
:103BD8000078042803D1FEF77DF8002070BDFDF7BA
:103BE800F9FE002417E00C2060430F49085C002808
:103BF80000D112E00C2060430B49085CA84209D1AF
:103C080001210C206043084A80184170FEF762F8D1
:103C1800002602E0641C0A2CE5DB00BFFEF742F830
:103C28003046DBE7046CFF1F9087FF1FF0B50346A3
:103C38000C4615460021002220E00C205043164E69
:103C4800305C984201D10720F0BD0C205043124E41
:103C5800305C002811D10C20504381190F4800789E
:103C6800F826B0430D4E3678F608761CF600F8278D
:103C78003E403043094E307002E0521C0A2ADCDB19
:103C880000BF002901D10320DEE7002048700B7037
:103C98004C608D6000BFD7E79087FF1F056CFF1F42
:103CA80010B5FFF75FFF0F480078C008441E15E005
:103CB8000C2060430C49085C002801D1122010BD7B
:103CC8000C206043084940184068002805D00C21A2
:103CD8006143054A891848688047641E002CE7DA62
:103CE8000020ECE7056CFF1F9087FF1F70B50546A5
:103CF80000261D480078012803D01B4800780428B6
:103D080003D1FDF7E7FF002070BDFDF763FE002437
:103D18001BE00C2060431549085C002800D116E020
:103D28000C2060431149085CA84205D100210C20F1
:103D380060430E4A801841700C2060430B494018BC
:103D48004078002800D0761C641C0A2CE1DB00BFF8
:103D5800002E02D1FDF7C4FF01E0FDF7BBFFFDF720
:103D6800A1FF0020D0E70000046CFF1F9087FF1F11
:103D780010B522480068012189078860204800683A
:103D880001210843890748611E48006B1E490860E5
:103D98001C48303040681D49086000210420FEF7A7
:103DA800EDFD01211420FEF7E9FD01211520FEF7A4
:103DB800E5FD01211720FEF7E1FD01F0E3FE0024F7
:103DC80015E00C2060431249085C002801D112203C
:103DD80010BD0C2060430E4940188068002805D0AB
:103DE8000C2161430A4A891888688047641C09487D
:103DF8000078C008A042E4DC0020E9E7086CFF1F57
:103E08000C6CFF1F80F00040106CFF1F146CFF1F2C
:103E18009087FF1F056CFF1F10B50548054908600E
:103E280005490860FFF73EF800210448416010BDCD
:103E3800841E0000140AFF1F380AFF1FC0F000404C
:103E480010B50F2016490870012016490870002087
:103E5800154908701548C06B4009400109301349DD
:103E6800C8630846C06B6021884360300F49C86347
:103E7800FFF7D2FF00F01CF800210420FEF706FD32
:103E880001211420FEF702FD01211520FEF7FEFC9A
:103E980001211720FEF7FAFCFFF776F810BD0000A5
:103EA800480AFF1F490AFF1F680AFF1F80F00040E9
:103EB80010B5FEF7D1FF10BD10B50446012C18D17E
:103EC80024484069400140090521C9064018214994
:103ED80048610846C06920490840204940181D49E2
:103EE800C8610846C0694021884340301949C86103
:103EF80020E0002C1ED100210A20FDF789FD0021B9
:103F08000B20FDF785FD1348C0690321090288438A
:103F180040181049C8610846C069402188430D49C6
:103F2800C86108464069400140090B21090740184B
:103F38000849486107484069012109078843401832
:103F480004494861084680690321490488430149B6
:103F5800886110BD00F000407F00FEFF80FD010079
:103F680001B50748002101600099016000F06CF874
:103F7800044A00211320FFF759FE002008BD000065
:103F88001C6CFF1F5140FF1F0248006A002800D028
:103F9800004770474003FF1F014800687047000052
:103FA8006008FF1F7FB5089C60011849085C00285D
:103FB80002D0112004B070BD6846407A002801D0B4
:103FC8000520F7E76101114A88182021FDF77CFEDA
:103FD80060010E49401869462EC910302EC020468F
:103FE80002F0B8FA01206101084A5054002C05D1AA
:103FF800074A00210820FFF719FE04E0054A0021BE
:104008001920FFF713FE0020D4E700005087FF1F98
:104018000167FF1F0B67FF1F70B504460D46164664
:10402800600108494018807E002805D0324629469C
:10403800204602F0D5F970BD32462946204602F0E6
:1040480087F9F8E75087FF1F38B52148007802281C
:1040580001DD042001E01E48007804461D48006880
:104068001D49884209D1012000901A4800230121E6
:1040780002682046FDF73AFE08E000200090154847
:104088000023012102682046FDF730FE1348144939
:1040980088630020124940310861102048610220DD
:1040A80088611220002809DBC206D20E0121914046
:1040B8000C4A1160BFF34F8FBFF36F8F00BF02210F
:1040C8001220FEF797FCFFF7B1FBFFF7B7FC38BDEE
:1040D8004A0AFF1F1C6CFF1F6B000208050001FF46
:1040E80000C8004080E100E002488069C00700D0B5
:1040F8000120704740100040FFB583B000200290B7
:10410800019000905848006805685748006846685C
:10411800002D03D1002E01D107B0F0BD002490E09E
:104128000398005D002807D10498005D002803D09B
:104138000498015D039801550398005D00283FD05D
:104148000598005D022873DA0598005D401CC1B22D
:10415800059801550598005D022869D10698005D0B
:10416800002865D00398005D002801D0012000E0F8
:10417800002002902046E117890F0918891089004C
:10418800611AC9B20191E117890F09188905090E49
:104198000091002E08D03068002805D03768042028
:1041A800029B009A0199B847002D41D02868002841
:1041B8003ED02F680420029B009A0199B84737E047
:1041C8000598005D022830D10398005D00282CD1A5
:1041D8000398005D002801D0012000E00020029033
:1041E8002046E117890F091889108900611AC9B298
:1041F8000191E117890F09188905090E0091002E10
:1042080008D03068002805D037680420029B009A3F
:104218000199B847002D08D02868002805D02F68D4
:104228000420029B009A0199B8470021059801557E
:104238000398015D06980155002103980155601CFB
:10424800C4B2102C00DA6BE7002E04D07068002886
:1042580001D070688047002D04D06868002801D01C
:104268006868804700BF57E7506CFF1F70B5054668
:104278000B4800680646083600240DE0AC4209D019
:10428800B169085D0221FDF7C3FBB169085D002132
:10429800FDF7B2FB601CC4B2042CEFDB70BD00005C
:1042A800506CFF1F70B50446A506AD0EC020204017
:1042B800002806D0402809D080280CD0C02813D167
:1042C8000EE029460BA0FFF7C1F811E029460DA022
:1042D800FFF7BCF80CE029460EA0FFF7B7F807E097
:1042E80012A0FFF7B3F803E015A0FFF7AFF800BF7F
:1042F80000BF70BD5B6B65795D3A25303264207014
:1043080072650A005B6B65795D3A2530326420720C
:10431800656C0A005B6B65795D3A25303264206C08
:104328006F6E6770726573730A0000006C6F6E675A
:10433800207072657373206B6565700D0A0000004C
:10434800756E65787065637465640A0010B51A48FF
:104358001A49C861001F086200211848083001770F
:1043680001210838018316480178144881721248DF
:104378001138017B114801730F490D3901610A2079
:104388000E49087200210D484172602108304177BA
:104398000948113841880948C182074811380188FD
:1043A800064881820020054948600648086008469A
:1043B800FDF7A2FC10BD0000D189FF1F9889FF1FDF
:1043C800586CFF1F686CFF1F10B5074800F0BAF95A
:1043D800064B074A04490748FFF78EFE044A102196
:1043E800024800F06DF810BD6889FF1F5889FF1F4B
:1043F8008889FF1F7889FF1F70B5064600242F485B
:104408000068054608356869002802D0A8690028B0
:1044180000D170BD002E02D0012E4CD125E0002421
:1044280010E0A969085D0221FDF7F2FAA969085DA3
:104438000121FDF7E1FAA969085D0121FDF7E2FA1A
:10444800601CC4B2042CECDB00240BE06969085D35
:104458000221FDF7DDFA6969085D0021FDF7CCFA54
:10446800601CC4B2042CF1DB25E000240BE0A96930
:10447800085D0221FDF7CCFAA969085D0021FDF766
:10448800BBFA601CC4B2042CF1DB002410E069699B
:10449800085D0221FDF7BCFA6969085D0121FDF795
:1044A800ABFA6969085D0121FDF7ACFA601CC4B27A
:1044B800042CECDB00BF00BF00BFAAE7506CFF1F55
:1044C800F7B50F462748006845682648006806681B
:1044D800244800680446083400F0A2F939460098D8
:1044E800FEF700FF01282ED13A4600210098FDF77B
:1044F80009FC3A4600210298FDF704FCFDF708FC88
:10450800012812D1218AA078FDF708FC002D04D0DB
:10451800A868002801D0A8688047002E20D0B0687D
:1045280000281DD0B06880471AE0002D05D06278B9
:10453800218AA078FDF77EFA12E02278218AA078F5
:10454800FDF778FA0CE0002D05D06278218AA07872
:10455800FDF770FA04E02278218AA078FDF76AFA5C
:10456800FEBD0000506CFF1F10B517481749C86101
:10457800001F0862164801781448083001770121A5
:104588000838018313480178104881720E481138A1
:10459800017B0E4801730C490D39016100200B495C
:1045A80008720421094841726421083041770A4899
:1045B8000649486000200860084600F0A9F8074945
:1045C80007A0FEF743FF10BDD189FF1F9889FF1F81
:1045D800596CFF1F586CFF1F5C6CFF1FD46AFF1FCC
:1045E80025730D0A00000000F0B58FB005460E4691
:1045F80000200E900A900B900C900D90069007905A
:10460800089009900590FF200490002000900190E8
:104618000290039000BF03E0411C0AAA1154C8B2DB
:104628001028F9DB002409E0285D0021FDF7E4F9F2
:10463800285D0221FDF7ECF9601CC4B2042CF3DB01
:10464800002405E0305D0121FDF76EFB601CC4B25B
:10465800042CF7D3002423E0305D0021FDF764FB30
:104668002046FFF703FE002712E00120B8400E990C
:10467800084000280AD1E85DFDF7D0F9012148403B
:10468800A100C91988400E9908430E90781CC7B23A
:10469800042FEAD3305D0121FDF746FB601CC4B24C
:1046A800042CD9D300200FE0012181400E9A11403B
:1046B800002904D00AA9095C06AA115402E00021C5
:1046C80006AA1154411CC8B21028EDDB00211BE0DA
:1046D8006846405C06AA525C504005900598002840
:1046E80010D006A8405C002801D0012000E000207E
:1046F80004900498012801D10FB0F0BD06A8405CD1
:104708006A465054481CC1B21029E1DB0020F3E787
:1047180010B50446002C00D110BD0748046000F015
:104728007FF8054909680831487F044A0449FFF7BA
:104738007DFA00BFF0E70000506CFF1F0321FF1F48
:104748008520FF1FFEB5054600200290334800680B
:10475800066A32480068C0690190002E02D00198AC
:10476800002800D1FEBD0020FFF746FE002450E0DF
:10477800305D0021FDF7D8FA2046FFF777FD0027C6
:1047880013E00199C85DFDF749F9009002A8005DA2
:104798000099002901D1012100E00021B940C9B2E6
:1047A800084302A90855781CC7B2042FE9DB02A800
:1047B800005D002818D0002013E002A9095D01223D
:1047C80082401140002906D0A1000918491CA20006
:1047D8001218A95403E00021A2001218A954411C80
:1047E800C8B20428E9DB09E0002005E00021A200A6
:1047F8001218A954411CC8B20428F7DB305D012106
:10480800FDF792FA0422002102A8FDF77BFA601C4A
:10481800C4B2042CACDB00BFA4E70000506CFF1F3F
:1048280070B50A4800680546083500240BE0696938
:10483800085D0021FDF7E0F86969085D0221FDF7D0
:10484800E7F8601CC4B2042CF1DB70BD506CFF1F8C
:10485800F7B584B00F460026002439E061000498BB
:10486800405A6100795A484003906000385A0399C9
:10487800084002900398002828D0002523E0012052
:10488800A84003990840002818D06846057144716B
:104898000120A84002990840002801D0012000E02A
:1048A800002069468871710071180E4A8818032221
:1048B80001A9FDF73FFA701C86B200BF0A2E00D18D
:1048C80003E0681CC5B20B2DD9D300BF601CC4B26D
:1048D8000C2CC3D30349069841600698067007B0AC
:1048E800F0BD00004C88FF1F7047000030B50AC8B3
:1048F800284A4C071068A40F800880002043CC0881
:10490800E50704241060002D3CD0A0437824A04380
:104918000C06240FE40020430F24E401A0430C05F7
:10492800240FE40120430C0BE5071B4C10602BD02F
:10493800A0431A4C20404C02A40D240320430F240A
:10494800A405A0434C01240FA40520439C01C90ED3
:104958006408214303C2990ECC0701218906083A4D
:10496800002C13D08843D90ECC070D4910600FD006
:1049780088430321090788439900890F09070843D9
:10498800106030BD2043C1E72043D2E70843EAE77F
:104998000843EEE71C6DFF1F00080000FF0FC0FF73
:1049A80000000008F8B5054612480F46C078814255
:1049B8001FD1E878002818D00024A0004619FF3637
:1049C8008136F16800290DD0086800280AD12879B5
:1049D80000F074FC0020F0600520C0012818417820
:1049E800491E4170641C082CE7DB39462846FDF750
:1049F800A7F9F8BDB06CFF1FF8B507460546FF37A5
:104A0800052000268137C0012C18B0004019FF305E
:104A180001300090C16E002905D0287900F04EFCC5
:104A28002078401E20700098F96A761CC166082E0E
:104A3800EBDB0026B0004019FF3081300090C168E0
:104A4800002905D0287900F039FC6078401E607094
:104A58000098F96A761CC160082EEBDB0026B000CE
:104A68004719FF378137396B002905D0287900F0BD
:104A780025FCA078401EA0700020761C3863082E04
:104A8800EDDB284600F088F82846FDF75FF900219D
:104A980008468A005219FF320132491CD06608299B
:104AA800F7DB00218A005219FF328132491CD0609D
:104AB8000829F7DBE070F8BD10B50B48A121807814
:104AC800890048430949096840184178002907D0F6
:104AD800FF30FF300230C16C002901D00021C164D1
:104AE800FDF73AF910BD0000300DFF1F3409FF1F14
:104AF800FFB504466030C07E072581B017460128FF
:104B080042D12046FDF72EF900283DD021480078F3
:104B180000283CD0FF2611362046FDF729F90090E1
:104B280020790022314600F07FFB009989000E1998
:104B3800FF360136F066002826D0A620005D002842
:104B480007D03A462046049B0299FDF717F93F1D06
:104B5800FFB20520C001251828783A46401C287065
:104B6800029938020843F16E8880F06E0499801D1E
:104B7800FDF7E0F8F16E012008602046FDF704F922
:104B8800E878401EE8700025284605B0F0BD3426B8
:104B9800C2E700001709FF1F10B50179134A490041
:104BA800515C002920D012490B688C15A3430B6077
:104BB8000146FF3121310B46097D02242140047949
:104BC8006400A418647821431975094B403BDC6BD9
:104BD800A408A4000C43DC63037900215B00D154D2
:104BE800007940008018417010BD0000288BFF1F1D
:104BF80040100340F3B507469848A1218078890002
:104C08004843974989B00968002644182046FF3070
:104C180021300690407D322822D0222820D02546F7
:104C2800FF358135E86A0168002909D08188001DAF
:104C3800090A891CFDF7AEF8E96A0020761C0860AD
:104C4800FDF7AEF80A99002508802046FF30C130EC
:104C58000790007C002829D0B84227DC002018E003
:104C6800804901200860FF20AD300021005901264D
:104C78000160E5E780000019FF308130006B6D1C92
:104C88008188EDB2090A001D891CFDF783F8009898
:104C9800401C00900798017C00988142EADC079844
:104CA800007C3F1A86190798002101746E4900207C
:104CB800C870FF20AD3000590168002903D0007981
:104CC800C04380073AD00698C07D002836D00698A1
:104CD800807D002832D10798007CB8422EDA5F48E0
:104CE80081781C20414361480818017A002925D1A0
:104CF80001210172A9000919FF31C06881310863D7
:104D080000281FD00520C001201881786D1C491C7F
:104D18008170FF204930005BEDB2010A2046FF3068
:104D28004930891CFDF736F806980021C1750698A8
:104D3800012181754C48761CC1707F1E0798007C44
:104D4800002802D030460BB0F0BD2046FDF72EF803
:104D5800049000283BDD002F39DD002031E020469B
:104D6800FDF72AF880000019FF3001300790C06E67
:104D78008188001D090A891CFDF70CF800281ED03F
:104D88000798C16EA8000019FF30813001630799A8
:104D98000020C8660520C001201881786D1C491CB8
:104DA80081700178EDB2491E01702046FDF70AF8BE
:104DB800E11DFF31FA31086A401C761C0862009830
:104DC800401C04990090884201DAB842C7DB2349A5
:104DD8001C228878254B5043C218107A002822D00C
:104DE8000020691E1DE083001B19FF3381331B6BF4
:104DF800D768BB4214D1884212D0A9000A19800092
:104E0800FF3200198132FF308130D16A01631348C3
:104E180081781C20414315480818C068D06202E018
:104E2800401CA842DFDB092080012018817E002970
:104E380011D0017D00290ED0428E002A0BD0817F2F
:104E4800914202D2491C817705E0002181771A211D
:104E58002046FCF7BDFFB0B275E70000300DFF1F1C
:104E68003409FF1F00140340E010FF1F488BFF1F89
:104E7800F0B589B0FCF70EFE05469A48A121807866
:104E880089004843984909684418984800680128E7
:104E980003D19748816D491C8165052D01D0042DEA
:104EA80002D12046FFF778FEFCF7E2FD9149924ACD
:104EB8000861924842610122C2600260052D17D044
:104EC800042D7DD1E08E8E4AC9685043FF22DF321F
:104ED800125B801AF8225258896C801A814A5278DB
:104EE8005208D040814200D20846FCF777FF04E020
:104EF8006079012801D0FEF7D9FAFCF7B9FD0690D0
:104F080080480078002805D0FF20113000273E4651
:104F1800009033E03420F9E72046FCF765FF81195B
:104F2800794800788142204603D2FCF75DFF80195A
:104F380005E0FCF759FF811973480078081AC0B2D8
:104F48000790684802228078009900F06DF9079967
:104F580089000919FF318131C860002813D0052064
:104F6800C001201842787F1C521C42700020CA6879
:104F7800761C1060C968FFB28880F6B22046FCF73C
:104F880039FFB042C8D85D48FF2109044268002FA4
:104F980004D08A4339040A43426025E08A43012148
:104FA800090451184160217901204A005749885461
:104FB800FF203530005D2279C007C00F520000E0A5
:104FC80015E0521850704D484030026883151A4356
:104FD800026002682379520852005B005918497828
:104FE8000A43026002218162069800F001FA4849EA
:104FF800486B484AC0B21278002A17D1464A0023A3
:10500800D356002B454BD35606DB1B040026965778
:1050180032029A18121808E0FF331B04002696572C
:1050280032029A183E4B1218D2184A63022801D24B
:10503800022002E0502800D950203A4A1278022A69
:1050480011D0394A1678394B1F78BE420FD91678D5
:105058001B78F31A801E4010434310784001C01A91
:105068001030401104E0324A1678324BECE71078E1
:105078004A69120A120210434861052D01D0042D15
:1050880016D12D480078002806D02C480078002832
:1050980002D00020FCF7B4FEFF34FF340234207B3A
:1050A800042801D0032803D1FF205F30FCF734FD2A
:1050B800022D12D122480078012807D0032805D0F4
:1050C800022803D01F480078022806D1114800782A
:1050D800002802D16C20FCF71FFD1B490120C88263
:1050E80009B0F0BD300DFF1F3409FF1F9809FF1FDD
:1050F800FC0FFF1FB06CFF1FFF3F000000100340B4
:10510800710200001709FF1F1609FF1F288BFF1FD8
:10511800800003408C09FF1F680AFF1F0000000081
:10512800FFFE0000490AFF1F440AFF1F450AFF1F30
:10513800460AFF1F470AFF1FF908FF1F2209FF1F22
:105148001C09FF1F2309FF1FBC0BFF1FF8B53148BF
:10515800A1218078890048432F49096844182646C8
:10516800FF3681360020F16A3546403508602874DC
:105178002A48C1684A050169520D49014B0DC169A8
:10518800274F39401143C1619F1A1EE0F06A016838
:1051980000291ED02349287C0978884215D280002E
:1051A8000019FF308130006B00280ED0001DFCF77D
:1051B8002DFE3F1A287C81000919FF318131096BC6
:1051C8008988090A01D0401C2874002FDEDC2D7C58
:1051D8001CE0001DFCF71AFE3F1AF16A0120086066
:1051E800F3E7A8000619FF368136316B00290BD08A
:1051F8000848807800F062F8002030630520C0017C
:1052080020188178491E81706D1CEDB2082DE8D3F5
:10521800F8BD0000300DFF1F3409FF1F4010034088
:105228000000FF071509FF1FF7B584B00C46FCF70F
:10523800D1FB1C4D1C4E2868029030681B4F019012
:10524800386800901A48816B2960C16B3160006C26
:1052580038601848002101702046FCF7DDFD04463F
:10526800029828600198306000983860114801223F
:1052780002700499104B1C256943C918002C03D0EF
:10528800087E401C087607E00698C0000B5C002BDF
:1052980002D10A5408184468FCF704FD204607B0F8
:1052A800F0BD0000D808FF1FD408FF1FDC08FF1F4F
:1052B800B06CFF1FD008FF1F488BFF1F70B50C464E
:1052C8000546FCF787FB10481C2100224D4328188F
:1052D800D100435C002B09D041184968A14205D18F
:1052E8000021D2008154FCF7DDFC70BD521CD2B203
:1052F800032AEDD3241F21884904490C2180017E0B
:10530800491E0176EFE70000488BFF1F10B50449DE
:105318000968002901D0884710BDFCF7E5FB10BDDE
:105328008002FF1F10B504498968002901D0884709
:1053380010BDFCF7D9FB10BD8002FF1F10B5044952
:105348008969002901D0884710BDFCF7CDFB10BD45
:105358008002FF1F10B504494969002901D0884718
:1053680010BDFCF7C1FB10BD8002FF1F10B504493A
:105378004968002901D0884710BDFCF7B5FB10BD6E
:105388008002FF1F10B504490969002901D0884728
:1053980010BDFCF7A9FB10BD8002FF1F10B5044922
:1053A800C968002901D0884710BDFCF79DFB10BDD6
:1053B8008002FF1F10B50A48A12180788900484360
:1053C800084909684018007907494000085C002826
:1053D80003D006490020887110BDFCF723FD10BDDD
:1053E800300DFF1F3409FF1F288BFF1FE010FF1F20
:1053F80010B50446FCF73CFBA04203D3FCF738FB8E
:10540800011B04E0FCF734FB0949091B4118094852
:10541800026A914200D20162C269914200D9C16117
:10542800426AD3009A1A5118C908416210BD000097
:10543800FFFF3F00B06CFF1FF7B58CB0054600209A
:105448000690059083E10D98007825280AD00698E3
:10545800002803D10D980690002005900598401C5F
:10546800059071E10598002806D0059881B2069844
:10547800A847002006900590002400BF0D98401C06
:105488000D900D9800782B280DD004DC20280DD025
:10549800232814D10DE02D2802D030280FD10BE09D
:1054A80010200443EAE704200443E7E70820044304
:1054B800E4E720200443E1E701200443DEE7002677
:1054C800F6430D980078302808DB0D9800783928C5
:1054D80004DC0DA800F027FF06460EE00D980078C2
:1054E8002A280AD10D98401C0D900E9840C80E909D
:1054F800002E02DA7642102004430020C0430890B0
:105508000D9800782E2821D10D98401C0D900D98EB
:105518000078302808DB0D980078392804DC0DA8BD
:1055280000F001FF08900CE00D9800782A2808D1B7
:105538000D98401C0D900E98006808900E98001D5C
:105548000E900898002801DA002008900020C04337
:1055580007900D980078682807D00D9800786C2877
:1055680003D00D9800784C2805D10D980078079045
:105578000D98401C0D900A200A900D9800786E280E
:105588007ED00CDC632817D004DC412879D0582859
:1055980073D17AE064287FD06928F9D17DE0732837
:1055A8002AD004DC6F286DD070287AD150E0752895
:1055B80076D0782875D16BE010202040002808D1DB
:1055C80004E020200490012104A8A847701E061EAC
:1055D800F7DC0E980178001D0E90C8B204900121E6
:1055E80004A8A84704E020200490012104A8A847A3
:1055F800701E061EF7DCA7E00E98006809900E984A
:10560800001D0E900998002801D159A00990089909
:105618000998FDF72FFC074610202040002809D1E3
:1056280004E020200490012104A8A8473046761EF3
:10563800B842F6DCB9B20998A84704E020200490E3
:10564800012104A8A8473046761EB842F6DC7BE064
:10565800701C002802D108260120044308980194F0
:1056680000900E9802C83346102203910E902846E7
:1056780000F01CF968E003E003E012E00CE001E050
:1056880062E061E008200A9023E04020044300BF64
:1056980010200A901DE003E000BF0220044300BF71
:1056A80017E00D980078252804D0252004900121C2
:1056B80004A8A8470D980078002806D00D9800780F
